:40000000022E7C008F828E83E0540100000070F82278FFE4F6D8FD022EDAC0E0C0F0C083C082C085C084C086758600C093759300C0D075D000C000C001C002C003C004C0AA
:4000400005C006C0077F04123BB7900090E004F0900090E0FFEFD3943B5003020D5E900091E004F0900090E4F0900091E0FFEFD3943B5003020CB7900092E004F09000917A
:40008000E4F0900092E0FFEFD39417500302054D900094E004F0900092E4F0900095E475F001121AA8900093E004F0900093E0FFEFD3940740069000937401F09000A5E0ED
:4000C000FFEF5402FF7E00EF4E602C900097E0FFEFB40223900097E0FFEF9044CA93FF7E00EF2401FFEE3400FE900094E0FD7C00D3ED9FEC9E50589000A5E0FFEF5402FF6C
:400100007E00EF4E601F900097E0FFEF64026015900097E0FFEF9044CA93FF900094E0FEEED39F502A9000A5E0FFEF5402FF7E00EF4E6003020392900097E0FFEF9044CA14
:4001400093FF900094E0FEEED39F5003020392900097E004F09000947401F0900097E0FFEFD3940C5003020293900098E475F001121AA89000977401F0900095E4F0A374E9
:4001800001F0900098E0FEA3E0FF7C017D90121A53ED4C6025900098E0FEA3E0FF7E00EF5403FFEF4E7017900098E0FEA3E0FF7C007D64121A53ED4C60047F0180027F006E
:4001C000EFB401109000A5E0FFEF4402FF9000A5EFF0800E9000A5E0FFEF54FDFF9000A5EFF090009AE0FFEF5480FF7E00EF64804E70047F0180027F00EF6036900098E00E
:40020000FEA3E0FF9000A3E0FCA3E0FDEDB50714ECB506109000A6E0FFEF4480FF9000A6EFF0800E9000A6E0FFEF547FFF9000A6EFF090009AE0FF9000C6EFF09000C6E072
:40024000FFEF60329000C6E0FF9000A6E0FEEE5FFF9000C6E0FEEFB506047F0180027F00EF60139000A5E0FFEF4408FF9000A5EFF09000A6E4F090008FE0FFEF5440FF7E3A
:4002800000EF64404E70047F0180027F00EF60031244A690009AE0FFEF5440FF7E00EF64404E70047F0180027F00EF602C900097E0FF9000A2E0FEEEB507109000A6E0FFDB
:4002C000EF4440FF9000A6EFF0800E9000A6E0FFEF54BFFF9000A6EFF0900097E0FF90008EE0FEEEB50710900089E0FFEF4404FF900089EFF0800E900089E0FFEF54FBFF19
:40030000900089EFF0900097E0FF900087E0FEEEB50710900082E0FFEF4404FF900082EFF0800E900082E0FFEF54FBFF900082EFF090009AE0FF9000C6EFF09000C6E0FFD8
:40034000EF60329000C6E0FF9000A6E0FEEE5FFF9000C6E0FEEFB506047F0180027F00EF60139000A5E0FFEF4408FF9000A5EFF09000A6E4F090008FE0FFEF5420FF7E0058
:40038000EF64204E70047F0180027F00EF60031244A590009AE0FFEF5408FF7E00EF64084E70047F0180027F00EF602C900093E0FF90009EE0FEEEB507109000A6E0FFEF84
:4003C0004408FF9000A6EFF0800E9000A6E0FFEF54F7FF9000A6EFF090009AE0FFEF5420FF7E00EF64204E70047F0180027F00EF6036900095E0FEA3E0FF9000A0E0FCA354
:40040000E0FDEDB50714ECB506109000A6E0FFEF4420FF9000A6EFF0800E9000A6E0FFEF54DFFF9000A6EFF090009AE0FFEF5410FF7E00EF64104E70047F0180027F00EFA8
:40044000602C900094E0FF90009FE0FEEEB507109000A6E0FFEF4410FF9000A6EFF0800E9000A6E0FFEF54EFFF9000A6EFF0900094E0FF90008DE0FEEEB50710900089E020
:40048000FFEF4402FF900089EFF0800E900089E0FFEF54FDFF900089EFF0900094E0FF900086E0FEEEB50710900082E0FFEF4402FF900082EFF0800E900082E0FFEF54FDCE
:4004C000FF900082EFF090009AE0FF9000C6EFF09000C6E0FFEF60329000C6E0FF9000A6E0FEEE5FFF9000C6E0FEEFB506047F0180027F00EF60139000A5E0FFEF4408FF70
:400500009000A5EFF09000A6E4F090008FE0FFEF5408FF7E00EF64084E70047F0180027F00EF60031244A3900093E0FFEFB4011D90008FE0FFEF5410FF7E00EF64104E703C
:40054000047F0180027F00EF60031244A4900092E0FFEFC3940C50109000A5E0FFEF54FBFF9000A5EFF0800E9000A5E0FFEF4404FF9000A5EFF0900092E0FF90008AE0FEAD
:40058000EEB50710900089E0FFEF4401FF900089EFF0800E900089E0FFEF54FEFF900089EFF0900092E0FF900083E0FEEEB50710900082E0FFEF4401FF900082EFF0800E51
:4005C000900082E0FFEF54FEFF900082EFF0900088E0FFEF5401FF7E00EF64014E70047F0180027F00EF7003020C109000A5E0FFEF5401FF7E00EF64014E70047F0180021D
:400600007F00EF70030207FF900089E0FFEF5407FF7E00EF64074E70047F0180027F00EF7003020A5A900091E0FB9000A7E0FF7E007C007D3C121A53AF05C3EB9FFF9000D9
:4006400091EFF0900091E0FFEFD3943B4018900091E0FFEFF4FFC3743B9FFF900091EFF0900092E014F0900092E0FB9000A7E0FF7E007C007D3C121A53C3EB9FFF90009276
:40068000EFF0900092E0FFEFD3941750030207E9900092E0FFEFF4FFC374179FFF900092EFF0900092E0FFEFC3940C50109000A5E0FFEF54FBFF9000A5EFF0800E9000A5FD
:4006C000E0FFEF4404FF9000A5EFF0900094E014F090009574FF75F0FF121AA8900093E014F0900093E0FFEF70069000937407F0900094E0FFEF60030207E6900097E0149E
:40070000F0900097E0FFEF60030207A6900097740CF0900097E0FFEF9044CA93FF900094EFF090009874FF75F0FF121AA8900098E0FEA3E0FF7C017D90121A53ED4C6025E1
:40074000900098E0FEA3E0FF7E00EF5403FFEF4E7017900098E0FEA3E0FF7C007D64121A53ED4C60047F0180027F00EFB4011A9000A5E0FFEF4402FF9000A5EFF0900095A9
:400780007401F0A3746EF080189000A5E0FFEF54FDFF9000A5EFF09000957401F0A3746DF01244A6803D9000A5E0FFEF5402FF7E00EF4E601E900097E0FFEFB402159000C8
:4007C00097E0FFEF9044CA93FFEF04FF900094EFF08010900097E0FFEF9044CA93FF900094EFF01244A51244A39000A5E0FFEF54FEFF9000A5EFF0900089E4F0020A5A9078
:400800000082E0FFEF5407FF7E00EF64074E70047F0180027F00EF7003020A5A9000A7E0FF7E007C007D3C121A53AF05900091E02FF0900091E0FFEFD3943B400D90009110
:40084000E024C4F0900092E004F09000A7E0FF7E007C007D3C121A53900092E02FF0900092E0FFEFD3941750030209EF900092E024E8F0900092E0FFEFC3940C5010900065
:40088000A5E0FFEF54FBFF9000A5EFF0800E9000A5E0FFEF4404FF9000A5EFF0900094E004F0900095E475F001121AA8900093E004F0900093E0FFEFD3940740069000937D
:4008C0007401F09000A5E0FFEF5402FF7E00EF4E602C900097E0FFEFB40223900097E0FFEF9044CA93FF7E00EF2401FFEE3400FE900094E0FD7C00D3ED9FEC9E50589000B2
:40090000A5E0FFEF5402FF7E00EF4E601F900097E0FFEF64026015900097E0FFEF9044CA93FF900094E0FEEED39F502A9000A5E0FFEF5402FF7E00EF4E60030209EC9000E7
:4009400097E0FFEF9044CA93FF900094E0FEEED39F50030209EC900097E004F09000947401F0900097E0FFEFD3940C407C9000977401F0900098E475F001121AA890009894
:40098000E0FEA3E0FF7C017D90121A53ED4C6025900098E0FEA3E0FF7E00EF5403FFEF4E7017900098E0FEA3E0FF7C007D64121A53ED4C60047F0180027F00EFB40110903B
:4009C00000A5E0FFEF4402FF9000A5EFF0800E9000A5E0FFEF54FDFF9000A5EFF0900095E4F0A37401F01244A61244A51244A39000A5E0FFEF4401FF9000A5EFF0900082D8
:400A0000E4F0900097E0FF90008EE0FEEEB50710900089E0FFEF4404FF900089EFF0800E900089E0FFEF54FBFF900089EFF0900094E0FF90008DE0FEEEB50710900089E094
:400A4000FFEF4402FF900089EFF0800E900089E0FFEF54FDFF900089EFF090009AE0FFEF5408FF7E00EF64084E70047F0180027F00EF602C900093E0FF90009EE0FEEEB5F3
:400A800007109000A6E0FFEF4408FF9000A6EFF0800E9000A6E0FFEF54F7FF9000A6EFF090009AE0FFEF5420FF7E00EF64204E70047F0180027F00EF6036900095E0FEA300
:400AC000E0FF9000A0E0FCA3E0FDEDB50714ECB506109000A6E0FFEF4420FF9000A6EFF0800E9000A6E0FFEF54DFFF9000A6EFF090009AE0FFEF5410FF7E00EF64104E70C8
:400B0000047F0180027F00EF602C900094E0FF90009FE0FEEEB507109000A6E0FFEF4410FF9000A6EFF0800E9000A6E0FFEF54EFFF9000A6EFF090009AE0FFEF5440FF7E8D
:400B400000EF64404E70047F0180027F00EF602C900097E0FF9000A2E0FEEEB507109000A6E0FFEF4440FF9000A6EFF0800E9000A6E0FFEF54BFFF9000A6EFF090009AE0F5
:400B8000FFEF5480FF7E00EF64804E70047F0180027F00EF6036900098E0FEA3E0FF9000A3E0FCA3E0FDEDB50714ECB506109000A6E0FFEF4480FF9000A6EFF0800E9000D6
:400BC000A6E0FFEF547FFF9000A6EFF090009AE0FF9000C6EFF09000C6E0FFEF60329000C6E0FF9000A6E0FEEE5FFF9000C6E0FEEFB506047F0180027F00EF60139000A517
:400C0000E0FFEF4408FF9000A5EFF09000A6E4F090009AE0FFEF5404FF7E00EF64044E70047F0180027F00EF602C900092E0FF90009DE0FEEEB507109000A6E0FFEF440489
:400C4000FF9000A6EFF0800E9000A6E0FFEF54FBFF9000A6EFF090009AE0FF9000C6EFF09000C6E0FFEF60329000C6E0FF9000A6E0FEEE5FFF9000C6E0FEEFB506047F0180
:400C800080027F00EF60139000A5E0FFEF4408FF9000A5EFF09000A6E4F090008FE0FFEF5404FF7E00EF64044E70047F0180027F00EF60031244A290009AE0FFEF5402FF72
:400CC0007E00EF64024E70047F0180027F00EF602C900091E0FF90009CE0FEEEB507109000A6E0FFEF4402FF9000A6EFF0800E9000A6E0FFEF54FDFF9000A6EFF090009A20
:400D0000E0FF9000C6EFF09000C6E0FFEF60329000C6E0FF9000A6E0FEEE5FFF9000C6E0FEEFB506047F0180027F00EF60139000A5E0FFEF4408FF9000A5EFF09000A6E413
:400D4000F090008FE0FFEF5402FF7E00EF64024E70047F0180027F00EF60031244A190009AE0FFEF5401FF7E00EF64014E70047F0180027F00EF602C900090E0FF90009BDC
:400D8000E0FEEEB507109000A6E0FFEF4401FF9000A6EFF0800E9000A6E0FFEF54FEFF9000A6EFF090009AE0FF9000C6EFF09000C6E0FFEF60329000C6E0FF9000A6E0FE09
:400DC000EE5FFF9000C6E0FEEFB506047F0180027F00EF60139000A5E0FFEF4408FF9000A5EFF09000A6E4F090008FE0FFEF5401FF7E00EF64014E70047F0180027F00EF31
:400E000060031244A0D007D006D005D004D003D002D001D000D0D0D093D086D084D085D082D083D0F0D0E032900095E4F0A3E4F0900094E0FF7E00900095EE8FF0121AA81D
:400E4000900098E0FEA3E0FF7C017D90121A53ED4C6025900098E0FEA3E0FF7E00EF5403FFEF4E7017900098E0FEA3E0FF7C007D64121A53ED4C60047F0180027F00EFB4EF
:400E800001109000A5E0FFEF4402FF9000A5EFF0800E9000A5E0FFEF54FDFF9000A5EFF09000A9E4F0900097E0FF7E00EF24FFFFEE34FFFE9000A9E0FD7C00C3ED9FEC9EA4
:400EC000501E9000A9E0FFEF9044CB93FF7E00900095EE8FF0121AA89000A9E004F080C59000A5E0FFEF5402FF7E00EF64024E70047F0180027F00EF6015900097E0FFEF4F
:400F0000D39402400A900095E475F001121AA8900094E0FF900097E0FD900098E0FAA3E0FB123360EF04FF900093EFF0900093E0FFEFD394004009900093E02400F0801350
:400F4000900093E0FFEFF404FFC374079FFF900093EFF0900088E0FFEF5402FF7E00EF64024E70047F0180027F00EF6003122D75900087E0FF900097E0FEEED39F40109019
:400F800000A5E0FFEF4401FF9000A5EFF08058900087E0FF900097E0FEEE6F704A900086E0FF900094E0FEEED39F40109000A5E0FFEF4401FF9000A5EFF0802B900086E0D9
:400FC000FF900094E0FEEEB5071D900083E0FF900092E0FEEED39F400E9000A5E0FFEF4401FF9000A5EFF090008EE0FF900097E0FEEED39F40109000A5E0FFEF54FEFF9098
:4010000000A5EFF0805890008EE0FF900097E0FEEE6F704A90008DE0FF900094E0FEEED39F40109000A5E0FFEF54FEFF9000A5EFF0802B90008DE0FF900094E0FEEEB507D2
:401040001D90008AE0FF900092E0FEEED39F400E9000A5E0FFEF54FEFF9000A5EFF0900082E4F0900089E4F0900097E0FF90008EE0FEEEB50710900089E0FFEF4404FF90F7
:401080000089EFF0800E900089E0FFEF54FBFF900089EFF0900097E0FF900087E0FEEEB50710900082E0FFEF4404FF900082EFF0800E900082E0FFEF54FBFF900082EFF093
:4010C000900094E0FF90008DE0FEEEB50710900089E0FFEF4402FF900089EFF0800E900089E0FFEF54FDFF900089EFF0900094E0FF900086E0FEEEB50710900082E0FFEFC6
:401100004402FF900082EFF0800E900082E0FFEF54FDFF900082EFF0900092E0FF90008AE0FEEEB50710900089E0FFEF4401FF900089EFF0800E900089E0FFEF54FEFF909E
:401140000089EFF0900092E0FF900083E0FEEEB50710900082E0FFEF4401FF900082EFF0800E900082E0FFEF54FEFF900082EFF0900088E0FFEF5401FF7E00EF64014E70CC
:40118000047F0180027F00EF70030214989000A5E0FFEF5401FF7E00EF64014E70047F0180027F00EF7003021342900082E0FFEF5407FF7E00EF64074E70047F0180027F20
:4011C00000EF7003021498900091E0FB9000A7E0FF7E007C007D3C121A53AF05C3EB9FFF900091EFF0900091E0FFEFD3943B4018900091E0FFEFF4FFC3743B9FFF9000919F
:40120000EFF0900092E014F0900092E0FB9000A7E0FF7E007C007D3C121A53C3EB9FFF900092EFF0900092E0FFEFD39417500302132C900092E0FFEFF4FFC374179FFF90D6
:401240000092EFF0900094E014F090009574FF75F0FF121AA8900093E014F0900093E0FFEF70069000937407F0900094E0FFEF600302132C900097E014F0900097E0FFEF93
:40128000600302131C900097740CF0900097E0FFEF9044CA93FF900094EFF090009874FF75F0FF121AA8900098E0FEA3E0FF7C017D90121A53ED4C6025900098E0FEA3E030
:4012C000FF7E00EF5403FFEF4E7017900098E0FEA3E0FF7C007D64121A53ED4C60047F0180027F00EFB4011A9000A5E0FFEF4402FF9000A5EFF09000957401F0A3746EF0CD
:40130000802A9000A5E0FFEF54FDFF9000A5EFF09000957401F0A3746DF08010900097E0FFEF9044CA93FF900094EFF09000A5E0FFEF54FEFF9000A5EFF0900089E4F0028F
:401340001498900082E0FFEF5407FF7E00EF64074E70047F0180027F00EF70030214989000A7E0FF7E007C007D3C121A53AF05900091E02FF0900091E0FFEFD3943B400D62
:40138000900091E024C4F0900092E004F09000A7E0FF7E007C007D3C121A53900092E02FF0900092E0FFEFD394175003021485900092E024E8F0900094E004F0900095E49A
:4013C00075F001121AA8900093E004F0900093E0FFEFD3940740069000937401F0900097E0FFEF9044CA93FF900094E0FEEED39F5003021485900097E004F0900094740186
:40140000F0900097E0FFEFD3940C40799000977401F0900098E475F001121AA8900098E0FEA3E0FF7C017D90121A53ED4C6025900098E0FEA3E0FF7E00EF5403FFEF4E7082
:4014400017900098E0FEA3E0FF7C007D64121A53ED4C60047F0180027F00EFB401109000A5E0FFEF4402FF9000A5EFF0800E9000A5E0FFEF54FDFF9000A5EFF0900095E4C5
:40148000F0A37401F09000A5E0FFEF4401FF9000A5EFF0900082E4F0900092E0FFEFC3940C50109000A5E0FFEF54FBFF9000A5EFF0800E9000A5E0FFEF4404FF9000A5EFDF
:4014C000F090009AE0FFEF5401FF7E00EF64014E70047F0180027F00EF602C900090E0FF90009BE0FEEEB507109000A6E0FFEF4401FF9000A6EFF0800E9000A6E0FFEF541B
:40150000FEFF9000A6EFF090009AE0FFEF5402FF7E00EF64024E70047F0180027F00EF602C900091E0FF90009CE0FEEEB507109000A6E0FFEF4402FF9000A6EFF0800E907B
:4015400000A6E0FFEF54FDFF9000A6EFF090009AE0FFEF5404FF7E00EF64044E70047F0180027F00EF602C900092E0FF90009DE0FEEEB507109000A6E0FFEF4404FF90000F
:40158000A6EFF0800E9000A6E0FFEF54FBFF9000A6EFF090009AE0FFEF5408FF7E00EF64084E70047F0180027F00EF602C900093E0FF90009EE0FEEEB507109000A6E0FFEA
:4015C000EF4408FF9000A6EFF0800E9000A6E0FFEF54F7FF9000A6EFF090009AE0FFEF5420FF7E00EF64204E70047F0180027F00EF6036900095E0FEA3E0FF9000A0E0FCF6
:40160000A3E0FDEDB50714ECB506109000A6E0FFEF4420FF9000A6EFF0800E9000A6E0FFEF54DFFF9000A6EFF090009AE0FFEF5410FF7E00EF64104E70047F0180027F00E2
:40164000EF602C900094E0FF90009FE0FEEEB507109000A6E0FFEF4410FF9000A6EFF0800E9000A6E0FFEF54EFFF9000A6EFF090009AE0FFEF5440FF7E00EF64404E700472
:401680007F0180027F00EF602C900097E0FF9000A2E0FEEEB507109000A6E0FFEF4440FF9000A6EFF0800E9000A6E0FFEF54BFFF9000A6EFF090009AE0FFEF5480FF7E00C0
:4016C000EF64804E70047F0180027F00EF6036900098E0FEA3E0FF9000A3E0FCA3E0FDEDB50714ECB506109000A6E0FFEF4480FF9000A6EFF0800E9000A6E0FFEF547FFF84
:401700009000A6EFF090009AE0FF9000AAEFF09000AAE0FFEF60329000AAE0FF9000A6E0FEEE5FFF9000AAE0FEEFB506047F0180027F00EF60139000A5E0FFEF4408FF90D8
:4017400000A5EFF09000A6E4F022EC4D6011E8497017ED33EC3304600DE4FCFFFEFD22E933E8330470F8021A131219DE58046009E4CC24815006285009021A1D2840030239
:401780001A1AC0E0EB4A7044B98006D0E0FB021A09EF4E701CBD8008EBFFEAFEE9FD80EBE98DF0A4FEE5F0021833E9CDF9EAFEEBFFEF89F0A4FCE5F0CE89F0A42EFFE43573
:4017C000F0CD89F0A42DFEE435F08067EF4E7005BD80D780C3EF8BF0A4ACF0EE8BF0A42CFCE435F0F8EF8AF0A42CE5F038FCE433CB8DF0A42CFCE5F03BF8EE8AF0A42CFC62
:40180000E5F038F8E433CF89F0A42CFCE5F038CF3400CE89F0A42FFFE5F03EFEE433C98DF0A42EFEE5F039CD8AF0A42FFFE5F03EFEE43DFD33D0E0FB50070BBB000F021A95
:401840001DEC2CFCEF33FFEE33FEED33FD0219F5021A1DEC5D046005E859047003021A131219DE580460F6EC4860F2EC7004FDFEFF22C860DB2481C85009C398600250065F
:40188000021A1A9850CAF582E9294B4A7005AB82021A0975F0007C1A7880C3EF9BEE9AED99400DC3EF9BFFEE9AFEED99FDE842F0DC23ACF0D0E0FFD0E0FED0E0FDAB82205F
:4018C000E7101BEB60BAEC2CFCEF33FFEE33FEED33FD0219F5E803F830E705C0F075F000EF2FFFEE33FEED33FD40B830E7C280AA74F8CC6480CCC86480C8F58204604FC39F
:40190000EB9FF5F0EA9E42F0E99D42F0E89C45F0603C501DE5825FFFE582D313CB5BCBF42B5582FB50280ABA002409B9002008801DE5825BFBE582D313CF5FCFF4C3132F29
:401940005582FF50090EBE00050DBD00010CC3EB9FF5F0EA9E42F0E99D42F0E89C45F06007CC4820E701B3EC2275F020800E75F010800575F0087D007E007F003392D53031
:40198000D503121C2EEC334010EF33FFEE33FEED33FDEC33FCD5F0ED22E5F0247EA2D513CC92E7CDCEFF22EDD2E7CD33EC3392D524814006E4FFFEFDFC22FCE4CFCECDCC0D
:4019C00024E0501174FF80EDC3CC13CCCD13CDCE13CECF13CF0470F030D5DE021C2EE9D2E7C933E833F892D5EDD2E7CD33EC33FC5002B2D522EC30E7100FBF000C0EBE0007
:401A0000080DBD00040BEB6014A2D5EB13FCED92E7FD2274FFFCFDFEFF22E480F8A2D574FF13FC7D80E480EFBB010689828A83E0225002E722BBFE02E32289828A83E493BA
:401A400022BB010689828A83F0225002F722BBFE01F322BC000BBE0029EF8DF084FFADF022E4CCF875F008EF2FFFEE33FEEC33FCEE9DEC984005FCEE9DFE0FD5F0E9E4CE0E
:401A8000FD22EDF8F5F0EE8420D21CFEADF075F008EF2FFFED33FD4007985006D5F0F222C398FD0FD5F0EA22C5F0F8A3E028F0C5F0F8E582158270021583E038F022BB0152
:401AC0000A89828A83E0F5F0A3E022500687F009E71922BBFE07E3F5F009E3192289828A83E493F5F074019322EF2BFFEE3AFEED39FDEC38FC22C3EF9BFFEE9AFEED99FD1C
:401B0000EC98FC22E88FF0A4CC8BF0A42CFCE98EF0A42CFC8AF0EDA42CFCEA8EF0A4CDA8F08BF0A42DCC3825F0FDE98FF0A42CCD35F0FCEB8EF0A4FEA9F0EB8FF0A4CFC540
:401B4000F02ECD39FEE43CFCEAA42DCE35F0FDE43CFC2275F008758200EF2FFFEE33FECD33CDCC33CCC58233C5829BED9AEC99E58298400CF582EE9BFEED9AFDEC99FC0F41
:401B8000D5F0D6E4CEFBE4CDFAE4CCF9A88222B800C1B90059BA002DEC8BF084CFCECDFCE5F0CBF97818EF2FFFEE33FEED33FDEC33FCEB33FB10D703994004EB99FB0FD897
:401BC000E5E4F9FA227818EF2FFFEE33FEED33FDEC33FCC933C910D7059BE99A4007EC9BFCE99AF90FD8E0E4C9FAE4CCFB2275F010EF2FFFEE33FEED33FDCC33CCC833C857
:401C000010D7079BEC9AE899400AED9BFDEC9AFCE899F80FD5F0DAE4CDFBE4CCFAE4C8F922EF4BFFEE4AFEED49FDEC48FC22C3E49FFFE49EFEE49DFDE49CFC22EB9FF5F03B
:401C4000EA9E42F0E99D42F0E89C45F022E8600FECC313FCED13FDEE13FEEF13FFD8F122E8600FEFC333FFEE33FEED33FDEC33FCD8F122BB010789828A83021CAD5005E9B9
:401C8000F8021D66BBFE05E9F8021D7289828A83021D7EBB010789828A83021CC55005E9F8021D8EBBFE05E9F8021D9A22E0FCA3E0FDA3E0FEA3E0FF22E0F8A3E0F9A3E04F
:401CC000FAA3E0FB22ECF0A3EDF0A3EEF0A3EFF022E0FBA3E0FAA3E0F922EBF0A3EAF0A3E9F022E493FB740193FA740293F922D083D082F8E4937012740193700DA3A39351
:401D0000F8740193F5828883E4737402936860EFA3A3A380DFE50C2582F582E50B3583F583B50B0485820C2210AF0685820CF50B2285820CF50BD2AF22EC8EF0A4CCC5F05B
:401D4000CCCDF8EFA4CEC5F02DFDE43CFCE8A42EC8C5F03DFDE43CFCEFA4FFE5F028FEE43DFDE43CFC22E6FC08E6FD08E6FE08E6FF22E2FC08E2FD08E2FE08E2FF22E49309
:401D8000FC740193FD740293FE740393FF22ECF608EDF608EEF608EFF622ECF208EDF208EEF208EFF22212426E124259124283124178123EE91242981244907E447F94126D
:401DC00040E07E3F7FD11240FF124195D2AF9044F474FDF07F01123E7E7D007F00123ABB7BFF7A3F796F123C077D007F01123ABB7BFF7A3F7978123C077F011243791243F2
:401E0000FDC2019000577480F0A3E4F0900081E4F0900081E0FFEFC394035036900081E0FF900057E0FCA3E0FD8D828C83E5822FF582E43583F583E0FF900081E0FE7464E4
:401E40002EF582E43400F583EFF0900081E004F080BF90007AE0FEA3E0FFEEFF7E00900077EFF0900064E0FF7E0090007AEEF0A3EFF090007AE0FEA3E0FFEF7F00FE90004E
:401E80007AEEF0A3EFF0900065E0FF7E0090007AEEF0A3EFF0900066E0FF90006FEFF0900067E0FF90006AEFF0300305C2031235417F00123E09EF7003021F7312365E90A1
:401EC000007FEEF0A3EFF090007FE0FEA3E0FFEF24F1FDEE34FFFCE412196E7B007A00792078401218531219A7900062EEF0A3EFF0900062E0FEA3E0FF900070EEF0A3EF50
:401F0000F0900062E0FEA3E0FFD3EF9498EE943A4008900062E4F0A3E4F0900070E0FEA3E0FFD3EF9463EE94004030900070E0FEA3E0FF7C007D64121A5390006BEEF0A36D
:401F4000EFF0900070E0FEA3E0FF7C007D64121A5390006DECF0A3EDF0801890006BE4F0A3E4F0900070E0FEA3E0FF90006DEEF0A3EFF0200403022097C20412447E900048
:401F800074EFF0900074E0FFEF121CEF202A041F9C811FC88220138400002066900068E0FEA3E0FFC3EF945FEE64809480400C900068E4F0A37464F0022066900068E47570
:401FC000F005121AA802206620022A900068E0FEA3E0FFD3EF9405EE64809480500A900068E4F0A3E4F0807E90006874FF75F0FB121AA8807190006AE4F090006FE4F0904F
:40200000007AE4F0A3E4F07F00124369D206123541805330010AC2011243F11243CD8046D201124283124259803C300229C2027F01123E7E7D007F00123ABB7BFF7A3F7910
:402040006F123C077D007F01123ABB7BFF7A3F7978123C078010D2027F01123E7E7BFF7A3F7981123C07900068E0FEA3E0FF124349900068E0FEA3E0FF124309900068E067
:40208000FEA3E0FFC3EF9405EE648094805008C2011243F11243CD200003021EA9C20030020302213B7F01123E7E7D007F00123ABB7BFF7A3F796F123C077D007F01123AA1
:4020C000BB7BFF7A3F7978123C077D087F00123ABB1244787E00E4FCFD12304D7BFF7A3F7988123C077D0D7F00123ABB30010B7BFF7A3F798B123C0780097BFF7A3F798FC4
:40210000123C077D087F01123ABB90006BE0FEA3E0FFE4FCFD12304D7BFF7A3F7993123C0790006DE0FEA3E0FFE4FCFD12304D7BFF7A3F7995123C07021EA97D067F0012A7
:402140003ABB90007AE0FEA3E0FFE4FCFD12304D7BFF7A3F799A123C0790006FE0FFEF75F00A84FF7E00E4FCFD12304D90006FE0FFEF75F00A84AFF07E00E4FCFD12304D07
:402180007BFF7A3F799A123C0790006AE0FFEF75F00A84FF7E00E4FCFD12304D90006AE0FFEF75F00A84AFF07E00E4FCFD12304D7BFF7A3F799C123C07021EA922904698A6
:4021C000E0FF9000A9EFF07B007A4079807D007C001243989040827450F07B007A4079847D0F7C001243989040867418F07B007A4079887DEF7C0012439890408A7418F0F4
:402200007B007A40798C7D4F7CC312439890408E7419F07B007A4079907D997C19124398904092741DF07B087A0279C8C003C002C0017B007A4179009000B4121CDAD00186
:40224000D002D0037F047E00123F3B9043007402F09040007408F090430A74F3F09046987403F09043097484F09043087405F07FA07E867D017C009000AA121CC59000AA22
:40228000121CADD3EF9400EE94004033904308E0FFEF5420FF7E00EF4E70247FE07E017D007C00123F009000AA121CAD7BFF7AFF79FF78FF121AE99000AA121CC580BE905E
:4022C00000A9E0FF904698EFF09042007403F07B0C7A0179081244099046A1EFF07B007A4279227D087C001243987B007A4279207D517C121243989000AEE4F07F197E0097
:402300007D007C009000AA121CC59000AA121CADD3EF9400EE9400404E9000AEE0FFEF64036044904225E0FFEF5401FF7E009000AEE0FEEE25E0FEEE4FFFEF5403FF900030
:40234000AEEFF07FE07E017D007C00123F009000AA121CAD7BFF7AFF79FF78FF121AE99000AA121CC580A39000AA121CADEF4E70057F031242D77B007A4079047D007C012C
:402380001243989040047407F0904006E4F09040087448F0904004E4F09040017402F090400B7404F09043A2E0FFEF441FFF9043A2EFF09043A1E0FFEF4401FF9043A1EFBF
:4023C000F09043A0E0FFEF4480FF9043A0EFF0229000A9EFF09000AAECF0A3EDF09000ACEAF0A3EBF09000AFE0FFEFD3940050030225CF9000AFE0FFEFD394014003022597
:40240000CF9000A9E0FFEF121CEF241D01241D04244A0724750824A00A000024CB9000AEE0FFEFD3940F40117B0C7A0179181244099000B0EFF00224D07B0C7A01791C12CC
:4024400044099000B0EFF00224D09000AEE0FFEFD3940F40107B0C7A0179191244099000B0EFF0806B7B0C7A01791D1244099000B0EFF0805B9000AEE0FFEFD3940F401068
:402480007B0C7A01791A1244099000B0EFF080407B0C7A01791E1244099000B0EFF080309000AEE0FFEFD3940F40107B0C7A01791B1244099000B0EFF080157B0C7A01798C
:4024C0001F1244099000B0EFF080059000B0E4F09000B0E0FFEF3395E0FEFDFC7B207A0079007800121B04A804A905AA06AB079000AAE0FEA3E0FFE4FCFD121AE99000B139
:40250000121CC59000B1121CADAB07AA06A905A804A804A905AA06AB079000ACE0FEA3E0FFE4FCFD121B049000B7121CC57B007A80790078009000B7121CAD121B8F90005C
:40254000B5EEF0A3EFF09000AEE0FFEFC3940E50479000B5E0FEA3E0FF9000AEE0FDC3740E9DFDEFA805088005CEC313CE13D8F9FF9000B5EEF0A3EFF09000AEE0FFEF046C
:40258000FF9000AFE0FEEE75F003A424C9F582E43400F583EFF080169000AFE0FFEF75F003A424C9F582E43400F583740FF09000B5E0FEA3E0FF9000AFE0FDED75F003A462
:4025C00024C7F582E43400F583EEF0A3EFF0227F001242C2227B007A4679E8124409EF4405FD7B007A4679E8124415750A00E50AC39406503AAF0AEF75F005A424ADF58226
:40260000E43444F583AF82AE838E088F09AE08AF098F828E83121CE3AE08AF098F828E83740393FC740493FD1241E6050A80BF7B087A007900124001905883740AF07B0152
:402640007A507903124409EF4402FD7B017A5079031244157B017A507913124409EF4402FD7B017A5079131244159043A0E0FFEF4440FF9043A0EFF09043C2E0FFEF4410E9
:40268000FF9043C2EFF07B087A027990C003C002C0017B007A5179009000B4121CDAD001D002D0037F0A7E00123F3B7B087A02799CC003C002C0017B007A5179C29000B426
:4026C000121CDAD001D002D0037F087E00123F3B7B087A0279A4C003C002C0017B007A5179F09000B4121CDAD001D002D0037F0A7E00123F3B7B087A0279B0C003C002C0F8
:40270000017B007A5179129000B4121CDAD001D002D0037F087E00123F3B7B087A0279B8C003C002C0017B007A5179229000B4121CDAD001D002D0037F087E00123F3B7B4F
:40274000087A0279C0C003C002C0017B007A5179329000B4121CDAD001D002D0037F087E00123F3B9044F47401F0904322E0FFEF4408FF904322EFF09046ECE0FFEFC3941C
:40278000055006904689743AF090480074F1F01221BD90480074B1F0123D367B007A4379A0C003C002C0017B007A4379B09000B4121CDAD001D002D0037F0E7E00123F3BE1
:4027C0009043B0E0FFEF54FDFFEFF0229000AAEEF0A3EFF09000ACEDF012442B9000AEEFF01244219000AFEEF0A3EFF09000AFE0FEA3E0FF9000AAE0FCA3E0FDED6F7002CD
:40280000EC6E70030229609043A1E0FFEF5401FF9000ADEFF09000AEE0FFEF705E9000AFE0FEA3E0FFEF4E600C9000AAE0FEA3E0FFEF4E70469000AFE0FEA3E0FFEF4E7093
:402840001D7B027A4179009000AAE0FCA3E0FD12439A904102E0FFEF54BFFFEFF022904102E0FFEF4440FFEFF07B027A4179009000AAE0FCA3E0FD12439A229000ADE0FFDA
:40288000EF606C904001E4F09040147401F0904010E4F0904008E0FFEF547FFFEFF0904102E0FFEF5408FF7E00EF4E600C9000AAE0FEA3E0FFEF4E70367B027A4079029082
:4028C00000AFE0FCA3E0FD12439A9040017407F0904001E0FFEF5401FF7E00EF4E70F19043A1E0FFEF54FEFFEFF0904001E4F09043A1E0FFEF5401FF7E00EF4E603A7B0214
:402900007A4079029000AAE0FCA3E0FD12439A9000ACE0FFEF60047F0280027F00EF4401FF904001EFF0904001E0FFEF5401FF7E00EF4E602B80EF227B027A4179009000FF
:40294000AAE0FCA3E0FD12439A9043A1C083C082E0FF9000ADE0FEEF4EFFD082D083EFF0229000AAEEF0A3EFF09000ACEDF012443F9000AEEFF01244359000AFEEF0A3EFEE
:40298000F09000AFE0FEA3E0FF9000AAE0FCA3E0FDED6F7002EC6E7003022AF59043A2E0FFEF5401FF9000ADEFF09000AEE0FFEF705E9000AFE0FEA3E0FFEF4E600C9000D1
:4029C000AAE0FEA3E0FFEF4E70469000AFE0FEA3E0FFEF4E701D7B027A4079809000AAE0FCA3E0FD12439A904082E0FFEF54BFFFEFF022904082E0FFEF4440FFEFF07B028A
:402A00007A4079809000AAE0FCA3E0FD12439A229000ADE0FFEF606C904001E4F09040107401F0904014E4F0904008E0FFEF547FFFEFF0904082E0FFEF5408FF7E00EF4E36
:402A4000600C9000AAE0FEA3E0FFEF4E70367B027A4079029000AFE0FCA3E0FD12439A9040017407F0904001E0FFEF5401FF7E00EF4E70F19043A2E0FFEF54FEFFEFF090E3
:402A80004001E4F09043A2E0FFEF5401FF7E00EF4E603A7B027A4079029000AAE0FCA3E0FD12439A9000ACE0FFEF60047F0280027F00EF4401FF904001EFF0904001E0FF5B
:402AC000EF5401FF7E00EF4E602B80EF227B027A4079809000AAE0FCA3E0FD12439A9043A2C083C082E0FF9000ADE0FEEF4EFFD082D083EFF0227F947E017D007C00900016
:402B0000C2121CC5905120E0FFEF5480FFEFF0905122E0FFEF54F0FF9000C1EFF09000C1E0FFEF440FFF905122EFF0905123E0FFEF54F0FF9000C1EFF09000C1E0FF905172
:402B400023EFF0905124E0FFEF54F0FF9000C1EFF09000C1E0FF905124EFF0905120E0FFEF54DFFFEFF0905120E0FFEF4440FFEFF07F007E00123FD4905120E0FFEF4410A3
:402B8000FFEFF07F017E00123FD4905121E0FF9000C1EFF0905120E0FFEF54EFFFEFF07F007E00123FD49000C1E0FFEF5408FF9000C1EFF0905120E0FFEF4410FFEFF07FC7
:402BC000017E00123FD4905120E0FFEF54EFFFEFF09000C1E0FFEF70077F0A7E00123FD49000C2121CAD7BFF7AFF79FF78FF121AE99000C2121CC59000C1E0FFEF601290F5
:402C000000C2121CADD3EF9400EE94004003022B71905120E0FFEF54BFFFEFF0905120E0FFEF5480FFEFF0905122E0FFEF54F0FFEFF0905123E0FFEF54F0FF9000C1EFF0C5
:402C40009000C1E0FFEF440FFF905123EFF0905124E0FFEF54F0FF9000C1EFF09000C1E0FFEF440FFF905124EFF0229000A9121CDA9000ACEDF012402E9000ACE0FFEFC39C
:402C800094804003022D69123FA2EF6003022D619000AD74FFF09000A9121CD19000B2E4F0A37410F07F401232B9EF64076003022D5C904722E0FFEF5402FF7E00EF4E6010
:402CC000F1904722E0FFEF5402FF7E00EF4E600D904722E0FFEF1313543FFF80027FFFEF70059000ADE4F09000ADE0FFEF70679000ACE0FFEFFD7C009000ECE0FB9000ED72
:402D0000E0FF9000B2EFF07F401234A3EF6407703D9000AD74FFF0904722E0FFEF5402FF7E00EF4E60F1904722E0FFEF5402FF7E00EF4E600D904722E0FFEF1313543FFF59
:402D400080027FFFEF70159000ADE4F0800E9000AD74FFF080069000AD74FFF0124243800E9000AD7404F080069000AD7401F09000ADE0FF229000AB7401F09000AC7401F9
:402D8000F09000ACE0FF900087E0FD900098E0FAA3E0FB123360EF04FF9000ADEFF0900084E0FF9000ADE0FEEE6F60259000ACE004F09000ADE004F09000ADE0FFEFD3945E
:402DC0000740DB9000AD7401F09000ABE004F080CD900085E0FF9000ABE0FEEE6F600F9000ACE02407F09000ABE004F080E39000ACE0FF900086EFF09000AB7401F09000F1
:402E0000AC7401F09000ACE0FF90008EE0FD900098E0FAA3E0FB123360EF04FF9000ADEFF090008BE0FF9000ADE0FEEE6F60259000ACE004F09000ADE004F09000ADE0FF04
:402E4000EFD3940740DB9000AD7401F09000ABE004F080CD90008CE0FF9000ABE0FEEE6F600F9000ACE02407F09000ABE004F080E39000ACE0FF90008DEFF022759300789A
:402E8000007583467582E8E04401F0009046ECE0F99046FAE0FAB903225420B40012B8001AEA901FFFF07401901FFEF09046F6F0901FFEE06005901FFFE0FA90480074C0D5
:402EC000F075812090000078007920E4F0A3D8FCD9FAEA9000E4F0020011750B1F750CFD123C551225D5022F24021DA6E493A3F8E493A34003F68001F208DFF48029E493F3
:402F0000A3F85407240CC8C333C4540F4420C8834004F456800146F6DFE4800B0102040810204080903402E47E019360BCA3FF543F30E509541FFEE493A360010ECF54C037
:402F400025E060A840B8E493A3FAE493A3F8E493A3C8C582C8CAC583CAF0A3C8C582C8CAC583CADFE9DEE780BE9000A9EFF09000D8E4F09000A9E0FFEF6401600302304CA7
:402F8000904E007438F0904E027406F0904E037408F0904E04E4F0904E05E4F0904E06741FF0904E08E4F0904E09E4F0904E0AE4F0904E147401F09058847414F090588553
:402FC0007405F09058867416F0905887E4F090588A7444F090588B7448F090588C7401F090588E7402F090588F7422F09058907428F090589174EBF07F52123B12905894DA
:403000007458F0905895E4F090589A7405F090589B7402F090589CE4F090589DE4F07F001241B17F337E037D007C009000CE121CC57D017F027E001229617D017F0A7E0060
:403040001227CC7C447D9C7F1D1235DC229000A9121CC59000B9740AF09000B9E0FF74AE2FF582E43400F583E4F09000B9E014F09000A9121CADC3EF940AEE940040577B35
:403080000A7A00790078009000A9121CAD121B8FAC00AD01AE02AF03EF2430FF9000ADEFF09000ADE0FF9000B9E0FE74AE2EF582E43400F583EFF09000A9121CAD7B0A7A25
:4030C0000079007800121B8F9000A9121CC59000B9E014F0809A7B0A7A00790078009000A9121CAD121B8FAC00AD01AE02AF03EF2430FF9000ADEFF09000ADE0FF9000B971
:40310000E0FE74AE2EF582E43400F583EFF09000B9E0FF74AE2FF9E43400FA7B01123C07221242AD9000AAEFF09000D2E0FF9000A9EFF09043AAE0FFEF4401FFEFF0904350
:40314000AAE0FFEF4410FFEFF09043BAE0FFEF4401FFEFF09043BAE0FFEF4410FFEFF09046F8E0FFEF4402FFEFF09046F9E0FFEF4402FFEFF0905891E0FFEF4403FFEFF0AD
:403180007F037E00123FD49046F8E0FFEF54FDFFEFF09046F9E0FFEF54FDFFEFF0905877E0FFEF4406FFEFF0905882747AF09043A1E0FFEF4401FFEFF09043B1E0FFEF44BB
:4031C00001FFEFF09043A2E0FFEF4401FFEFF09043B2E0FFEF4401FFEFF09044DB7420F09044C37420F09000AAE0FF1241FF229000D27401F09000CDE4F07F101240BF7F22
:403200001012409E7D077F1D1238F29058967404F0905897E4F090589EE4F0905B07E0FFEF4418FFEFF0905893E4F0905B88E4F0905B89E4F0905880740AF0905881E4F0B4
:40324000905883E4F09058887412F09058897413F090588DE4F0904E017414F09000AE740CF09000AF7401F07B007A807D6B7C8D7F021223D09000D2E0FFEF75F003A42403
:40328000C9F582E43400F583E0FF904E0EEFF09000D2E0FFEF75F003A424C7F582E43400F583E0FCA3E0FD7B027A4E790C12439A9000D2E0FF122F69229000AEEFF0900097
:4032C000AF121CDA9000B47407F0904722E0FFEF5402FF7E00EF4E607B90472074B6F090472074D5F09047207402F0904722E0FFEF5402FF7E00EF4E70529000AEE0FF90D2
:403300004720EFF09000B5E4F0A3E4F09000B2E0FEA3E0FF9000B5E0FCA3E0FDC3ED9FEC9E50379000AF121CD19000B5E0FEA3E0FFE92FF9EA3EFA121A28FF904720EFF0D5
:403340009000B5E475F001121AA880C09000B47409F080069000B47404F09000B4E0FF229000AEEFF09000AFEDF09000B0EAF0A3EBF09000AFE0FFEFC39403500B9000B0AF
:4033800074FF75F0FF121AA89000B0E0FEA3E0FF7C007D64121A53AC06AD079000B0E0FEA3E0FFEF7802CEC313CE13D8F9FFC3EF9DFBEE9CFA9000B0E0FEA3E0FF7C017DBA
:4033C00090121A53EF2BFFEE3AFE9000B0E0FCA3E0FDEF2DFFEE3CFE9000AFE0FDED9044D693FD7C009000AEE0FB7A00ED2BFDEC3AFCEF2DFFEE3CFE7C007D07121A53AFA6
:4034000005224100F0004300E90000004100EF004100EE004100F1004100CD004100D8004100D3004100D9004100D2014400D4000000004100A8004A009000000001010031
:403440000101076C4A009B0000000101000101076C41008800450083000101010145008A00010101014100A700410082004100890041009A004100A60041008F004100A526
:40348000004400E0016E36004400DB00005DC04100DF184400E52EE000004100F2004100F3FF009000AEEFF09000AFECF0A3EDF09000B1EBF09000B37407F0904722E0FFD8
:4034C000EF5402FF7E00EF4E606B90472074B6F090472074D8F09047207405F0904722E0FFEF5402FF7E00EF4E70429000AEE0FF904720EFF09000AFE0FEA3E0FFEEFF7ED8
:4035000000904720EFF09000AFE0FEA3E0FFEF54FFFF904720EFF09000B1E0FF904720EFF09000B2E0FF904720EFF0800E9000B37409F080069000B37404F09000B3E0FF81
:40354000222001030235DB90006AE004F090006AE0FFEFD3943B400D90006AE4F090006FE004F0D20690006FE0FFEFD3943B400F90006FE4F090007AE475F001121AA8300C
:403580000659C20690007AE0FEA3E0FF90007CEFF090007AE0FEA3E0FFEEFF7E00900077EFF0900077E0FF900064EFF090007CE0FF900065EFF090006FE0FF900066EFF0A9
:4035C00090006AE0FF900067EFF012411EEF700B7B017A0079647D00122C6B229000AAEFF09000ABECF0A3EDF09000AAE0FFEFD3941F5003D38001C340057F001242C29014
:4036000000AAE0FFEF541FFF7E00EF25E0FFEE33FEEF2400FFEE3444FEAA06A9077B0112438B9000ADEEF0A3EFF09000AAE0FF7E02EF8EF0A4FFAEF0EF2400FFEE3444FE84
:40364000AA06A9077B019000ABE0FEA3E0FFAD07AC0612439A9000ADE0FEA3E0FF22904E14E0FFEF5403FF9000ABEFF09000ABE0FFEFD394015032904E11E0FF7E009000C0
:40368000A9EEF0A3EFF09000A9E0FEA3E0FFEF7F00FE904E10E0FD7C00EE4CFEEF4DFF9000A9EEF0A3EFF0801F7B027A4E791012438B9000A9EEF0A3EFF09000ABE0FFEFBA
:4036C000B40305904E12E0FF9000D8E0FFEF60059000CDE4F09000A9E0FEA3E0FF227F287E007D007C001237C27F03123CED7F057E007D007C001237C27F03123CED7F0F81
:403700007E007D007C001237C27F03123CED7F017E007D007C001237C27F02123CED7F057E007D007C001237C27F06123E7E7F0E123E7E7F2C123E7E7F08123E7E7F011278
:403740003E7E7F0C123E7E7F03123E7E7F057E007D007C001237C22212402E123FA2EF7055123EB49000AAEFF09000AAE0FFEF6407703E904722E0FFEF5402FF7E00EF4E80
:4037800070097F017E00123FD480E8904722E0FFEF5402FF7E00EF4E600D904722E0FFEF1313543FFF80027FFFEF70059000AAE4F012424380069000AA7404F09000AAE0F7
:4037C000FF2290FFFC121D15121CC5850B83850C82121CADD3EF9400EE9480402F9000E5121CAD123F00850B83850C82C083C082121CADEF2400FFEE3480FEED34FFFDEC3C
:4038000034FFFCD082D083121CC580BF9000DB121CAD850B83850C82121CB9121B04123F00900004121D152212402E9000AA74FFF0123FA2EF704A7F011239ACEF640770B9
:403840003B7B017A0079EC7D0212388DEFB4021D9000AAE4F0904722E0FFEF5402FF7E00EF4E70187F017E00123FD480E8904722E0FFEF5402FF7E00EF4E60C5124243808F
:40388000069000AA7404F09000AAE0FF229000AB121CDA9000AEEDF09000AFE4F09000AEE0FF9000AFE0FEEEC39F5040904722E0FFEF5401FF7E00EF4E6003D38001C3400A
:4038C000097F017E00123FD480E2904720E0FF9000AB121CD19000AFE0FEE92EF9E43AFAEF121A419000AFE004F080B19000AFE0FF229000A9EFF09000AAEDF09000AAE0BC
:40390000FFEFD394075003D38001C340057F001242C29000A9E0FFEFD3941F5003D38001C340057F001242C29000AAE0FFEF5407FF7E00EF75F020A4FFAEF09000A9E0FE6A
:40394000EE541FFE74802EF582E43444F583EFF0229000C1EFF0905120E0FFEF4420FFEFF0905120E0FFEF54BFFFEFF07F007E00123FD4905120E0FFEF54F0FFEFF0905185
:4039800020C083C082E0FF9000C1E0FEEE4410FEEF4EFFD082D083EFF07F017E00123FD4905120E0FFEF54EFFFEFF0229000ABEFF09000AC7407F0904722E0FFEF5402FF42
:4039C0007E00EF4E603590472074B6F090472074E1F0904720740EF0904722E0FFEF5402FF7E00EF4E700C9000ABE0FF904720EFF0800E9000AC7409F080069000AC74040D
:403A0000F09000ACE0FF22906577E0FFEF54C0FF9000A9EFF09000A9E0FFEF4409FF906577EFF0906597E0FFEF4401FFEFF07F641242E97F641242F97F001243097F00121B
:403A400043191242AD9000AAEFF0906597E0FFEF4410FFEFF09000AAE0FF1241FF1243A722906576E0FFEF54C0FF9000A9EFF09000A9E0FFEF4409FF906576EFF09065962F
:403A8000E0FFEF4401FFEFF07F641243297F641243397F001243497F001243591242AD9000AAEFF0906596E0FFEF4410FFEFF09000AAE0FF1241FF1243B4229000A9EFF0A6
:403AC0009000AAEDF09000A9E0FFEF121CEF3ADE003AEB013AF8023B050300003B119000AAE0FFEF2480FF123E7E229000AAE0FFEF24C0FF123E7E229000AAE0FFEF249454
:403B0000FF123E7E229000AAE0FFEF24D4FF123E7E229000AAEFF01242AD9000ABEFF09046F8E0FFEF4403FFEFF09046F9E0FFEF4403FFEFF09000AAE0FF905892EFF07FFF
:403B4000037E00123FD49046F8E0FFEF54FCFFEFF09046F9E0FFEF54FCFFEFF09000ABE0FF1241FF221242AD9000A9EFF09043A0E0FFEF4408FFEFF09043B0E0FFEF44085B
:403B8000FFEFF090470174C8F09043ACE0FFEF4410FFEFF09043BCE0FFEF4410FFEFF0904700E0FFEF5420FF7E00EF4E60F19000A9E0FF1241FF229000C7EFF01242AD909E
:403BC00000C8EFF0900000E0FF904390E0FEEF4EFF900000EFF0900000E0FFEF5407FF9000C9EFF0900000E0FF9000C7E0FEEEF4FEEF5EFF900000EFF09000C8E0FF12410A
:403C0000FF9000C9E0FF229000BA121CDA9000BD7401F09000BA121CD1121A28FF9000BEEFF09000BEE0FFEF602A9000BEE0FF123E489000BA121CD19000BDE0FFE92FF96D
:403C4000E43AFA121A28FF9000BEEFF09000BDE004F080CE229000A9E4F09000A9E0FFEFD3941F503D9000A9E0FF7E02EF8EF0A4FFAEF0EF2400FFEE3444FEAA06A9077B5D
:403C800001C003C002C0017BFF7A447997AC02AD01D001D002D00312439A9000A9E004F080B8229000ACEFF09000ACE0FFEFC3940250399000ACE0FFEF25E024A7F582E411
:403CC0003444F583E493FE740193FF8F828E83C083C082E0FF9000ACE0FEEE9044AB93FEEEF4FEEF5EFFD082D083EFF0229000ADEFF0905120E0FFEF549FFFEFF09051202B
:403D0000E0FFEF54F0FFEFF0905120C083C082E0FF9000ADE0FEEE4410FEEF4EFFD082D083EFF07F017E00123FD4905120E0FFEF54EFFFEFF0227B0C7A0179CF12440990A5
:403D400000A9EFF09000A9E0FFEF5407FF90586EEFF09000A9E0FFEFC4540FFFEF540FFF90586FEFF090513D7404F0905B007440F0905B587440F09058767444F0229000BD
:403D8000ABEFF09000ABE0FFEFC3940250369000ABE0FFEF25E024A7F582E43444F583E493FE740193FF8F828E83C083C082E0FF9000ABE0FEEE9044AB93FEEF4EFFD082C6
:403DC000D083EFF022C2D5E830E70FB2D5E4C39BFBE49AFAE499F9E498F8EC30E717B2D5123DFB121B8FE4C39BFBE49AFAE499F9E498F88003121B8F30D50DE4C39FFFE4E4
:403E00009EFEE49DFDE49CFC229000A9EFF09000D8E0FFEF600C9000CDE0FF9000AAEFF0800E904E01E0FFEF5401FF9000AAEFF09000AAE0FFEF640160089000A9E0FFEF37
:403E400060CC9000AAE0FF229000BFEFF0122AF69000BFE0FFEFC4540FFF9000C0EFF09000C0E0FF1239519000BFE0FFEF540FFF9000C0EFF09000C0E0FF12395122900013
:403E8000ABEFF0122AF69000ABE0FFEFC4540FFF9000ACEFF09000ACE0FF123CED9000ABE0FFEF540FFF9000ACEFF09000ACE0FF123CED229000AB7407F0904722E0FFEF3B
:403EC0005402FF7E00EF4E601490472074B6F090472074E0F0904720740DF080069000AB7404F09000ABE0FF229043A2E0FFEF4410FFEFF09043B2E0FFEF4410FFEFF02209
:403F0000EC4D4E700D78FCEF24E950032840FD2200007BF178DA0000EF28FF78FFEE38FEED38FDEC38FC50E7EF2BFFEE38FEED38FDEC38FC40F22205020304758600EF4E32
:403F40006027EF60010E7593009000B4E0F595A3E0F585A3E0F5848B938A838982E0A30586F0A31586DFF6DEF4E4F593F5952246616E2050574D3A00566F6C746167653A0D
:403F80000054696D65723A002520004F6E20004F6666002E0076202020003A002020202020009000AE7404F01242AD9000AFEFF09000F2E0FFEF700B9000F27401F09000A4
:403FC000AEE4F09000AFE0FF1241FF9000AEE0FF22D20032EEFA9000DFE0F88FF0A4FFAEF0E88AF0A42EFEE5F03400FDEF24C9FF78FFEE38FEED38FDE438FC5003023F0021
:4040000022ACEAADA08B938A838982E0F96017A3E0F5EAA3E0F5A0A3E060F4FAA3E0F8A3E0F2DAF8D9E98DA08CEAE4F593221242AD9000AEEFF09043A0E0FFEF4408FFEF5C
:40404000F09043B0E0FFEF4408FFEFF09000AEE0FF1241FF229000ABE4F09000ABE0FFEFC3940250109000ABE0FF123CA39000ABE004F080E59000F374FFF0221242AD905B
:4040800000A9EFF0904382E0FFEF4430FFEFF09000A9E0FF1241FF9044C07401F0229000A9EFF0904102C083C082E0FF9000A9E0FEEE54F8FEEF4EFFD082D083EFF022906E
:4040C00000A9EFF0904082C083C082E0FF9000A9E0FEEE54F8FEEF4EFFD082D083EFF0229000A9EEF0A3EFF01244509000A9E0FEA3E0FF12413C7F071242171244492290A8
:4041000000A9EEF0A3EFF012445E9000A9E0FEA3E0FF12415A7F0712422D124457221237589000A9EFF09000A9E0FFEF70081238289000A9EFF09000A9E0FF229000ABEE81
:40414000F0A3EFF07B027A4479029000ABE0FEA3E0FFAD07AC0612439A229000ABEEF0A3EFF07B027A4479049000ABE0FEA3E0FFAD07AC0612439A229000D3E0FFEF7011EE
:404180009000D9E0FFEF70031231EF9000D37401F0123121221242AD9000A9EFF0906493E0FFEF4410FFEFF09000A9E0FF1241FF229000AAEFF01240559000AAE0FF123D81
:4041C0007E9000AAE0FF9000F3EFF022120E289044C87401F07C007D1A7F001235DC7D077F001238F222EC4D6011ED60010C8B938A838982E4F0A3DDFCDCFA75930022EFCC
:4042000054016004D2AF8002C2AFEF5402FF9044F4E054FD4FF0229000ABEFF09000ABE0FFEFC43354E0FF904481EFF0229000ABEFF09000ABE0FFEFC43354E0FF9044826D
:40424000EFF0221242AD9000AEEFF09000F2E4F09000AEE0FF1241FF229000F0E0FFEF7009123A079000F07401F01243C1229000EEE0FFEF70091236DE9000EE7401F01221
:4042800043D9229000F1E0FFEF7009123A619000F17401F01243E5229000A8E0FFEF70091241CC9000A87401F012407C229044F4E0F84402F0E85402FF10AF012274014F25
:4042C000FF2290FFFF121D15EFF09046EA7401F0900001121D15229000AFEFF09000AFE0FF9000AFEFF080FE229000ABEFF09000ABE0FF906507EFF0229000ABEFF09000FB
:40430000ABE0FF906547EFF0229000ABEFF09000ABE0FF906527EFF0229000ABEFF09000ABE0FF906587EFF0229000ABEFF09000ABE0FF906506EFF0229000ABEFF09000DA
:40434000ABE0FF906546EFF0229000ABEFF09000ABE0FF906526EFF0229000ABEFF09000ABE0FF906586EFF0229000A9EFF09000A9E0FF900090EFF0229000A9EFF090007E
:40438000A9E0FF90008FEFF0228B938A838982E0FFA3E0FE759300228B938A838982EDF0A3ECF07593002212446CEF30E40512447280F422124484EF30E40512448A80F47B
:4043C00022906577E0FFEF4480FFEFF022906577E0FFEF547FFFEFF0227F0C123E7E9000EF7401F022906576E0FFEF4480FFEFF022906576E0FFEF547FFFEFF022904E004A
:40440000E0FFEF4401FFEFF0228B938A838982E0759300FF228B938A838982EDF0759300227B027A41790012438B22904102E0FFEF5407FF227B027A40798012438B22905B
:404440004082E0FFEF5407FF229044C07402F0229044C87402F0229044C07404F0229044C87404F02212411E123B6522906567E0FF22906557E0FF22906527E0FF229064AC
:4044800063E0FF22906566E0FF22906556E0FF2212446522D2043280FE32323232323232222222222222225B03432440000051400030010000100001140008000140000A02
:4044C00000014C00020001500000201F1C1F1E1F1E1F1F1E1F1E1F00030205000305010406020400000000000000000000000000000000000000000000000000000000006C
:40450000000000000000000000000000000000000000000000000000000000000000000000000000000000000000000000000000000000000000000000000000000000007B
:40454000000000000000000000000000000000000000000000000000000000000000000000000000000000000000000000000000000000000000000000000000000000003B
:4045800000000000000000000000000000000000000000000000000000000000000000000000000000000000000000000000000000000000000000000000000000000000FB
:4045C00000000000000000000000000000000000000000000000000000000000000000000000000000000000000000000000000000000000000000000000000000000000BB
:0200000480007A
:400000001E005203047061807C20006401830F006502860D870D0102280104020404080A010E08120213012B022F043004320133043408350136023702580459045C335FC4
:40004000018704940197019A01AA02AC02AF02B002B101B302B504B601D40FD604D804D904DB04DC33DD30DF010103240408064007050A200B080D021202132019811C0177
:400080001D021E041F06221A23202408271128022F0A320837013B083C0159815A045B1063808340C0F0C216C403CA38CC82CE82D60FD8010105039C02AB0CAE4001070157
:4000C000B402010901EA10010D01B440010E0438023E0158045F01010F0118800115048980A180B220E2200116540A010F0114081A0D27012E023008320434023501360107
:400100003F104020410545D14602480749FF4AFF4BFF4DA04F04501852805405580459045A045B045C015D115F01604062C06440654066C068C06AC06CC06EC086048701DF
:400140008C0192089701A607A902B002B204B301B408B502B601BF14C020C106C5D1C702C813C9FFCAFFCBFFCDA0CF04D018D280D405D804D904DA04DB04DC02DD22DF018D
:40018000E040E2C0E440E540E6C0E8C0EAC0ECC0EEC001172B0044051009020E100F0810201780184419801B081DB01E501F10222427082B082F10300838043F804004451A
:4001C00020482849014F895008574059815A085E405F0971027780C045C268C484CA44CC02CE12D024D214D6DBEC10011901EC10011B01E82001400333883710CC700141F8
:40020000070A810D0283109F10A788C270E220014206A788A902AA40AE01E890EC800143032F04A788CA200144027C01DE01014502B401EC0801460405044502C004D00181
:40024000014703A502B504EA0801480627049F04A708AF84B704C8200149081E025310820183088B10A708C680D420014C02B502EC08014D0573409340B340DC01E8040148
:4002800050040008080810061A06015101003E007000007000000000000000000080800080000000200000200000000000000000000B0B0000000000007F7F000000000057
:4002C00000080800080004000A00180100000000000000000000000000000000000000000000000000000000000000000000000000000000000000000000000000000000BF
:4003000000000000000000000000000000000000000000000000000000000000000000000000000000000000000000000000000000000000000000000000000000000000BD
:40034000000000000000000000000000000000000000000000000000000000000000000000000000000000000000000000000000000000000000000000000000000000007D
:40038000000000000000000000000000000000000000000000000000000000000000000000000000000000000000000000000000000000000000000000000000000000003D
:4003C00000000000000000000000000000000000000000000000000000000000000000000000000000000000000000000000000000000000000000000000000000000000FD
:0200000490006A
:0400000000004005B7
:0200000490105A
:04000000BC90ACAF55
:0200000490303A
:02000000C070CE
:0200000490501A
:0C00000000011E09506903011E2E10D9DA
:0200000490402A
:4000000000000000000000000000000000000000000000000000000000000000000000000000000000000000000000000000000000000000000000000000000000000000C0
:00000001FF
