:100000000080002029030000ED290000ED290000F8
:10001000ED290000ED290000ED290000ED29000088
:10002000ED290000ED290000ED290000ED29000078
:10003000ED290000ED290000ED290000ED29000068
:10004000ED290000ED290000ED290000ED29000058
:10005000ED290000ED290000ED290000ED29000048
:10006000ED290000ED290000ED290000ED29000038
:10007000ED290000ED290000ED290000ED29000028
:10008000ED290000ED290000ED290000ED29000018
:10009000ED290000ED290000ED290000ED29000008
:1000A000ED290000ED290000ED290000ED290000F8
:1000B000ED290000ED290000ED290000ED290000E8
:1000C00080B51448144B21E05C689968DD688C4267
:1000D0000CD0002205E0A6180832D6E9008941E9D3
:1000E00002898C460831AA42F5D101E004EB050CE7
:1000F0001C696146002204E008320026002741E91D
:1001000002670831A242F7D1143301380028DBD14D
:1001100002F054FC01000000202B000048F21813EC
:10012000C1F6FF731A780AB901201870704700BF32
:1001300048F20010C1F6FF7008B503682BB140F219
:100140000003C0F2000303B1984708BD80B500AFBB
:1001500062B640F2E920C0F2000000F0CFFC40F2AD
:100160001130C0F2000001F013FF01F0ABFB4FF0C3
:10017000010001F041FC01F053F800F07BFD01F0BB
:1001800073F900F05FFE01F093FA00F03FFF01F019
:100190000BFE00F07DFC00F01BFA4FF0000000F0B9
:1001A000DBFA4FF0FA0000F01FF900F055F980BDBE
:1001B00080B582B000AFFFF7C9FF4FF080004FF06D
:1001C000010100F0E7FA4FF000004FF0080101F0E4
:1001D0008FFB42F64020C0F2000001F0C3FB4FF05D
:1001E00001004FF0000101F083FB42F64820C0F20D
:1001F000000001F0B7FB4FF002004FF0000101F0EA
:1002000077FB42F65020C0F2000001F0ABFB4FF04C
:1002100003004FF0000101F06BFB42F65C20C0F2DE
:10022000000001F09FFB00E000BF00F06BFF034601
:10023000002B0CD14FF001004FF0050101F058FBED
:1002400042F66420C0F2000001F08CFB0BE04FF09E
:1002500001004FF0050101F04BFB42F66820C0F2AF
:10026000000001F07FFB48F24423C1F6FF734FF01A
:1002700001021A6048F24423C1F6FF734FF00002F6
:100280001A6000F039FD03461A4648F23C13C1F6E5
:10029000FF731A704FF003004FF0070101F028FBC5
:1002A00042F66C20C0F2000001F05CFB01F0A8FAFD
:1002B00001F0A6FA0346184600F06EF94FF001006F
:1002C00000F0D6F90346FB71FB79002BACD04FF060
:1002D00002004FF0090101F00BFB00F06DF903463D
:1002E000184601F03FFDA0E780B582B000AF01E005
:1002F00000F062F94FF0020000F0FEF80346FB71D7
:10030000FB79012BF4D007F10807BD4680BD00BF83
:1003100080B400AF48F24423C1F6FF734FF00102EE
:100320001A60BD4680BC7047054B1C7844F0010440
:100330001C70044B1A78D2B2034B1A70FFF7C0FE40
:10034000E8460040F8460040BC76004080B582B0E8
:1003500000AF4EF60C53CEF2000340F20042C0F262
:10036000FA521A604EF61453CEF200034EF61452AF
:10037000CEF20002126842F400721A604FF00003DD
:100380007B6014E07A687B684FEA830140F20003E7
:10039000C0F200030B441B68194648F20003C1F683
:1003A000FF7343F822107B6803F101037B607B68D5
:1003B0002F2BE7D947F2BC63C4F200031B78DAB2F3
:1003C00048F24923C1F6FF731A704EF60853CEF275
:1003D000000348F20002C1F6FF721A6002F046F80C
:1003E00007F10807BD4680BD80B582B000AF7860D8
:1003F0000BE048F21013C1F6FF731B68184602F0B9
:100400009BF97B68A3F500437B607B68B3F5004FE5
:10041000EFD848F20813C1F6FF731B687A6802FB35
:1004200003F3184602F088F907F10807BD4680BDBE
:1004300080B582B000AF0346FB80FA8848F20C1307
:10044000C1F6FF731B7803FB02F3184602F074F940
:1004500007F10807BD4680BD80B500AF48F219130B
:10046000C1F6FF731B78002B08D100F01FF848F28B
:100470001913C1F6FF734FF001021A7000F002F871
:1004800080BD00BF80B500AF46F27743C4F20003E1
:1004900046F27742C4F200021278D2B242F0010270
:1004A000D2B21A7000F00AF880BD00BF80B500AF6C
:1004B0004FF0020000F052F880BD00BF80B582B05E
:1004C00000AF02F041F90346FB7146F29443C4F2D7
:1004D000000346F29442C4F200021278D2B242F013
:1004E0001002D2B21A70FB79184602F031F907F106
:1004F0000807BD4680BD00BF80B485B000AF03468D
:10050000FB716FF00103FB73FB79022B1FD146F2E5
:100510006443C4F200031B78DBB203F060034FEACC
:100520005313012B04D0012B06D3022B08D00BE070
:100530004FF00003FB730AE04FF00203FB7306E089
:100540004FF00103FB7302E04FF00003FB73FB7BF2
:10055000184607F11407BD4680BC704780B483B0CD
:1005600000AF0346FB7146F28443C4F2000346F237
:100570008442C4F200021278D2B2114601F0F801AE
:10058000FA7902F0070241EA0202D2B21A7007F1C8
:100590000C07BD4680BC704780B483B000AF0346F3
:1005A000FB7146F20443C4F20003FA791A7007F1B2
:1005B0000C07BD4680BC704780B400AF46F2544380
:1005C000C4F200031B78DBB21846BD4680BC7047FE
:1005D00080B500AF48F21A13C1F6FF731B78002BE9
:1005E00008D100F01FF848F21A13C1F6FF734FF05C
:1005F00001021A7000F002F880BD00BF80B500AFA4
:1006000046F27143C4F2000346F27142C4F20002A2
:100610001278D2B242F00102D2B21A7000F00AF897
:1006200080BD00BF80B500AF4FF0010000F076F84C
:1006300080BD00BF80B582B000AF02F085F80346F0
:10064000FB7146F29143C4F2000346F29142C4F2B8
:1006500000021278D2B242F01002D2B21A70FB79C4
:10066000184602F075F807F10807BD4680BD00BFC7
:1006700080B485B000AF0346FB716FF00103FB73DC
:10068000FB79012B1FD146F26143C4F200031B78B2
:10069000DBB203F018034FEAD303012B08D0012B80
:1006A00002D3022B08D00BE04FF00003FB730AE0EB
:1006B0004FF00203FB7306E04FF00103FB7302E00F
:1006C0004FF00203FB73FB79022B1FD146F261430B
:1006D000C4F200031B78DBB203F060034FEA53134C
:1006E000012B04D0012B06D3022B08D00BE04FF0D6
:1006F0000003FB730AE04FF00203FB7306E04FF0C8
:100700000103FB7302E04FF00003FB73FB7B184611
:1007100007F11407BD4680BC704700BF80B483B0AA
:1007200000AF0346FB7146F28143C4F2000346F278
:100730008142C4F200021278D2B2114601F0F801EF
:10074000FA7902F0070241EA0202D2B21A7007F106
:100750000C07BD4680BC704780B584B000AF03462F
:10076000FB714FF01103FB734FF00100FFF780FFA7
:100770000346002B08D046F24143C4F20003FA7945
:100780001A704FF00003FB73FB7B184607F110074C
:10079000BD4680BD80B584B000AF02460B46FA80EE
:1007A0007B7100F0CDF803467B7300F0BDF8034683
:1007B000FB81FA88FB899A4200F0B28044F2A233AE
:1007C000C4F200031B78DBB203F002033B737B7BB4
:1007D000002B35D1FB89002B02D0FB88002B2FD1B9
:1007E000FB89002B17D1FB88002B14D044F2840323
:1007F000C4F20003FA881A8044F28603C4F20003AC
:1008000044F28602C4F200021278D2B202F0BF02B1
:100810001A7000BF84E044F28603C4F2000344F27D
:100820008602C4F200021278D2B242F04002D2B282
:100830001A7044F28403C4F20003FA881A806FE04D
:100840003B7B002B2ED044F20103C4F200034FF097
:1008500000021A7044F21003C4F200034FF00202C7
:100860001A7044F21403C4F200034FF000021A702D
:1008700044F20803C4F2000344F20802C4F2000286
:100880001278D2B202F07F021A7044F2A233C4F29C
:10089000000344F2A232C4F200021278D2B202F093
:1008A000FD021A7044F2A233C4F200031B78DBB2DB
:1008B00003F00203002B1ED044F20203C4F2000333
:1008C000FA881A8044F20103C4F200037A79002AFC
:1008D00002D04FF0030201E04FF001021A7044F21F
:1008E0000103C4F200031B78DBB203F00103DBB2A7
:1008F000002BF4D105E044F28403C4F20003FA882B
:100900001A8044F2A233C4F2000344F2A232C4F2C9
:1009100000021278D1B23A7B41EA0202D2B21A70D6
:1009200007F11007BD4680BD80B400AF44F28403D8
:10093000C4F200031B889BB21846BD4680BC7047BA
:1009400080B400AF44F28603C4F200031B78DBB22C
:1009500003F007031846BD4680BC704780B500AF62
:1009600044F60073C4F2000344F60072C4F20002BD
:100970001278D2B202F001021A7044F60173C4F286
:10098000000344F60172C4F200021278D2B202F0FF
:10099000F1021A7044F60173C4F2000344F60172C6
:1009A000C4F200021278D2B242F00102D2B21A703E
:1009B00044F60A73C4F2000344F60A72C4F2000259
:1009C0001278D2B202F0CF021A7044F60A73C4F25F
:1009D000000344F60A72C4F200021278D2B242F066
:1009E0003002D2B21A7044F60A73C4F2000344F61D
:1009F0000A72C4F200021278D2B202F0F0021A7047
:100A000044F60A73C4F2000344F60A72C4F2000208
:100A10001278D2B242F00F02D2B21A704FF0080030
:100A200000F05CF84FF0000000F048F880BD00BF17
:100A300080B400AF44F2A333C4F2000344F2A33203
:100A4000C4F200021278D2B242F00102D2B21A709D
:100A500044F2B333C4F2000344F2B332C4F20002EE
:100A60001278D2B242F00102D2B21A7044F6007388
:100A7000C4F2000344F60072C4F200021278D2B24B
:100A800042F00102D2B21A70BD4680BC704700BF6E
:100A900080B500AF48F21B13C1F6FF731B78002B23
:100AA00008D1FFF75BFF48F21B13C1F6FF734FF04D
:100AB00001021A70FFF7BCFF80BD00BF80B483B095
:100AC00000AF0346FB7144F60873C4F20003FA79E1
:100AD0001A7007F10C07BD4680BC704780B483B024
:100AE00000AF0346FB7144F60273C4F20003FA79C7
:100AF0001A8007F10C07BD4680BC704780B582B0F4
:100B000000AF786000F042F8786800F00BF84FF022
:100B1000070000F01BF800F02DF807F10807BD46AC
:100B200080BD00BF80B485B000AF78604EF608533A
:100B3000CEF200031B68FB60FB6803F148037A6890
:100B40001A6007F11407BD4680BC704780B483B0BB
:100B500000AF0346FB714EF20243CEF20003FA7976
:100B60004FEA4212D2B21A7007F10C07BD4680BCA0
:100B7000704700BF80B400AF4EF20013CEF2000306
:100B80004FF004021A60BD4680BC704780B400AFCD
:100B90004EF28013CEF200034FF004021A60BD46FD
:100BA00080BC704780B582B000AF46F27453C4F287
:100BB00000031B78DBB223F00703BB7146F27453CA
:100BC000C4F20003BA791A7046F27453C4F20003F7
:100BD0001B78DBB223F00303BB7146F27453C4F2FB
:100BE0000003BA7942F00802D2B21A7000F0B0F8ED
:100BF0004FF0FF0000F08CF84FF0000000F06CF8B0
:100C00004FF0000000F04CF800F05AF84FF0FF00F1
:100C100000F08EF801F098FD0346FB7146F2955303
:100C2000C4F2000346F29552C4F200021278D2B226
:100C300042F01002D2B21A70FB79184601F088FD1A
:100C400007F10807BD4680BD80B400AF46F274537B
:100C5000C4F2000346F27452C4F200021278D2B217
:100C60006FEA42626FEA5262D2B21A70BD4680BC2D
:100C7000704700BF80B500AF48F21C13C1F6FF7388
:100C80001B78002B08D1FFF78DFF48F21C13C1F62B
:100C9000FF734FF001021A70FFF7D6FF80BD00BF4F
:100CA00080B483B000AF0346FB7146F28553C4F2B3
:100CB0000003FA791A7007F10C07BD4680BC704733
:100CC00080B400AF46F26553C4F200031B78DBB278
:100CD0001846BD4680BC704780B483B000AF034661
:100CE000FB7146F20553C4F20003FA791A7007F15A
:100CF0000C07BD4680BC704780B400AF46F2455338
:100D0000C4F200031B78DBB21846BD4680BC7047B6
:100D100080B483B000AF0346FB7146F22553C4F2A2
:100D20000003FA791A7007F10C07BD4680BC7047C2
:100D300080B483B000AF0346FB7146F23553C4F272
:100D40000003FA791A7007F10C07BD4680BC7047A2
:100D500080B500AF01E0FFF7CFFFFFF7B1FF03461B
:100D600003F04003002BF6D180BD00BF80B582B0F8
:100D700000AF46F27443C4F200031B78DBB223F0E9
:100D80000703BB7146F27443C4F20003BA7942F020
:100D90000402D2B21A7046F27443C4F200031B7804
:100DA000DBB223F00303BB7146F27443C4F20003C9
:100DB000BA7942F00802D2B21A7000F0B1F84FF0DE
:100DC000FF0000F08DF84FF0000000F06DF84FF0DC
:100DD000000000F04DF800F05BF84FF0FF0000F06D
:100DE0008FF801F0B1FC0346FB7146F29543C4F263
:100DF000000346F29542C4F200021278D2B242F0E9
:100E00001002D2B21A70FB79184601F0A1FC07F16A
:100E10000807BD4680BD00BF80B400AF46F27443F2
:100E2000C4F2000346F27442C4F200021278D2B255
:100E30006FEA42626FEA5262D2B21A70BD4680BC5B
:100E4000704700BF80B500AF48F21D13C1F6FF73B5
:100E50001B78002B08D1FFF789FF48F21D13C1F65C
:100E6000FF734FF001021A70FFF7D6FF80BD00BF7D
:100E700080B483B000AF0346FB7146F28543C4F2F1
:100E80000003FA791A7007F10C07BD4680BC704761
:100E900080B400AF46F26543C4F200031B78DBB2B6
:100EA0001846BD4680BC704780B483B000AF03468F
:100EB000FB7146F20543C4F20003FA791A7007F198
:100EC0000C07BD4680BC704780B400AF46F2454376
:100ED000C4F200031B78DBB21846BD4680BC7047E5
:100EE00080B483B000AF0346FB7146F22543C4F2E1
:100EF0000003FA791A7007F10C07BD4680BC7047F1
:100F000080B483B000AF0346FB7146F23543C4F2B0
:100F10000003FA791A7007F10C07BD4680BC7047D0
:100F200080B500AF01E0FFF7CFFFFFF7B1FF034649
:100F300003F04003002BF6D180BD00BF80B582B026
:100F400000AF46F27643C4F200031B78DBB223F015
:100F50000703BB7146F27643C4F20003BA791A70F4
:100F600046F27643C4F200031B78DBB223F003039E
:100F7000BB7146F27643C4F20003BA7942F008022C
:100F8000D2B21A7000F0B0F84FF0FF0000F08CF809
:100F90004FF0000000F06CF84FF0000000F04CF84B
:100FA00000F05AF84FF0FF0000F08EF801F0CCFB93
:100FB0000346FB7146F29643C4F2000346F29642A2
:100FC000C4F200021278D2B242F01002D2B21A7009
:100FD000FB79184601F0BCFB07F10807BD4680BD50
:100FE00080B400AF46F27643C4F2000346F2764284
:100FF000C4F200021278D2B26FEA42626FEA526221
:10100000D2B21A70BD4680BC704700BF80B500AF39
:1010100048F21E13C1F6FF731B78002B08D1FFF7AF
:101020008DFF48F21E13C1F6FF734FF001021A70D4
:10103000FFF7D6FF80BD00BF80B483B000AF03468A
:10104000FB7146F28643C4F20003FA791A7007F185
:101050000C07BD4680BC704780B400AF46F26643C3
:10106000C4F200031B78DBB21846BD4680BC704753
:1010700080B483B000AF0346FB7146F20643C4F26E
:101080000003FA791A7007F10C07BD4680BC70475F
:1010900080B400AF46F24643C4F200031B78DBB2D3
:1010A0001846BD4680BC704780B483B000AF03468D
:1010B000FB7146F22643C4F20003FA791A7007F175
:1010C0000C07BD4680BC704780B483B000AF0346B8
:1010D000FB7146F23643C4F20003FA791A7007F145
:1010E0000C07BD4680BC704780B500AF01E0FFF73C
:1010F000CFFFFFF7B1FF034603F04003002BF6D10B
:1011000080BD00BF80B400AF45F25113C4F20003AC
:101110001B78DBB203F040034FEA9313DBB21846AF
:10112000BD4680BC704700BF80B500AF45F60803E0
:10113000C4F200034FF00C021A7045F60903C4F222
:10114000000345F60902C4F200021278D2B242F05E
:101150002002D2B21A7045F60A03C4F200036FF0FF
:101160007F021A704FF0080000F090F84FF0030073
:1011700000F06CF880BD00BF80B400AF48F22013CF
:10118000C1F6FF731B78012B1AD145F60903C4F28F
:10119000000348F22012C1F6FF7252781A7045F629
:1011A0000A03C4F2000348F22012C1F6FF729278DB
:1011B0001A7048F22013C1F6FF734FF000021A7044
:1011C00044F2A933C4F2000344F2A932C4F200028B
:1011D0001278D2B242F00202D2B21A7044F2B9339B
:1011E000C4F2000344F2B932C4F200021278D2B25F
:1011F00042F00202D2B21A7045F67703C4F200033D
:1012000045F67702C4F200021278D2B26FEA426267
:101210006FEA5262D2B21A70BD4680BC704700BFFE
:1012200080B500AF48F22413C1F6FF731B78002B82
:1012300008D1FFF779FF48F22413C1F6FF734FF08E
:1012400001021A70FFF798FF80BD00BF80B485B01F
:1012500000AF0346FB7145F60903C4F200031B7897
:10126000DBB223F00303FB73FB7903F00303FA7B88
:1012700043EA0203FB7345F60903C4F20003FA7B59
:101280001A7007F11407BD4680BC704780B489B05E
:1012900000AF0346FB7142F67422C0F2000207F170
:1012A000140307CA03C31A7042F68022C0F2000278
:1012B00007F1080307CA03C31A70FB79082B52D839
:1012C00045F60A03C4F2000345F60A02C4F200021E
:1012D0001278D2B202F080021A7045F60A03C4F204
:1012E000000345F60A02C4F200021278D1B2FA797C
:1012F00007F12000024412F80C0CFA7907F1200CD7
:10130000624412F8182C4FEA8202D2B202F00C02A8
:1013100040EA0202D2B241EA0202D2B21A7045F6A3
:101320000903C4F2000345F60902C4F20002127870
:10133000D2B202F0F3021A7045F60903C4F20003B8
:1013400045F60902C4F200021278D1B2FA7907F127
:101350002000024412F8182C41EA0202D2B242F0F4
:101360000C02D2B21A7007F12407BD4680BC704748
:1013700080B500AF45F60003C4F200034FF00C0245
:101380001A7045F60103C4F2000345F60102C4F2E7
:1013900000021278D2B242F02002D2B21A7045F6A0
:1013A0000203C4F200036FF07F021A704FF00800CE
:1013B00000F090F84FF0030000F06CF880BD00BF23
:1013C00080B400AF48F22813C1F6FF731B78012BDD
:1013D0001AD145F60103C4F2000348F22812C1F6FF
:1013E000FF7252781A7045F60203C4F2000348F205
:1013F0002812C1F6FF7292781A7048F22813C1F6CB
:10140000FF734FF000021A7044F2A933C4F20003D4
:1014100044F2A932C4F200021278D2B242F00102C0
:10142000D2B21A7044F2B933C4F2000344F2B932B2
:10143000C4F200021278D2B242F00102D2B21A70A3
:1014400045F67703C4F2000345F67702C4F20002C2
:101450001278D2B26FEA42626FEA5262D2B21A7066
:10146000BD4680BC704700BF80B500AF48F22C136A
:10147000C1F6FF731B78002B08D1FFF779FF48F204
:101480002C13C1F6FF734FF001021A70FFF798FF9B
:1014900080BD00BF80B485B000AF0346FB7145F648
:1014A0000103C4F200031B78DBB223F00303FB73D8
:1014B000FB7903F00303FA7B43EA0203FB7345F66F
:1014C0000103C4F20003FA7B1A7007F11407BD464A
:1014D00080BC704780B489B000AF0346FB7142F610
:1014E0008C22C0F2000207F1140307CA03C31A706A
:1014F00042F69822C0F2000207F1080307CA03C3AC
:101500001A70FB79082B52D845F60203C4F2000387
:1015100045F60202C4F200021278D2B202F0800252
:101520001A7045F60203C4F2000345F60202C4F243
:1015300000021278D1B2FA7907F12000024412F8C1
:101540000C0CFA7907F1200C624412F8182C4FEABF
:101550008202D2B202F00C0240EA0202D2B241EAA6
:101560000202D2B21A7045F60103C4F2000345F636
:101570000102C4F200021278D2B202F0F3021A7031
:1015800045F60103C4F2000345F60102C4F200026D
:101590001278D1B2FA7907F12000024412F8182C1F
:1015A00041EA0202D2B242F00C02D2B21A7007F142
:1015B0002407BD4680BC704780B500AF45F60C03DC
:1015C000C4F200034FF00C021A7045F60D03C4F28A
:1015D000000345F60D02C4F200021278D2B242F0C6
:1015E0002002D2B21A7045F60E03C4F200036FF067
:1015F0007F021A704FF0080000F090F84FF00300DF
:1016000000F06CF880BD00BF80B400AF48F230132A
:10161000C1F6FF731B78012B1AD145F60D03C4F2F6
:10162000000348F23012C1F6FF7252781A7045F684
:101630000E03C4F2000348F23012C1F6FF72927832
:101640001A7048F23013C1F6FF734FF000021A709F
:1016500044F2A933C4F2000344F2A932C4F20002F6
:101660001278D2B242F00802D2B21A7044F2B93300
:10167000C4F2000344F2B932C4F200021278D2B2CA
:1016800042F00802D2B21A7045F67703C4F20003A2
:1016900045F67702C4F200021278D2B26FEA4262D3
:1016A0006FEA5262D2B21A70BD4680BC704700BF6A
:1016B00080B500AF48F23413C1F6FF731B78002BDE
:1016C00008D1FFF779FF48F23413C1F6FF734FF0EA
:1016D00001021A70FFF798FF80BD00BF80B485B08B
:1016E00000AF0346FB7145F60D03C4F200031B78FF
:1016F000DBB223F00303FB73FB7903F00303FA7BF4
:1017000043EA0203FB7345F60D03C4F20003FA7BC0
:101710001A7007F11407BD4680BC704780B489B0C9
:1017200000AF0346FB7142F6A422C0F2000207F1AB
:10173000140307CA03C31A7042F6B022C0F20002B3
:1017400007F1080307CA03C31A70FB79082B52D8A4
:1017500045F60E03C4F2000345F60E02C4F2000281
:101760001278D2B202F080021A7045F60E03C4F26B
:10177000000345F60E02C4F200021278D1B2FA79E3
:1017800007F12000024412F80C0CFA7907F1200C42
:10179000624412F8182C4FEA8202D2B202F00C0214
:1017A00040EA0202D2B241EA0202D2B21A7045F60F
:1017B0000D03C4F2000345F60D02C4F200021278D4
:1017C000D2B202F0F3021A7045F60D03C4F2000320
:1017D00045F60D02C4F200021278D1B2FA7907F18F
:1017E0002000024412F8182C41EA0202D2B242F060
:1017F0000C02D2B21A7007F12407BD4680BC7047B4
:1018000080B400AF46F26753C4F200031B78DBB22A
:101810001846BD4680BC704780B500AF4FF0280029
:10182000FEF7E2FD4FF0030000F056FA4FF005001E
:10183000FEF7DAFD4FF0030000F04EFA4FF00F0014
:10184000FEF7D2FD4FF0030000F046FA4FF0010022
:10185000FEF7CAFD4FF0020000F03EFA4FF005001F
:10186000FEF7C2FD4FF0060000F0C6F84FF00E0084
:1018700000F0C2F84FF02C0000F0BEF84FF0080066
:1018800000F0BAF84FF0010000F0B6F84FF00C008D
:1018900000F0B2F84FF0030000F0AEF84FF0050092
:1018A000FEF7A2FD80BD00BF80B500AF4FF00C0079
:1018B00000F0A2F848F23813C1F6FF734FF00102AE
:1018C0001A7080BD80B500AF48F23913C1F6FF73BE
:1018D0001B78002B08D1FFF79FFF48F23913C1F6A0
:1018E000FF734FF001021A70FFF7DEFF80BD00BFEB
:1018F00080B582B000AF02460B46FA71BB71FB792E
:10190000032B2AD801A252F823F000BF1D190000B2
:101910002D1900003D1900004D190000BB79A3F1FD
:101920008003DBB2184600F067F816E0BB79A3F13C
:101930004003DBB2184600F05FF80EE0BB79A3F17C
:101940006C03DBB2184600F057F806E0BB79A3F150
:101950002C03DBB2184600F04FF807F10807BD462C
:1019600080BD00BF80B584B000AF78604FF0010348
:10197000BB737B681B78FB730CE0FB7B184600F0A5
:101980001FF8BA7B7B6813441B78FB73BB7B03F1A6
:101990000103BB73FB7B002BEFD107F11007BD46A2
:1019A00080BD00BF80B582B000AF0346FB71FB79FC
:1019B000184600F005F807F10807BD4680BD00BFD6
:1019C00080B584B000AF0346FB7100F031F8FB79BD
:1019D0004FEA1313FB73FB7B184600F027F9FB79E2
:1019E00003F00F03FB73FB7B184600F01FF907F1B0
:1019F0001007BD4680BD00BF80B584B000AF034670
:101A0000FB7100F015F8FB794FEA1313FB73FB7BB6
:101A1000184600F061F9FB7903F00F03FB73FB7BC1
:101A2000184600F059F907F11007BD4680BD00BF08
:101A300080B582B000AF45F22013C4F2000345F236
:101A40002012C4F200021278D2B202F080021A70A0
:101A500045F22213C4F200031B78DBB223F00F031C
:101A6000FB7145F22213C4F20003FA7942F00F022F
:101A7000D2B21A7045F22313C4F200031B78DBB212
:101A800023F00F03FB7145F22313C4F20003FA792C
:101A90001A7045F22413C4F200031B78DBB223F062
:101AA0000F03FB7145F22413C4F20003FA791A7094
:101AB00045F22013C4F2000345F22012C4F20002E2
:101AC0001278D2B202F0DF021A7045F22013C4F28B
:101AD000000345F22012C4F200021278D2B242F0A2
:101AE0004002D2B21A704FF00000FEF7A1FC45F29E
:101AF0002013C4F2000345F22012C4F2000212784F
:101B0000D2B242F01002D2B21A704FF00100FEF7CA
:101B10008FFC45F22113C4F200031B78FB7145F2E0
:101B20002013C4F2000345F22012C4F2000212781E
:101B3000D2B202F0EF021A704FF00000FEF778FC0C
:101B4000FB7903F00803FB7145F22013C4F2000394
:101B500045F22012C4F200021278D2B242F0100212
:101B6000D2B21A704FF00100FEF762FC45F220136A
:101B7000C4F2000345F22012C4F200021278D2B27D
:101B800002F0EF021A70FB79002BACD145F2201362
:101B9000C4F2000345F22012C4F200021278D2B25D
:101BA00002F0BF021A7045F22013C4F2000345F29E
:101BB0002012C4F200021278D2B202F080021A702F
:101BC00045F22213C4F2000345F22212C4F20002CD
:101BD0001278D2B202F0F0021A7045F22313C4F266
:101BE00000031B78DBB223F00F03FB7145F22313D4
:101BF000C4F20003FA7942F00F02D2B21A7045F231
:101C00002413C4F200031B78DBB223F00F03FB7133
:101C100045F22413C4F20003FA7942F00F02D2B263
:101C20001A7007F10807BD4680BD00BF80B582B0BD
:101C300000AF0346FB71FFF7FBFE45F22013C4F231
:101C4000000345F22012C4F200021278D2B242F030
:101C50002002D2B21A7045F22013C4F2000345F2FA
:101C60002012C4F200021278D2B202F0BF021A703F
:101C700045F22013C4F2000345F22012C4F2000220
:101C80001278D2B202F0F0021A7045F22013C4F2B8
:101C9000000345F22012C4F200021278D1B2FA79A0
:101CA00041EA0202D2B242F01002D2B21A704FF0F0
:101CB0000100FEF7BDFB45F22013C4F2000345F21C
:101CC0002012C4F200021278D2B202F0EF021A70AF
:101CD00007F10807BD4680BD80B582B000AF03465E
:101CE000FB7145F22013C4F2000345F22012C4F246
:101CF00000021278D2B202F09F021A7045F220134D
:101D0000C4F2000345F22012C4F200021278D2B2EB
:101D100002F0F0021A7045F22013C4F2000345F2FB
:101D20002012C4F200021278D1B2FA7941EA02021A
:101D3000D2B242F01002D2B21A704FF00100FEF798
:101D400077FB45F22013C4F2000345F22012C4F2DF
:101D500000021278D2B202F0EF021A7007F10807FF
:101D6000BD4680BD80B582B000AF0346FB71FB79F4
:101D70004FEA1313DBB21A4642F6BC23C0F200034B
:101D80009B5C1846FFF70EFEFB7903F00F0242F64C
:101D9000BC23C0F200039B5C1846FFF703FE07F16B
:101DA0000807BD4680BD00BF80B500AF48F23A13BA
:101DB000C1F6FF731B78002B08D100F00BF848F236
:101DC0003A13C1F6FF734FF001021A7000F060F889
:101DD00080BD00BF80B582B000AF46F27653C4F23A
:101DE00000031B78DBB223F03F03BB7146F276534E
:101DF000C4F20003BA7942F00C02D2B21A7046F271
:101E00009653C4F2000346F29652C4F200021278CE
:101E1000D2B242F00102D2B21A7046F29753C4F223
:101E2000000346F29752C4F200021278D2B242F096
:101E30000102D2B21A704FF6FF7000F03FF84FF671
:101E4000FF7000F059F84FF4004000F065F84FF0D3
:101E5000010000F071F800F077FC0346FB7146F2D8
:101E60009653C4F2000346F29652C4F2000212786E
:101E7000D2B242F01002D2B21A70FB79184600F0CA
:101E800067FC00F02BF807F10807BD4680BD00BFD6
:101E900080B400AF46F27653C4F2000346F27652A5
:101EA000C4F200021278D2B26FEA42626FEA526262
:101EB000D2B21A70BD4680BC704700BF80B483B0F8
:101EC00000AF0346FB8046F60C23C4F20003FA88F9
:101ED0001A8007F10C07BD4680BC704780B500AF83
:101EE00001E000F049F800F037F8034603F0100372
:101EF000002BF6D180BD00BF80B483B000AF034695
:101F0000FB8046F68C23C4F20003FA881A8007F19E
:101F10000C07BD4680BC704780B483B000AF034659
:101F2000FB8046F64C23C4F20003FA881A8007F1BE
:101F30000C07BD4680BC704780B483B000AF034639
:101F4000FB7146F28653C4F20003FA791A7007F166
:101F50000C07BD4680BC704780B483B000AF46F22A
:101F60006653C4F200031B78FB71FB79184607F136
:101F70000C07BD4680BC704780B400AF46F6AC236A
:101F8000C4F200031B889BB21846BD4680BC704754
:101F900080B582B000AF786000F042F8786800F059
:101FA0000BF84FF0070000F01BF800F02DF807F1D8
:101FB0000807BD4680BD00BF80B485B000AF786023
:101FC0004EF60853CEF200031B68FB60FB6803F17A
:101FD00044037A681A6007F11407BD4680BC704755
:101FE00080B483B000AF0346FB714EF20143CEF2E2
:101FF0000003FA794FEA4212D2B21A7007F10C07C5
:10200000BD4680BC704700BF80B400AF4EF20013E5
:10201000CEF200034FF002021A60BD4680BC70474A
:1020200080B400AF4EF28013CEF200034FF00202F4
:102030001A60BD4680BC704780B485B000AF786040
:1020400039607B68BB604FF00003FB6009E0BA6851
:10205000FB6813444FF000021A70FB6803F10103A0
:10206000FB60FA683B689A42F1D307F11407BD465A
:1020700080BC704780B489B000AFF860B9607A6006
:10208000FB687B61BB68BB614FF00003FB610BE049
:102090007A69FB691344B969FA690A4412781A70BB
:1020A000FB6903F10103FB61FA697B689A42EFD394
:1020B00007F12407BD4680BC704700BF80B582B0E1
:1020C00000AF7860396078684FF000013A6800F03E
:1020D0000BFC07F10807BD4680BD00BF80B584B08A
:1020E00000AFF860B9607A60F868B9687A6800F0A3
:1020F00033FB07F11007BD4680BD00BF80B487B039
:1021000000AF786039604FF00003FB604FF00003D0
:10211000BB602CE0BB684FEA83027B6813441B68FA
:102120003B613B69FB753B6923F0FF033B6117E0B3
:10213000FB684FEA43023B6813441B781A463B692D
:102140001344FA684FEA42013A680A4452781A7016
:10215000FB6803F10103FB60FB7D03F1FF33FB75BB
:10216000FB7D002BE4D1BB6803F10103BB60BB68BE
:102170001E2BCFD907F11C07BD4680BC704700BF9E
:1021800080B582B000AF44F29863C4F200031B78BC
:10219000FB7044F28003C4F200034FF000021A8087
:1021A00044F28203C4F200034FF01D021A7044F29D
:1021B0008403C4F200034FF000021A8044F2860345
:1021C000C4F200034FF01D021A7044F28803C4F2F7
:1021D00000034FF000021A8044F28A03C4F20003A5
:1021E0004FF01D021A7044F20033C4F200034FF0A6
:1021F00002021A7044F20003C4F200034FF0080216
:102200001A7044F20A33C4F200036FF00C021A7021
:1022100044F29863C4F200034FF003021A7044F2D0
:102220000933C4F200036FF07B021A7044F20833E2
:10223000C4F200034FF001021A7048F2A063C0F22A
:1022400001037B6007E04FF0780000F075FA7B68CF
:1022500003F1FF337B607B68002B09D044F2083325
:10226000C4F200031B78DBB203F02003002BEAD09A
:1022700044F29863C4F20003FA781A7044F200231F
:10228000C4F200034FF003021A7044F2A163C4F2D7
:10229000000340F20812C4F600121278D2B21A708B
:1022A00044F22223C4F200034FF010021A8044F2D9
:1022B0002023C4F2000341F251021A8040F6B830E4
:1022C00000F03AFA44F20403C4F200034FF00302B0
:1022D0001A7044F20503C4F200034FF001021A70B1
:1022E00044F20403C4F200034FF000021A7044F2F7
:1022F0000403C4F200034FF007021A7044F206030D
:10230000C4F200034FF000021A7044F20803C4F252
:1023100000034FF048021A7044F20403C4F20003B1
:102320004FF000021A7044F20103C4F200034FF0B0
:1023300002021A7044F2A233C4F2000344F2A23241
:10234000C4F200021278D2B242F00702D2B21A707E
:1023500007F10807BD4680BD80B400AF44F2AA3340
:10236000C4F200034FF444721A8045F24D13C4F2D4
:1023700000036FF01F021A7045F26D13C4F20003E0
:102380004FF00D021A7045F62003C4F200034FF01F
:102390001E021A7045F62403C4F200034FF01E0219
:1023A0001A7045F62803C4F200034FF01E021A709B
:1023B00045F62C03C4F200034FF01E021A7045F6D6
:1023C0000013C4F200036FF03F021A7045F60313C6
:1023D000C4F200034FF00C021A7045F60813C4F261
:1023E00000036FF03F021A7045F60B13C4F20003AE
:1023F0004FF00C021A7045F60423C4F200034FF0AC
:1024000040021A7045F60823C4F200034FF0080298
:102410001A7045F62423C4F200034FF020021A700C
:1024200045F62823C4F200034FF004021A7045F663
:102430003423C4F200036FF07F021A7045F638238C
:10244000C4F200034FF001021A7045F65833C4F28B
:1024500000036FF07E021A7045F67603C4F20003A3
:102460004FF044021A70BD4680BC704780B582B000
:1024700000AF72B644F60003C4F200034FF000024E
:102480001A70FFF77DFE44F60003C4F200036FF0FC
:102490003F021A7047F21003C4F200034FF000022B
:1024A0001A7047F22003C4F200034FF000021A70C2
:1024B00045F67C03C4F200034FF001021A7044F2A7
:1024C000E863C4F2000344F2E862C4F20002127846
:1024D000D2B242F00102D2B21A704FF00003FB7088
:1024E0002FE0FA7813464FEA430313444FEA4303BD
:1024F0001A4642F6CC23C0F2000313447B607B688B
:102500001A7859784FEA012141EA020299784FEA94
:10251000014141EA0202DB784FEA036343EA020326
:102520001A467B6819795B794FEA032343EA010372
:102530009BB210461946FFF7C1FDFB7803F101037A
:10254000FB70FB78072BCCD94FF0904040F27C0118
:10255000C4F60001FFF7D2FD45F20020C4F20000EE
:102560004FF00701FFF768FD45F20820C4F20000B4
:102570004FF00701FFF760FD45F21020C4F20000A4
:102580004FF00701FFF758FD45F21820C4F2000094
:1025900040F21861C4F600014FF00702FFF76AFD30
:1025A00045F22020C4F200004FF00701FFF744FD80
:1025B00045F22820C4F2000040F22061C4F6000178
:1025C0004FF00702FFF756FD45F23020C4F200003D
:1025D0004FF00701FFF730FD45F26020C4F2000024
:1025E0004FF00601FFF728FD45F27820C4F2000005
:1025F0004FF00701FFF720FD45F20303C4F201038A
:1026000045F20302C4F201021278D2B242F0020291
:10261000D2B21A7045F21303C4F2010345F2130259
:10262000C4F201021278D2B242F00202D2B21A709F
:1026300044F2A033C4F2000344F2A032C4F2000218
:102640001278D2B242F04002D2B21A7044F2C233CF
:10265000C4F2000344F2C232C4F200021278D2B2D1
:1026600042F01002D2B21A7045F20010C4F200001B
:1026700040F2DC51C4F600014FF00A02FFF72EFDD4
:1026800045F22210C4F2000040F2E851C4F6000105
:102690004FF00802FFF722FD45F23010C4F20000AF
:1026A00040F2F051C4F600014FF00A02FFF716FDA8
:1026B00045F24210C4F2000040F2FC51C4F60001A1
:1026C0004FF00802FFF70AFD45F25010C4F2000077
:1026D00040F20461C4F600014FF00A02FFF7FEFC6D
:1026E00045F26210C4F2000040F21061C4F600012D
:1026F0004FF00802FFF7F2FCFFF72EFE44F2B03075
:10270000C4F2000044F2A031C4F200014FF00C0208
:10271000FFF7E4FC44F2B033C4F2000344F2B032F9
:10272000C4F200021278D2B202F0FD021A7007F170
:102730000807BD4680BD00BF0230800803D000BF3F
:1027400001380046FCD17047EFF3108072B6704735
:1027500080F31088704700BF032A2DE9F0070BD8DB
:102760003AB1002311F803C000F803C001339342CB
:10277000F8D1BDE8F007704782180C46034603E025
:1027800014F8011C03F8011C03F003061946A446C3
:1027900001330134002EF3D11CF00304634608BF5B
:1027A000C1EB020C68D06542C4F1040A0CEB0507CA
:1027B00033464FEACA0A5CF805604FEAC408551A66
:1027C00008E057F8044F264604FA0AF449EA0404DC
:1027D000CC5004335C18032D26FA08F9A5F1040542
:1027E0000CEB0306EDDC002302E0F15CE154013365
:1027F00019199142F9D3BCE753F8404C41F8404CC9
:1028000053F83C4C41F83C4C53F8384C41F8384CA8
:1028100053F8344C41F8344C53F8304C41F8304CB8
:1028200053F82C4C41F82C4C53F8284C41F8284CC8
:1028300053F8244C41F8244C53F8204C41F8204CD8
:1028400053F81C4C41F81C4C53F8184C41F8184CE8
:1028500053F8144C41F8144C53F8104C41F8104CF8
:1028600053F80C4C41F80C4C53F8084C41F8084C08
:1028700053F8044C41F8044C1C460D46403340319B
:10288000BCF13F0FACF1400CB6DC21462B46541B8B
:102890000FE051F8105C43F8105C51F80C5C43F801
:1028A0000C5C51F8085C43F8085C51F8045C43F890
:1028B000045C0F2C0D469C4601F1100103F110033E
:1028C000A4F11004E5DCCCEB0201002303E0EC589A
:1028D0004CF8034004335E19032903EB0C04A1F107
:1028E0000401F4DC7FE700BF032AC9B230B407D883
:1028F00022B10023C15401339342FBD130BC704755
:1029000000EB020C034601E003F8011C03F0030492
:102910001A460133002CF7D14FF00133C2EB0C04FF
:1029200003FB01F31FE042F8403C42F83C3C42F814
:10293000383C42F8343C42F8303C42F82C3C42F8F7
:10294000283C42F8243C42F8203C42F81C3C42F827
:10295000183C42F8143C42F8103C42F80C3C42F857
:10296000083C42F8043C154640323F2CA4F1400498
:10297000D9DC2A46C5EB0C0407E042F8103C42F8CB
:102980000C3C42F8083C42F8043C154610320F2C2F
:10299000A4F11004F1DC2A46C5EB0C0501E042F875
:1029A000043C14460432032DA5F10405F7DC01E0D4
:1029B00004F8011B6445FBD3A0E700BF08B500F095
:1029C00017F8074800B10068064901B109680022FC
:1029D000FDF7EEFB044B0BB1AFF30080FEE700BF49
:1029E000000000000000000000000000FEE7000002
:1029F00070B542F6083642F60835C0F20006C0F25D
:102A00000005761BB61006D0002455F8243001349A
:102A10009847A642F9D842F6083542F61036C0F279
:102A20000005C0F20006761B00F068F8B61006D06C
:102A3000002455F8243001349847A642F9D870BDD7
:102A40004245544100000000444D4B3A0000000054
:102A5000427574746F6E733A0000000050756C73A9
:102A6000653A00004F4E20004F46460043686573AC
:102A700074000000011121314161536373000000B3
:102A800008090101050707040400000001112131B4
:102A90004161536373000000080901010507070441
:102AA00004000000011121314161536373000000F3
:102AB0000809010105070704040000003031323322
:102AC000343536373839414243444546004F00409B
:102AD0000B00105100401000C05100401000F05198
:102AE00000401000000001400010001401400008E8
:102AF00000400140000A004C01400002F8B500BF50
:102B0000F8BC08BC9E467047310100004D03000030
:102B1000F8B500BFF8BC08BC9E4670471D01000018
:102B200000000000382B00000080FF1F180100008B
:082B3000380100000000000064
:102B3800000000000000000000000000000000008D
:102B4800000000000000000000000000000000007D
:102B5800000000000000000000000000000000006D
:102B6800000000000000000000000000000000005D
:102B7800000000000000000000000000000000004D
:102B8800000000000000000000000000000000003D
:102B9800000000000000000000000000000000002D
:102BA800000000000000000000000000000000001D
:102BB800000000000000000000000000000000000D
:102BC80000000000000000000000000000000000FD
:102BD80000000000000000000000000000000000ED
:102BE80000000000000000000000000000000000DD
:102BF80000000000000000000000000000000000CD
:102C080000000000000000000000000000000000BC
:102C180000000000000000000000000000000000AC
:102C2800000000000000000000000000000000009C
:102C380000000000006CDC0280BB000030000000D7
:082C48000000C05D0000000067
:0400000300000329CD
:00000001FF
