:020000041000EA
:4000000000400208310100100D000000950100100000000000000000000000000000000000000000000000000000000091010010000000000000000091010010910100109B
:400040009101001091010010910100109101001091010010910100109101001091010010910100109101001091010010910100109101001091010010910100109101001060
:400080009101001091010010910100109101001091010010910100109101001091010010910100109101001091010010910100109101001091010010910100109101001020
:4000C00010B5064C2378002B07D1054B002B02D0044800E000BF0123237010BD7404000800000000F81B0010084B10B5002B03D00749084800E000BF07480368002B00D1E1
:4001000010BD064B002BFBD09847F9E70000000078040008F81B0010EC000008000000007047EFF3108072B6704780F310887047FFF7F6FF72B6104C104DAC4209DA216861
:400140006268A368043B02DBC858D050FAE70C34F3E70B490B4A0020521A02DD043A8850FCDC094809490860BFF34F8F00F000F900F01EF8FEE70000FC1B0010141C00107B
:4001800074040008400600080000000808ED00E0FEE7FEE700B504207146084202D0EFF3098001E0EFF30880043001F027F9FEE710B562B6014800F04FF9FEE700000810E3
:4001C00070B56249E0239B00CB580F2213401A00D0329200525807210A40032A05D0042A06D0002A12D15A4814E05A4A106811E01A00C0329200554952581F210A40112ABF
:4002000006D0132A04D0FA20C00103E0524801E080200002002B36D14C4BB222D2009A5801211140B125ED005A59120F032422405B591B0F1C4207D0444C63591B0F032458
:400240002340012B02D102E0012300E00023002B01D0002901D1032A4BD13C4BB022D2009D58AD03AD0B3D495958C904C90C9C58240E01231C40013401F04EFA6843210092
:4002800001F04AFA35E0012B33D1304BC822D2009A5801251540C024E4001A59120F03210A401B591B0F194207D028490B591B0F03210B40012B02D102E0012300E0002310
:4002C000002B01D0002D01D1032A12D11F4DC022D200AB587F210B40A958090A1F263140AC58240C3440584301F016FA210001F013FAE0239B00154AD3581B0903221340F4
:40030000D840144C6060164B1D692D0AFC32154001351969090E013101F0FEF9A060290001F0FAF90500E06020610E4BC0180E4901F0F2F920750D4BE818FA21890001F042
:40034000EBF9A061C003E06170BDC0460000264000127A00C000000800366E0184050000000021403F420F0040420F00E703000010B5234BB021C9005A58520052085A5038
:40038000E02080001A583024A2431A50802252045A501C491C4A9950A021890104329950FF211A4A995081315A58920092088020C00502435A505A588020000602435A5050
:4003C0005A58012082435A5000F042F9FFF7F8FE00F06EF800F076F800F00EFAB0235B055B78002B04D0B0235B055B78DBB200E02123212B03D1064B0022DA605A6010BDE8
:400400000000264001000200840500008C050000E00023408023024AD3580320184070470000214010B5FFF77CFE084980228C58074B2340074C23438B508823034AD358D1
:40044000DB06FAD5FFF771FE10BDC04600002140FCFF00000100FA0570B50500FFF761FE0400FFF7D7FF032801D1FFF7DBFF0A4AB0239B00D55080215058084B0340084806
:40048000034353508823044AD358DB06FAD52000FFF74BFE70BDC04600002140FCFF00000300FA0510B5002000F0EEFC10BDC04610B5034A8021042000F052FA10BDC04617
:4004C0009004000810B50748103000F009FB01F000F80400044800F075FB200000F0FDFF10BDC0469004000880180010FEE7C04630B587B0484BA021C9005A58032082439E
:400500005A50464990240A59454802400A510A691202120A8024640422430A610A6910400861E022920099580F208143995099582130814399509958802000060143995082
:400540000021012000F0D2FC0021022000F0CEFC0021032000F0CAFC0021042000F0C6FC0021002000F0C2FC01A82E4903000A0032CA32C312CA12C300F0E0FC002802D009
:400580000420FFF7B3FF2449274A8B588020000603438B50254800F089FD002802D00420FFF7A4FF1C4C224BE158224A0A40E250E158214A0A40E250E25880252D062A43B8
:4005C000E250043BE1581D4A0A40E250E1581C4A0A40802189010A43E250E258802109020A43E250174A1168174B0B40802149000B431360002001F075F8144BE2581543D5
:40060000E550E158012291430A43E2506421002000F00CFF07B030BD0000264000002140FF00FFFFB4180010087F0000400D030004050000FEFCFFFFFFFF00FFFFF0FFFF30
:40064000FF8FFFFF00002740FFFCFFFF0C05000030B58BB09621002000F0E8FE00F0BEFE002801D100F0AAFE012000F0D7FF1A4A516C1A4B0B40E82189010B435364536C63
:400680001B0AFF2213403A2B07D1134A516C144B0B40E82189010B435364FFF729FF01AC24220021200001F0C3F8C023DB01E36021000C4800F0AAF822000B4B143323CB54
:4006C00023C223CB23C223CB23C22100074800F09DF80BB030BDC04600002740FF00FFFFFFC5FFDF00003240B418001000033240214B984230D00ED8402831D004D800286A
:400700001FD010282AD031E080282BD080235B00984229D02AE0194B984229D007D8A0231B0698420DD0164B984212D01EE0154B98420AD0144B984209D0144B984215D1F8
:4007400001E0002016E0124814E0124812E0124810E0A020C0030DE007480BE00F4809E00F4807E00F4805E0034803E00E4801E0A420C0037047C04606005200010000F048
:40078000090000A0040000F0050000F0030000F0010052000200520003005200010050000200500005005200FF00520010B50C4B1B69002B11DB0B4B1868FFF799FF012130
:4007C000094B0A4AD150084B084AD358002BFAD1074BD358002BF6D100E0064810BDC04600002340200600080C040000000025408C0400000200500010B5022202490020BE
:4008000000F0AEFA10BDC0464501000870B505000C00002848D0002948D0FF230A689A4303D08D21224800F0BBFDFF2322699A4303D08E211E4800F0B3FDA3685B0D03D0EC
:400840008F211B4800F0ACFD63685B0A03D09021174800F0A5FDE3695B0F03D09121144800F09EFD236A5B0F03D09221104800F097FD104BEB18DB090F4A944663441B0174
:4008800022682A60E268AA622269EA6262692A63A2686A626268AA61A2696A63E2691A60226A5A60002002E0044800E0034870BDEC1800100000CEBF0010030401005A0058
:4008C00070B504000D000369002B0ADA0B0C03D00549064800F064FD2D042D0C6560002000E0034870BDC046B30200006C19001001008A0070B505000C000368002B01DA47
:40090000002300E0084B002B0BD1EA60230C03D00649074800F044FD2404240CAC60002000E0014870BDC04601008A009A0200006C19001070B505000C1E03D19921064873
:4009400000F02EFD2B69002B03DAEB682360002000E0024870BDC046AC19001001008A00F8B504000E0015000F283FD8002A10D100290ED10F2804D9AA21FF31214800F070
:400980000FFD6401204B9C466444204B1C60002037E0002D2CD0002E2CD0F3062CD10F2C04D9AA21FF31174800F0FAFC6401164B9C466444154F3C607E60BD60F2080021AC
:4009C000280000F035FF00212000FFF779FF3A0001CA0021FFF78EFF00280FD10B4B18680021FFF76DFF00280AD10AE0084808E0074806E0064804E0054802E0054800E00A
:400A00000448F8BDEC190010000023403006000803018A0001018A00F0B583B00D001C4B1B68DC68236883422DD947097B01C01A012383401E00002903D100F04AFD01900C
:400A400001E000230193124B18680368002B01DA002300E00F4B002B0ED16368BF00DF193B68334203D0B3433B60002400E00A4C0021FFF725FF00E0084C002D04D10198C7
:400A800000F02BFD00E0064C200003B0F0BDC0463006000801008A00020188000301880004018A000A4B1B68DA68136883420BD943095901401A0121814052689B009B588E
:400AC0000B4203D0034802E0034800E003487047300600080101880004018A0000018800034B1B68002B01D1014B18607047C0463C060008F0B5474680B404000F009046B4
:400B00001E002B4B1B68002B03D1B421294800F047FC072C03D9B521264800F041FC244B1B682C2060431C18FF22150035402560330A13406360330CA3600F2D04D9AA21E8
:400B4000FF311D4800F02CFC6B011C4A94466344236165680F2D04D9E2214900164800F01FFC6D01164B9C4665446561A668330C04D0F1214900104800F012FC330C04D051
:400B8000E421FF310C4800F00BFC3604330C1E43AE604346E36127620023A361069B002B02D000229B5EA38104BC9046F0BDC0463C0600082C1A0010EC1900100000234012
:400BC00000102340F0B58FB0041E03D150212E4800F0E6FB6368032B03D952212A4800F0DFFBE36A002B03D15621274800F0D8FBE368072B03D95721234800F0D1FB236AF2
:400C0000072B03D95821204800F0CAFB236B002B03D159211C4800F0C3FB07AA1300210061C961C321C921C302AD290023001433C1CBC1C141CB41C10821535E0CAE338051
:400C4000079B1933B370089B0D930B9B0A980096A26AE16AFFF74EFF2B69E868002200920021FFF747FF216B300000F027FB0023F25E002A05DB1F231A401E3B9340034A53
:400C800013600FB0F0BDC0462C1A001000E100E0F8B504000F0016001D00002A03D1FD21284800F07DFB284B1B68002B03D1FE21244800F075FB072C03D9FF21214800F0E9
:400CC0006FFB072F04D9802149001E4800F068FB1D4B1B682C2120004843181879435918012213004C68A3401B044468A24014000269002A20D08F69002F1FD11268002AC6
:400D000001DA002200E0114A002A19D132681204120C134333600369DE6001238B614D620569230C03D00A490A4800F039FB2204120CAA60002004E0074802E0074800E05C
:400D40000648F8BD2C1A00103C06000801008A009A020000EC19001004028A0007028A0070B504000D001600134B1B68002B04D16221FF31114800F013FB072C04D9B12158
:400D800049000E4800F00CFB0B4B1B682C2060431C18236A002B04D1B3214900074800F0FFFAE369B34204D9236AB6009D51002000E0034870BDC0463C0600082C1A001052
:400DC0000A028A0070B582B0040000230193002804D1EA2149002B4800F0E2FA2369002B04D1D621FF31274800F0DAFA6369002B04D1EB214900234800F0D2FA236A002BD5
:400E000004D1D821FF311F4800F0CAFA6269D5682B0C1FD01B041360136820690369002B18DA01A9FFF786FD00280ED1019803681E0CFF221340E269934207D29B00226A60
:400E4000D358002B02D0984700E0002631002069FFF736FD2D042D0C0FD063691D601B68636A002B03D098470023636203E0A36A002B00D098470023A36163691B6802B0E9
:400E800070BDC0462C1A001010B504000B4B1B68002B04D1DA214900094800F081FA072C04D9B621FF31064800F07AFA034B1B682C2060431818FFF785FF10BD3C060008BD
:400EC0002C1A001010B504000F2803D9E421054800F066FAA402044B9C46644423680F20184010BD6C1A00100040244004281DD8042904D94B1EFF3B9BB2132B18D8FF2915
:400F00000CD91F2319400B4A0300C0339B009950D03080000423835000200AE007231940D0308000034BC150002002E0024800E0014870470000264001004A0070B5041E58
:400F400004D1E221FF314C4800F02AFAB023DB004A4AD358002B01DB002500E0484D002D00D086E0474B22689A4204D9F8214900414800F015FA23689B03990BE3791B0647
:400F80008022520413400B43B022D2003B498B50A2883D4B9A4204D9F821FF31364800F0FFF92289394B9A4204D9FC214900324800F0F6F9A388DB04D90C23891B04344A9C
:400FC00013400B43334A2D498B50A37A0F2B04D9FF214900284800F0E3F9E37A0F2B03D92A49254800F0DCF9A289274B9A4204D980218900204800F0D3F9A37A0F21194047
:40100000E27A1201FF2313400B43A289120222490A401343A27B1207C02189050A401343B122D20015498B50A379072B04D982218900114800F0B4F9228A144B9A4203D901
:4010400016490D4800F0ACF90C4815494658154B1E40A3791B02E022D2001340334343504658114B1E40238A1B04094A134033434350280070BDC046AC1A00100000264046
:4010800003004A00FFFF0300FF1F0000FF0100000000FF018405000000FF1F00090200008C050000FFF8FFFFFFFF00FE70B505002D492E4A8B588020000603438B502C00A2
:4010C00003E0012000F060F9013CB223DB00264AD3585B0701D4002CF3D12349B122D2008858234B03408020800503438B50002D02D00ED0002C0CD01B49B022D2008B583C
:401100008020000603438B5003E0012000F03CF9013CB223DB00144AD358DB0701D4002CF3D1002D0ED0002C0CD10F4AB021C90053585B005B0853500C4953585B005B08D1
:4011400053500BE0084B0221B222D2009950B121C9005A58C020800502435A50002C01D1044800E0002070BD000026408C050000FFFFFFCF02004A0010B583089A00801A31
:40118000C000FF228240D44381400A40072B32D89B001949CB589F46184B196A0C4022431A6228E0154B596A0C4022435A6222E0124B996A0C4022439A621CE00F4BD96AD6
:4011C0000C402243DA6216E00C4B196B0C4022431A6310E0094B596B0C4022435A630AE0064B996B0C4022439A6304E0034BD96B0C402243DA6310BD341B001000002140AF
:4012000083089A00801AC100FF228A40072B2BD89B001748C3589F46164B186A1040C84023E0144B586A1040C8401EE0114B986A1040C84019E00F4BD86A1040C84014E0C8
:401240000C4B186B1040C8400FE00A4B586B1040C8400AE0074B986B1040C84005E0054BD86B1040C84000E00020C0B27047C046541B00100000214070B504000D000B4BDB
:401280009A680B4B9A420BD1002903D1FC21094800F086F81034064BA400E058E55003E01034A400044BE05870BDC04600ED00E000000008741B001000000010F0B583B0BE
:4012C000041E019150D04368032B03D93621294800F066F80023E05E002802DBA178FFF74BFF0023E25E6368002A12DB9008224EC0308000875903210A40D200FF25290066
:4013000091408F4399012B000B4093403B43835117E092B20F21114008398908063189001648844661444E6803200240D200FF2738009040864398013B0003409340334376
:401340004B600E4B9A680E4B9A420FD1019B002B03D14521074800F023F80023E05E0199FFF78AFF002002E0064800E0002003B0F0BDC046741B001000E100E000ED00E09A
:40138000000000080100560010B5034B1B78584300F096F810BDC046D400000801BEFEE770B50D00044C18220100200000F048FAA5610020FFF7F2FF38040008054B80226A
:4013C00012069A649B6C002B01DB002000E002487047C0460000274003004600054B8022120198585B68FF221A4202D08023DB021843704700002640FEE7C04610B50A4B0E
:401400000268DA6142681A6282685A62C2689A620269DA6242691A6382695A63C2699A63FFF7EAFF10BDC04638040008F0B5002801D0192200E064228A42924152421C4BA7
:40144000E8256D005C590327BC433A4014435C515C59184E34405C51D03D5C59BC4322435A515A5916405E51002805D010290DD921290DD8012014E01D290BD93A290BD900
:4014800057290BD978290BD803200AE0002008E0022006E0002004E0012002E0022000E00420054A13680F218B4303431360F0BD00002140FFFCFFFF00002540000000000D
:4014C0000230800803D001300238FCD1C046C0467047EFF3108072B6704780F31088704710B5074A074813580F24A34302210B43135004381358A3431943115010BDC04677
:401500000000214004F0000010B5074A074813580F24A34303210B43135004381358A3431943115010BDC0460000214004F000000449054A8858054B0340C020C001034330
:401540008B5070470000214004F00000FF8FFFFF0449054A8858054B03408020C00103438B5070470000214004F00000FF8FFFFF10B50020FFF7A6FCB0235B055B78002B21
:4015800004D0B0235B055B78DBB200E02123222B03D8002803D1013002E0012000E0002010BDC04610B504000020FFF78BFC00280AD114498A69144B1A40240680235B04D7
:4015C0001C4014438C611BE0002C01D00F4A00E00F4A01210F48FFF78DF900280DD10D4B1B69002BFBDB0B4BDB681B0E1B06A0221206934203D0084802E0074800E0002003
:4016000010BDC04600F02540FFFFFFFE01010030010000300000234004004200F8B50500012804D9EA21C9002948FFF7B9FEFFF79FFF002848D0FFF74CFF0700002D17D1A0
:40164000E823DB00B0225205D65CF6B20120FFF7A9FF041E1FD1FFF743FF1E481E4943581F229343143A13434350FFF761FF12E01A4BB0225205D65CF6B2164816494358BA
:401680001F229343143A134343500920FFF77CFEFFF75EFF0024002C12D10E490E4A8B581F20834306401E438E50012D08D11638FFF76AFEFFF728FF0020FFF773FF040045
:4016C0003800FFF70AFF00E0054C2000F8BDC046B81B0010000026401CFF00004107000003004200042805D1094A116804230B4313600CE00006C0239B04184090239B00E6
:40170000044AD050024A136804218B431360704710E000E000002140002243088B4274D303098B425FD3030A8B4244D3030B8B4228D3030C8B420DD3FF22090212BA030C10
:401740008B4202D31212090265D0030B8B4219D300E0090AC30B8B4201D3CB03C01A5241830B8B4201D38B03C01A5241430B8B4201D34B03C01A5241030B8B4201D30B036E
:40178000C01A5241C30A8B4201D3CB02C01A5241830A8B4201D38B02C01A5241430A8B4201D34B02C01A5241030A8B4201D30B02C01A5241CDD2C3098B4201D3CB01C01A6A
:4017C000524183098B4201D38B01C01A524143098B4201D34B01C01A524103098B4201D30B01C01A5241C3088B4201D3CB00C01A524183088B4201D38B00C01A5241430851
:401800008B4201D34B00C01A5241411A00D20146524110467047FFE701B5002000F006F802BDC0460029F7D076E770477047C04603008218934202D019700133FAE7704772
:40184000030030B5002A0DD00C7801335D1E013A2C700131002CF5D19A189A4202D01C700133FAE730BD0000F8B5C046F8BC08BC9E467047F8B5C046F8BC08BC9E467047D1
:40188000030000000100000001000000000000000503600004000000010000000000000001000000060460000800000000060008A5040010F4010000140004010A00090556
:4018C0000800000063010000000000000000000000000000000000BA0000000000000000000000000000000000001D1D47656E6572617465645F536F757263655C50536FBB
:4019000043365C70646C5C647269766572735C7065726970686572616C5C6770696F5C63795F6770696F2E630000000047656E6572617465645F536F757263655C50536F00
:4019400043365C70646C5C647269766572735C7065726970686572616C5C6770696F5C63795F6770696F2E680000000047656E6572617465645F536F757263655C50536FBB
:4019800043365C70646C5C647269766572735C7065726970686572616C5C6970635C63795F6970635F6472762E68000047656E6572617465645F536F757263655C50536FB6
:4019C00043365C70646C5C647269766572735C7065726970686572616C5C6970635C63795F6970635F6472762E63000047656E6572617465645F536F757263655C50536F7B
:401A000043365C70646C5C647269766572732F7065726970686572616C2F6970632F63795F6970635F6472762E68000047656E6572617465645F536F757263655C50536FBC
:401A400043365C70646C5C647269766572735C7065726970686572616C5C6970635C63795F6970635F706970652E630047656E6572617465645F536F757263655C50536F98
:401A800043365C70646C5C647269766572735C7065726970686572616C5C70726F745C63795F70726F742E630000000047656E6572617465645F536F757263655C50536F53
:401AC00043365C70646C5C647269766572735C7065726970686572616C5C737973636C6B5C63795F737973636C6B2E630000000047656E6572617465645F536F75726365D9
:401B00005C50536F43365C70646C5C647269766572735C7065726970686572616C5C737973636C6B5C63795F737973636C6B2E680000000098110010A4110010B011001035
:401B4000BC110010C8110010D4110010E0110010EC11001018120010221200102C12001036120010401200104A120010541200105E12001047656E6572617465645F536F04
:401B8000757263655C50536F43365C70646C5C647269766572735C7065726970686572616C5C737973696E745C63795F737973696E742E630000000047656E65726174650D
:401BC000645F536F757263655C50536F43365C70646C5C647269766572735C7065726970686572616C5C737973706D5C63795F737973706D2E63000000000000000000103F
:401C000000000008C00000001C1C0010C00000087803000074040008CC0100000048E80100127A0000093D0000093D0000093D0004000000A00F00000000D00702FF0000EA
:401C4000E9000010C1000010000000000004400B19D00D4B1B68002BFBDA3E220B4B1A600B4A0C4B1A600C4B0621A322D20099500A4A98509B580022034B5A60074B064A38
:401C8000D358002BFADA7047E0002340040126401E1F000008012640000026401C05000010B54378FF2B0DD100F064F9064BDB685A68116801230B4313601368DB07FCD4AC
:401CC00000F038F910BDC04680002340F0B583B005000F0000F046F90600032824D12E4B1B69002B22DB002000F01CF92B4B98421ED000232A4A0021012000F023F9002837
:401D000003D0284C17E0013400E00024002000F009F9224B984202D0234B9C42F3D9224B9C4207D91F4C06E0002404E01D4C02E01C4C00E00024002C2BD100F01BF90190F1
:401D40001A4B1B4AD358002B13DA1A4A01211A4800F018F900280ED13800FFF777FF002D0BD0154B1B69002BFBDB00F0D3F8040004E00C4C02E00B4C00E0104C032E05D15E
:401D80000121002000F0E6F80028F9D1019800F0D1F8200003B0F0BDC000234001018800E000000805005200EF4902001C05000000002640200600080000234001005000C0
:401DC00070B5304B1B68002BFBDA2E4BD96802220A43DA60DB68DB071FD52A4EF2681204150C294B1A69120A1204FF2424042240110090241A59120A12060A432A43F260EB
:401E00001969224A114090252D012943196119590A402A431A511A691B591A4B00225A605B681B4A116904230B431361012801D030BF00E020BF134B1B68002BFBDA114B5E
:401E4000DB68DB0715D510480269104B1A4014000C4DEA68120C1202FF2109020A4022430261902142581340EA68120E120213434350044BDA6802218A43DA6000225A6009
:401E800070BDC046E000234000002140FF00FFFF00ED00E0164A116904230B431361012801D030BF00E020BF124B1B68002BFBDA86235B00104AD358002B14D10F4A104BE9
:401EC0001A6006220F4B1A6038320F4B1A6006320E4B1A600D4B1B68002BFBDA0C4986235B00054AD1500022024B5A607047C04600ED00E0E0002340000025401E1F0000E7
:401F00000801264018052640040126401C052640AAAAAAAA01B40248844601BC604700BFAD07001001B40248844601BC604700BFA50A001001B40248844601BC604700BFCE
:401F4000DB14001001B40248844601BC604700BF910C001001B40248844601BC604700BF190A001001B40248844601BC604700BF1504001001B40248844601BC604700BFA9
:401F8000D314001001B40248844601BC604700BFF5080010000000000000000000000000000000000000000000000000000000000000000000000000000000000000000031
:401FC00000000000000000000000000000000000000000000000000000000000000000000000000000000000000000000000000000000000000000000000000000000000E1
:020000041008E2
:4000000000780408F90208100D00000061030810610308106103081061030810000000000000000000000000000000005D0308105D030810000000005D0308105D0308104C
:400040005D0308105D0308105D0308105D0308105D0308105D0308105D0308105D0308105D0308105D0308105D0308105D0308105D0308105D0308105D0308105D03081000
:400080005D0308105D0308105D0308105D0308105D0308105D0308105D0308105D0308105D0308105D0308105D0308105D0308105D0308105D0308105D0308105D030810C0
:4000C0005D0308105D0308105D0308105D0308105D0308105D0308105D0308105D0308105D0308105D0308105D0308105D0308105D0308105D0308105D0308105D03081080
:400100005D0308105D0308105D0308105D0308105D0308105D0308105D0308105D0308105D0308105D0308105D0308105D0308105D0308105D0308105D0308105D0308103F
:400140005D0308105D0308105D0308105D0308105D0308105D0308105D0308105D0308105D0308105D0308105D0308105D0308105D0308105D0308105D0308105D030810FF
:400180005D0308105D0308105D0308105D0308105D0308105D0308105D0308105D0308105D0308105D0308105D0308105D0308105D0308105D0308105D0308105D030810BF
:4001C0005D0308105D0308105D0308105D0308105D0308105D0308105D0308105D0308105D0308105D0308105D0308105D0308105D0308105D0308105D0308105D0308107F
:400200005D0308105D0308105D0308105D0308105D0308105D0308105D0308105D0308105D0308105D0308105D0308105D0308105D0308105D0308105D0308105D0308103E
:400240005D0308105D0308105D0308105D0308105D0308105D0308105D0308105D0308105D0308105D0308105D0308105D0308105D0308105D0308105D0308105D030810FE
:400280005D0308105D0308105D03081010B5054C237833B9044B13B10448AFF300800123237010BDEC4702080000000078100810084B10B51BB108490848AFF30080084860
:4002C000036803B910BD074B002BFBD0BDE81040184700BF00000000F047020878100810B8420208000000007047EFF3108072B6704780F310887047FFF7F6FF72B6114C90
:40030000114DAC4209DA21686268A368043BA2BFC858D050FAE70C34F3E70C490C4A00209142BCBF41F8040BFAE70A480A490860BFF34F8F00F020F900F0FAF800F01EF885
:40034000FEE700007C10081094100810EC470208D84902080040020808ED00E0FEE7FEE700B504207146084202D0EFF3098001E0EFF30880043000F037FDFEE708B562B673
:40038000054C0825A5604FF47A7000F003FD6560FA2000F0FFFCF3E700003240704700BF5C4AD2F8803303F00F0303F1D00152F8212002F00702032A04D0042A05D092B94F
:4003C000554914E0554A116811E003F1C002514951F8222002F01F02112A06D0132A04D04FF4FA4103E04E4901E04FF400418BBB484BD3F8902502F00100D3F88825C2F37C
:400400000172D3F8883513F0405F07D0414BD3F88835C3F30173012B02D102E0012300E0002303B108B9032A46D13A48D0F88025C2F31103D0F88425C2F30C02D0F8800510
:40044000C0F300600130B1FBF2F202FB03F2B2FBF0F131E0012B2FD12E4BD3F8402602F00100D3F80026C2F30172D3F8003613F0405F07D0274BD3F80036C3F30173012BF2
:4004800002D102E0012300E0002303B108B9032A12D12048D0F8002602F07F02D0F80036C3F30423D0F80006C0F3044002FB01F2B2FBF3F2B2FBF0F1164BD3F88033C3F3CD
:4004C000011321FA03F215494A601648D0F89030C3F3072301330069000E0130B2FBF0F08860B2FBF3F3CB600B6103F5742202F23F220D48A0FB0202C2F387420A7503F2C6
:40050000E7330A4AA2FB03239B098B61DB03CB61704700BF0000264000127A008C42020800366E010000214083DE1B43D34D621008B5104BD3F8802122F0404242F080424D
:40054000C3F88021D3F8802142F00042C3F88021D3F8802122F00102C3F88021FFF71EFFFFF71EFF00F022F800F028F800F0B0F808BD00BF0000264008B5FFF7B6FE074A8C
:40058000D2F8883043F47003C2F88830BFF34F8FBFF36F8FFFF7ADFE08BD00BF00ED00E008B5012000F078FB08BD00BF08B500221146042000F0FEF808BD00BF10B50648CF
:4005C00000F0B4F900F06DFC0446044800F01AFA204600F06AFC10BD08480208000F08101F4B98422DD00CD840282ED003D8E8B1102828D02FE0802829D0B0F5807F28D0E6
:4006000029E0184B984228D006D8B0F1204F0DD0154B984212D01EE0144B98420AD00133984209D0023B984215D101E0002070470F4870470F4870470F4870474FF4A000DB
:400640007047074870470D4870470D4870470D487047034870470C4870474FF4A400704706005200010000F0090000A0040000F001005200020052000300520001005000BB
:400680000200500005005200FF00520008B50C4B1B69002B12DB0B4B1868FFF7A1FF0122094BC3F88C24084BD3F80C34002BFAD1054BD3F88C34002BF5D108BD034808BD4D
:4006C0002000234088490208000025400200500000B583B05523ADF80030002301930C49684600F019FBBDF90030002B08DB590903F01F03012202FA03F3064A42F8213097
:4007000002220549012000F03FFA03B05DF804FB3943020800E100E00D43020838B50369002B0DDA0D4604460B0C1B0423B140F2B321044800F048FBA9B26160002038BD8D
:40074000014838BD340F081001008A0038B50368002B01DA002300E0094B73B90D460446C2600B0C1B0423B140F29A21054800F02BFBA9B2A160002038BD014838BD00BFED
:4007800001008A00340F081038B504460D4619B99921064800F018FB2369002B03DAE3682B60002038BD024838BD00BF740F081001008A000F2840D8F8B515460E46044654
:4007C00082B979B90F2804D940F2A911214800F0FBFA600100F1804000F50C101E4B18600020F8BD5DB366B316F01F0F2BD10F2C04D940F2A911174800F0E6FA640104F17F
:40080000804404F50C14144F3C607E60BD60F2080021284600F04CFB00212046FFF77EFF3A4652F8040B0021FFF790FF68B900213868FFF773FF50B9F8BD0848704707484A
:40084000F8BD0648F8BD0548F8BD0548F8BD0448F8BD00BFB40F08109849020803018A0001018A002DE9F0411B4B1B68DC68236883422CD90D464609A0EB4610012303FAAF
:4008800000F819B900F00DFB074600E00027124B18680368002B01DA002300E00F4B83B9626852F8263018EA030F05D023EA080342F82630002400E0094C0021FFF72EFFA3
:4008C00000E0084C25B9384600F0EFFA00E0064C2046BDE8F08100BF9849020801008A00020188000301880004018A000B4B1B68DB681A6882420CD94109A0EB4110012276
:4009000002FA00F05B6853F82130184203D004487047044870470448704700BF984902080101880004018A0000018800024B1B680BB9014B18607047A44902082DE9F84393
:400940000446884691461E46089F2A4B1B681BB9B421294800F038FA072C03D9B521264800F032FA234B1B682C2000FB04F01C18F5B21D50C6F307236360360CA6600F2D3C
:4009800004D940F2A9111D4800F01EFA6D0105F1804505F50C15256165680F2D04D94FF4E271164800F010FA154B03EB45156561A668330C1B0423B14FF4F1710F4800F0C9
:4009C00003FA330C1B0423B140F2E3110B4800F0FBF9B3B243EA0646AE60C4F81C90C4F820800023A36117B1B7F90030A381BDE8F88300BFA4490208F40F0810B40F0810FC
:400A000000102340F0B58FB0044618B950212C4800F0DAF9A369072B03D95421284800F0D3F9E36A1BB95621254800F0CDF9E368072B03D95721224800F0C6F9236A072B7D
:400A400003D958211E4800F0BFF9236B1BB959211B4800F0B9F907AE04F114050FCD0FC62F6802AD26460FCE0FC533682B60079B1933ADF83030089B0D93A26AE16A0CADEF
:400A800000953B460A98FFF759FF00210091069B0A460598FFF752FF216B284600F03CF9BDF93030002B08DB590903F01F03012202FA03F3034A42F821300FB0F0BD00BFD7
:400AC000F40F081000E100E0F8B506460F461D4614461AB9FD21264800F076F9254B1B681BB9FE21224800F06FF9072E03D9FF211F4800F069F9072F04D94FF480711C4814
:400B000000F062F91B4B1B682C2101FB063001FB07314B68012202FA03F31B04466802FA06F60269EAB18F69EFB91268002A01DA002200E0104AC2B9228813432360036956
:400B4000DC6001238B614D620469330C1B0423B140F29A21094800F037F9B2B2A2600020F8BD0748F8BD0748F8BD0648F8BD00BFF40F0810A449020801008A00B40F081000
:400B800004028A0007028A00F8B505460F461646124B1B6823B940F26111114800F014F9072D04D94FF4B1710D4800F00DF90B4B1B682C2404FB0534236A23B94FF4B371C1
:400BC000074800F001F9E369B34204D9236A43F826700020F8BD0348F8BD00BFA4490208F40F08100A028A0070B582B000230193044620B94FF4EA71264800F0E5F823696E
:400C000023B940F2D511234800F0DEF8636923B94FF4EB711F4800F0D7F8236A23B940F2D7111C4800F0D0F86369DD682A0C1CD012041A601B6820690369002B15DA01A984
:400C4000FFF7A2FD60B9019803681E0CDBB2E269934206D2226A52F8233013B1984700E0002631462069FFF759FDADB275B16369ADB21D601B68636A1BB1984700236362E5
:400C800002E0A36A03B198470023A36163691B6802B070BDF40F081010B504460B4B1B6823B94FF4DA710A4800F08EF8072C04D940F2B511064800F087F8044B1B682C2045
:400CC00000FB0430FFF790FF10BD00BFA4490208F40F081038B50C4B9A680C4B9A420ED10D46044619B9FC21094800F06DF804F11003064A52F8230042F8235038BD103071
:400D0000044B53F8200038BD00ED00E000400208341008100000081070B338B504460D464368072B03D93621154800F04DF8B4F900306268002B08DB5201D2B203F1604307
:400D400003F5614383F8002305E003F00F035201D2B20C49CA540C4B9A680C4B9A420DD11DB94521064800F02FF82946B4F90000FFF7B0FF002038BD05487047002038BD0B
:400D80003410081014ED00E000ED00E0004002080100560010B5044605E0084B186800F077F8A4F50044B4F5004FF6D8044B186800FB04F000F06CF810BD00BFA84202082D
:400DC000A442020801BEFEE738B50D46044C18220146204600F074F8A5610020FFF7F2FF58470208FEE700BF08B50268254BDA6142681A6282685A62C2689A620269DA62C7
:400E000042691A6382695A63C2699A631E4A916AD963D16A1964516A5964516B9964926BDA64F1EE103A13F0900F27D0026A154B1A65426A5A65826A9A65C26ADA65026BBC
:400E40001A66426B5A66826B9A66C26BDA66026C1A67426C5A67826C9A67C26CDA67026DC3F88020426DC3F88420826DC3F88820C26DC3F88C20026EC3F89020FFF7B2FF2D
:400E800008BD00BF5847020800ED00E0000000000230800803D001300238FCD100BF00BF7047EFF3108072B6704780F31088704702440346934202D003F8011BFAE7704746
:400EC00010B5034642B111F8014B03F8014B013A002CF7D11A4400E010BD934202D003F8014BFAE710BD0000F8B500BFF8BC08BC9E467047F8B500BFF8BC08BC9E46704781
:400F0000030000000100000001000000000000000503600004000000010000000000000001000000060460000800000068490208A105081047656E6572617465645F536FA3
:400F4000757263655C50536F43365C70646C5C647269766572735C7065726970686572616C5C6970635C63795F6970635F6472762E68000047656E6572617465645F536F00
:400F8000757263655C50536F43365C70646C5C647269766572735C7065726970686572616C5C6970635C63795F6970635F6472762E63000047656E6572617465645F536FC5
:400FC000757263655C50536F43365C70646C5C647269766572732F7065726970686572616C2F6970632F63795F6970635F6472762E68000047656E6572617465645F536F07
:40100000757263655C50536F43365C70646C5C647269766572735C7065726970686572616C5C6970635C63795F6970635F706970652E630047656E6572617465645F536FE2
:40104000757263655C50536F43365C70646C5C647269766572735C7065726970686572616C5C737973696E745C63795F737973696E742E630000000000000000000008106B
:40108000004002088C0200009C1008108C420208CC040000EC470208EC0100000048E80100127A0000093D0000127A0000127A0008000000401F00000000A00F02FF000090
:4010C000B10208108D0208100000000080B2C200E8B10F4B1B68002BFBDA3E210D4B196041F61E7104331960A3F584730621C3F8181522F07F42C3F81C25D3F81C350022C3
:40110000034B5A60044BD3F81C35002BFADA7047E0002340040126400000264008B54378FF2B0ED100F018FA064BDB685A68136843F001031360136813F0010FFBD100F02A
:40114000EBF908BD8000234038B54FF260034B4AD3589CB200F000FA0546494B9A68631E032B00F28780DFE803F002234465032A06D10822434B9A60414B9B68032BFBD00B
:401180003F4A13691069C0F307221B0E581C02FB00003D4B03FB00F03C4B1B683C4AA2FB03239B09B0FBF3F08230FFF78FFF61E0032A06D10822334B9A60314B9B68032B76
:4011C000FBD02F4A13691069C0F307221B0E581C02FB00002C4B03FB00F02C4B1B682C4AA2FB03239B09B0FBF3F08230FFF76EFF40E0032A06D10822224B9A60204B9B683E
:40120000032BFBD01E4A13691069C0F307221B0E581C02FB00001C4B03FB00F01B4B1B681B4AA2FB03239B09B0FBF3F08230FFF74DFF1FE0032A06D10822124B9A60104B77
:401240009B68032BFBD00E4A13691069C0F307221B0E581C02FB00000B4B03FB00F00B4B1B680B4AA2FB03239B09B0FBF3F08230FFF72CFF284600F04FF938BD0000254075
:4012800000002140A000234040420F0090420208D34D6210F8B505460E462A4B1B69002B1FDB002000F050F9274B98421BD00023264A0121184600F037F918B1244C15E070
:4012C000013400E00024002000F03EF91E4B984202D0204B9C42F3D91E4B9C4205D91C4C04E01B4C02E01A4C00E000243CBB00F033F90746184BD3F81C35002B11DA174ACA
:401300000121174800F000F968B93046FFF7DEFE5DB1134B1B69002BFBDB00F0EDF8044604E00B4C02E00A4C00E00E4C0121002000F002F90028F9D1384600F0EDF8204645
:40134000F8BD00BFA000234001018800AC42020805005200EF49020000002640884902082000234001005000394B1B68002BFBDA30B4374BDA6842F00102DA60DB6813F06A
:40138000020F20D0324DEB689CB232490A69120A120402F47F02D1F890301B0A42EA03632343EB600B6923F47F4343F410630B61D1F8903023F47F4343F41063C1F890309C
:4013C0000B69D1F89030224B00225A605B68224A136943F004031361012801D030BF07E020BF1E4B1B7803B120BF01221B4B1A70184BD3F8803003F00303022BE7D0144BE3
:401400001B68002BFBDA124BDB6813F0020F15D010490B6923F47F420D48C3681B0C1B0203F47F4313430B61D1F8903023F47F42C3681B0E42EA0323C1F89030044BDA689B
:4014400022F00102DA6000225A6030BC704700BFE00023400000214000ED00E0A84902081E4A136943F004031361012801D030BF07E020BF1A4B1B7803B120BF0122184B21
:401480001A70184BD3F8803003F00303022BE7D0154B1B68002BFBDA144BD3F80C31C3B941F61E72124B1A60062203F582631A603E22A3F214431A60442203F583631A6080
:4014C0000C4B1B68002BFBDA4FF0AA32074BC3F80C210022044B5A60704700BF00ED00E0A849020800002140E000234000002540080126401C05264001B40248844601BCCF
:40150000604700BF8D06081001B40248844601BC604700BF4D07081001B40248844601BC604700BFAB0E081001B40248844601BC604700BFC90A081001B40248844601BC28
:40154000604700BF6508081001B40248844601BC604700BFED08081001B40248844601BC604700BFA30E0810000000000000000000000000000000000000000000000000D2
:40158000000000000000000000000000000000000000000000000000000000000000000000000000000000000000000000000000000000000000000000000000000000002B
:4015C00000000000000000000000000000000000000000000000000000000000000000000000000000000000000000000000000000000000000000000000000000000000EB
:0200000490303A
:020000004800B6
:0200000490501A
:0C0000000005E20721002101E218690060
:00000001FF