:020000041000EA
:4000000000400208310100100D000000950100100000000000000000000000000000000000000000000000000000000091010010000000000000000091010010910100109B
:400040009101001091010010910100109101001091010010910100109101001091010010910100109101001091010010910100109101001091010010910100109101001060
:400080009101001091010010910100109101001091010010910100109101001091010010910100109101001091010010910100109101001091010010910100109101001020
:4000C00010B5064C2378002B07D1054B002B02D0044800E000BF0123237010BD7404000800000000842A0010084B10B5002B03D00749084800E000BF07480368002B00D146
:4001000010BD064B002BFBD09847F9E70000000078040008842A0010EC000008000000007047EFF3108072B6704780F310887047FFF7F6FF72B6104C104DAC4209DA2168C6
:400140006268A368043B02DBC858D050FAE70C34F3E70B490B4A0020521A02DD043A8850FCDC094809490860BFF34F8F00F000F900F01EF8FEE70000882A0010A02A001046
:4001800074040008500600080000000808ED00E0FEE7FEE700B504207146084202D0EFF3098001E0EFF30880043001F077F9FEE710B562B600F0D4FA002001F047FBFEE70B
:4001C00070B56249E0239B00CB580F2213401A00D0329200525807210A40032A05D0042A06D0002A12D15A4814E05A4A106811E01A00C0329200554952581F210A40112ABF
:4002000006D0132A04D0FA20C00103E0524801E080200002002B36D14C4BB222D2009A5801211140B125ED005A59120F032422405B591B0F1C4207D0444C63591B0F032458
:400240002340012B02D102E0012300E00023002B01D0002901D1032A4BD13C4BB022D2009D58AD03AD0B3D495958C904C90C9C58240E01231C40013401F01CFC68432100C2
:4002800001F018FC35E0012B33D1304BC822D2009A5801251540C024E4001A59120F03210A401B591B0F194207D028490B591B0F03210B40012B02D102E0012300E0002340
:4002C000002B01D0002D01D1032A12D11F4DC022D200AB587F210B40A958090A1F263140AC58240C3440584301F0E4FB210001F0E1FBE0239B00154AD3581B090322134056
:40030000D840144C6060164B1D692D0AFC32154001351969090E013101F0CCFBA060290001F0C8FB0500E06020610E4BC0180E4901F0C0FB20750D4BE818FA21890001F0D2
:40034000B9FBA061C003E06170BDC0460000264000127A00C000000800366E0184050000000021403F420F0040420F00E703000010B5234BB021C9005A58520052085A5068
:40038000E02080001A583024A2431A50802252045A501C491C4A9950A021890104329950FF211A4A995081315A58920092088020C00502435A505A588020000602435A5050
:4003C0005A58012082435A5000F042F9FFF7F8FE00F02EF800F036F800F05EFAB0235B055B78002B04D0B0235B055B78DBB200E02123212B03D1064B0022DA605A6010BD18
:400400000000264001000200840500008C050000E00023408023024AD3580320184070470000214010B5002000F07EFD10BDC04610B5034A8021042000F0E2FA10BDC046B0
:400440009004000810B50748103000F099FB01F090F80400044800F005FC200001F08DF810BDC046900400082C1C0010FEE7C046F0B50025002711E0BB00C658F3B2FF2285
:40048000964308E06A008A181478A419527822700135013BDBB2002BF4D10137002FEBD0F0BDC04630B587B0514BA021C9005A58032082435A504F4990240A594E480240F9
:4004C0000A510A691202120A8024640422430A610A6910400861E022920099580F20814399509958213081439950995880200006014399500021012000F048FD0021022028
:4005000000F044FD0021032000F040FD0021042000F03CFD0021002000F038FD01A8374903000A0032CA32C312CA12C300F056FD002802D00420FFF799FF2D49304A8B58AB
:400540008020000603438B502E4800F0FFFD002802D00420FFF78AFF254C2B4BE1582B4A0A40E250E1582A4A0A40E250E25880252D062A43E250043BE158264A0A40E25066
:40058000E158254A0A40802189010A43E250E258802109020A43E250204A1168204B0B40802149000B431360002001F095F91D4BE2581543E550E158012291430A43E25079
:4005C0006421002000F082FF174B4021174A9950902109015858164A0240164802435A508022D200144999509B5807B030BDC0460000264000002140FF00FFFF601C0010D7
:40060000087F0000400D030004050000FEFCFFFFFFFF00FFFFF0FFFFFF8FFFFF00002740FFFCFFFF0C050000000001404C0C0000FF0000FF004FC30040FF008010B50A00C4
:40064000002101F0CCFA10BD10B501F0BFFA10BD70B58AB09621002000F038FF00F00EFF002801D100F0FAFE012001F027F8324A516C324B0B40E82189010B435364536CD4
:400680001B0AFF2213403A2B07D12B4A516C2C4B0B40E82189010B435364FFF703FF294A294B1A6000240CE0620012195300274AD318198B9A8AD88A00041043FFF7BEFFFF
:4006C00001340B2CF0D900240AE06200121993001E4AD3185A6E196ED86DFFF7B5FF0134112CF2D91A4C2100343120003830FFF7BFFE184A1368812149000B43136001AD6B
:400700002A0023003C3343CB43C243CB43C243CB43C22900104800F0C9F82A002300603313CB13C213CB13C213CB13C229000B4800F0BCF80AB070BD00002740FF00FFFF2E
:40074000FFC5FFDF0300FA05F0012140601C0010601D001000793440000032400003324010B5084B1B78002B07D1074A0021074801F0CCF80122034B1A70044B01229A600B
:400780009A6110BD200600081427001000003840214B984230D00ED8402831D004D800281FD010282AD031E080282BD080235B00984229D02AE0194B984229D007D8A0235E
:4007C0001B0698420DD0164B984212D01EE0154B98420AD0144B984209D0144B984215D101E0002016E0124814E0124812E0124810E0A020C0030DE007480BE00F4809E0FC
:400800000F4807E00F4805E0034803E00E4801E0A420C0037047C04606005200010000F0090000A0040000F0050000F0030000F0010052000200520003005200010050007A
:400840000200500005005200FF00520010B50C4B1B69002B11DB0B4B1868FFF799FF0121094B0A4AD150084B084AD358002BFAD1074BD358002BF6D100E0064810BDC04642
:4008800000002340240600080C040000000025408C0400000200500010B502220249002000F0AEFA10BDC0464501000870B505000C00002848D0002948D0FF230A689A4317
:4008C00003D08D21224800F0BBFDFF2322699A4303D08E211E4800F0B3FDA3685B0D03D08F211B4800F0ACFD63685B0A03D09021174800F0A5FDE3695B0F03D09121144825
:4009000000F09EFD236A5B0F03D09221104800F097FD104BEB18DB090F4A944663441B0122682A60E268AA622269EA6262692A63A2686A626268AA61A2696A63E2691A60BA
:40094000226A5A60002002E0044800E0034870BD782700100000CEBF0010030401005A0070B504000D000369002B0ADA0B0C03D00549064800F064FD2D042D0C6560002006
:4009800000E0034870BDC046B3020000F827001001008A0070B505000C000368002B01DA002300E0084B002B0BD1EA60230C03D00649074800F044FD2404240CAC600020C7
:4009C00000E0014870BDC04601008A009A020000F827001070B505000C1E03D19921064800F02EFD2B69002B03DAEB682360002000E0024870BDC0463828001001008A0010
:400A0000F8B504000E0015000F283FD8002A10D100290ED10F2804D9AA21FF31214800F00FFD6401204B9C466444204B1C60002037E0002D2CD0002E2CD0F3062CD10F2C11
:400A400004D9AA21FF31174800F0FAFC6401164B9C466444154F3C607E60BD60F2080021280001F0BCF800212000FFF779FF3A0001CA0021FFF78EFF00280FD10B4B1868F0
:400A80000021FFF76DFF00280AD10AE0084808E0074806E0064804E0054802E0054800E00448F8BD78280010000023403406000803018A0001018A00F0B583B00D001C4B0F
:400AC0001B68DC68236883422DD947097B01C01A012383401E00002903D100F04AFD019001E000230193124B18680368002B01DA002300E00F4B002B0ED16368BF00DF199A
:400B00003B68334203D0B3433B60002400E00A4C0021FFF725FF00E0084C002D04D1019800F02BFD00E0064C200003B0F0BDC0463406000801008A00020188000301880021
:400B400004018A000A4B1B68DA68136883420BD943095901401A0121814052689B009B580B4203D0034802E0034800E003487047340600080101880004018A00000188001F
:400B8000034B1B68002B01D1014B18607047C04640060008F0B5474680B404000F0090461E002B4B1B68002B03D1B421294800F047FC072C03D9B521264800F041FC244BCB
:400BC0001B682C2060431C18FF22150035402560330A13406360330CA3600F2D04D9AA21FF311D4800F02CFC6B011C4A94466344236165680F2D04D9E2214900164800F0A2
:400C00001FFC6D01164B9C4665446561A668330C04D0F1214900104800F012FC330C04D0E421FF310C4800F00BFC3604330C1E43AE604346E36127620023A361069B002BE3
:400C400002D000229B5EA38104BC9046F0BDC04640060008B8280010782800100000234000102340F0B58FB0041E03D150212E4800F0E6FB6368032B03D952212A4800F01A
:400C8000DFFBE36A002B03D15621274800F0D8FBE368072B03D95721234800F0D1FB236A072B03D95821204800F0CAFB236B002B03D159211C4800F0C3FB07AA130021003E
:400CC00061C961C321C921C302AD290023001433C1CBC1C141CB41C10821535E0CAE3380079B1933B370089B0D930B9B0A980096A26AE16AFFF74EFF2B69E86800220092CF
:400D00000021FFF747FF216B300000F027FB0023F25E002A05DB1F231A401E3B9340034A13600FB0F0BDC046B828001000E100E0F8B504000F0016001D00002A03D1FD2151
:400D4000284800F07DFB284B1B68002B03D1FE21244800F075FB072C03D9FF21214800F06FFB072F04D9802149001E4800F068FB1D4B1B682C2120004843181879435918D3
:400D8000012213004C68A3401B044468A24014000269002A20D08F69002F1FD11268002A01DA002200E0114A002A19D132681204120C134333600369DE6001238B614D62F9
:400DC0000569230C03D00A490A4800F039FB2204120CAA60002004E0074802E0074800E00648F8BDB82800104006000801008A009A0200007828001004028A0007028A00CD
:400E000070B504000D001600134B1B68002B04D16221FF31114800F013FB072C04D9B12149000E4800F00CFB0B4B1B682C2060431C18236A002B04D1B3214900074800F01E
:400E4000FFFAE369B34204D9236AB6009D51002000E0034870BDC04640060008B82800100A028A0070B582B0040000230193002804D1EA2149002B4800F0E2FA2369002B7F
:400E800004D1D621FF31274800F0DAFA6369002B04D1EB214900234800F0D2FA236A002B04D1D821FF311F4800F0CAFA6269D5682B0C1FD01B041360136820690369002B8F
:400EC00018DA01A9FFF786FD00280ED1019803681E0CFF221340E269934207D29B00226AD358002B02D0984700E0002631002069FFF736FD2D042D0C0FD063691D601B680F
:400F0000636A002B03D098470023636203E0A36A002B00D098470023A36163691B6802B070BDC046B828001010B504000B4B1B68002B04D1DA214900094800F081FA072C35
:400F400004D9B621FF31064800F07AFA034B1B682C2060431818FFF785FF10BD40060008B828001010B504000F2803D9E421054800F066FAA402044B9C46644423680F20AF
:400F8000184010BDF82800100040244004281DD8042904D94B1EFF3B9BB2132B18D8FF290CD91F2319400B4A0300C0339B009950D03080000423835000200AE00723194071
:400FC000D0308000034BC150002002E0024800E0014870470000264001004A0070B5041E04D1E221FF314C4800F02AFAB023DB004A4AD358002B01DB002500E0484D002D03
:4010000000D086E0474B22689A4204D9F8214900414800F015FA23689B03990BE3791B068022520413400B43B022D2003B498B50A2883D4B9A4204D9F821FF31364800F0B3
:40104000FFF92289394B9A4204D9FC214900324800F0F6F9A388DB04D90C23891B04344A13400B43334A2D498B50A37A0F2B04D9FF214900284800F0E3F9E37A0F2B03D9DE
:401080002A49254800F0DCF9A289274B9A4204D980218900204800F0D3F9A37A0F211940E27A1201FF2313400B43A289120222490A401343A27B1207C02189050A40134380
:4010C000B122D20015498B50A379072B04D982218900114800F0B4F9228A144B9A4203D916490D4800F0ACF90C4815494658154B1E40A3791B02E022D20013403343435042
:401100004658114B1E40238A1B04094A134033434350280070BDC046382900100000264003004A00FFFF0300FF1F0000FF0100000000FF018405000000FF1F00090200008C
:401140008C050000FFF8FFFFFFFF00FE70B505002D492E4A8B588020000603438B502C0003E0012000F060F9013CB223DB00264AD3585B0701D4002CF3D12349B122D200F2
:401180008858234B03408020800503438B50002D02D00ED0002C0CD01B49B022D2008B588020000603438B5003E0012000F03CF9013CB223DB00144AD358DB0701D4002C3F
:4011C000F3D1002D0ED0002C0CD10F4AB021C90053585B005B0853500C4953585B005B0853500BE0084B0221B222D2009950B121C9005A58C020800502435A50002C01D128
:40120000044800E0002070BD000026408C050000FFFFFFCF02004A0010B583089A00801AC000FF228240D44381400A40072B32D89B001949CB589F46184B196A0C40224305
:401240001A6228E0154B596A0C4022435A6222E0124B996A0C4022439A621CE00F4BD96A0C402243DA6216E00C4B196B0C4022431A6310E0094B596B0C4022435A630AE066
:40128000064B996B0C4022439A6304E0034BD96B0C402243DA6310BDC02900100000214083089A00801AC100FF228A40072B2BD89B001748C3589F46164B186A1040C840CB
:4012C00023E0144B586A1040C8401EE0114B986A1040C84019E00F4BD86A1040C84014E00C4B186B1040C8400FE00A4B586B1040C8400AE0074B986B1040C84005E0054B80
:40130000D86B1040C84000E00020C0B27047C046E02900100000214070B504000D000B4B9A680B4B9A420BD1002903D1FC21094800F086F81034064BA400E058E55003E06B
:401340001034A400044BE05870BDC04600ED00E000000008002A001000000010F0B583B0041E019150D04368032B03D93621294800F066F80023E05E002802DBA178FFF7C0
:401380004BFF0023E25E6368002A12DB9008224EC0308000875903210A40D200FF25290091408F4399012B000B4093403B43835117E092B20F211140083989080631890093
:4013C0001648844661444E6803200240D200FF2738009040864398013B000340934033434B600E4B9A680E4B9A420FD1019B002B03D14521074800F023F80023E05E01996B
:40140000FFF78AFF002002E0064800E0002003B0F0BDC046002A001000E100E000ED00E0000000080100560010B5034B1B78584300F096F810BDC046D400000801BEFEE73E
:4014400070B50D00044C18220100200000F0CFFBA5610020FFF7F2FF38040008054B802212069A649B6C002B01DB002000E002487047C0460000274003004600054B8022C5
:40148000120198585B68FF221A4202D08023DB021843704700002640FEE7C04610B50A4B0268DA6142681A6282685A62C2689A620269DA6242691A6382695A63C2699A63E4
:4014C000FFF7EAFF10BDC04638040008F0B5002801D0192200E064228A42924152421C4BE8256D005C590327BC433A4014435C515C59184E34405C51D03D5C59BC432243E5
:401500005A515A5916405E51002805D010290DD921290DD8012014E01D290BD93A290BD957290BD978290BD803200AE0002008E0022006E0002004E0012002E0022000E069
:401540000420054A13680F218B4303431360F0BD00002140FFFCFFFF00002540000000000230800803D001300238FCD1C046C0467047EFF3108072B6704780F310887047BF
:4015800010B5074A074813580F24A34302210B43135004381358A3431943115010BDC0460000214004F0000010B5074A074813580F24A34303210B43135004381358A343B1
:4015C0001943115010BDC0460000214004F000000449054A8858054B0340C020C00103438B5070470000214004F00000FF8FFFFF0449054A8858054B03408020C0010343E7
:401600008B5070470000214004F00000FF8FFFFF10B50020FFF7A6FCB0235B055B78002B04D0B0235B055B78DBB200E02123222B03D8002803D1013002E0012000E00020A6
:4016400010BDC04610B504000020FFF78BFC00280AD114498A69144B1A40240680235B041C4014438C611BE0002C01D00F4A00E00F4A01210F48FFF78DF900280DD10D4B7C
:401680001B69002BFBDB0B4BDB681B0E1B06A0221206934203D0084802E0074800E0002010BDC04600F02540FFFFFFFE01010030010000300000234004004200F8B50500DE
:4016C000012804D9EA21C9002948FFF7B9FEFFF79FFF002848D0FFF74CFF0700002D17D1E823DB00B0225205D65CF6B20120FFF7A9FF041E1FD1FFF743FF1E481E49435867
:401700001F229343143A13434350FFF761FF12E01A4BB0225205D65CF6B21648164943581F229343143A134343500920FFF77CFEFFF75EFF0024002C12D10E490E4A8B5854
:401740001F20834306401E438E50012D08D11638FFF76AFEFFF728FF0020FFF773FF04003800FFF70AFF00E0054C2000F8BDC046442A0010000026401CFF000041070000F9
:401780000300420070B584B005000E00042803D929492A48FFF754FE731EDBB2012B07D9042E05D0082E03D025492448FFF748FE042E01D0012E1DD1224B5C68002013E090
:4017C00023799D420FD1A368002B01D01E420AD1E36801A85A6842609B688360067023689847184B9C606469002C23D0164B9842E6D11FE0134B9C68022E02D1002C00D091
:401800002469002011E023799D420DD1A368002B01D01E4208D1E36801A85A6842609B6883600670236898472469002C02D0064B9842E8D104B070BD95080000442A0010E8
:401840009608000044060008FF00420070B50500012804D94E21FF311B48FFF7F1FD1B4B1B68002B05D001210020FFF78BFF040000E00024002C20D1FFF77BFE0600134B7E
:401880001B68002B03D004210020FFF77BFF104A136904218B431361012D01D030BF00E020BF3000FFF769FE084B1B68002B09D008210020FFF766FF04E002210020FFF7E0
:4018C00061FF044C200070BD442A00104406000800ED00E0FF004200042805D1094A116804230B4313600CE00006C0239B04184090239B00044AD050024A136804218B4315
:401900001360704710E000E000002140F0B5002800D1C9E0002A00D1C8E02823D35C002B01D0012400E00024137F002B01D0022300E000231C4313699B048026F602334082
:40194000234394682404C026B6023440234316683406E027FF043C402343546B6500146B25432D05C027BF033D402B43946BA5002B431C00052E03D1D3681B061B0C02E056
:4019800053681B061B0C23430C1DA40123501368062B0BD18B01C3181C000934FF34012525602933FF333F241C6027E09368002B0BD18B01C3181C000934FF340025256044
:4019C0002933FF3331241C6018E0012B0BD18B01C3181C000934FF34556925602933FF331C241C600AE08B01C3181C000934FF34012525602933FF3312241C608B01C318D9
:401A00001C000D34FF34156A25600434556A25600434556925601933FF3394691C60136E5C1C1BD00F25166C2E40946C2502F024240125403543146D2604F0242403344085
:401A40002543946D2407240C25431C01FF2323402B438C0104192134FF3423600324D56B2540536C1E012D3434402C43D36C1D02C0239B002B402343546DA401FF252C40E4
:401A800023431D00D36D9C000C231C402B0023438901411808002530FF300360D36A3931FF310B60002002E0014800E00048F0BD0100B600002243088B4274D303098B4266
:401AC0005FD3030A8B4244D3030B8B4228D3030C8B420DD3FF22090212BA030C8B4202D31212090265D0030B8B4219D300E0090AC30B8B4201D3CB03C01A5241830B8B4265
:401B000001D38B03C01A5241430B8B4201D34B03C01A5241030B8B4201D30B03C01A5241C30A8B4201D3CB02C01A5241830A8B4201D38B02C01A5241430A8B4201D34B02F7
:401B4000C01A5241030A8B4201D30B02C01A5241CDD2C3098B4201D3CB01C01A524183098B4201D38B01C01A524143098B4201D34B01C01A524103098B4201D30B01C01A2C
:401B80005241C3088B4201D3CB00C01A524183088B4201D38B00C01A524143088B4201D34B00C01A5241411A00D20146524110467047FFE701B5002000F006F802BDC046A3
:401BC0000029F7D076E770477047C046002310B59A4203D0CC5CC4540133F9E710BD03008218934202D019700133FAE77047030030B5002A0DD00C7801335D1E013A2C70DA
:401C00000131002CF5D19A189A4202D01C700133FAE730BDF8B5C046F8BC08BC9E467047F8B5C046F8BC08BC9E467047030000000100000001000000000000000503600099
:401C40000400000001000000000000000100000006046000080000000006000825040010F4010000140004010A000905080000006301000000203440740080203440740083
:401C8000002234407400802234407400002434407400802434407400002634407400802634407400002834407400802834407400002A34407400802A344074000021344083
:401CC000E41D00109000000000233440741E00109000000000253440041F00109000000000273440941F001090000000002934402420001090000000002B3440B42000102C
:401D00009000000000603440442100107C00000080603440C02100107C000000006134403C2200107C00000080613440B82200107C00000000623440342300107C0000005A
:401D400080623440B02300107C000000006334402C2400107C00000080633440A82400107C00000000643440242500107C00000080643440A02500107C000000006534401D
:401D80001C2600107C00000080653440982600107C00000028C00000017034400800000000000000000000000060000000000000000000000000000000000003000000007A
:401DC000000000000000000000000000000000BA0000000000000000000000000000000000001D1D000000100000000000000000FFFFFFFFFFFFFFFFFFFFFFFFFFFFFFFFEF
:401E0000FFFFFF4FFF000000FFFFFFFFFFFFFFFFFFFFFFFFFFFFFFFFFFFFFFFFFF00000000000000061F00000000001F1F0000000000000000000000FFFFFFFFFFFFFFFF11
:401E4000FFFFF7FF1111111111111111111111111111111111111111111111111111111110111111111111111111111118111111111111110000100A00000000000000001E
:401E8000FFFFFFFFFFFFFFFFFFFFFF4FFFFFFF7FFFFFFFFFFF000000FFFFFFFFFFFFFFFFFFFFFFFFFFFFFFFFFFFFFFFFFF0000001F0000001F1F0E1F1F1F061F1F0000066A
:401EC000000000000000000FFFFFFFFFFFFFFFFEFFFFF7FF171111111111111111111111111111111111111111111111011111111111111111111111111111011111911196
:401F0000101111110000B8840000000000000000FFFFFFFFFFFFFFFFFFFFFFFFFFFFFFFFFFFFFFFFFF000000FFFFFFFFFFFFFFFFFFFFFFFFFFFFFFFFFFFFFFFFFF0000004C
:401F400008000F1F1F1F1F1F00001F00001F001F0000000000000000FFFFFFFFFFFFFDFFFF7FFFFE1111111111111111111111111111111111111111111111111111111105
:401F80001111111111111111111111111111111111111111800002120000000000000040FFFFF7FFFFFFFFFFFFFFFFFFFFFFFFFFFFFFFFFFFF000000FFFFFFFFFFFFFFFF1E
:401FC000FFFFFFFFFFFFFFFFFFFFFFFFFF000000001F1F001F000000001F1F001F1F1F07F60000F0F0000F00FFFFFFFFFFFFFFFFFFFFFFBF1111111111111111111111118A
:40200000111111111111111111111111111111111111111111111111101111111111111111110111001045240000000000000000FFFFFF2FFF0FFFFFFFFFFFFFFFFFFFFFA4
:40204000FFFFFFFFFF000000FFFFFFFFFFFFFFFFFFFFFFFFFFFFFF2FFFFFFFFFFF0000001F001F0000001F0005001F001F1F001F00000010000F0F00FFFFFFFFFFFFFFFF46
:40208000FFFEFFDFF111111111111111111111111111111111111D1111111211111111111111111611111111111111111111111111111111000014200000000000000000EF
:4020C000FFFFF7FFF6F64FFFFFFFFF5F67FF0F7F7FFFFFFF47000000FFFFFFFFFFFFFFFFFFFFFFF7FFFFFFFFFFFFFFFFFF00000000061F001F1F0000000007001F1F000014
:4021000000F0070000F0000FFFFFFFFFFFFFFFFFFFFFFFFF111111111411111111111111111111111111111111111111111117111111D11111111E119511121113119718DF
:402140007211D1B100000000000000201F1F1F1F1F1F1F1F1F1F1F071F1F1F1F1F1F1F0F1F1F1F1F1F1F1F1F1F1F1F1F000000001F0800000407000C1F0000000000000025
:4021800001000000FFFFFFFFFFFFFFFFFFF7AFFD11111111111111111191111111111111111111111111111111111111D11111111111111111111111111511111111111F02
:4021C00000080000000000001F1F1F1F1F1F1F07061F1F1F1F1F1F0D1F1F1F1F00171F1F1F081F1F1F1F1F1F020000001F0B1F0E050000000D00001F030000000070000774
:40220000FFFFFBFFFFFFFFFFFFFFFFFF111111F1D4111111111111111111111111D11111111151111116111111111117111111A111011111151110101EE1111F0000000063
:40224000000000001F1F1F1F1F1F1F1F1F1F081F1F1F1F1F1F1F1F1F1F0F1F1F1F081F1F1F1F1F1F0000001F1F1F031F00001F00000E00000000000000400700FFFFFFFFCD
:40228000FFFFFFFFFFFFF9FB111111D1E1111111111011111111111111111111111A11D1111611111111111117111111111F1E11111110111111111F000001000000000074
:4022C0001F1F061F1F1F1F1F1F1F1F1F1F1F1F1F1F071F1F1F1F1F1F1F1F1F1F1F1F1F1F001F08000F000000001F08001F0D0E005F0070F046000600FFFFFFFFFFFFFFFF95
:40230000FFFFFFDF111111111111D1111111111111111111111111111111111111111D111111911111111111111D61D101101111111011EE00000000000000101F1F1F1FD2
:402340001F1F1F1F1F1F1F1F1F1F1F1F1F1F1F1F1F1F171F1F161F1F1F1F1F1F1F071F0000001F0000001F00001F00090070000000010F00FFFFEFFFFFFBF7FFFFFFFFFE08
:40238000111111DB1F1101111111111111111111111111111111111111111111111111111D111111B11111111111E11111F10E1100000000000000021F1F1F061F1F1F1FEB
:4023C0001F1F1F1F1F1F1F041F1F1F1F1F071F1F1F1F1F1F1F1F161F071F1F001F07000000001F00041F00000060400030700001FFFFFFFFFFFFFFFFFFFFFFBF111111114B
:402400001E1111116111101111111111111111111110111119011111111111D1111111111111E1E11116111811ED1E1100000000000000001F1F1F1F1F1F1F1F1F1F1F1F94
:402440001F1F1F1F1F1F1F0F1F1F171F1F1F1F1F1F1F1F1F00000000000000000000001F060500000000000000000000FFFFFFFFFFFFFFFFFFDFFFFF111111111111111182
:4024800011111111111111111111111111111111111111111111111111191111111111111111111711E1101000000000000000C41F1F1F1F1F1F1F1F1F1F1F1F1F1F1F1FE4
:4024C0001F0F1F1F1F1F1F1F1F1F1F1F1F1F1F1F1F0000000F1F001F1F071F0F1F060000000000000000000FFFFFFFFFFFFFFFFFFFFFFB2F1111111111111111111111111C
:4025000011111111111111D11111111111111111111191111111111111111111111111E1E11E111100000000000000C41F1F1F1F1F1F1F1F1F1F1F1F1F1F1F1F1F1F1F1F1A
:40254000041F1F1F1F1F1F1F1F1F1F1F00001F06070F1F0700000F0000000D070000000000000000FFFFFFFFFFFFFFFFFFFFFB3F111111A1111111111111111111111111AE
:40258000111111F11111111111111110111111111111111111111111111111101111111100000000000000091F1F1F1F1F1F1F1F1F1F1F1F1F1F1F1F1F1F1F1F1F1F1F1F2C
:4025C0001F1F1F1F1F1F1F1F00071F081F00000000071F06071F001FF0000060F0000F03FFFFFFFFFFFFFFFFFFEFBFFF11111111111111111111111111111111111111F1FB
:40260000111111111111111D11111111111111111110111111E1EE111E11DEDD00000000000000001F1F1F1F1F1F1F1F1F1F1F1F1F1F1F1F1F1F1F1F1F1F1F1F1F1F1F1FFC
:402640001F1F1F1F0F000F00000004001F000E00000F000000000000000F0700FFFFFFFFFFFFFFFFFFFBFFFF111111111111111111111111111111111111111111111111E2
:402680001111101111111111111111111111111111111F11111D111100000000000001041F1F0C001F1F1F1F1F1F1F1F1F1F1F1F1F1F1F1F1F1F1F1F1F081F1F1F1F1F1FCD
:4026C0000000070007000000060000001F06000000007F0002F00000FFFFFFFFFFFFEFFFFFFFFBFF11111171D11111111111111111111111111611111111111111D111118F
:40270000111111111111111111111111D111B11111DF11110400000000000000000000000000000000000000E80300000080000000000000F4010000004000000000000073
:402740000000000000000000000000000200000003000000FFFFFFFF03000000FFFFFFFF03000000FFFFFFFF03000000FFFFFFFF03000000FFFFFFFF47656E657261746531
:40278000645F536F757263655C50536F43365C70646C5C647269766572735C7065726970686572616C5C6770696F5C63795F6770696F2E630000000047656E657261746572
:4027C000645F536F757263655C50536F43365C70646C5C647269766572735C7065726970686572616C5C6770696F5C63795F6770696F2E680000000047656E65726174652D
:40280000645F536F757263655C50536F43365C70646C5C647269766572735C7065726970686572616C5C6970635C63795F6970635F6472762E68000047656E657261746527
:40284000645F536F757263655C50536F43365C70646C5C647269766572735C7065726970686572616C5C6970635C63795F6970635F6472762E63000047656E6572617465EC
:40288000645F536F757263655C50536F43365C70646C5C647269766572732F7065726970686572616C2F6970632F63795F6970635F6472762E68000047656E65726174652E
:4028C000645F536F757263655C50536F43365C70646C5C647269766572735C7065726970686572616C5C6970635C63795F6970635F706970652E630047656E65726174650A
:40290000645F536F757263655C50536F43365C70646C5C647269766572735C7065726970686572616C5C70726F745C63795F70726F742E630000000047656E6572617465C4
:40294000645F536F757263655C50536F43365C70646C5C647269766572735C7065726970686572616C5C737973636C6B5C63795F737973636C6B2E630000000047656E6588
:4029800072617465645F536F757263655C50536F43365C70646C5C647269766572735C7065726970686572616C5C737973636C6B5C63795F737973636C6B2E680000000016
:4029C0003812001044120010501200105C1200106812001074120010801200108C120010B8120010C2120010CC120010D6120010E0120010EA120010F4120010FE120010CF
:402A000047656E6572617465645F536F757263655C50536F43365C70646C5C647269766572735C7065726970686572616C5C737973696E745C63795F737973696E742E63F9
:402A40000000000047656E6572617465645F536F757263655C50536F43365C70646C5C647269766572735C7065726970686572616C5C737973706D5C63795F737973706D26
:402A80002E630000000000000000001000000008C0000000A82A0010C00000087803000074040008DC0100000048E80100127A0000093D0000093D0000093D000400000098
:402AC000A00F00000000D00702FF0000E9000010C1000010000000000004400B19D00D4B1B68002BFBDA3E220B4B1A600B4A0C4B1A600C4B0621A322D20099500A4A9850E2
:402B00009B580022034B5A60074B064AD358002BFADA7047E0002340040126401E1F000008012640000026401C05000010B54378FF2B0DD100F04CF9064BDB685A68116888
:402B400001230B4313601368DB07FCD400F058F910BDC04680002340F0B583B005000F0000F03EF90600032824D12E4B1B69002B22DB002000F04CF92B4B98421ED0002338
:402B80002A4A0021012000F00BF9002803D0284C17E0013400E00024002000F039F9224B984202D0234B9C42F3D9224B9C4207D91F4C06E0002404E01D4C02E01C4C00E042
:402BC0000024002C2BD100F003F901901A4B1B4AD358002B13DA1A4A01211A4800F0F0F800280ED13800FFF777FF002D0BD0154B1B69002BFBDB00F0FBF8040004E00C4C84
:402C000002E00B4C00E0104C032E05D10121002000F0CEF80028F9D1019800F0F1F8200003B0F0BDC000234001018800E000000805005200EF4902001C050000000026408F
:402C400024060008000023400100500070B5304B1B68002BFBDA2E4BD96802220A43DA60DB68DB071FD52A4EF2681204150C294B1A69120A1204FF24240422401100902429
:402C80001A59120A12060A432A43F2601969224A114090252D012943196119590A402A431A511A691B591A4B00225A605B681B4A116904230B431361012801D030BF00E039
:402CC00020BF134B1B68002BFBDA114BDB68DB0715D510480269104B1A4014000C4DEA68120C1202FF2109020A4022430261902142581340EA68120E120213434350044BA7
:402D0000DA6802218A43DA6000225A6070BDC046E000234000002140FF00FFFF00ED00E0164A116904230B431361012801D030BF00E020BF124B1B68002BFBDA86235B005B
:402D4000104AD358002B14D10F4A104B1A6006220F4B1A6038320F4B1A6006320E4B1A600D4B1B68002BFBDA0C4986235B00054AD1500022024B5A607047C04600ED00E0F4
:402D8000E0002340000025401E1F00000801264018052640040126401C052640AAAAAAAA01B40248844601BC604700BF310D001001B40248844601BC604700BFB90A0010A9
:402DC00001B40248844601BC604700BF9509001001B40248844601BC604700BF7315001001B40248844601BC604700BF1504001001B40248844601BC604700BF4D0800104F
:402E000001B40248844601BC604700BF7B15001001B40248844601BC604700BF450B00100000000000000000000000000000000000000000000000000000000000000000BA
:402E40000000000000000000000000000000000000000000000000000000000000000000000000000000000000000000000000000000000000000000000000000000000052
:402E80000000000000000000000000000000000000000000000000000000000000000000000000000000000000000000000000000000000000000000000000000000000012
:402EC00000000000000000000000000000000000000000000000000000000000000000000000000000000000000000000000000000000000000000000000000000000000D2
:402F00000000000000000000000000000000000000000000000000000000000000000000000000000000000000000000000000000000000000000000000000000000000091
:402F40000000000000000000000000000000000000000000000000000000000000000000000000000000000000000000000000000000000000000000000000000000000051
:402F80000000000000000000000000000000000000000000000000000000000000000000000000000000000000000000000000000000000000000000000000000000000011
:402FC00000000000000000000000000000000000000000000000000000000000000000000000000000000000000000000000000000000000000000000000000000000000D1
:020000041008E2
:4000000000780408F90208100D00000061030810610308106103081061030810000000000000000000000000000000005D0308105D030810000000005D0308105D0308104C
:400040005D0308105D0308105D0308105D0308105D0308105D0308105D0308105D0308105D0308105D0308105D0308105D0308105D0308105D0308105D0308105D03081000
:400080005D0308105D0308105D0308105D0308105D0308105D0308105D0308105D0308105D0308105D0308105D0308105D0308105D0308105D0308105D0308105D030810C0
:4000C0005D0308105D0308105D0308105D0308105D0308105D0308105D0308105D0308105D0308105D0308105D0308105D0308105D0308105D0308105D0308105D03081080
:400100005D0308105D0308105D0308105D0308105D0308105D0308105D0308105D0308105D0308105D0308105D0308105D0308105D0308105D0308105D0308105D0308103F
:400140005D0308105D0308105D0308105D0308105D0308105D0308105D0308105D0308105D0308105D0308105D0308105D0308105D0308105D0308105D0308105D030810FF
:400180005D0308105D0308105D0308105D0308105D0308105D0308105D0308105D0308105D0308105D0308105D0308105D0308105D0308105D0308105D0308105D030810BF
:4001C0005D0308105D0308105D0308105D0308105D0308105D0308105D0308105D0308105D0308105D0308105D0308105D0308105D0308105D0308105D0308105D0308107F
:400200005D0308105D0308105D0308105D0308105D0308105D0308105D0308105D0308105D0308105D0308105D0308105D0308105D0308105D0308105D0308105D0308103E
:400240005D0308105D0308105D0308105D0308105D0308105D0308105D0308105D0308105D0308105D0308105D0308105D0308105D0308105D0308105D0308105D030810FE
:400280005D0308105D0308105D03081010B5054C237833B9044B13B10448AFF300800123237010BDEC4702080000000028100810084B10B51BB108490848AFF300800848B0
:4002C000036803B910BD074B002BFBD0BDE81040184700BF00000000F047020828100810B8420208000000007047EFF3108072B6704780F310887047FFF7F6FF72B6114CE0
:40030000114DAC4209DA21686268A368043BA2BFC858D050FAE70C34F3E70C490C4A00209142BCBF41F8040BFAE70A480A490860BFF34F8F00F012F900F0ECF800F01EF8A1
:40034000FEE700002C10081044100810EC470208B84902080040020808ED00E0FEE7FEE700B504207146084202D0EFF3098001E0EFF30880043000F011FDFEE762B6FEE731
:40038000704700BF5C4AD2F8803303F00F0303F1D00152F8212002F00702032A04D0042A05D092B9554914E0554A116811E003F1C002514951F8222002F01F02112A06D06B
:4003C000132A04D04FF4FA4103E04E4901E04FF400418BBB484BD3F8902502F00100D3F88825C2F30172D3F8883513F0405F07D0414BD3F88835C3F30173012B02D102E083
:40040000012300E0002303B108B9032A46D13A48D0F88025C2F31103D0F88425C2F30C02D0F88005C0F300600130B1FBF2F202FB03F2B2FBF0F131E0012B2FD12E4BD3F8CE
:40044000402602F00100D3F80026C2F30172D3F8003613F0405F07D0274BD3F80036C3F30173012B02D102E0012300E0002303B108B9032A12D12048D0F8002602F07F029D
:40048000D0F80036C3F30423D0F80006C0F3044002FB01F2B2FBF3F2B2FBF0F1164BD3F88033C3F3011321FA03F215494A601648D0F89030C3F3072301330069000E013029
:4004C000B2FBF0F08860B2FBF3F3CB600B6103F5742202F23F220D48A0FB0202C2F387420A7503F2E7330A4AA2FB03239B098B61DB03CB61704700BF0000264000127A0061
:400500008C42020800366E010000214083DE1B43D34D621008B5104BD3F8802122F0404242F08042C3F88021D3F8802142F00042C3F88021D3F8802122F00102C3F880210B
:40054000FFF71EFFFFF71EFF00F022F800F028F800F0B0F808BD00BF0000264008B5FFF7C4FE074AD2F8883043F47003C2F88830BFF34F8FBFF36F8FFFF7BBFE08BD00BFE2
:4005800000ED00E008B5012000F078FB08BD00BF08B500221146042000F0FEF808BD00BF10B5064800F0B4F900F053FC0446044800F01AFA204600F050FC10BD0848020893
:4005C000B00E08101F4B98422DD00CD840282ED003D8E8B1102828D02FE0802829D0B0F5807F28D029E0184B984228D006D8B0F1204F0DD0154B984212D01EE0144B98424E
:400600000AD00133984209D0023B984215D101E0002070470F4870470F4870470F4870474FF4A0007047074870470D4870470D4870470D487047034870470C4870474FF406
:40064000A400704706005200010000F0090000A0040000F0010052000200520003005200010050000200500005005200FF00520008B50C4B1B69002B12DB0B4B1868FFF776
:40068000A1FF0122094BC3F88C24084BD3F80C34002BFAD1054BD3F88C34002BF5D108BD034808BD2000234088490208000025400200500000B583B05523ADF80030002356
:4006C00001930C49684600F019FBBDF90030002B08DB590903F01F03012202FA03F3064A42F8213002220549012000F03FFA03B05DF804FB3943020800E100E00D430208A0
:4007000038B50369002B0DDA0D4604460B0C1B0423B140F2B321044800F030FBA9B26160002038BD014838BDE40E081001008A0038B50368002B01DA002300E0094B73B955
:400740000D460446C2600B0C1B0423B140F29A21054800F013FBA9B2A160002038BD014838BD00BF01008A00E40E081038B504460D4619B99921064800F000FB2369002B6F
:4007800003DAE3682B60002038BD024838BD00BF240F081001008A000F2840D8F8B515460E46044682B979B90F2804D940F2A911214800F0E3FA600100F1804000F50C10E2
:4007C0001E4B18600020F8BD5DB366B316F01F0F2BD10F2C04D940F2A911174800F0CEFA640104F1804404F50C14144F3C607E60BD60F2080021284600F032FB0021204671
:40080000FFF77EFF3A4652F8040B0021FFF790FF68B900213868FFF773FF50B9F8BD084870470748F8BD0648F8BD0548F8BD0548F8BD0448F8BD00BF640F08109849020876
:4008400003018A0001018A002DE9F0411B4B1B68DC68236883422CD90D464609A0EB4610012303FA00F819B900F0F3FA074600E00027124B18680368002B01DA002300E0A5
:400880000F4B83B9626852F8263018EA030F05D023EA080342F82630002400E0094C0021FFF72EFF00E0084C25B9384600F0D5FA00E0064C2046BDE8F08100BF9849020863
:4008C00001008A00020188000301880004018A000B4B1B68DB681A6882420CD94109A0EB4110012202FA00F05B6853F82130184203D004487047044870470448704700BFF7
:40090000984902080101880004018A0000018800024B1B680BB9014B18607047A44902082DE9F8430446884691461E46089F2A4B1B681BB9B421294800F020FA072C03D9AE
:40094000B521264800F01AFA234B1B682C2000FB04F01C18F5B21D50C6F307236360360CA6600F2D04D940F2A9111D4800F006FA6D0105F1804505F50C15256165680F2DA0
:4009800004D94FF4E271164800F0F8F9154B03EB45156561A668330C1B0423B14FF4F1710F4800F0EBF9330C1B0423B140F2E3110B4800F0E3F9B3B243EA0646AE60C4F8E8
:4009C0001C90C4F820800023A36117B1B7F90030A381BDE8F88300BFA4490208A40F0810640F081000102340F0B58FB0044618B950212C4800F0C2F9A369072B03D954213F
:400A0000284800F0BBF9E36A1BB95621254800F0B5F9E368072B03D95721224800F0AEF9236A072B03D958211E4800F0A7F9236B1BB959211B4800F0A1F907AE04F1140597
:400A40000FCD0FC62F6802AD26460FCE0FC533682B60079B1933ADF83030089B0D93A26AE16A0CAD00953B460A98FFF759FF00210091069B0A460598FFF752FF216B28466F
:400A800000F03CF9BDF93030002B08DB590903F01F03012202FA03F3034A42F821300FB0F0BD00BFA40F081000E100E0F8B506460F461D4614461AB9FD21264800F05EF921
:400AC000254B1B681BB9FE21224800F057F9072E03D9FF211F4800F051F9072F04D94FF480711C4800F04AF91B4B1B682C2101FB063001FB07314B68012202FA03F31B0433
:400B0000466802FA06F60269EAB18F69EFB91268002A01DA002200E0104AC2B92288134323600369DC6001238B614D620469330C1B0423B140F29A21094800F01FF9B2B2E0
:400B4000A2600020F8BD0748F8BD0748F8BD0648F8BD00BFA40F0810A449020801008A00640F081004028A0007028A00F8B505460F461646124B1B6823B940F26111114877
:400B800000F0FCF8072D04D94FF4B1710D4800F0F5F80B4B1B682C2404FB0534236A23B94FF4B371074800F0E9F8E369B34204D9236A43F826700020F8BD0348F8BD00BF48
:400BC000A4490208A40F08100A028A0070B582B000230193044620B94FF4EA71264800F0CDF8236923B940F2D511234800F0C6F8636923B94FF4EB711F4800F0BFF8236A30
:400C000023B940F2D7111C4800F0B8F86369DD682A0C1CD012041A601B6820690369002B15DA01A9FFF7A2FD60B9019803681E0CDBB2E269934206D2226A52F8233013B16D
:400C4000984700E0002631462069FFF759FDADB275B16369ADB21D601B68636A1BB198470023636202E0A36A03B198470023A36163691B6802B070BDA40F081010B5044682
:400C80000B4B1B6823B94FF4DA710A4800F076F8072C04D940F2B511064800F06FF8044B1B682C2000FB0430FFF790FF10BD00BFA4490208A40F081038B50C4B9A680C4BD7
:400CC0009A420ED10D46044619B9FC21094800F055F804F11003064A52F8230042F8235038BD1030044B53F8200038BD00ED00E000400208E40F08100000081070B338B57F
:400D000004460D464368072B03D93621154800F035F8B4F900306268002B08DB5201D2B203F1604303F5614383F8002305E003F00F035201D2B20C49CA540C4B9A680C4B4B
:400D40009A420DD11DB94521064800F017F82946B4F90000FFF7B0FF002038BD05487047002038BDE40F081014ED00E000ED00E0004002080100560001BEFEE738B50D4603
:400D8000044C18220146204600F072F8A5610020FFF7F2FF58470208FEE700BF08B50268254BDA6142681A6282685A62C2689A620269DA6242691A6382695A63C2699A63E5
:400DC0001E4A916AD963D16A1964516A5964516B9964926BDA64F1EE103A13F0900F27D0026A154B1A65426A5A65826A9A65C26ADA65026B1A66426B5A66826B9A66C26BEE
:400E0000DA66026C1A67426C5A67826C9A67C26CDA67026DC3F88020426DC3F88420826DC3F88820C26DC3F88C20026EC3F89020FFF7B2FF08BD00BF5847020800ED00E07A
:400E40000230800803D001300238FCD100BF00BF7047EFF3108072B6704780F31088704702440346934202D003F8011BFAE7704710B5034642B111F8014B03F8014B013AA8
:400E8000002CF7D11A4400E010BD934202D003F8014BFAE710BD0000F8B500BFF8BC08BC9E467047F8B500BFF8BC08BC9E4670470300000001000000010000000000000094
:400EC00005036000040000000100000000000000010000000604600008000000684902088505081047656E6572617465645F536F757263655C50536F43365C70646C5C6413
:400F00007269766572735C7065726970686572616C5C6970635C63795F6970635F6472762E68000047656E6572617465645F536F757263655C50536F43365C70646C5C6440
:400F40007269766572735C7065726970686572616C5C6970635C63795F6970635F6472762E63000047656E6572617465645F536F757263655C50536F43365C70646C5C6405
:400F80007269766572732F7065726970686572616C2F6970632F63795F6970635F6472762E68000047656E6572617465645F536F757263655C50536F43365C70646C5C6447
:400FC0007269766572735C7065726970686572616C5C6970635C63795F6970635F706970652E630047656E6572617465645F536F757263655C50536F43365C70646C5C6423
:401000007269766572735C7065726970686572616C5C737973696E745C63795F737973696E742E63000000000000000000000810004002088C0200004C1008108C42020879
:40104000CC040000EC470208CC0100000048E80100127A0000093D0000127A0000127A0008000000401F00000000A00F02FF0000B10208108D0208100000000080B2C200FE
:40108000E8B10F4B1B68002BFBDA3E210D4B196041F61E7104331960A3F584730621C3F8181522F07F42C3F81C25D3F81C350022034B5A60044BD3F81C35002BFADA704740
:4010C000E0002340040126400000264008B54378FF2B0ED100F0F0F9064BDB685A68136843F001031360136813F0010FFBD100F00BFA08BD8000234038B54FF260034B4AEA
:40110000D3589CB200F0D8F90546494B9A68631E032B00F28780DFE803F002234465032A06D10822434B9A60414B9B68032BFBD03F4A13691069C0F307221B0E581C02FB32
:4011400000003D4B03FB00F03C4B1B683C4AA2FB03239B09B0FBF3F08230FFF78FFF61E0032A06D10822334B9A60314B9B68032BFBD02F4A13691069C0F307221B0E581CF8
:4011800002FB00002C4B03FB00F02C4B1B682C4AA2FB03239B09B0FBF3F08230FFF76EFF40E0032A06D10822224B9A60204B9B68032BFBD01E4A13691069C0F307221B0ED5
:4011C000581C02FB00001C4B03FB00F01B4B1B681B4AA2FB03239B09B0FBF3F08230FFF74DFF1FE0032A06D10822124B9A60104B9B68032BFBD00E4A13691069C0F30722EE
:401200001B0E581C02FB00000B4B03FB00F00B4B1B680B4AA2FB03239B09B0FBF3F08230FFF72CFF284600F06FF938BD0000254000002140A000234040420F0090420208E9
:40124000D34D6210F8B505460E462A4B1B69002B1FDB002000F048F9274B98421BD00023264A0121184600F02FF918B1244C15E0013400E00024002000F036F91E4B9842D6
:4012800002D0204B9C42F3D91E4B9C4205D91C4C04E01B4C02E01A4C00E000243CBB00F00BF90746184BD3F81C35002B11DA174A0121174800F0F8F868B93046FFF7DEFE2B
:4012C0005DB1134B1B69002BFBDB00F005F9044604E00B4C02E00A4C00E00E4C0121002000F00AF90028F9D1384600F00DF92046F8BD00BFA000234001018800AC4202081E
:4013000005005200EF49020000002640884902082000234001005000394B1B68002BFBDA30B4374BDA6842F00102DA60DB6813F0020F20D0324DEB689CB232490A69120A78
:40134000120402F47F02D1F890301B0A42EA03632343EB600B6923F47F4343F410630B61D1F8903023F47F4343F41063C1F890300B69D1F89030224B00225A605B68224A92
:40138000136943F004031361012801D030BF07E020BF1E4B1B7803B120BF01221B4B1A70184BD3F8803003F00303022BE7D0144B1B68002BFBDA124BDB6813F0020F15D07C
:4013C00010490B6923F47F420D48C3681B0C1B0203F47F4313430B61D1F8903023F47F42C3681B0E42EA0323C1F89030044BDA6822F00102DA6000225A6030BC704700BF6B
:40140000E00023400000214000ED00E0A84902081E4A136943F004031361012801D030BF07E020BF1A4B1B7803B120BF0122184B1A70184BD3F8803003F00303022BE7D0A9
:40144000154B1B68002BFBDA144BD3F80C31C3B941F61E72124B1A60062203F582631A603E22A3F214431A60442203F583631A600C4B1B68002BFBDA4FF0AA32074BC3F803
:401480000C210022044B5A60704700BF00ED00E0A849020800002140E000234000002540080126401C05264001B40248844601BC604700BF3107081001B40248844601BCD5
:4014C000604700BF530E081001B40248844601BC604700BFAD0A081001B40248844601BC604700BF7106081001B40248844601BC604700BFD108081001B40248844601BC74
:40150000604700BF4908081001B40248844601BC604700BF5B0E0810000000000000000000000000000000000000000000000000000000000000000000000000000000006F
:40154000000000000000000000000000000000000000000000000000000000000000000000000000000000000000000000000000000000000000000000000000000000006B
:40158000000000000000000000000000000000000000000000000000000000000000000000000000000000000000000000000000000000000000000000000000000000002B
:4015C00000000000000000000000000000000000000000000000000000000000000000000000000000000000000000000000000000000000000000000000000000000000EB
:0200000490303A
:02000000067682
:0200000490501A
:0C0000000005E22421002101E2392776EE
:00000001FF