:4000000000400020110000000D0300000D03000010B500F083F9C04670B51222264B1A6000F0BEFD254800F0C7FF012000F0D8FD302000F007FD224A224B1A60224C802556
:40004000ED052560214A116802230B431360204A204B1A600022204B1A60204A136808218B431360FA20C00000F066FD1C4800F059FD1C4A1C4B1A601C4B1D4A1A601D49CE
:400080001D4A11601D4A1A60802212061C4B1A608022D2021B4B1A6041221B4B1A60013A1A4B1A601A49082000F012FD082000F003FD256070BDC04630001040001BB7008D
:4000C0000600008004010B400C020B4078002E402D3E00007C002E4064F02E406CF02E40DC050000007FBB00040301400000014041FF0080009F0F000003014040FF0080F5
:4001000008010B4000010B40200101401C010140F90C000010B572B60022224B1A6000240FE021486200131959000B00411889881A5AC31858880004104300F0E1F8013408
:40014000E4B2012CEDD9184801000C31143000F0ADF8EE221206154B1A60C0229204144B1A6099231B04134A1360134A136080229205124B1A60124A117806230B43DBB2B8
:400180001370D82212040F4B1A6040220E4B1A60C02252030D4B1A60FFF73EFF00F0A0F810BDC0466CF02E40882A0100000002400002024000500F4020500F4028500F40E4
:4001C00000700F4008000440000204400802044010B5064C2378002B07D1054B002B02D0044800E000BF0123237010BD5010002000000000842A0100084B10B5002B03D0AA
:400200000749084800E000BF07480368002B00D110BD064B002BFBD09847F9E70000000054100020842A0100A00B00200000000010B5012801D0282802D1002000F030F9DD
:4002400010BDC04610B54B681B681B78002B03D1002000F0B3FD0AE0012B04D1FA20400000F0ACFD03E0FA20800000F0A7FD10BD10B5012000F064FE10BDC04610B562B6BA
:40028000074800F0B5F8074800F084F900F0EAFD00F046FE044800F081FE01F0B7F9FCE7310200004502000071020000F0B50025002711E0BB00C658F3B2FF22964308E01D
:4002C0006A008A181478A419527822700135013BDBB2002BF4D10137002FEBD0F0BDC0460323044A1360044A13600022034B1A607047C0463000304030003140000E3F406C
:4003000010B50A00002101F045F910BD10B501F0FDF803680C2B00D1FEE7FEE770B50F4E0F4D13E029686B68AC68002202E001C901C30432A242FAD1E868002202E00021B4
:4003400002C304328242FAD11035013E002EE9D101F0E2F8FFF792FFFEE7C04601000000DC2C010010B50E4A136801218B43136000230AE0032B03D89A000A49505800E0BA
:4003800009489900094A885001332F2BF2D9FFF7C1FE034A116801230B43136010BDC04600001040000000000D0300000000002010B500F0F3FA00F0EBF810BD10B50024F1
:4003C000064B1C70064B1C70064B1C70FFF7F0FF054B1C70054B1C7010BDC0460F220020082200200E220020F4210020FC21002010B590B00400142220490BA801F0C1F894
:4004000020231F4AD35C002B05D1FFF7D7FF012120231B4AD154002C2DD01A4B1C6008A805AA426006AB0893002101811B311980598017391971002313701231694401F00C
:40044000C1F9002818D1104B0293104B0193052300930BABAE2212010D490E4801F008F9002809D101220C4B1A70073217210B480DF004FF00E0012010B010BDA02A0100BD
:400480006C100020F82100207902000080350100C0000020B106000004220020B42A010010B502282FD81C4B1B78042B2DD11B4B1B785B072CD4002809D1194B1E221A86BC
:4004C0000232596A0A805B6A10325A800CE001280AD1134B96221A86C822D200596A0A805B6A8022D2015A800E4B18700C4820300BF0D2FA00280DD1084A117804230B4335
:40050000DBB2137006E0012004E00420FF3001E00420FF3010BDC046042200200F220020A40B00200E2200207047C04603784078000218437047C04670B5050083890F2B36
:400540001FD1043031332A0000210DF0AFFE041E11D16868FFF7EAFF830706D50A4B1B68290082204000984705E0074B1B6829000620FF309847054A137801218B431370C0
:4005800000E00024200070BDF82100200F2200207047C046014B18607047C0469010002000B585B00F236B4400221A70123269460A81009301238B80002300220021684697
:4005C0000DF074FE05B000BD10B582B00400154B1B68002B23D08389122B20D10389012B1DD143681B78022B19D804304023220000210DF05BFE002811D123886A461380BA
:400600000023937004340194064B1B686946BE20FF309847044A137801218B43137002B010BDC046901000200F22002010B5034B00225A701A70FFF7B3FF10BD0C2200202A
:4006400010B582B00400FFF777FF0F4B1B78DB0704D5002802D1200000F0A2F90A4B1B78DB070ED4002809D001A912238B70A3890B80C87020680CF079FB02E020680CF0F1
:40068000EDFB02B010BDC0460F2200208379002B07D000200BE0C25C002A07D10133DBB200E00023052BF6D9002000E001207047F0B583B004000D00A54A117801230B43E5
:4006C000DBB21370272800D1C5E013D8062800D188E005D8012824D0052800D17EE026E1242800D1B3E0262800D1BCE0212800D01DE18BE0432800D100E108D8412800D152
:40070000E5E000D9F7E0282800D1A8E00FE14E2800D1FFE0FA2800D104E14C2800D006E1F4E001AE0727377000237370300002F053FF377001237370300002F04DFF00F0A4
:400740005DFF844B1E683000FFF7A0FF00280CD0300000F05FFF7F4E00213068FFF7E4FE30680121FFF7E0FE2AE07B4B1F787B4B18788001FC263601020032403F213940B1
:400780001143774B1B781B03F822520213401943744B1B785B04FE22120413400B43724E33701A0A72701B0CB370300000F032FF00213000FFF7B8FE01213000FFF7B4FED2
:4007C00000200AF0FBFF01A83F230370002343700BF012F80422654B1A70A8E02A78644B1A70A4E02B78002B00D0A0E06B78002B06D1604B0022DA809A805F4A1A606B6013
:40080000534A137801218B43137090E0504B1B789B0600D58BE0594B1B78102B02D10522564BDA70564B187854490BF0F3F801AB1880002804D0534B1B6801A93620984753
:40084000434A117801230B43DBB213706FE06A784D4B1A706BE00222444B1A7067E00422424B1A7063E0414B1B78022B5FD0384A1278D2075BD5364A1278520708D5032249
:400880003A4B1A70324A137804218B4313704EE02F4A1278120708D50422344B1A702C4A137808218B43137041E0032B3FD104222E4B1A70354B1B78002B38D10120FFF7F5
:4008C000EFFD002833D10322284B1A702FE02C4E02222900300000F054FE0022244B1A7031789E3189002A4B591801310432294800F047FE1BE0FFF799FE18E069881629B6
:4009000000D9172128880CF03BFA10E02800FFF797FE0CE00E4B1B78DB0708D52800FFF753FE04E01C4A117801230B431370084B1A7811231A4209D0054A137801218B433C
:400940001370104B1B6829002000984703B0F0BD0F220020D80B00207CF1FF0F7DF1FF0F7BF1FF0F78F1FF0FDC0B0020042200200822002094100020A00B0020700C002090
:400980000C220020F8210020FC2100200E2200208035010000220020F42100207047C04630B583B00500224B1B68002B3AD08389172B39D17E33FF331E4AD358DB022AD54D
:4009C000043040232A0000210DF070FC041E23D12B886A46138000239370D37001936868FFF7A4FDC30706D5114B1B6869463220FF30984705E00E4B1B6869469920400040
:400A000098470D4B1B78012B06D10C4A117802230B43137000E00624094A137801218B43137002E0002400E00024200003B030BD9C100020B42A0100FC210020F4210020D2
:400A40000F22002010B586B0040000F0BEFA0E4B1B6800930D4B1B680193033C0C4B1B5D02930C4B1B68039304AA0B4B04936B4605930A4B1A600A490A4A11601B6800F04F
:400A8000A8FA06B010BDC04608010B4000010B40882C010030001040B6EA0000080010401700008004001040024B1B68012018407047C0460C002E401F2318401E3B83401D
:400AC000014A13607047C04600E100E001BE704770B504000D001F2802D90020FFF7F6FF1034A40080239B059C4664442068256070BDC04610B5040006E0084B586800F03A
:400B00005BFA074B9C46644480231B029C42F4D8024B9868604300F04FFA10BD780C00200080FFFF10B5034B1B7B584300F044FA10BDC046780C002010B504000F4A11687E
:400B400001230B4313600E4A0E4B1A600E4A1368802109020B431360002809D100200CE00120FFF7DFFFFFF79FFF002804D1013C002CF5D1102000E0002010BD60F02E40A7
:400B80000220000078002E4010002E40034B1868C0231B02184000D00120704700010B4010B50D4B1A6801218A431A601A68022082431A60094A10683024A043203C2043E9
:400BC00010601068093CA043014311601A68802109060A431A6010BD00F02E4000FF2E4070B51D4B1B6801241C40002802D0012816D02BE0184B1968012291431960196825
:400C0000022081431960154B19682E3081432038014319601968093881430A431A6018E00D4B1A6802218A431A600C4A10680725A843014311601168302081431038014301
:400C40001160196801220A431A6002E00020FFF73DFF200070BDC04600F02E4000FF2E4010B500F0B2F9044A1368C02109020B43136000F0AEF910BD00010B4010B500F00B
:400C8000A4F908490A68084B1A408024E40122430A600A6813408022120213430B6000F098F910BD00010B40FF3FFFFF70B5050000F08BF90400FFF769FF002803D0FFF7CC
:400CC000DDFF012100E0002108482840084A1568084B2B40184310601368012901D1FFF7BFFF200000F075F970BDC0460404040010020B40FBFBFBFF10B5244B1B685B0797
:400D000015D5234B5B685B070ED5224B596A042001401F4C62688A4362605A6A82435A629B69002B00D098470420FFF7BFFF174B1B685B0518D5164B5B685B0510D5154B04
:400D4000596A8022D2001140114842688A434260596A114A0A405A62DB69002B00D098478020C000FFF7A2FF084B1B685B030CD5074B5B685B0304D5064B1B6A002B00D00E
:400D800098478020C002FFF791FF10BD10020B408C0C0020A0100020FFFBFFFF0004000C014B18607047C046480120400004000C014B18607047C046540120400004000C32
:400DC000014B18607047C0464C01204070B504000D0000F0FAF8AC40024B1C6000F0F9F870BDC0460800204010B500F0EEF8064A116802230B43136000F0EBF81821022004
:400E0000FFF7E4FF10BDC04600002040014B18607047C0467801204010B50E4C8023DB042360236823600020FFF7B8FF236823600C22094B1A600120FFF7E8FF3122074BA0
:400E40001A60074C2000FFF7B1FF2000FFF7B6FF10BDC046400120406401204068012040FFFF000010B5064B1B78002B04D1FFF7D3FF0122024B1A70FFF7B6FF10BDC0462B
:400E8000C81000200004000C014B18607047C046080120400004000C014B18607047C0461401204070B504000D0000F08EF8AC40024B1C6000F08DF870BDC04608002040C9
:400EC00010B500F082F8064A116801230B43136000F07FF818210120FFF7E4FF10BDC04600002040014B18607047C0463801204010B580229204074B1A600C22064B1A606C
:400F00000120FFF7EFFF0548FFF7C4FF0020FFF7B9FF10BD0001204024012040E02E000010B5064B1B78002B04D1FFF7E1FF0122024B1A70FFF7C4FF10BDC046C910002019
:400F4000014B18607047C046300120408423014AD05070470000002010B5040000F035F8044A1168044B0B40A4031C43146000F030F810BD10E400E0FF3FFFFF802292028A
:400F8000014B1A607047C04600E100E080229202014B1A607047C04680E100E010B50400FFF7F4FF2000FFF7D1FF0320FFF7D4FFFFF7E4FF10BDC0460230800803D00138FD
:400FC000FDD1C046C046C0467047EFF3108072B6704780F3108870470160704701607047324B1A781202324B1B781A43314B1B781B02314909780B4330498B4201D1072AC9
:4010000006D0D42109018B4206D1042A04D102E02B4B042200E02A4B2A490B602A4B1A602A4B1B781B022A4A1278134380229201934202D0002B02D002E0264B00E0254B9F
:40104000254A1360254B1B781B02254A12781343244A934205D0244A934204D0052B05D103E0224B02E0214B00E0204B204A1360204B1B681B09204A1268AA2A15D1012B48
:4010800013D9164B1B780E2B0FD11C4B1B781B021B4A127813431B4A13601B4B1B781B021A4A127813431A4A13607047D9F0FF0FD8F0FF0FDFF0FF0FDEF0FF0F580B000052
:4010C000580D00006C002E4074002E40DBF0FF0FDAF0FF0F0220000078002E40DDF0FF0FDCF0FF0F0F0F000005050000050F000080002E40EC0F00F0E00F00F06DF2FF0F00
:401100006CF2FF0F84002E406FF2FF0F6EF2FF0F94002E4010B5FFF705FD10BD10B5FFF7E9FC10BD10B500F04BF810BD10B500F04FF810BD10B500F04BF8034800F02AF898
:40114000032000F02DF810BD1912000010B5024800F046F810BDC046191200000220FF307047C0462B2070472B2070472B2070472B2070472B2070472B2070472B207047E8
:401180002B2070472B2070472B2070472B2070477047C046014B18677047C0460000002010B50400FFF711FF044A1368C0218B43A4011C431460FFF70CFF10BD0CE400E065
:4011C00080225201014B1A607047C04600E100E080225201014B1A607047C04680E100E010B50400FFF7F4FF2000FFF7D3FF0320FFF7D6FFFFF7E4FF10BDC04610B5FFF70E
:40120000E4FE044A136804218B43136030BFFFF7E0FE10BD10ED00E010B511F01FFC10BD002243088B4274D303098B425FD3030A8B4244D3030B8B4228D3030C8B420DD373
:40124000FF22090212BA030C8B4202D31212090265D0030B8B4219D300E0090AC30B8B4201D3CB03C01A5241830B8B4201D38B03C01A5241430B8B4201D34B03C01A524129
:40128000030B8B4201D30B03C01A5241C30A8B4201D3CB02C01A5241830A8B4201D38B02C01A5241430A8B4201D34B02C01A5241030A8B4201D30B02C01A5241CDD2C309F9
:4012C0008B4201D3CB01C01A524183098B4201D38B01C01A524143098B4201D34B01C01A524103098B4201D30B01C01A5241C3088B4201D3CB00C01A524183088B4201D352
:401300008B00C01A524143088B4201D34B00C01A5241411A00D20146524110467047FFE701B5002000F0F0F802BDC0460029F7D076E7704703460B437FD4002243088B427C
:4013400074D303098B425FD3030A8B4244D3030B8B4228D3030C8B420DD3FF22090212BA030C8B4202D31212090265D0030B8B4219D300E0090AC30B8B4201D3CB03C01ABA
:401380005241830B8B4201D38B03C01A5241430B8B4201D34B03C01A5241030B8B4201D30B03C01A5241C30A8B4201D3CB02C01A5241830A8B4201D38B02C01A5241430A7F
:4013C0008B4201D34B02C01A5241030A8B4201D30B02C01A5241CDD2C3098B4201D3CB01C01A524183098B4201D38B01C01A524143098B4201D34B01C01A524103098B4280
:4014000001D30B01C01A5241C3088B4201D3CB00C01A524183088B4201D38B00C01A524143088B4201D34B00C01A5241411A00D201465241104670475DE0CA0F00D049426E
:40144000031000D34042534000229C4603098B422DD3030A8B4212D3FC22890112BA030A8B420CD3890192118B4208D3890192118B4204D389013AD0921100E08909C3098D
:401480008B4201D3CB01C01A524183098B4201D38B01C01A524143098B4201D34B01C01A524103098B4201D30B01C01A5241C3088B4201D3CB00C01A524183088B4201D390
:4014C0008B00C01A5241D9D243088B4201D34B00C01A5241411A00D20146634652415B10104601D34042002B00D54942704763465B1000D3404201B5002000F005F802BDB1
:401500000029F8D016E770477047C046014B18687047C0464C1000200E4B70B500251E000D4CE41AA410A54204D0AB00F35898470135F8E711F0C0FB084B00251E00084C2D
:40154000E41AA410A54204D0AB00F35898470135F8E770BDC42C0100C42C0100C42C0100CC2C010030B50024A24208D0035D651C0C5DA34201D0181B02E02C00F4E700201A
:4015800030BD002310B59A4203D0CC5CC4540133F9E710BD03008218934202D019700133FAE77047134A1088810703D08107890F401A001D11791030484381B2508882071D
:4015C00003D08207920F801A001D800040180A494030098980B2CA0701D0503080B2890706D504495422091F09785143081880B2704700009A0C0020D810002010B501F08C
:401600000BFF10BD10B501F00DFF10BD10B500F05BFA10BD10B50749044609780220002907D1204601F04EFF002802D120460AF0D7F910BD380E002070B504460120002CAC
:4016400012D02368002B0FD0616800290CD0074D06222889208118462968FFF792FF6968606809780170002070BD0000D8100020FFB585B0002768460E9D07734F481C4625
:401680000078002802D0082009B0F0BD10990F9801900095029105A807C800F007F90028F2D16946264603AB84460873002C19D0002115E08A00B75A082F09D9901980783C
:4016C000002805D0083FB7521878401C187005E0002914D00027B75290198770491CC9B2A942E7D360460028CED10F98002809D0109901F041FA002804D00120C4E701200F
:401700008446EFE701F08EFE2D480021416081600599016021888180022D07D3A1798171A17AC171A1890181218A418100211EE0481C19E082008B00A75AE65ABE46BE4282
:4017400011D26F463E80B4461E190296B678BE7001967646E6521719029EBB78B3706646A652019EBE70401CA842E3D3491CA942DED3134822460C3000906846037B079974
:40178000069800F01BF90028B8D168460B4C007B60700B480C3001F075FE0028AED1084907480C3107F07AF90028A7D107F094F90028A3D10121217066E70000940C002025
:4017C000CC100020F8B5054636480F460078002802D002242046F8BD002F60D000243249002D16D02A89D0070DD02868002808D003881B3BE12B04D24088FB2801D81B289D
:4018000001D2012409E0900707D56868002804D1F7E70020088108604860002CDAD122482E8906811F481B21801D01804180042101711C490020891C0870F00705D0194889
:401840000622801D2968FFF79CFE1749B00703D56A68144812788270124D0E46AD1D281F0D60486001F054FE284601F043FE30890DF054FE30890DF045F828880DF048F845
:4018800030890DF0B5FF03461033FFF78BFE1F21C018890140183880A91F88809AE7012498E70000940C0020D8100020FFB58446384F1C460020BB883F78054602460646E4
:4018C000002F11D100290ED0029999420BD36146002908D0002C06D00A99002906D02E4B0B99994202D2012004B0F0BD002144E0AB001F19BF78002F3BD0E35A002B38D0D9
:401900007B43591889B22B0000F04AF8050410161C253100A7782388BC46FF27233BEB37BB4222D26346032B1FD322E0A388002B1FD0302B19D31CE02389002B19D0282B76
:4019400013D316E0A289002A13D01346134F233BBB420AD20DE0268A002A0AD033460F4F233BBB4201D2964203D901200EE0002001E000280AD16D1CEDB2099B9D42B7D3BF
:401980001C2463435B1802998B42ACD89642AAD8AAE70000940C002079020000BAFF000030B47446641E2578641CAB4200D21D46635D5B00E31830BC18470000FFB583B05C
:4019C000002469460C801F4606468C80002806D00598002803D004983043800701D0012466E0002FFBD03449049809888842F6D3FFF7ACFBFFF79AFB00F012FC002855D1B8
:401A000000F07AFD002851D12C49084601F0E8F805042D0C4AD12A480499066081800021C18007810C98007AC00704D0684601F012FD040007D10C98007A800703D501A83B
:401A400001F012FD0446BF1DFEB2002C20D13146059800F05DF804001AD10DF0D7FE040016D16A461088928808368518144AF1B29088D288AEB29319984207D3401B801A09
:401A800080B201F09DFB050007D000E0FF25012400F05EFA002D04D008E0F8B200F01CF9F6E700F081FA07490120087000F0CAFB204607B0F0BD0000980C0020FD1B0000FA
:401AC000E4100020A00C002010B503480078012801D101F017FA10BDA00C002070B5084B0446DA889E8800205518B54206D81D68AA182260DA885118D98070BD032070BDD2
:401B0000E41000200148008970470000E4100020F0B587B007460D4600208900009006916846FFF7DBFF844600285DD1304800990160002117E02E4B88001A680629115469
:401B400006D22C4C0419667882185670628805E0C419203CA67A8218567022891B68C018491C4280C9B2A942E5D300242DE0601CC2B2059025E01E4FA30039689600581875
:401B800040887118039604904E88B04217D938466F46FE80B6464F786E4677710297049F4F800168039F5E18767879184E700168764659184E800068029F18184770521C54
:401BC000D2B2AA42D7D30598C4B2AC42CFD36046002809D168460699FFF780FF8446002802D1054900980860604607B0F0BD0000A40C0020F02C0100A80C00207047000029
:401C000010B5002809D005494A68002A05D0011F08788000105801F081FA10BDA40C002010B50446FFF76EFFC0B2801DA0420CD307484068002808D0A100405801F0E0F912
:401C4000002801D00470001D10BD002010BD0000A40C0020F8B516460D460446FFF752FFC0B2801DA04203D20020C0430090F8BDB2B2E9B2684601F0E9F90099481C03D0E5
:401C8000024AA000526811500098F8BDA40C0020F8B50746FFF736FF801DC6B20A49002005460C680DE06178002907D06188B94202D32078FFF7B4FF002804D1241D6D1C0D
:401CC000EDB2B542EFD3F8BDA40C002010B5002801D0FFF795FF10BD70B506460948002504680BE06178002905D062882078121D0023FFF7AFFF241D6D1CEDB2B542F1D341
:401D000070BD0000A40C0020FFB581B00A9F16000C4620D000F0F2F8054604281BD0002F0CD03846FFF7B4FF20492A0151184860002810D03A460499FFF723FC1B492801E6
:401D40000E504618778101980570200406D47D20C000444304E0FF2005B0F0BD6404640C00F0BAF80746042807D000F04FFAA0420BD800F04BFA201A03E0204600F0AAFA46
:401D80000020F06035720020E6E700F03FFA009000F0B6FA00980121001B009000F0ECF802493A0151180098C860E6E7F0100020F8B5060116483418217A042903D0E068B0
:401DC000002802D017E00020F8BD00F01FFA054600F096FA00F0A0F804280CD001010C480F18F8680021451900F0C6F80020F860284600F06FFA6068054D002801D0FFF767
:401E000065FF042020720020A8516081E060DAE7F0100020FEB500266A46304601232549050169180D7A042D02D0C96800291BD000211154401CC0B20428F0D30024684671
:401E4000005D002830D01B48210108184189476805680291002101604160042241810272C160002E02D015E01354E3E700F054F804280ED001010F4808180190C66800215A
:401E8000304600F079F801980021C160304600F021FA0126002D07D038460299A847002F02D03846FFF712FF641CE4B2042CC6D3FEBD0000F01000200EB5002005216A46C3
:401EC0000090118150810348694600680EF003FB0EBD0000AC0C0020074A0020010189180B7A042B02D0C968002903D0401CC0B20428F3D370470000F01000200549002022
:401F000002015218127A042A03D0401CC0B20428F6D37047F010002030B50A4B04200A4C00210A011219157A042D06D0D268002A03D09A4201D808461346491CC9B20429CC
:401F4000EFD330BDFFFF0000F01000207047000030B50020074C05460423020111190B72A5504D60401C4D81C0B2CD600428F4D330BD0000F010002030B5094C00231A0186
:401F80001219157A042D04D0D568002906D02D18D5605B1CDBB2042BF1D330BD2D1AF7E7F0100020002070471CB5002469460C70142001902346054A05480EF091FA0448ED
:401FC0000068401C00D1FF2420461CBD25200000AC0C00203EB5124A0146FF2000230124126800290DD0012914D0042908D104206946009308814B8110460EF06CFA80B295
:402000003EBD6846009304814381694610460EF05DFAF4E768460093048143816946EBE7AC0C002070B545890468416800890300FFF7B6FC08280509091E222826280020AA
:4020400005F0E8FB1EE0022908D0C8B22A4621460CF0A4FB2046FFF739FE13E002202A4621460CF09BFB2946204600F00DF809E000200DF02FFF05E02046FFF7CBFE01E0A1
:40208000FFF786F8002070BD014B0022DB681847B00C002070B5448905680089022803D0032809D0FF2070BD2246094C0023A46829460120A04708E0FFF7A4FA241DA2B2CA
:4020C00000232946022006F09CFB002070BD0000B00C002070470000024800214160018041807047B00C002070B50C46002186B016460391012802D0022859D116E003A92F
:40210000012006F0D3FB01281BD1039D324621462846FFF736FA0095287801900220694608814E816846FFF7B5FF41E0214D002B686809D0049004A9022006F0B7FB0128B4
:402140001DD0022006B070BD002812D0298840182146FFF716FA28880024801980B228806988091D884206D12C801348FFF792FF03E00320E6E788421AD96C6018E0049870
:402180006860E278A378110219430B4A698000231060E3565360032313815181A1788170E178C1706178417021780170042028800020C7E7B00C0020301100203EB51546DD
:4021C0000C46022803D004280CD000203EBD0091019002206946088107484A8100680EF07AF907E00CF0DAFA044B0022DB6829462046984701203EBDAC0C0020B00C00200F
:40220000014AD16090607047B00C0020034801688068081A0A214843000970473C11002010B5FEF787FF482204490548FFF7A9F903490120C870002010BD00000C2D010056
:402240004015002010B5FEF76DFF10BD70B5134C2368002B08D0207B1149C20705D04008400020738868A08070BD88680B4AA18880B29268814203D90A4D691A091802E0E3
:40228000814202D2411A5118A160A080A0689842EAD30EF03DF900F013F870BD3C110020C0102E40FFFF000010B508461946FFF7A7FF10BD704710B5FFF780FF10BD000065
:4022C00003480021016041608160C160704700003C110020024610B5FF20002A0CD0FFF7EFFF064C0321207B0843207310010A21FFF71CF82060002010BD00003C11002025
:4023000000B504480A21806848430209FFF7D8FF104600BD3C1100200248007B8007C00F704700003C11002010B54B490868002802DA4A4B01221A70022290430860484869
:4023400000694549C00B4031096A0246C907C90F0A4259D0012000F097FA3F480E216C30FEF73CFE3E4820218430FEF737FE3C4814219C30FEF732FE3948FF21C131A43079
:40238000FEF72CFE3648FF212F31B030FEF726FE33483449BC30FEF721FE31483249AC30FEF71CFE30492E48491CB430FEF716FE2B482E49B830FEF711FE29482C49CC3037
:4023C000FEF70CFE26482B490830FEF707FE24482949A830FEF702FE214828498830FEF7FDFD1F4826498C30FEF7F8FD1C481921C9029030FEF7F2FDFEF7F2FDFEF7AEFE90
:40240000C0B2022812D01FE000290BD0002101420AD0114801216030FEF7E0FD0120FEF77DFE97E70121F2E7FF2010BD15491648FEF7D4FD14481549001DFEF7CFFD124896
:4024400000210830FEF7CAFD54200449C043891C0870002010BD000000F02E40C00C002000002E40320300002F3F00003102000010520000EC160000FA12000031D000007A
:402480003AE300009956000080012E40F80F000070B50646581C80B245086D00002408E0304600F0C1F81055000A1119A41C4870A4B2AC42F4D3D80705D0D0182038D15CE1
:4024C000C47FD454C17770BD30B50A4C002100195B1E07E0541864782502545C2C430480891C89B29942F5DB994201D1515C018030BD000000102E4010B5FF2000F0C4F9C3
:402500000F49FF2048700E481021801D41800121417001700A490020C91C4870FFF704FF04000AD100F010F907210648FEF754FD044807211830FEF74FFD204610BD000076
:40254000C00C0020CC112E4070B5002405465B1E0AE0284600F068F8010A161971702D1D1055A41CADB2A4B29C42F2DB9C4203D1284600F059F8105570BD000070B500214C
:402580000A4D5B1E0AE0541864782602545C344346193480001D891C80B289B29942F2DB994202D1515C4019018070BD00102E40F0B50599091FCFB200217E1E0BE0541800
:4025C00064782502545C2C43164D45192C80001D891C80B289B2B142F1DBFC0712D01C78515C24020F4A0C4381180C809C785D78001D210280B2294384182180001D80B2F2
:40260000D9780CE059781A7809021143054A84182180001DD9789B78090280B2194380180180F0BD00102E40014940180088704700102E4010B50B490020487000F084F8F5
:40264000002000F047F9002000F034F907210648FEF7C2FC044807211830FEF7BDFC002010BD0000C30C0020CC112E4010B50B46062812D006DC01280CD0032801D1FFF713
:40268000D9FF10BD0A28FCD00B28FAD105480078107010BDFFF730FF10BD1146184600F035F910BDC60C0020F8B5244DAC6A0127A007234E002816DA307806280ED1286A10
:4026C000384328621F480069F903084381B21D481030FEF783FC042000F0D6F8174802212830FEF779FCE00718D000F01DFF01280FD1002000F06AFF062000F0C5F81049C3
:40270000FF20C91E48707078002802D1686B384368630A4801212830FEF75EFCE0050BD53078042802D1052000F0AEF80348FF2101312830FEF750FCF8BD000040F02E4014
:40274000C30C002000002E4010B503212348FEF745FC0120FEF7DEFC20483038406A204C80076178800F890001431C480C38FEF735FC6078002808D0401E022181401820C0
:40278000FEF7BEFEC000083800E0B82081B21548FEF724FC1348032109021438FEF71EFC10481149B830FEF719FC612189010F48FEF714FC0D480321001FFEF70FFC0C492D
:4027C0000C48FEF70BFC0B480B496038FEF706FC084801218838FEF701FC10BD70F02E40C60C0020D8102E4090890000041E2E40FF0F000058122E4020900000084908783C
:4028000006280BD148780749002803D1486B400840004863C86A01221043C86270470000C30C002040F02E400148007870470000C30C002000B50300FFF7B2F8080D050DA0
:402840000B070507090D012000BD032000BD042000BD022000BDFF2000BD0000074A9168D26889B2064B92B2994204D105498A4201D1012100E000210170704780002E40A1
:4028800033D000003FE3000010B50446FEF74EFC072C01D9FF2C01D102480470FEF742FC10BD0000C30C00200149487070470000C00C002010B5064A012805D01921C90231
:4028C0001046FEF78BFB10BD1D21C902F8E7000090002E4010B50A4A141D012808D009491046FEF77BFB08492046FEF777FB10BD04491046891CFEF771FB0349491DF3E7D6
:4029000088002E4031D000003AE3000070B50C460546FEF723FCC0B202280E49287804D0FF2810D04C280CD810E0FF2809D10A4AD0680004800F032801D0087807E090697B
:40294000000A553803E00878207070BD4F382070087070BDC20C002000002E40F0B50122002834D0002932D00424420600D00524792342065B06D21800D0641C0346002216
:402980001EE00C2516466E43124D00277519AF72104F002ABB51696007D0661EB24209D10D4E86197606760E05E05E06760E8027BE1B00E080269B198919521C2E81D2B25B
:4029C000A242DED303480549006B002288611046F0BD0000C813002079020000CC0C002018B50020694608700A48006900280ED0132149014018047E684604704F21C9003A
:402A0000054800F059F8A04201D0012018BD002018BD0000CC0C00204C110020074900200C2242435218927A012A05D0401CC0B20628F5D30020704701207047C8130020EE
:402A4000F8B50E000446154609D0194F19497868A04202D94018A04201D38D4201D90120F8BD31462046FEF77DFD00281ED02A4631462046FEF785FDE8B200210C224A438D
:402A8000D21913895568EE18A6420BD90126641B1B1B9672834209DA1469C01A044AC0B220329676491CC9B20629E7D30020F8BDC813002079020000034610B50020024675
:402AC00004E09C5C2018521CC0B292B28A42F8D310BD000070B500F05FF8084C064A216907480D46FEF74DFD05492846FFF736FFFFF776FF207070BD79020000CC0C00203D
:402B00004C110020002070470020054A002902D0012902D002E0906000E0D06000207047CC0C002070B5084C154608460549E26889182A46FEF725FDE0684019E06028B28D
:402B400070BD00004C110020CC0C00203EB50A226946FFF7E7FF044606480A2200686946FEF700FD002802D00020C0433EBD20463EBD0000D00C0020002802D0044A9142AC
:402B800001D2FF20704703494A6108610020704779020000CC0C0020024800218160C16070470000CC0C002070B5074C15460548A26880182A46FFF743FFA0684019A060DB
:402BC00028B270BD4C110020CC0C002010B503490A220968FFF7E8FF10BD0000D00C002010B50F4A002313600E4A13600E4B18600E4801600E49012008600E49086000025D
:402C000090600E490C4808600D4914300860FF381538506000F0BCF800F0CAF9002010BD000D0020E80C0020140D0020180D0020040D0020F40C002010150020F80C002096
:402C40000C0D0020014610B50020002910D0094B1A689C685118A14209D25868196080188A0704D08A07920F891A091D196010BD002010BDE80C0020F8B50024164E671EB3
:402C8000321F3D463168136806E01422624310328A58521C1BD0641C9C42F6D36A1C14D02C461422544322460C3288500C214843FFF7C8FF3168002808510AD0316800207E
:402CC000103408517068401C70602846F8BD2546E4E73846F8BD0000F80C0020F3B50026F64381B000281BDB1E490968884217D80299002914D01B4F142204463F1D544317
:402D00002546396810354859401C09D0FEF70EFA38682F1F4159C359994203DBFEF702FA3046FEBD214608310091465801590C20704308180C220299FEF723FC0948761C08
:402D4000001D0068C159B14200D100260549009A091D865008684159491C4151FEF7E2F90020FEBDF40C0020002803DB07490968884202D90020C043704704491422091D2B
:402D8000096850431030085870470000F40C0020F0B500200D4A451E0346171F50600FE014260146714314680E1DA3510C461668083433511668083435511468401C6350D0
:402DC00039688842ECD30020F0BD0000F80C0020F3B50026F64381B0002841DB2349096888423DD8029900293AD0204F142204463F1D54432546396810354859401C2FD083
:402E0000FEF794F93868415900292BD0211D009146580C21005971430F46C1190C220298FEF7AFFB11480021001D0068761C00590C34C0190160416081600C48001D0068B6
:402E40000159B14200D100260849009A091D865008684159491E4151FEF764F90020FEBD3046FEBDFEF75EF9FAE70000F40C0020FEB504460D4600201E49089E0860471E2F
:402E8000009001900290002C11D0486885420ED2002A0CD0002E0AD0642E08D808460C3001681C2068430C18207A002801D03846FEBD0120226020721846FFF7DDFE60608D
:402EC000401C13D06681A6810A4827610C3067610179A94200D205710021684601810A462846029B00F040F82846FEBD00202072DDE70000000D002038B50124009400F0C4
:402F000039F838BDFEB50027164EFF433D4600240EE01C20316860430818017A002906D04068FFF721FF002801D0254603E0641C3079A042EDDA681C12D01C2130684D43A2
:402F40004419FEF7F3F869466068FFF741FF0546FEF7E8F8002DD9D1216868468847D5E7FEBD00000C0D002038B50024009400F001F838BD1FB500220C49541E0A600028E8
:402F800011DB496888420ED808491C220C31096850430818406801A9FFF7A0FE401C02D0002004B010BD2046FBE70000000D0020F0B50021114A4D1E174611710C3F0B46A3
:402FC000BD6016E008461C2460431668041D355114680646235014680836A3551468361DA353044616680A34335318301468491C255078688142E5D30020F0BD0C0D00202B
:4030000038B500210091002811DB0F49097888420DDA0D4D04010C3529680859002807D0201D0818694600F06FF9002801D0002038BDFEF77BF828680F34015D491E0155FA
:40304000FEF770F8009838BD1C0D0020F7B582B0002502986E1E06602E48D21C024017462D4A2C4610460C380178106805E02301C358002B0FD0641CE4B28C42F7D3711CAE
:4030800028D03401211D40180191039900F02AF900281FD101E02646F1E71F48016820460C300F521C480399026820460E30115419480399026820460F30115403987843C2
:4030C00000F0A0F8144900280968085102D00024009011E001251AE00F48016801980818009900F02CF9002801D0012502E00098C0190090641CE4B203988442ECD3002DD6
:4031000005D10298066004480179491C0171284605B0F0BDFCFF0000280D0020F8B50D4600216A468C461180002839DB23490978884235DA214B04010C3319680A59002A08
:403140002ED020460C300B5A801C0E5C184670438018954224D3854222D2002006E007465F43BF18AF4206D0401CC0B2B042F6D36046002814D0114E271DC8190C366A46CE
:40318000294600F006F900280AD168460088012808D030682946C01900F0D1F8002803D00120F8BD0020F8BDFDF7C0FF30680F34015D491C0155FDF7B5FFF3E71C0D0020C6
:4031C000F8B50F46002400F031F8002817D10C4900220B460C334A600EE021011D680E466A501D680C36AA53B61C1D680F31AA551D68641C6A54E4B2BC42EED31A71F8BD7A
:403200001C0D002000280BD0C01C074A81085068890053884118994203D893685160181870470020704700001C0D0020F8B5064600200F4D009029700C0121466846FEF7F9
:403240004DFC00280CD129460C3100980860301B001F84B221466846FEF740FC002801D0FF20F8BD6C800098A8600020F8BD00001C0D0020F8B5002827DB19490978884273
:4032800023DA174C05010C342168485900281CD028460C30085A009028460E300E5C401C0E5420682F1DC01900F064F800280CD12068002445590EE0094829460C30006820
:4032C000C01900F03CF8002801D00120F8BD00982D18641CE4B2B442EED30020F8BD00001C0D002030B50D4604000BD0A800FFF789FF6060002805D000202570C0436080A8
:40330000002030BD012030BD70B50D46040005D0002D03D00220205E002801DA012070BDFDF704FF0221615E60688900405828606088401E6080FDF7F5FE002070BD70B567
:403340000D46040007D0002D05D002212078615E401E814201DB012070BDFDF7E7FE6088401C00B26080616880000D50FDF7DAFE002070BD10B5040009D0227800216068C5
:40338000FEF708F90020C0436080002010BD012010BDF0B500231D46002802D00224045F0AE00120F0BD46689F00F6598E4201D1012503E05B1CDBB29C42F4DA1570002037
:4033C000F0BD00000148007870470000300D00207CB505460024FEF715F9A8796946087000A8062229460130FEF7CBF80021684604F0D6FC0C2806D0072806D01F2806D077
:40340000122806D006E0022404E0042402E0272400E0012420467CBD01480121417270474816002010B500F05FF9FFF7FDF9FFF701FA10BD70B504460025FEF7E3F8002CF9
:4034400006D0A079012803D8214602F073FC00E00125284670BD01460120002902D05020088000207047000001460120002905D0034854220078504308800020704700002D
:40348000320D002010B502460D49FE204870032410460DF043FB002810D10DF0E7FA00280CD105F05FFA002808D100F013FB002804D104F01BFF002800D10024204610BD28
:4034C000300D002070B50025044600280ED0A07901280BD8FEF796F8A0790028204602D002F0B6FF03E002F08BFF00E00125284670BD0000014610B50120002904D00622BB
:403500000248FEF73EF8002010BD00003C0D002001460120002903D0087802490870002070470000320D00200148007A704700004816002038B504460120002C20D061789E
:4035400001291DD800290BD0FF25E535FEF75AF80C4828180088C0B22070072803D00EE0FF25CD35F2E70020694608706846FFF775F969460878012801D10820207000203B
:4035800038BD000000102E40014A002192681047300D002008B500226B461A7026280CD0094A342852680BD0352805D1900703D50021352005F0B2FA08BD19462620F9E7F3
:4035C000D007F9D03420F5E7300D0020014908727047000048160020F8B504460120002C26D06178012902D92278092A20D8002905D0FF25E5352078092803D004E0FF25E8
:40360000CD35F8E708202070FDF7FCFF2078114F114E08280DD00020FFF75CF970780128207810D00D4969180880FE2070700020F8BD0120FFF74EF90720B881054920311B
:4036400088800120F2E7B8810248217820308180EBE70000C0112E40300D002000102E4070B50E46050001D0002400E00C4C002C11D0E28A500609D5D107C90F022002F0D3
:403680007BFFE08A40218843E08204E0D107C90F012002F071FF3146284602F059FC70BDA8150020F8B50546002004460D4E009013E022466946284600F0D2FF0098002805
:4036C00001D00DF00DFAA878214602F09BFAA878214602F089FA641CE4B2308AA042E8D8F8BD00007416002038B51E4CFFF79CF8042813D0052811D0062812D003282AD0E7
:4037000007280AD100206946087002460120FEF7ADFFFFF789F80128FBD138BD00F077FB38BD02F0C5FA00F072FB02F025FB8007800F0228F4D10C4841880029F0D05B21CF
:40374000095D0029ECD101210170A07D0140022002F012FF38BD02F0AFFA0120FFF794F838BD0000A8150020560D0020F8B50646002402F06FFF0546304602F085FF034662
:403780000A480021068A0DE001228A401046174628401F40002803D0002F01D1224394B2491CC9B28E42EFD82046F8BD741600201CB50020694648706846FFF7BBFE01AA6F
:4037C00069460A20FEF752FF6946042008561CBD70B50D4601F02AFB04000BD02079002808D0FDF70FFFE178A0782A4602F036FC002070BD022070BD01480078704700007F
:40380000801500204030C07E002800D00120704700B500F001F800BD902148430749084A40186030417F491CC9B24177D289914201D300214177C8B2704700008815002013
:403840007416002013B501F0F1FA04000BD001F08EFE002807D0214601AA0A310620FEF705FF00201CBD02201CBD000010B50C4601F0DCFA00280AD001F079FE002806D0F9
:40388000224604490A20FEF7F1FE002010BD022010BD000069150020F3B581B0074601460026029802F0CEFE0446002F01D0002500E0154D002D21D0284601F0EDFA032C9C
:4038C00004D13946029802F019FF06463846029902F08AF9032C06D0002C10D00121384601F0E0FB03E03146384603F00DF9284602F06EF80221284602F084F8FEBD3846AA
:40390000029902F071F9FEBDA815002010B5044600F066FA002804D103F0C0FD002801D00C2010BD2078611C02F09AFCFF2801D01F2010BD02F0E0FCFF280AD02178621C73
:4039400002F0E0F8044821780068026B601C904710BD072010BD00007C0D002010B503F09DFD002801D00C2010BD02F05BFC03480068C06A8047002010BD00007C0D00203F
:4039800070B50D46044610210CF0EAFF1021601806460CF0E5FF334610221946204603F0ABFD102130460CF0DBFF02202870204604F0D2FB70BD0000F8B50446407821787C
:4039C00002028006870FE0781143A67809050002090D0643084601F029FA00210546F2B2002812D0002C10D0022F0ED0032F0CD0002A0AD00279092A07D0002A05D0134AE4
:403A00005A23527E1B5C9A4207D82889002104F0D8FA20460DF064F8FF21002914D10C48224600682946436930469847C0B2FF280AD128464030817EF2B2491C8176FF237B
:403A40002146284600F0E3F8F8BD000040150020980D00200020704710B5044603F01EFD002801D00C2010BD2078611C02F0F8FBFF2808D002F030FB044821780068426BC1
:403A8000601C904710BD1F2010BD00007C0D002010B500F06BF904F029FC002010BD10B5044600786178E2780843A17811430843217908436179084305D003F0E1FC00287E
:403AC00003D00C2010BD122010BD204602F0C0FC002010BD10B5FDF741FB02F0DDFD044803F048FD02F002FB012000F003F810BD50150020F1B586B003A8009005A8019013
:403B000028489F22817A114081726846FDF794FD002845D169460989C90705D0224806990068C2686846904769460989890706D5002835D11D480068816A06988847002877
:403B40002ED11B4E0025757075737571F575357675767575B570F570B5713746F5730120D03738731F20F880FF2130467972A0300176457600F0BCFA00242046069901F0B9
:403B8000A1FC002803D1641C2406240EF5D0FD720749BD72B573C0310D704D704D600D7207B0F0BD40150020980D00207C0D00208815002070B505460E46084602F04AFD0F
:403BC0000446304602F060FD0121A9400A46224001400A4301D0012070BD002070BD10B50446084602F050FD0121A140014201D0012010BD002010BD10B5FEF715FE032879
:403C000004D102F059F80120FEF73EFE10BDFEB51C4616460F46054601F0DAFEA878FFF7F7FD02460190334639460094284600F00DF8002808D1A8780199FFF711FDFF2CB7
:403C400002D138460CF04CFFFEBD0000FFB585B005460E980C46FF2810D02B49C00009680A5840180179C0795278814201D9012601E09006860F6846038108E06078A17807
:403C80008006860FE0780002014368460181284601F078FC070007D021462846079A00F073FC384609B0F0BD304600F021FD04AE0346039002AA29460096204600F0ADFBF0
:403CC0003C20405D002818D0284601F05BFC012813D0684600890096C0B20190A878231DFF22079902F0E8F868460089039BC2B2A878079902F028FCD3E768460089002105
:403D0000C0B20091E9E70000940D0020F8B5002600253046FFF72AFD07001DD090201149704340186030447F12E0601CFDF7FEFACCB23846E040C007C00F07D02146304648
:403D400001F04AFF21463046FFF7A6FD6D1CEDB20548018AA942E8D8761C3606360ED7D0F8BD0000881500207416002010B502F0BDF90020FFF7BEFE0CF048FF002010BDA4
:403D8000F8B5002400F0B2F80123012800D10124104F00203E4620360425082203E0002801D0002100E031460979002907D001290BD002290BD0114681402143CCB2401C72
:403DC0000006000EEBD07C70F8BD1C43F7E72C43F5E700008815002010B5FFF7D1FF10BD10B5044604F0D4FB002802D1601C00F001F810BD1CB500240094062269460194C2
:403E0000FDF7B0FB002800D1122420461CBD10B5FDF7DBF80446FEF707FD012809D0FEF703FD022805D0FDF7E9F92046FDF7D1F8EEE72046FDF7CDF810BD10B50B468179E6
:403E40001943817103D08078114602F04BFB10BD10B582798A43827102D1807802F056FB10BD000030B50C4C0220A28A0B4B9978002901D0022906D11D785B78EB18282BC6
:403E800001D9032002E0032900D101205105490DC0020143A18230BDC0112E404C0D002000B500F029F8002807D0012805D0032801D0042801D0002000BD012000BD0146CD
:403EC00000B50020C90701D000F010F800BD014600B50020C90701D000F008F800BD00000148006870470000440D002001480088000A704720102E400448008B410501D531
:403F0000042070474007800F7047000000102E400148406870470000440D002038B50446000610D5FFF7E8FF01280CD1684601F0C9FE6846007800F02BFB012001F0B0FD1C
:403F40000220FFF749FF600708D507480179012904D1002101712620FFF71CFB0348006801692046884738BD500D00207C0D002010B501460A4A007800241070FFF7B6FF5B
:403F80000128084603D002F0CFF9204610BD00F0E7F80400F9D1034801210170F5E700004C0D00204816002070B50446FFF79EFF002801D00C2070BDA27B01211F48002A58
:403FC000827801D00A4301E05208520082706279012A14D0C17849084900C170184D2868016820468847207901280CD06188208803F006F82080207904280FD015E0C27816
:404000000A43C270EAE72868C168E01D8847E01D02F00AFA0B48808C208006E02868C168E01D8847E01D02F0FFF9074920798870204602F087F9002070BD000088150020A4
:404040007C0D0020401500204C0D002008B50178FFF74CFF814201D10C2008BD002914D0072069460870FFF71BFF012807D10121684600F0E5F8012801D0092008BDFFF7C5
:40408000F1FE02F093F9012011E0FFF709FF012806D1684601F016FE6846007800F0ACFA02F07AF9FFF722FF0028FBD10220FFF793FE002008BD000010B501460A4A00783E
:4040C00000245070FFF712FF0128084603D002F0E9F9204610BD00F065F80400F9D1034801214170F5E700004C0D00204816002038B568460CF08AFC002801D01F2038BD2E
:4041000001210098C90201804180002505714571857107214173857302F014F9009C202200212046FDF736FA25702A460021601CFDF730FA204602F0F7F8204602F0B2F90B
:4041400000980CF0CDFC062200210448FDF722FA02480C388560002038BD0000500D0020F8B5044600250D4800950078012806D068460CF04BFC002803D007250CE00C2586
:404180000AE0074E009830602278611C401CFDF7F8F93168207808702846F8BD48160020440D0020F8B5044600250D4800954078012806D068460CF029FC002803D00725D2
:4041C0000CE00C250AE0074E009870602278611C401CFDF7D6F97168207808702846F8BD48160020440D00200346084800B5834209D8184600F01AFE002804D00089984211
:4042000001D1012000BD002000BD0000FF0E0000074A9179491C8906890E917138220A4092014907090E1143084302490840704788150020FF0E0000C006C00E7047000060
:40424000F8B507460E4600240D4803E0002C01D0002500E005462979002905D0641C2406240EF3D00020F8BD0021204601F02AF92E712046FFF7CCFF28813C700120F8BDA7
:40428000A815002010B503F06BF90222002100F003F801F0D7FE10BD10B5094B40074907000F090F185A595A40185043C0086421FDF73CF8002800D1012080B210BD0000CD
:4042C000542D0100F7B53D20405C88B015460C46002802D02878042802D200200BB0F0BD6946087200262046FFF78CFA012800D00126204603A93830019100902346032710
:40430000A17E34333246206A03F04EF902A8089900900B46019120463A4603A9243003F0CBF802466846007A2870204601F0B6F81046D3E7FFB587B00C4605461078694685
:4043400008723D20005D1746002826D000262046FFF758FA012800D00126204603A93830019100902346A17E34333246206A03F01BF902A80090291D019120462B1D03A99A
:4043800024300A9A03F098F802006846007A388002D1204601F082F810460BB0F0BDF0B505463C20405C89B016460C4600280CD0307869460873002806D000272046FFF718
:4043C00021FA012803D003E01F2009B0F0BD012703200890204604A93830019100902346E17E34333A46E06903F0DEF86846007B03A928180290009120462B46019504A98B
:404400002430089A03F08CF802466846007B3070204601F04DF81046D7E7FFB505463C20405C89B016460C46002810D0084601F0A9F801280BD0308869468883002809D011
:4044400000272046FFF7DEF9012805D005E000200DB0F0BD0220FBE70127204603A93830019100902346E17E34333A46E06903F09BF8291D2B1D07A8129A6D4607C5204661
:4044800003A924300C9A03F04BF802466846808B3080204601F00CF81046D9E770B50D460446FFF7AFF901280AD0E87AA97A00020143A07801F0C2FC012808D0002070BDBB
:4044C00000222421204602F0EDFC242070BD28214C200155204600F0B1FB282070BD0000002801D0002000E003484030C07F012800D0002070470000A8150020014600201A
:4045000049070ED50021084B03E0002901D0002200E01A461279022A04D0491C0906090EF3D0704701207047A81500200146002049070ED50021084B03E0002901D0002243
:4045400000E01A461279022A04D0491C0906090EF3D0704701207047A815002010B5044680346068002803D00CF0CEFA0020606010BD40304170704740308170704740305F
:40458000017070470171704792001018C166704770B53C2501F09CF9040004D020460021433001F0FFFBFF222946204600F0E8FB002C02D0A07801F00DF970BD10B5002859
:4045C00001D0002000E00348002802D0008903F03FFD10BDA815002010B5002801D0002000E00448002804D00179072901D100F047F810BDA815002010B501F069F90028A8
:4046000002D0807801F0E6F810BD00207047000070B50546008A00281ED01049F122897A1140C90618D5294640314A8A098A521C4A4392B2D10800D10121540801E0621AA6
:4046400094B2A042FBD9FEF7BDFE012804D1298AA878224601F0B8FC70BD00004015002010B50023054C0B60248A944204D992001018C26E0A60C36610BD00007416002015
:4046800038B5044600200090A079002814D14020015D052901D00E290ED168460CF0C6F9002809D12046009902F0DAFB03481021C28A2046FFF7C1FB38BD0000401500209F
:4046C00010B50B4604460146184602F04BF8002802D020460CF00EFA10BD13B5044601AA11460620FDF7C2FF6846818861811CBD002800D10220704770470000F8B504466E
:404700002346401D543300909A1EA078911E01F0F5FA25464035A88A298A8000FCF706FE401E81B2688A884203D96982A07801F05DFF698A8C20015120460021433001F0AC
:4047400031FB27480088E88102F00AFFE989891C8AB26179FFF7A0FD01F074FC02F000FF2A8A6179FFF798FD074601F05FFC688A002806D01B49088A0322120210430882F2
:4047800002E0002001F026FF1648803801886E8A002E0CD0304648431349FCF7B1FE0004000C01D0401C80B21049488002E00F4800214180288A704381B2A07801F080FE77
:4047C000FF2228374932B9B21346204602F01CFCE98AA07801F0F4FDA07801F025FAF8BD80102E40E0112E4071020000560D00207FB504468034616805460E4618310822E0
:404800006846FCF7BEFE31462031082202A8FCF7B8FE102168460CF0A3F86068102108300CF09EF860682B46083024331022694602F062FE7FBD10B504460821FFF708FB35
:4048400010212046FFF704FB207905281FD006281DD008281AD12189002003F071FB072020712046FEF7CEFF014620464030012913D00E21017000210176204600F0BCFF45
:404880002046FFF76BFE2046FFF7C2FE10BD20890122002103F038FBE1E70521EAE70000FFB581B01F4604460821FFF7D1FA10212046FFF7CDFA2079082803D0092804D005
:4048C000042203E00422012501E009220025204600F044FE264600204036307022712046FFF73CFE0398002D02D0012808D00BE001280AD120890022029903F005FB04E008
:404900002189029803F01CFB012700203076012F04D0204600F070FF05B0F0BD02983073204602F0EBFA054605480121C28A2046FFF783FA002DEFD109202071ECE700003D
:404940004015002070B50C460546FEF75BFF012809D108212846FFF77BFA0023012221462846FFF79DFF70BD10B5044600F0F6FD2046FFF7F3FD00214034217010BD70B57C
:4049800005461A24FEF73EFF012809D108212846FFF75EFA0023012221462846FFF780FF70BD0000F8B50446002000900E4668460CF03CF8002801D00D20F8BD84200059E6
:4049C00008212030009D00F02CFA20460421383000F027FA002E02D1204600F0FBFD2946204602F0CCF90E480821C28A2046FFF724FA204600F071FF25464035002808D0C1
:404A0000204600F023F8002801D0092028700020F8BD08202870204600F0DAFFF7E7000040150020014610B540310A460978082906D0092907D00A2901D100F091F810BD8B
:404A40000B20107010BD00F001F810BD70B50446007925464035052805D0062803D008280FD00C2070BD03220621204602F01AFA0D480821C28A2046FFF7DFF91120287056
:404A800010E006202873204602F038FA0646AA8A0A20424301212046FFF7CFF9002E01D109202071002070BD4015002038B504460020009068460BF0B9FF002801D00D205C
:404AC00038BD2046009D00F0C3F908202071204600F080FD2946204602F084F900213D2001550F2040210855204600F071FF002038BD00B5024600F031FD10214032117067
:404B000000BD10B50446FEF77DFE012809D04020005D112805D100231A4606212046FFF7BFFE10BD10B5FFF786FE10BD38B504460021684600910BF079FF00280CD120465A
:404B4000009902F0D0F905480821C28A2046FFF774F90D204034207038BD00004015002038B504460021684600910BF05FFF002801D00D2038BD2046009902F0A9F90548D0
:404B80000821C28A2046FFF758F90C2040342070002038BD4015002000787047F8B5002569460D70002801D0002400E01F4C002C18D0204600F0DBFC002813D02079032874
:404BC0000BD005280CD026464036B18AA07801F081FCB078012806D01DE0042020711DE006202071F8BD0021204601F0D8FD274680373868002802D00BF086FF3D600020A4
:404C0000B0702079072802D12046FFF701FD0221204600F0F7FE20790428E3D1207A694608703420FEF7B6FCF8BD0000A815002010B54C22115400F052F810BD10B504467C
:404C4000FF21FFF705F909202071A07801F068FC10BD000038B5FF216A461180002801D0002400E00B4C002C12D011460620FDF7FDFC684601882046FFF72FFD204600F0FD
:404C800087FC002804D104480068C1692046884738BD0000A8150020980D002010B504468079002809D022214C200155FF212046FFF7CEF8204600F012F810BD10B503790C
:404CC00002464032002B03D01173092B02D003E0002100E02221117300F001F810BDFEB504460089002700902781207926464036002817D0012815D002280AD112E002AAF1
:404D000001A9204601F01CFD002807D101980BF0F1FE204601F03CFD0028F0D02046FEF7C1FCB776254680352868002802D00BF0EBFE2F606868002802D00BF0E5FE6F6085
:404D4000317B002919D0009800F064F8A078002100F086FF2046FFF795FAA07801F058F8A07800F037FDFF212046FFF771F80B20FFF732F800F068FCFEBD1F213173E2E777
:404D8000F8B517460E46054602F0E6FB04003CD020460C3000F0F6FF2046062200211830FCF7F8FB2046062200211230FCF7F2FB1648224600683946436A2846984707463E
:404DC00026702846FEF71EFD012148406070002D10D02889608028464030C1782171002E0FD169796171018AE180418A2181808A608106E00648008BC005C00F20710020D4
:404E000060803946204603F01EF8F8BD7C0D002000102E400A4610B50146002003F030F910BD10B50BF078FB10BD000000B50146FFF702FA002801D0002000E00348002809
:404E400002D002898A4200D0002000BDA815002038B5044680346068002806D168460BF0F5FD002801D100986060606838BD000010B5014600F086FB0128887802D0FEF7B6
:404E8000CBFC10BD90214843024940186030007F10BD00008815002070B5054604464035A87F012811D1A1789020084A484380186030067F3046FEF77DFE002805D102202C
:404EC000A877A078314601F04DF870BD8815002010B50C4CA07A002813D0FEF717FF0A48027F417F408B00F0B7FB012809D10020A07200F0FDFE05498989090B01D000F042
:404F00003BFA10BD5816002088150020A0102E4070477047490510B5490F0B00FCF740FD060704080C0C0F073E21FFF781FE10BD0821FFF7C3FE10BDFFF7D1FE10BDFFF7D5
:404F4000ADFE10BDF8B507460025002D01D0002600E0204E00F09AFE3046403044890021418100F09DFE304600F001FB01282BD1A00702D52846FFF711FEE00602D52846DC
:404F8000FFF768FEA00601D5FEF7C0FE600601D500F014FB200602D5284600F01DF8600702D5284600F02CFA380402D52846FFF713FB780402D52846FFF700FBE00703D008
:404FC00021463046FFF7A6FF6D1C2D062D0EBCD0F8BD0000A8150020F8B5002801D0002400E0284C002C4BD025464035A878012846D1FF278820493700593E46002805D057
:405000002149897A890601D5878AC68A2046FEF7F9FB012834D002F0A3FA2A8A6179FFF73BF9009001F002F800983346283081B23A46204601F0E8FFE98AA07801F0C0F970
:4050400012480188688A124E002810D048431149FCF756FA0004000C01D0401C80B27080A07DC107C90F002001F086FA01E000207080288A698A484381B2A07801F020FAA7
:40508000F8BD0000A81500204015002060112E40560D0020710200000149096809680847980D002070B50D460026194A0146002801D0002401E014462034002C26D0204658
:4050C00000F060FA01280AD19020484380186030007FFEF76FFD002801D101F08FFE0D48006881692046884700280CD020464030817EA94202D3491B817600E08676208952
:40510000294602F05EFF204600F062FC70BD000088150020980D002070B503460088FFF785FE040013D000F022FA00280FD02079092819D02546997840352973204601F04E
:40514000DDFE0646A878012803D0AA8A02E0022070BDEA880A20424301212046FEF76DFE002E01D109202071002070BD0EB5002217216B460292198100905A810120029B52
:4051800000990BF061FD0EBDF8B518480024807A002822D1164E0025B089000B22E0204600F010FE1249A039401807882A462146384600F051FA012810D00E4801224783C2
:4051C00005770A4944778A72002D01D0002000E02030002801D000F0FBFBF8BDB089000B641CE4B20028DAD1F8BD000058160020A0102E408815002010B50088FFF716FEA5
:40520000002809D0014640310C460978082905D00B2903D00C2010BD022010BDFFF716FC002801D009202070002010BD70B503460088FFF7FBFD040008D025464035287806
:40524000082805D00B2803D00C2070BD022070BD8420005910220830991CFCF792F92046FFF7C6FA2878082804D02046FFF778FC002801D00A202870204600F0A9FB00207C
:4052800070BD000010B50C46002121700088FFF7CDFD03000BD000F06AF9002807D00948F121807A0840C00603D4112010BD022010BD022020701A8A1889002102F0FCFE4D
:4052C000002010BD40150020F8B50F46002100910088FFF7ABFD040012D000F048F900280ED0E079410641D4617E02264A07002A08DB8907402500291ADA2843E07135E058
:405300000220F8BD02F028F90021017021894180A1898180217E4170E189C1803E7005460178134802F0A2FB284602F069FE1DE0204600F02DF9012806D068460BF076FBAB
:40534000002803D00720F8BD2A20F8BDE07900992843E071204601F0FBFD607E0421304360760448C28A2046FEF767FD0020F8BD1D040000401500203EB500220F236C4653
:405380000292238100910190628169460EC900200BF05AFC3EBD0000F8B50F46054600F097FA040025D003202071254600264035EE76E6702046FFF7A1F900F0EDFF092088
:4053C000FEF70AFDA07800F011FD0121204600F019FB2E706E70AE703A4600212046FFF7CFFC0649887B401C8873A078FFF754FEF8BD284601F094F8F8BD00008815002092
:4054000010B5002801D0002000E0094800280DD0014640310A464978022901D100215170807DC107C90F002001F0A6F810BD0000A815002070B503460D460088FFF7F6FC89
:4054400004000BD000F093F8002807D01248F121807A0840C00603D4112070BD022070BD20464030418A008A491C41430804C10C5888884201D2122070BD208220790728A8
:4054800002D12046FFF7C4F8022028702089002102F03AFE002070BD40150020016A491C016204D1817E491C4906490E81767047C169491CC16104D1C17E491C4906490E01
:4054C000C1767047F0B5074687B003A8009005A800260D460190002F01D0002400E01B4C002C05D06846FCF7A7F8002803D00BE0022007B0F0BD68460089C00704D1902206
:4055000000212046FCF746F8114829460068826820469047050016D1A77066762746267140373E70204600F019F8204601F02CF9084820820848BE77807AF121084000D0D6
:4055400001202075E682E8B2D3E70000A8150020980D0020B80B000040150020002101628176C161C17620300177417770470079002805D0012803D0022801D0012070478F
:40558000002070474030807F002800D00120704740300078002807D0012805D0052803D00E2801D0012070470020704710B5807801F06AF8002800D0012010BD10B500F08F
:4055C00097FB03498989090B01D0FFF7D5FE10BDA0102E4070B5054604464035A87F002825D1FF206075A0789021154A484380186030417F9023491CC9B24177A078584321
:40560000104B8018DB896030994201D300214177A0789021484380186030467F0677A1783046FEF7C7FA002802D00120A87770BD0220A877A078314600F094FC70BD000014
:4056400088150020741600200020401C0006000EFBD0002070470000F0B515468207920F85B0000A02926A469080002D01D0002400E0564C002C28D0084600F0A3FB0746E3
:405680006846808800280BD00298012843D0022841D003280BD03D20005D012879D08FE04B48381801882046FFF717F888E00020029002A80BF09AF9002807D03D20005D9D
:4056C000012802D12046FFF7E9FE7CE06846029E8388324600213846FCF7DAFE3C48381801882046FEF7F9FF284600F0A9FA01AA21463046FEF7E6FD002806D030460BF054
:40570000E5F93D204C21085531E0F5773146204601F0A2F957E0002000902089039068460BF054F9002802D0002005B0F0BD6846009E8388321D00213846FCF7A9FE24489E
:40574000381801882046FEF7C8FF284600F078FA2046FFF70CFF002805D025464035287E002810D107E030460BF0A6F92BE02046FFF764FA27E001AA21463046029BFEF78E
:40578000D9FD002806D030460BF096F93D202873EDE712E00298FEF7AFFF0399317003990001090A0143717068468088B070000AF0703046FFF7DAFC05E02046FFF76EFED9
:4057C000284600F03DFA0120AFE70000A815002000102E4010B5074A917B002901D0491E91730021FFF76EFE002801D0002010BD012010BD88150020F8B5074606464037AA
:40580000B87F00282DD0B078902100904843234945186035287F0099FEF7E1F901281ED0287F401CC4B21E48C089A04200D800240020B877FF276F772F77A87702460146DF
:40584000009800F0FBFC717DFF2903D0304600F05CFF777501F0D2FA0025114F19E00320B877F8BD00200090224669463046FEF7F7FE0099002904D0FF231A463046FEF727
:40588000C6F9641CF889E4B2A04200D800246D1CEDB2F889A842E5D8F8BD0000881500207416002010B502460021084B03E0002901D0002000E018460479944204D0491C00
:4058C0000906090EF3D0002010BD0000A815002000B50120FFF7E6FF00BD10B5044601F03BFE2189018080346168416061682831816002F03FFB10BDF7B50646087982B05E
:405900000C46092807D0A078F0770846FFF73AFE012806D010E030460BF0ECF8022005B0F0BDA1789020294A484380186030007FFEF740F9012810D0A078FEF7D1FD0128A1
:405940000BD037780121304601F004FA25462035062F38D00B2F0FD107E06846027C21463046FEF7ADFE0D20D9E72046FDF74AFF012801D1002028772046FFF779FA05460B
:4059800004AA21463046FEF70AFD01205F2108556946097C002001910090A07833463A46294600F089FA69460A7CA0780323294600F0CAFDA0782946FDF752FE30460BF024
:4059C00099F80020ABE70120D5E700008815002010B502464032937F0021002B03D1927E002A00D00121064A927A002A00D000210279092A00D10121807800F0DDFD10BD46
:405A00005816002070B50C460546FDF7FBFE00280BD1012C06D92879092806D02846FFF7C5FD0446002C02D004E0012402E0A87DC007FAD1A87DC107C90F204600F09CFDAD
:405A400070BD0000012807D0082804D104480282034808300180704701488038FAE70000A0102E40014908817047000000102E4010B50446FF20F130012C01D1FF20D530EF
:405A8000002200F0CBFD044A108A044980B2A0430880108210BD000000102E405A0D0020034B198A034A89B2814311801982704700102E405A0D002010B50446012802D0A7
:405AC000082C07D102E0FF20D53001E0FF20F13000F09CFD0348018A034A89B221431180018210BD00102E405A0D0020034B198A034A89B2014311801982704700102E4024
:405B00005A0D0020F8B505460120A84086B214460F46012231467C2000F080FD3A463146782000F07BFD6078267800020643E078A2780002024360792379000203430C20F9
:405B400045430D2080010549281844182680001D44182280001D40180380F8BD00102E40CB065B0E0343480901021943D00108430121C902084301490881704780142E4009
:405B80004278037812021343084A1382C37880781B021843908248780B78000203431383C8788978000201439183704700142E40024A1080000C90801181704700142E40EA
:405BC000044A002180180288491C89B21029FAD37047000000102E40024A10820148803081817047A0102E4010B5054A1082084600F038FD024A0021A03A8018018010BD45
:405C0000A0102E4010B50B46044600F005F819462046FFF7E1FF10BD024A10820148803001817047A0102E4010B504490882FF20002220211D3000F0F1FC10BDA0102E4030
:405C4000000202494D3008807047000000102E400249888A0422904388827047C0112E4010B5084B074C0202A03B0029208202D075321A8010BD04490020088088807632AD
:405C8000F7E70000A0102E40201A2E4000B5034908884880FFF704FF00BD00005A0D002000B502484088FFF721FF00BD5A0D002010B5FCF7A3FD10BD014952200880704769
:405CC00000102E4000210170704700000748808806492039098B884201D8081A03E00022D243101A401880B27047000020112E400148008AC0B27047A0102E4070B5084CCE
:405D0000049D2082074804890548603006880E8001891180808818806007400F287070BDA0102E40E0112E400148008970470000C0102E4000280FD00D4A108B0870000A56
:405D40004870908B8870000AC8700948203000880871000A48717047064A10880870000A487090888870000AC8701089F0E7000040102E40C0112E400148008A704700008F
:405D8000001A2E40064B1A8999891B8A0270120A42708170090AC1700371190A4171704760102E40012904D00549098BC90B017070470349403109898907C90FF7E70000DC
:405DC00000102E40014840897047000074160020044A10820448028980894843101880B270470000A0102E40741600209021074B414300B5C918FF2260314A770A7700225B
:405E00008A77114600F01AFA00BD00008815002090225043074A10B58018FF21603041770177002181770448418EFF201D3000F0EDFB10BD881500204015002000B5044A3F
:405E40001082034880308088022200F003F800BDA0102E4010B50023884201D8081A03E00024E443201A4018044980B2884201D8824200D90123184610BD0000FF7F0000AA
:405E800070B55478157824022543D47888232602947834435679127936023243002900D09823044908820348A038181805808480028170BDA0102E40FFB581B014460D4666
:405EC00007460A9E0B9BFFF783FF002E0AD0009333460021049AFCF76BFB05484019C45505B0F0BD0021049AFCF748FBF5E700005E0D002070B502460448054D80880824A7
:405F00002C800B460021FCF739FB70BD74160020A0142E4010B5212402466401044953200880102300212046FCF728FB10BD000000102E40417802780902044B0A431A8392
:405F4000C1788078090208439883704760142E40034A1082802001430148803001817047A0102E40054A1082044A6032908B0009000108439115084390837047A0102E40C9
:405F800030B500210F4B0A46012809D0032802D005280AD107E04021198102210A2204E004210C2201E004210D221882054C20342088C0B205460D42FAD022800021198272
:405FC00030BD000080142E4010B5044607480482074801808280032189030820FFF76CFD200202497530A039088010BDA0102E40201A2E40054A1082044A60321183000268
:4060000002494B30A039088070470000A0102E40054A491E1082044A60321183000202494C30A03908807047A0102E400349884200D908460249088070470000FF0F0000D4
:4060400060112E400349884200D908460249888070470000FF0F000060112E408823002900D09823084908820748A038191808881070000A507088889070000AD0700889B6
:406080001071000A50717047A0102E4010B51446024606480B46C0880021FCF755FA012C02D103495420088010BD00007416002000102E40064A11880170090A417091889A
:4060C0008170090AC1700349542008807047000080142E4000102E400121814010B589B200227C2000F09AFA10BD0000FEB5FF210120FFF7BDFCFF210820FFF7B9FC302014
:40610000FFF7CEFC3F48802101803F483F4D00784007400F02286FD001286BD100202880002211460320FCF7A1FA394E3949B08D8882384F002420373248A0300482308F34
:4061400038822046FFF764FE641C2406240EF3D0B08F38832E48103000F052F9716930690191009069464879C021084369464871684600F06DF900F055F82548214C4030F9
:406180004188A03421838188A1831E49C088C0318880708E38802048002606823920FFF7A5FC184F532038801C490720088354203880E020FFF704FDE820FFF701FDF02035
:4061C000FFF7FEFC0020FEF75DF813488682282101838015A0810F48403086815B203880094800784007400F022807D0012801D10B482880FEBDFFE7032090E70848C01CA1
:40620000F7E7000000102E4074160020001F2E4040150020C0112E40001A2E4080142E40E0230000044800218183018302497420603908807047000060102E40074B188214
:40624000064B6033988B00090001084399158843002A01D11021484098837047A0102E40F3B50D2284B0920100924A780B78120213430393CA788B78120213434A7909793B
:40628000FF20120211431A4A8C46918B9E460291118B01911649742260390A80154900220F7821E00121124B9140009C603BE3181D8889B21C881B88039E6E4075466540E8
:4062C00064462E435C4026430CD1029B194209D00199D140CB070499DB0F8B4202D1104606B0F0BD521CD2B29742DBD8F8E7000060102E408015002030B50949FF208C8B16
:40630000084A00210125137805E02A468A40224204D0491CC9B28B42F7D830BD084630BD60102E408015002010B50446E020FFF747FC20782246401CC3B20021E020FCF77E
:40634000C3F810BD42790021012A02D901214171090342790A430179042914D049001143827B032A01D8D2001143427B52010A43817909021143012252031143054A118315
:4063800000889083704711460122920211430222E5E7000000102E4000B50120FFF780FB01494120088000BD00102E4000B50120FFF79CFB01494020088000BD00102E4036
:4063C000024A10820148603081817047A0102E4010B5044C208204488180028183815143018210BDA0102E40A0132E40034B1882024820388180028070470000A0102E407F
:406400004178027809020A4306490A80C2788378120213438B804279007912021043088170470000C0112E404178027809020A4306490A81C2788378120213438B81427969
:4064400000791202104308827047000060102E40417802780902084B0A431A83C178827809020A439A8341790079090208430249203108807047000040102E4041780278A5
:4064800009020A4306498A80C2788378120213430B814279007912021043888170470000001F2E4010B50446E820FFF789FB20782246401CC3B20021E820FCF705F810BDD0
:4064C000024A10820248818370470000A0102E40001A2E40024A10820148603081807047A0102E4010B5044688000521FAF71EFF04490C8204498880200202497230A039A3
:40650000088010BDA0102E40001A2E4003490882000202497330A03908807047A0102E4003490882000202497030A03908807047A0102E4003490882000202497130A039CE
:4065400008807047A0102E40F8B505461C4617460E46084600F086F8054AB90021431582034AA03A80180180024880194455F8BDA0102E40630D002030B50E4C238A0125C3
:406580001A46012804D0022804D000290BD00CE02A430AE0002908D12A4322825008400020821A4601E05A0852009A4200D0228230BD0000001A2E40054A1082044A603271
:4065C000908B4023984389010143918370470000A0102E40044A118A0223002801D0194300E0994311827047001A2E4000B5064A1082054860300181002901D0012000E0A9
:406600000020FFF7E7FF00BDA0102E40024A801802880A430280704700102E4070B5084BC5182C880023080003D104E040085B1C9BB2C607FAD08C439A4022432A8070BD9D
:4066400000102E40024A1018405C8007800F7047630D0020024908820148803080897047A0102E408000FF3041307047044B02461B8AFF208B4202D902484018805C704774
:40668000741600205E0D0020024908820148803000897047A0102E40174902460B680020002B08D10A605207520F012A04D0022A10D0086012207047112292018A80CA80A0
:4066C000032252020A810122D2024A8140228A8105220DE0092252028A80CA80012252030A810322D2024A81012252028A810422CA810A8270470000741600200A4600B5D4
:4067000001461046FFF7B2FF00BD38B50C4605460021684600910AF089F9002804D1009928464C7000F006FC38BD10B5044680780021FFF745FE01212046FFF763F910BD43
:40674000436E002B0CD00B60014660318B781370826E4266CA788A700021816608467047FF20704710B50346446E6033002C04D0846E002C04D0FF2010BD41669A7001E01E
:406780008166DA70002010BD0021416681667047406E002801D000207047FF20704770B50446C0790D46810610D5DF210840E07100F0D2FE0570218941804034218A818041
:4067C000618AC180A18A018101F010FB70BD000010B50446FEF7D6FE01280AD1A1789020054A484380186030007FFDF7E3F9012801D000F003FB10BD88150020F8B50E462E
:406800000446FCF7FFFF01282BD02079042801D0072825D1F079B77900020743A0783946FFF70CFB25464035012820D03A46711C204600F090FA02212046FDF79AFEA07DAD
:40684000C107C90F0220FFF797FE688A002807D0E87E002804D1032109020820FFF72CF9F8BD01222421204600F01CFBF8BD282028732046FEF7E2F9F8BD70B50D46064634
:40688000FDF70CFE002852D120213046FDF7E0FA3446687840346073E87820220002E081A9780843E0816879010228790843218A814203D0F1791143F1712082E879010260
:4068C000A8790843618A814203D0F1791143F1716082687A0102287A0843A18AE180814203D0F1791143F171A082A08A218A8000FAF71CFD401E618A80B2814200D960821B
:4069000001213046FDF738FEE87AA97A000201430022304600F036FB608A002807D0E07E002804D1032109020820FFF7C5F870BDF8B50C4605460027FCF764FF012847D08F
:40694000284EB07AC00709D02846403000900078002806D0102803D01F212CE01A212AE001272846FEF774FA002823D02E4680360822611C7068FAF704FE7068617A2030A4
:406980000172A17A417270682146183008220B31FAF7F7FD21462846042213313430FAF7F0FD39462846FDF7FDFF002810D1002F0FD012E007210322284600F073FAF28AC9
:4069C00008212846FDF739FA11212846FDF7D7FDF8BD06212846FDF7D5FD009801210176F8BD00004015002010B5FEF71BF810BD38B504460020009020790D46032803D09B
:406A0000042801D007281BD12046FCF7FBFE012817D068460AF00AF8002811D10C486A78807A00991040F12210402075607E082210436076204600F0BDF92046FDF7E5FD9E
:406A400038BD08222421204600F02CFA38BD00004015002070470000F3B581B004460298FEF79AF806462046FEF781FD00282FD0162E04D32046029900F0FFF828E025460F
:406A80004035287800270300FAF78AFF0E1B1B1B08081B1B1B0808080808081B0298194A01780020135C8B4201D1012702E0401C0728F7D3E87E002801D1072901D0002F7F
:406AC0000AD01049B00008310A58204602999047029809F0FBFFFEBDA078FFF721FD002301223D212046FDF7DBFE3D2028732046FFF71BFE029809F0E9FF2046FEF7EFF8CB
:406B0000FEBD0000642D010070B50D460021002801D0002400E00C4C002C14D020464030C177807F032802D12046FEF765FE2046FFF74EFE162D04D20449A80009582046C4
:406B40008847FEF781FD70BDA8150020C42D010010B5014640310C4609780E2903D1FDF7A5FF0120207610BD10B54021095C0F2901D1FDF7BEFF10BD4021095C0F2902D17C
:406B8000002120304177704738B5044600220E4800920D46807AF1210840C0060ED52046FEF7F6FC012809D0684609F03FFF002803D12046009900F05FF938BD2946204623
:406BC00000F05BF838BD00004015002010B51021FDF73EF910BD10B54978FDF7B3FE10BD10B5FDF78EFF10BD012120304177704710B54021095C0C2901D1FDF797FF10BD25
:406C000010B54021095C0D2901D1FDF78BFF10BD70B5044600790D46052803D0062801D0082802D12046FDF79FFE68784C21085509212046FDF7A6FC2046FFF776FD20463D
:406C4000FCF7E0FD0128A07805D0FFF769FC2046FEF7BEFE70BDFFF76DFCF8E710B50446FF21FDF7F5F816214C200155A078FFF757FC2046FEF7ACFE10BD70B50C46054653
:406C8000FEF780FC002802D02078687570BD21782846FFF73AFD70BD70B5054648780C46032802D12846FDF76AFE6078122803D110212846FDF7CCF803482146006842681B
:406CC0002846904770BD0000980D0020704738B5044600200D46009004212046FDF7B8F868782076E8780002A081A9780843A08168790002E08129790843E081607E042122
:406D00000843607680070CD4684609F08FFE00281ED12046009900F01BF9607E022108436076E079410613D5BF210840E07100F013FC00210090017021894180A1898180A3
:406D4000217E4170E189C18001F05AF9FEF77CFC38BD7047704770B50446C07815460A4600280AD00020E070C1B2A078FFF788F8A0782946FFF73EF970BD0120F3E770B53E
:406D80000546042008700C468420415908222031601CFAF7F6FB29462046042238310930FAF7EFFB0D2229462046FEF7A5FD002070BD000070B5054609200C460870082296
:406DC0000021601CFAF7E6FB287D607004480922C07AA07029462046FEF78EFD002070BD401500200B4610B501460B20187001221846FEF781FD002010BD0000FEB500240F
:406E0000164F03E0002C01D0002500E03D462846FFF7BEFC00281BD15F20405D002817D16A4601A92846FFF78BFC002810D1019869460A7806782946FEF75EFD022E07D1CA
:406E4000A8780121FFF7B8FB09212846FDF79AFB641C2406240ED5D0FEBD0000A815002010B50B46122119708178D977014601221846FEF741FD10BD10B50B461321197037
:406E80008178D97706490989C90603D1C18A40221143C182014601221846FEF72DFD10BD20112E4038B50546002000900C46684609F0BCFD002801D0072038BD00980D21F9
:406EC0000170447002222946FEF716FD002038BD0B4610B501460520187001221846FEF70BFD002010BD0B4610B501460620187001221846FEF700FD002010BD38B50546A5
:406F000000200090684609F091FD002801D01F2038BD009C022020704C20405D6070A878E0772846FFF701FC022229462046FEF7E3FC38BD10B50B46072119708178D9776E
:406F4000014602221846FEF7D7FC002010BD000010B50B460A49044608880C221A704A795A709870000AD870C8881871000A5871062221461846FEF7BFFC002010BD00007B
:406F800040150020F8B50446403417460E460546E289617B8078FFF729FA002F0DD100F0DFFAE2896979FDF777F9FFF74BF8608A002800D00120FFF70DFBE388A08A98426D
:406FC00000D90346628A218AA878FFF701FAE089E188C0080A30081881B21920C001814200D90146A878FFF775FAA8783146FFF70FF8A87DC107C90F0220FFF7BDFAF8BD61
:4070000000B500F017F800BD10B504468818C018FF302D300649FAF789F94034401C228A81B28A4200D211465000401AE08210BD7102000040184008704770B505461446F9
:40704000100702D5A8B2FDF77DFFE00702D0280CFCF764FF70BD70B5044660C8FCF744FBFBF7F4F82089C01F0300FAF799FC0C07140C181B1E0C0C210C110D0C2946304658
:407080006289FFF7DAFF70BD284600F055FC70BDFDF71EFF70BD2846FCF78EFC70BDFCF735FE70BDFDF734FF70BDFDF732FF70BDE8B2FEF769F870BDF3B589B00021069108
:4070C00003910491009101910291CF490D8928400590680713D5CC484030048A0598400708D50694A00803D1FBF716F9012801D101200490214600220420FEF7A3FCC34EC3
:40710000290730462030C036089000297EDABE48A0300189BE48CA0704D0428907231B029A43428142890C460A43428100220820FEF788FC0598000768D508980790002065
:4071400002900394E00705D06005400F022801D1FBF7AAFBAD482206203001468031403001910090002A02DA418A0198C160600637D50198C068002833D00098C17E002903
:407180002FD14178022902D0807801280ED1A004400F062814D0012812D00798807DC107C90F0020FFF7E8F901200290994F387800280DD00120FFF70DFA012078700AE075
:4071C0000798807DC107C90F0220FFF7D5F9EDE70298012805D19049088A0322120290430882E0062BD500984178022902D08178012913D10199C96800290FD0C07E00288B
:407200000CD1FEF763FD022808D800E020E00798807DC107C90F0220FFF7AEF90220FBF743FB3079C00704D07C480122C1681143C1607B480078002801D001200490102003
