:400000000080002011000000110200001102000080B500AF024A034B1B68136000F0FCF8BC760040FA46004010B5054C237833B9044B13B10448AFF300800123237010BDFD
:400040002081FF1F00000000741F0000084B10B51BB108480849AFF300800848036803B910BD074B002BFBD0BDE81040184700BF00000000741F00002481FF1F0881FF1FEB
:400080000000000080B500AF62B6134800F0BEFE124801F0D5FE01F01DFC012001F0A2FC01F0A8F900F050FF01F070FA01F014F801F038FB01F0D6F801F0F2FD00F04CFE3F
:4000C00000F04EFC002000F0F1FCFA2000F06EFB00F0A0FB80BD00BFD5010000F901000080B582B000AFFFF7CDFF8020012100F0F7FC0020082101F0FDFB2D4801F030FCBE
:400100000120002101F0F6FB2A4801F029FC0220002101F0EFFB284801F022FC0320002101F0E8FB254801F01BFC01F011F90346002B07D10120052101F0DCFB204801F03A
:400140000FFC06E00120052101F0D4FB1D4801F007FC1D4B1B68012B0FD11B4B00221A6000F02EFF03461A46184B1A700320072101F0C0FB164801F0F3FB01F05DFB01F014
:400180005BFB0346184600F0CFFB012000F026FC0346FB71FB79002B09D00220092101F0A9FB00F0D1FB0346184601F05DFDBCE7781F0000801F0000881F0000941F000066
:4001C0009C1F0000A01F00005082FF1F4881FF1FA41F000080B582B000AF01E000F0B4FB022000F055FB0346FB71FB79012BF5D00837BD4680BD00BF80B400AF034B012247
:400200001A60BD465DF8047B704700BF5082FF1F80B400AFFEE700BF80B586B000AF224B7B61224B3B61204B7B6135E03B691B68FB603B695B68BB603B699B683B6000234F
:400240007B600CE0FB681A68BB681A60BB680433BB60FB680433FB607B6804337B607A683B689A42EED13B69DB683B6000237B6008E0BB6800221A60BB680433BB607B6837
:4002800004337B607A683B689A42F2D13B6910333B617B69013B7B617B69002BC6D101F02FFEFFF71DFFFEE7010000005820000080B582B000AF174B174A1A60174A174B3F
:4002C0001B6843F40073136000237B600FE07B68032B04D8124A7B6852F8233000E0114B11497A6841F822307B6801337B607B682F2BECD90D4B1B78DAB20D4B1A700D4B00
:40030000094A1A6000F088F90B4B00221A600837BD4680BD0CED00E00004FA0514ED00E000000000110200000080FF1FBC7600400481FF1F08ED00E00081FF1F80B582B0B0
:4003400000AF78603960786800213A6801F009FE0837BD4680BD00BF80B584B000AFF860B9607A60F868B9687A6801F0EFFD1037BD4680BD80B483B000AF0346FB71FEE7AA
:4003800080B487B000AF7860396000233B6100237B6127E07B699B007A6813441B68BB60BB68FB73BB6823F0FF03BB6014E03B695B003A6813441B781A46BB6813441946FB
:4003C0003B695B003A6813445B780B703B6901333B61FB7B013BFB73FB7B002BE7D17B6901337B617B691E2BD4D91C37BD465DF8047B704780B582B000AF494B1B78BB70B3
:40040000484B00221A80484B1D221A70474B00221A80474B1D221A70464B00221A80464B1D221A70454B02221A704FF0402308221A70434BF3221A70394B03221A70414B41
:4004400084221A70404B05221A70404B7B6006E04FF4F07001F044FD7B68013B7B607B68002B06D0384B1B78DBB203F02003002BEED02B4ABB781370354B03221A70354B95
:40048000354A1278D2B21A70344B10221A80344B41F251221A800023FB7019237B6014E0FB785B00DAB22F4B1B78DBB203F00103DBB21343DBB203F00303FB704FF4F07020
:4004C00001F00EFD7B68013B7B607B68002B02D0FB78032BE4D17B68002B02D10320FFF749FF214B4FF480721A801F4B07221A701E4B00221A701E4B48221A701A4B00223D
:400500001A701C4B02221A701B4A1B4B1B78DBB243F00703DBB213700837BD4680BD00BF9846004080400040824000408440004086400040884000408A40004000430040E7
:400540000A4300400943004008430040A086010000420040A14600400801004922420040204200402542004004400040064000400840004001400040A243004080B483B029
:4005800000AF184B1B78FB71174AFB7903F00703DBB21370154AFB791B09DBB21370144BE0221A70134B0D221A70134B40221A70124B08221A70124B20221A70114B042239
:4005C0001A70114B80221A70104B01221A70104B81221A700F4B44221A700C37BD465DF8047B7047CF0100496E5800406F5800404D5100406D510040005A0040085A004000
:40060000205A0040285A0040305A0040385A0040585B00407658004080B582B000AF72B6434A434B1B78DBB243F00403DBB213700023FB7113E0FA7913465B0013445B0083
:400640003C4A13443B603B681A683B689B889BB210461946FFF772FEFB790133FB71FB79072BE8D94FF090403349FFF789FE334A324B1B78DBB243F00203DBB21370304A50
:400680002F4B1B78DBB243F00203DBB213702D4A2C4B1B78DBB243F04003DBB213702A4A294B1B78DBB243F01003DBB21370274827490A22FFF750FE264827490822FFF719
:4006C0004BFE264826490822FFF746FE254826490A22FFF741FE254825490822FFF73CFE244825490A22FFF737FE244824490822FFF732FE234A234B1B78DBB243F008036B
:40070000DBB21370204B01221A70FFF773FE1E4BC1221A701D4B01221A70FFF72FFF1C4808490E22FFF718FE0837BD4680BD00BFE8460040AC1F00007C000048035001405B
:4007400013500140A0430040C243004000510040380600481251004044060048225100404C0600483051004054060048425100406006004850510040680600486251004066
:4007800074060048224300400048004004000840B043004080B483B000AF0346FB7101BE0C37BD465DF8047B704700BF80B582B000AF786008E00C4B1B68184601F090FB27
:4007C0007B68A3F500437B607B68B3F5004FF2D8064B1B687A6802FB03F3184601F080FB0837BD4680BD00BF1881FF1F1081FF1F80B582B000AF0346FB80FB88044A127870
:4008000002FB03F3184601F06BFB0837BD4680BD1481FF1F80B500AF054B1B78002B04D100F018F8024B01221A7000F003F880BD3C81FF1F80B500AF054A054B1B78DBB277
:4008400043F00103DBB2137000F00AF880BD00BF7564004080B500AF022000F045F880BD80B582B000AF01F043FB0346FB71074A064B1B78DBB243F01003DBB21370FB7934
:40088000184601F039FB0837BD4680BD9564004080B485B000AF0346FB71FE23FB73FB79022B18D10F4B1B78DBB203F060035B09012B04D0012B05D3022B06D008E00023D1
:4008C000FB7308E00223FB7305E00123FB7302E00023FB7300BFFB7B18461437BD465DF8047B70476564004080B483B000AF0346FB710C4A0B4B1B78DBB223F00703DBB26F
:4009000013700849074B1B78DAB2FB7903F00703DBB21343DBB20B700C37BD465DF8047B704700BF8564004080B483B000AF0346FB71044AFB7913700C37BD465DF8047B33
:40094000704700BF0664004080B400AF034B1B78DBB21846BD465DF8047B70475664004080B500AF054B1B78002B04D100F018F8024B01221A7000F003F880BD3D81FF1F5B
:4009800080B500AF054A054B1B78DBB243F00103DBB2137000F00AF880BD00BF7765004080B500AF012000F061F880BD80B582B000AF01F09DFA0346FB71074A064B1B7830
:4009C000DBB243F01003DBB21370FB79184601F093FA0837BD4680BD9765004080B485B000AF0346FB71FE23FB73FB79012B18D11D4B1B78DBB203F01803DB08012B07D0A8
:400A0000012B02D3022B06D008E00023FB7308E00223FB7305E00123FB7302E00223FB7300BFFB79022B18D10F4B1B78DBB203F060035B09012B04D0012B05D3022B06D04E
:400A400008E00023FB7308E00223FB7305E00123FB7302E00023FB7300BFFB7B18461437BD465DF8047B70476765004080B483B000AF0346FB710C4A0B4B1B78DBB223F076
:400A80000703DBB213700849074B1B78DAB2FB7903F00703DBB21343DBB20B700C37BD465DF8047B704700BF8765004080B584B000AF0346FB711123FB600120FFF78EFF42
:400AC0000346002B04D0054AFB7913700023FB60FB6818461037BD4680BD00BF4765004080B584B000AF03460A46FB8013467B7100F0B2F80346FB7300F0A2F80346BB8126
:400B0000FA88BB899A4200F08780454B1B78DBB203F00203FB72FB7B002B20D1BB89002B02D0FB88002B1AD1BB89002B0BD13D4AFB8813803C4A3C4B1B78DBB223F0400330
:400B4000DBB2137068E0384A374B1B78DBB243F04003DBB21370334AFB8813805CE0FB7A002B33D0314B00221A70314B02221A70304B00221A70304A2F4B1B78DBB203F081
:400B80007F03DBB21370284B1B78DBB203F00803002B02D0FB88002B18D1284ABB891380224B07221A7000BF204B1B78DBB203F00103002BF8D11A4A194B1B78DBB223F0E5
:400BC0000203DBB21370194B00221A70144B1B78DBB203F00203002B13D0184AFB881380124A7B79002B01D0032300E00123137000BF0E4B1B78DBB203F00103002BF8D1B7
:400C00000AE0084AFB8813800549054B1B78DAB2FB7A1343DBB20B701037BD4680BD00BFA243004084400040864000400140004010400040144000400840004002400040AE
:400C400080B400AF034B1B889BB21846BD465DF8047B70478440004080B400AF054B1B78DBB203F00703DBB21846BD465DF8047B704700BF8640004080B500AF204A204B1C
:400C80001B78DBB203F00103DBB213701D4A1D4B1B78DBB223F00303DBB213701A4A1A4B1B78DBB243F00103DBB21370174A174B1B78DBB223F03003DBB21370134A134BD1
:400CC0001B78DBB243F03003DBB213700F4A0F4B1B78DBB223F00F03DBB213700B4A0B4B1B78DBB243F00F03DBB21370082000F07DF8082000F050F8002000F03DF880BDC7
:400D0000004F0040024F0040014F00400B4F004080B400AF0D4A0D4B1B78DBB243F00103DBB213700A4A0A4B1B78DBB243F00103DBB21370074A074B1B78DBB243F0010366
:400D4000DBB21370BD465DF8047B7047A3430040B3430040004F004080B500AF054B1B78002B04D1FFF788FF024B01221A70FFF7CFFF80BD3E81FF1F80B483B000AF03466F
:400D8000FB71044AFB7913700C37BD465DF8047B704700BF034F004080B582B000AF0346FB71104B1B78DBB203F00103002B02D00020FFF7EFFC0B4A0A4B1B78DBB243F028
:400DC0000103DBB21370084BFA7992B21A80054A044B1B78DBB223F00103DBB213700837BD4680BDA3430040064F004080B483B000AF0346FB71044BFA7992B21A800C376E
:400E0000BD465DF8047B7047044F004080B582B000AF786000F03CF8786800F009F8072000F018F800F028F80837BD4680BD00BF80B485B000AF7860054B1B68FB60FB68B8
:400E400048337A681A601437BD465DF8047B704708ED00E080B483B000AF0346FB71054AFB795B01DBB213700C37BD465DF8047B704700BF02E400E080B400AF034B042246
:400E80001A60BD465DF8047B704700BF00E100E080B400AF034B04221A60BD465DF8047B704700BF80E100E080B582B000AF1C4B1B78DBB223F00703FB71194AFB791370CB
:400EC000174B1B78DBB223F00303FB71144AFB7943F00803DBB2137000F09EF8FF2000F07BF8002000F05CF8002000F03DF800F04BF8FF2000F080F800F0FAFF0346BB7102
:400F0000084A084B1B78DBB243F01003DBB21370BB79184600F0F0FF0837BD4680BD00BF746400409064004080B400AF054A054B1B78DBB263F07F03DBB21370BD465DF8BC
:400F4000047B70477464004080B500AF054B1B78002B04D1FFF7A8FF024B01221A70FFF7E3FF80BD3F81FF1F80B483B000AF0346FB71044AFB7913700C37BD465DF8047BA8
:400F8000704700BF8064004080B400AF034B1B78DBB21846BD465DF8047B70476064004080B483B000AF0346FB71044AFB7913700C37BD465DF8047B704700BF0064004012
:400FC00080B400AF034B1B78DBB21846BD465DF8047B70474064004080B483B000AF0346FB71044AFB7913700C37BD465DF8047B704700BF2064004080B483B000AF03460D
:40100000FB71044AFB7913700C37BD465DF8047B704700BF3064004080B500AF01E0FFF7CFFFFFF7B1FF034603F04003002BF6D180BD00BF80B582B000AF1D4B1B78DBB261
:4010400023F00703FB711A4AFB7943F00403DBB21370174B1B78DBB223F00303FB71144AFB7943F00803DBB2137000F09DF8FF2000F07AF8002000F05BF8002000F03CF8F1
:4010800000F04AF8FF2000F07FF800F031FF0346BB71084A074B1B78DBB243F01003DBB21370BB79184600F027FF0837BD4680BD776400409764004080B400AF054A054BCA
:4010C0001B78DBB263F07F03DBB21370BD465DF8047B70477764004080B500AF054B1B78002B04D1FFF7A6FF024B01221A70FFF7E3FF80BD4081FF1F80B483B000AF034693
:40110000FB71044AFB7913700C37BD465DF8047B704700BF8764004080B400AF034B1B78DBB21846BD465DF8047B70476764004080B483B000AF0346FB71044AFB791370EB
:401140000C37BD465DF8047B704700BF0764004080B400AF034B1B78DBB21846BD465DF8047B70474764004080B483B000AF0346FB71044AFB7913700C37BD465DF8047BE2
:40118000704700BF2764004080B483B000AF0346FB71044AFB7913700C37BD465DF8047B704700BF3764004080B500AF01E0FFF7CFFFFFF7B1FF034603F04003002BF6D1D3
:4011C00080BD00BF80B582B000AF1C4B1B78DBB223F00703FB71194AFB791370174B1B78DBB223F00303FB71144AFB7943F00803DBB2137000F09EF8FF2000F07BF8002024
:4012000000F05CF8002000F03DF800F04BF8FF2000F080F800F06CFE0346BB71084A084B1B78DBB243F01003DBB21370BB79184600F062FE0837BD4680BD00BF706400404D
:401240009464004080B400AF054A054B1B78DBB263F07F03DBB21370BD465DF8047B70477064004080B500AF054B1B78002B04D1FFF7A8FF024B01221A70FFF7E3FF80BD9A
:401280004181FF1F80B483B000AF0346FB71044AFB7913700C37BD465DF8047B704700BF8464004080B400AF034B1B78DBB21846BD465DF8047B70476464004080B483B0DA
:4012C00000AF0346FB71044AFB7913700C37BD465DF8047B704700BF0464004080B400AF034B1B78DBB21846BD465DF8047B70474464004080B483B000AF0346FB71044ACF
:40130000FB7913700C37BD465DF8047B704700BF2464004080B483B000AF0346FB71044AFB7913700C37BD465DF8047B704700BF3464004080B500AF01E0FFF7CFFFFFF767
:40134000B1FF034603F04003002BF6D180BD00BF80B400AF054B1B78DBB203F040039B09DBB21846BD465DF8047B70475151004080B500AF0A4B0C221A700A4A094B1B789C
:40138000DBB243F02003DBB21370074B80221A70082000F05BF8032000F03CF880BD00BF08580040095800400A58004080B400AF0D4A0D4B1B78DBB243F00403DBB213702F
:4013C0000A4A0A4B1B78DBB243F00403DBB21370074A074B1B78DBB263F07F03DBB21370BD465DF8047B7047A9430040B94300407758004080B500AF054B1B78002B04D166
:40140000FFF7B6FF024B01221A70FFF7CFFF80BD4281FF1F80B485B000AF0346FB710A4B1B78DBB223F00303FB73FB7903F00303DAB2FB7B1343FB73034AFB7B1370143798
:40144000BD465DF8047B70470958004080B588B000AF0346FB71284A07F114031068516803C3127A1A70254A07F108031068516803C3127A1A70FB79082B39D8204A204BD2
:401480001B78DBB223F07F03DBB213701C481C4B1B78DAB2FB7907F120010B4413F80C1CFB7907F1200E734413F8183C9B00DBB203F00C03DBB20B43DBB21343DBB20370D6
:4014C000104A104B1B78DBB223F00C03DBB213700C490C4B1B78DAB2FB7907F12000034413F8183C1343DBB243F00C03DBB20B702037BD4680BD00BFDC1F0000E81F000063
:401500000A5800400958004080B500AF0A4B0C221A700A4A094B1B78DBB243F02003DBB21370074B80221A70082000F05BF8032000F03CF880BD00BF0058004001580040EC
:401540000258004080B400AF0D4A0D4B1B78DBB243F00103DBB213700A4A0A4B1B78DBB243F00103DBB21370074A074B1B78DBB263F07F03DBB21370BD465DF8047B704792
:40158000A9430040B94300407758004080B500AF054B1B78002B04D1FFF7B6FF024B01221A70FFF7CFFF80BD4381FF1F80B485B000AF0346FB710A4B1B78DBB223F003030A
:4015C000FB73FB7903F00303DAB2FB7B1343FB73034AFB7B13701437BD465DF8047B70470158004080B588B000AF0346FB71284A07F114031068516803C3127A1A70254AC4
:4016000007F108031068516803C3127A1A70FB79082B39D8204A204B1B78DBB223F07F03DBB213701C481C4B1B78DAB2FB7907F120010B4413F80C1CFB7907F1200E7344FE
:4016400013F8183C9B00DBB203F00C03DBB20B43DBB21343DBB20370104A104B1B78DBB223F00C03DBB213700C490C4B1B78DAB2FB7907F12000034413F8183C1343DBB23C
:4016800043F00C03DBB20B702037BD4680BD00BFF41F000000200000025800400158004080B500AF0A4B0C221A700A4A094B1B78DBB243F02003DBB21370074B80221A7087
:4016C000082000F05BF8032000F03CF880BD00BF0C5800400D5800400E58004080B400AF0D4A0D4B1B78DBB243F00803DBB213700A4A0A4B1B78DBB243F00803DBB2137036
:40170000074A074B1B78DBB263F07F03DBB21370BD465DF8047B7047A9430040B94300407758004080B500AF054B1B78002B04D1FFF7B6FF024B01221A70FFF7CFFF80BD8F
:401740004481FF1F80B485B000AF0346FB710A4B1B78DBB223F00303FB73FB7903F00303DAB2FB7B1343FB73034AFB7B13701437BD465DF8047B70470D58004080B588B059
:4017800000AF0346FB71284A07F114031068516803C3127A1A70254A07F108031068516803C3127A1A70FB79082B39D8204A204B1B78DBB223F07F03DBB213701C481C4B9B
:4017C0001B78DAB2FB7907F120010B4413F80C1CFB7907F1200E734413F8183C9B00DBB203F00C03DBB20B43DBB21343DBB20370104A104B1B78DBB223F00C03DBB213701C
:401800000C490C4B1B78DAB2FB7907F12000034413F8183C1343DBB243F00C03DBB20B702037BD4680BD00BF0C200000182000000E5800400D58004080B400AF034B1B78B5
:40184000DBB21846BD465DF8047B70476665004080B500AF2820FEF7A9FF032000F0D4F90520FEF7A3FF032000F0CEF90F20FEF79DFF032000F0C8F90120FEF797FF022043
:4018800000F0C2F90520FEF791FF062000F0AAF80E2000F0A7F82C2000F0A4F8082000F0A1F8012000F09EF80C2000F09BF8032000F098F80520FEF779FF80BD80B500AF29
:4018C0000C2000F08FF8024B01221A7080BD00BF4581FF1F80B500AF054B1B78002B04D1FFF7B6FF024B01221A70FFF7E7FF80BD4681FF1F80B582B000AF03460A46FB71E6
:401900001346BB71FB79032B26D801A252F823F0211900002F1900003D1900004B190000BB79803BDBB2184600F05CF815E0BB79403BDBB2184600F055F80EE0BB796C3B93
:40194000DBB2184600F04EF807E0BB792C3BDBB2184600F047F800E000BF0837BD4680BD80B584B000AF78600123FB737B681B78BB730BE0BB7B184600F01AF8FB7B7A688D
:4019800013441B78BB73FB7B0133FB73BB7B002BF0D11037BD4680BD80B582B000AF0346FB71FB79184600F003F80837BD4680BD80B584B000AF0346FB7100F02DF8FB79F1
:4019C0001B09FB73FB7B184600F0E2F8FB7903F00F03FB73FB7B184600F0DAF81037BD4680BD00BF80B584B000AF0346FB7100F013F8FB791B09FB73FB7B184600F004F965
:401A0000FB7903F00F03FB73FB7B184600F0FCF81037BD4680BD00BF80B582B000AF4FF4CA737B60554A554B1B78DBB223F07F03DBB21370524B1B78DBB223F00F03FB70FF
:401A40004F4AFB7843F00F03DBB213704D4B1B78DBB223F00F03FB704A4AFB7813704A4B1B78DBB223F00F03FB70474AFB781370424A424B1B78DBB223F02003DBB21370E8
:401A80003E4A3E4B1B78DBB243F04003DBB213700020FEF7ADFE394A384B1B78DBB243F01003DBB213700120FEF7A2FE374B1B78FB70324A314B1B78DBB223F01003DBB232
:401AC00013700020FEF794FEFB7803F00803FB702A4A2A4B1B78DBB243F01003DBB213700120FEF785FE254A244B1B78DBB223F01003DBB21370FB78002B02D10A20FEF724
:401B000077FE7B68013B7B60FB78002B02D07B68002BBDD1194A194B1B78DBB223F04003DBB21370154A154B1B78DBB223F07F03DBB21370124A124B1B78DBB223F00F035B
:401B4000DBB213700F4B1B78DBB223F00F03FB700C4AFB7843F00F03DBB213700A4B1B78DBB223F00F03FB70074AFB7843F00F03DBB213700837BD4680BD00BF2051004020
:401B80002251004023510040245100402151004080B582B000AF0346FB711A4A194B1B78DBB243F02003DBB21370164A154B1B78DBB223F04003DBB213700020FEF718FECD
:401BC000104A104B1B78DBB223F00F03DBB213700C490C4B1B78DAB2FB791343DBB243F01003DBB20B700120FEF702FE054A054B1B78DBB223F01003DBB213700837BD461E
:401C000080BD00BF2051004080B582B000AF0346FB71144A134B1B78DBB223F06003DBB21370104A0F4B1B78DBB223F00F03DBB213700C490B4B1B78DAB2FB791343DBB2A0
:401C400043F01003DBB20B700120FEF7D1FD054A044B1B78DBB223F01003DBB213700837BD4680BD2051004080B582B000AF0346FB71FB791B09DBB21A46084B9B5C184616
:401C8000FFF78AFEFB7903F00F03044AD35C1846FFF782FE0837BD4680BD00BF2420000080B500AF054B1B78002B04D100F008F8024B01221A7000F04DF880BD4781FF1F51
:401CC00080B582B000AF204B1B78DBB223F03F03FB711D4AFB7943F00C03DBB213701B4A1A4B1B78DBB243F00103DBB21370184A174B1B78DBB243F00103DBB213704FF6B4
:401D0000FF7000F037F84FF6FF7000F051F84FF4004000F05DF8012000F06AF800F0E8F80346BB71094A094B1B78DBB243F01003DBB21370BB79184600F0DEF800F02AF821
:401D40000837BD4680BD00BF74650040946500409565004080B400AF054A054B1B78DBB263F07F03DBB21370BD465DF8047B70477465004080B483B000AF0346FB80044A43
:401D8000FB8813800C37BD465DF8047B704700BF086A004080B500AF01E000F045F800F037F8034603F01003002BF6D180BD00BF80B483B000AF0346FB80044AFB8813803F
:401DC0000C37BD465DF8047B704700BF886A004080B483B000AF0346FB80044AFB8813800C37BD465DF8047B704700BF486A004080B483B000AF0346FB71044AFB79137051
:401E00000C37BD465DF8047B704700BF8465004080B400AF034B1B78DBB21846BD465DF8047B70476465004080B400AF034B1B889BB21846BD465DF8047B7047A86A004044
:401E400080B582B000AF786000F03CF8786800F009F8072000F018F800F028F80837BD4680BD00BF80B485B000AF7860054B1B68FB60FB6844337A681A601437BD465DF813
:401E8000047B704708ED00E080B483B000AF0346FB71054AFB795B01DBB213700C37BD465DF8047B704700BF01E400E080B400AF034B02221A60BD465DF8047B704700BFAC
:401EC00000E100E080B400AF034B02221A60BD465DF8047B704700BF80E100E0000000000230800803D000BF01380046FCD17047EFF3108072B6704780F31088704700BFA3
:401F00000E4B70B51E460E4C0025E41AA410A54204D056F8253098470135F8E700F08AF8084B094C1E46E41AA4100025A54204D056F8253098470135F8E770BD4020000008
:401F400040200000402000004820000010B5431E0A44914204D011F8014B03F8014FF8E710BD03460244934202D003F8011BFAE770470000000000004245544100000000D1
:401F8000444D4B3A00000000427574746F6E733A0000000050756C73653A00004F4E20004F4646004368657374000000004F00400C00C05100401000F05100401000000083
:401FC0000140001000140140000800400140000A004C01400002005001402000011121314161536373000000080901010507070404000000011121314161536373000000DC
:4020000008090101050707040400000001112131416153637300000008090101050707040400000030313233343536373839414243444546F8B500BFF8BC08BC9E467047F4
:402040004D000000B1020000F8B500BFF8BC08BC9E46704729000000682000000881FF1F180000003801000000000000006CDC0280BB0000300000000000C05D0000000066
:402080000000000000000000000000000000000000000000000000000000000000000000000000000000000000000000000000000000000000000000000000000000000020
:4020C00000000000000000000000000000000000000000000000000000000000000000000000000000000000000000000000000000000000000000000000000000000000E0
:40210000000000000000000000000000000000000000000000000000000000000000000000000000000000000000000000000000000000000000000000000000000000009F
:40214000000000000000000000000000000000000000000000000000000000000000000000000000000000000000000000000000000000000000000000000000000000005F
:020000040003F7
:0200000480007A
:40000000024F0040035200400464004002650040390001402F0101400D0301403504014037050140480601403B07014001090140060A0140040B0140020D0140030F014077
:400040004914014046150140381601403E17014001190140044001400F410140114201400843014006440140014501400A480140104901400A5001400151014001100A4BBD
:40008000188019822C408077847785028777840D870103080402070C0A040B0211081202140117011E01230129012A0230013104320233083404350237013E053F4440322B
:4000C00041054202454246C0470E481F49FF4AFF4BFF4DA04F01501852805417580459045A045B045F016040628064406540668068406A506BA86C406D206E506FA8D60888
:40010000DB04DD90022003040A500B02111019201A801B08201021402221292132013304380A3910432849024A104B425040510852105A885B205E205FA0610862106302B7
:4001400067017101830485108740C006C20DC402CA05CC03CE07D006D208D61ED81EE201E60A0C400F0183609090918093019402965899029F80A721A804EE0102010901D5
:400180000F091C021F04220223023002310232013301350837043E013F04401441034202452046C4470E481F49FF4AFF4BFF4DA04F01501852805417580459045A045B049D
:4001C0005F016040628064406540668068406A506BA86C406D206E506FA8D201D402D604DB04DD10DF010102098010801A90219022062B80308038803920404041404328C5
:400200004A204B0250805108521059145A805D205F02610862106302664867846D807240811083018B408F1290909180934094029658984099029B20A761AB80AF40C008BE
:40024000C201C408CA01CC08CE0CD00FD6AED8FEE201E680410142604404450D46CE470F481D49FF4AFF4BFF4CEA4D554EF04F08501C56085A045B045D915F0161086308B6
:4002800065086708685069096A406BA86CC06E406FA88F0291029C01A101AD01B302B601B701BF44C032C101C202C552C6C0C70EC81FC9FFCAFFCBFFCDA0CF01D018D280AF
:4002C000D417D804D904DA04DB04DF01E040E280E440E540E680E840EA50EBA8EC40ED20EE50EFA80B021940224429413202341036103880401041804320454046804901D4
:400300004A104B024C044F0450405108521053805648571058105A885C0A5E805F2061086210630265286681700182218802901893409442970498409B209D049E48A1400A
:40034000A222A7F9A804A920C201CA09CC01CE08D09ED220D6FED8FEE020A004B820BE10BF04D804D904DF011C0827208320A404A404EE018404E201E60807010C041002EB
:400380001102160217041A041D0226082B042E01300C310132013402350437023E013F104030410649FF4AFF4BFF4DA04F045018528054055604580459045A045B045F01C2
:4003C000604062C06440654066C068C06AC06CC06EC08101B701C020C103C5D0C712C832C9FFCAFFCBFFCDAFCE0FCF04D018D608D904DA04DB04DD90DF01E040E2C0E440C0
:40040000E540E6C0E8C0EAC0ECC0EEC00080080809010A081220138018441A081B08208022402308258028082B0830083180330238043D0243084408450448084D0254088A
:400440005505570259025A805B085E185F42610164806580662473808080820C830186618A808D01921093409440960997019B029D809E08A2A4A440A640B614C001C20E96
:40048000C405CA04CC0BCE82D062D204D6FBD8F1E280E640E840EC10050137013F4059045B045F01860187028C049A049B01A602AC01AD02B101B201B302B404B602BE141D
:4004C000BF04C030C105C5C0C6DEC7BFC83EC9FFCAFFCBFFCCEACD55CEF0CF48D01CD201D401D604D804D904DA04DB04DC01DD11DF01E108E308E508E708E850E90AEA4032
:40050000EBA8ECC0EE40EFA8008002200A081104120219441B2020102202268029403220380839043D0440104801490151885210530259015B405DA85E01618862106380C5
:400540006440662867016801801083408702900893409440984099289A209B029D04A220A640A760A808AD80AF29B302C005C202C405CA08CC04CE42D002D208D6F9D8FF5D
:40058000E820EE02AC04320833103580CC7000080140048007800A220E800F0183909D809F10A608C0F0C2F0E080E2201220630183018A089080914092229D80A240A608C8
:4005C000AB01AC04C410D640E280E880EC408A409080914092229D80A240AA20EC8000010110052080018510C00BA92023208740908092209D80A940B201C840E210EC20BF
:40060000022053045B20678086208B048D8093809B209D80B440B610C010D4A0D880E44000030101080109010A030B01100311011A031B01003F00000F00F00F000000005C
:4006400000000000000B0B0000000000007F7F0000000000810000078600860000000000000000000000E0004000004000000000000000000D000D00000000000000000058
:40068000000000000000000000000000000000000000000000000000000000000000000000000000000000000000000000000000000000000000000000000000000000003A
:4006C00000000000000000000000000000000000000000000000000000000000000000000000000000000000000000000000000000000000000000000000000000000000FA
:4007000000000000000000000000000000000000000000000000000000000000000000000000000000000000000000000000000000000000000000000000000000000000B9
:400740000000000000000000000000000000000000000000000000000000000000000000000000000000000000000000000000000000000000000000000000000000000079
:0200000490006A
:0400000000004005B7
:0200000490105A
:04000000BC90ACAF55
:0200000490303A
:02000000A24517
:0200000490402A
:4000000000000000000000000000000000000000000000000000000000000000000000000000000000000000000000000000000000000000000000000000000000000000C0
:400040000000000000000000000000000000000000000000000000000000000000000000000000000000000000000000000000000000000000000000000000000000000080
:400080000000000000000000000000000000000000000000000000000000000000000000000000000000000000000000000000000000000000000000000000000000000040
:4000C0000000000000000000000000000000000000000000000000000000000000000000000000000000000000000000000000000000000000000000000000000000000000
:0200000490501A
:0C00000000012E12006900012E20A2AEAB
:00000001FF