:4000000000800020AD020000AD260000AD260000AD260000AD260000AD260000AD260000AD260000AD260000AD260000AD260000AD260000AD260000AD260000AD260000E7
:40004000AD260000AD260000AD260000AD260000AD260000AD260000AD260000AD260000AD260000AD260000AD260000AD260000AD260000AD260000AD260000AD26000050
:40008000AD260000AD260000AD260000AD260000AD260000AD260000AD260000AD260000AD260000AD260000AD260000AD260000AD260000AD260000AD260000AD26000010
:4000C00080B51448144B21E05C689968DD688C420CD0002205E0A6180832D6E9008941E902898C460831AA42F5D101E004EB050C1C696146002204E008320026002741E9DE
:4001000002670831A242F7D1143301380028DBD102F0B4FA01000000D827000048F21813C1F6FF731A780AB901201870704700BF48F20010C1F6FF7008B503682BB140F2D5
:400140000003C0F2000303B1984708BD80B500AF62B640F28520C0F2000000F049FF00F093F94FF0010000F029FA01F0C9FA00F0F9FF01F0E9FB01F0D7F801F009FD01F0CA
:40018000B5F900F0FFFE00F09DFC4FF0000000F05DFD4FF0FA0000F0E9F800F0E7FB80BD80B582B000AFFFF7D1FF4FF080004FF0010100F069FD4FF000004FF0080100F0D0
:4001C00079F942F20070C0F2000000F0ADF94FF001004FF0000100F06DF942F20870C0F2000000F0A1F94FF002004FF0000100F061F942F21070C0F2000000F095F94FF0F5
:4002000003004FF0000100F055F942F21C70C0F2000000F089F900E000BF01F0E3F90346002B0CD14FF001004FF0050100F042F942F22470C0F2000000F076F90BE04FF0E9
:4002400001004FF0050100F035F942F22870C0F2000000F069F94FF0010000F083FC0346FB71FB79002BD7D04FF002004FF0090100F020F900F01AFC0346184600F054FB21
:40028000CBE700BF80B582B000AF01E000F00EFC4FF0020000F0BAFB0346FB71FB79012BF4D007F10807BD4680BD00BF054B1C7844F001041C70044B1A78D2B2034B1A70F1
:4002C000FFF7FEFEE8460040F8460040BC76004080B582B000AF4EF60C53CEF2000340F20042C0F2FA521A604EF61453CEF200034EF61452CEF20002126842F400721A60D0
:400300004FF000037B6014E07A687B684FEA830140F20003C0F200030B441B68194648F20003C1F6FF7343F822107B6803F101037B607B682F2BE7D947F2BC63C4F2000378
:400340001B78DAB248F23C13C1F6FF731A704EF60853CEF2000348F20002C1F6FF721A6001F0E0FE07F10807BD4680BD80B582B000AF78600BE048F21013C1F6FF731B68EA
:40038000184602F039F87B68A3F500437B607B68B3F5004FEFD848F20813C1F6FF731B687A6802FB03F3184602F026F807F10807BD4680BD80B582B000AF0346FB80FA889B
:4003C00048F20C13C1F6FF731B7803FB02F3184602F012F807F10807BD4680BD80B500AF4FF02800FFF7C2FF4FF0030000F056FA4FF00500FFF7BAFF4FF0030000F04EFA63
:400400004FF00F00FFF7B2FF4FF0030000F046FA4FF00100FFF7AAFF4FF0020000F03EFA4FF00500FFF7A2FF4FF0060000F0C6F84FF00E0000F0C2F84FF02C0000F0BEF837
:400440004FF0080000F0BAF84FF0010000F0B6F84FF00C0000F0B2F84FF0030000F0AEF84FF00500FFF782FF80BD00BF80B500AF4FF00C0000F0A2F848F21913C1F6FF73F9
:400480004FF001021A7080BD80B500AF48F21A13C1F6FF731B78002B08D1FFF79FFF48F21A13C1F6FF734FF001021A70FFF7DEFF80BD00BF80B582B000AF02460B46FA714F
:4004C000BB71FB79032B2AD801A252F823F000BFE1040000F10400000105000011050000BB79A3F18003DBB2184600F067F816E0BB79A3F14003DBB2184600F05FF80EE0D1
:40050000BB79A3F16C03DBB2184600F057F806E0BB79A3F12C03DBB2184600F04FF807F10807BD4680BD00BF80B584B000AF78604FF00103BB737B681B78FB730CE0FB7BAE
:40054000184600F01FF8BA7B7B6813441B78FB73BB7B03F10103BB73FB7B002BEFD107F11007BD4680BD00BF80B582B000AF0346FB71FB79184600F005F807F10807BD4647
:4005800080BD00BF80B584B000AF0346FB7100F031F8FB794FEA1313FB73FB7B184600F027F9FB7903F00F03FB73FB7B184600F01FF907F11007BD4680BD00BF80B584B0FA
:4005C00000AF0346FB7100F015F8FB794FEA1313FB73FB7B184600F061F9FB7903F00F03FB73FB7B184600F059F907F11007BD4680BD00BF80B582B000AF45F22013C4F2FA
:40060000000345F22012C4F200021278D2B202F080021A7045F22213C4F200031B78DBB223F00F03FB7145F22213C4F20003FA7942F00F02D2B21A7045F22313C4F20003A5
:400640001B78DBB223F00F03FB7145F22313C4F20003FA791A7045F22413C4F200031B78DBB223F00F03FB7145F22413C4F20003FA791A7045F22013C4F2000345F220121E
:40068000C4F200021278D2B202F0DF021A7045F22013C4F2000345F22012C4F200021278D2B242F04002D2B21A704FF00000FFF781FE45F22013C4F2000345F22012C4F24D
:4006C00000021278D2B242F01002D2B21A704FF00100FFF76FFE45F22113C4F200031B78FB7145F22013C4F2000345F22012C4F200021278D2B202F0EF021A704FF00000D4
:40070000FFF758FEFB7903F00803FB7145F22013C4F2000345F22012C4F200021278D2B242F01002D2B21A704FF00100FFF742FE45F22013C4F2000345F22012C4F2000231
:400740001278D2B202F0EF021A70FB79002BACD145F22013C4F2000345F22012C4F200021278D2B202F0BF021A7045F22013C4F2000345F22012C4F200021278D2B202F00F
:4007800080021A7045F22213C4F2000345F22212C4F200021278D2B202F0F0021A7045F22313C4F200031B78DBB223F00F03FB7145F22313C4F20003FA7942F00F02D2B232
:4007C0001A7045F22413C4F200031B78DBB223F00F03FB7145F22413C4F20003FA7942F00F02D2B21A7007F10807BD4680BD00BF80B582B000AF0346FB71FFF7FBFE45F2B5
:400800002013C4F2000345F22012C4F200021278D2B242F02002D2B21A7045F22013C4F2000345F22012C4F200021278D2B202F0BF021A7045F22013C4F2000345F2201220
:40084000C4F200021278D2B202F0F0021A7045F22013C4F2000345F22012C4F200021278D1B2FA7941EA0202D2B242F01002D2B21A704FF00100FFF79DFD45F22013C4F28B
:40088000000345F22012C4F200021278D2B202F0EF021A7007F10807BD4680BD80B582B000AF0346FB7145F22013C4F2000345F22012C4F200021278D2B202F09F021A7018
:4008C00045F22013C4F2000345F22012C4F200021278D2B202F0F0021A7045F22013C4F2000345F22012C4F200021278D1B2FA7941EA0202D2B242F01002D2B21A704FF030
:400900000100FFF757FD45F22013C4F2000345F22012C4F200021278D2B202F0EF021A7007F10807BD4680BD80B582B000AF0346FB71FB794FEA1313DBB21A4642F22C7308
:40094000C0F200039B5C1846FFF70EFEFB7903F00F0242F22C73C0F200039B5C1846FFF703FE07F10807BD4680BD00BF80B500AF48F21B13C1F6FF731B78002B08D100F01D
:400980001FF848F21B13C1F6FF734FF001021A7000F002F880BD00BF80B500AF46F27643C4F2000346F27642C4F200021278D2B242F00102D2B21A7000F00AF880BD00BF68
:4009C00080B500AF4FF0020000F052F880BD00BF80B582B000AF01F017FD0346FB7146F29643C4F2000346F29642C4F200021278D2B242F01002D2B21A70FB79184601F017
:400A000007FD07F10807BD4680BD00BF80B485B000AF0346FB716FF00103FB73FB79022B1FD146F26643C4F200031B78DBB203F060034FEA5313012B04D0012B06D3022B9C
:400A400008D00BE04FF00003FB730AE04FF00203FB7306E04FF00103FB7302E04FF00003FB73FB7B184607F11407BD4680BC704780B483B000AF0346FB7146F28643C4F2DF
:400A8000000346F28642C4F200021278D2B2114601F0F801FA7902F0070241EA0202D2B21A7007F10C07BD4680BC704780B400AF46F25643C4F200031B78DBB21846BD4692
:400AC00080BC704780B500AF48F21C13C1F6FF731B78002B08D100F01FF848F21C13C1F6FF734FF001021A7000F002F880BD00BF80B500AF46F27743C4F2000346F277422B
:400B0000C4F200021278D2B242F00102D2B21A7000F00AF880BD00BF80B500AF4FF0010000F076F880BD00BF80B582B000AF01F06BFC0346FB7146F29743C4F2000346F21A
:400B40009742C4F200021278D2B242F01002D2B21A70FB79184601F05BFC07F10807BD4680BD00BF80B485B000AF0346FB716FF00103FB73FB79012B1FD146F26743C4F29E
:400B800000031B78DBB203F018034FEAD303012B08D0012B02D3022B08D00BE04FF00003FB730AE04FF00203FB7306E04FF00103FB7302E04FF00203FB73FB79022B1FD1F8
:400BC00046F26743C4F200031B78DBB203F060034FEA5313012B04D0012B06D3022B08D00BE04FF00003FB730AE04FF00203FB7306E04FF00103FB7302E04FF00003FB73DB
:400C0000FB7B184607F11407BD4680BC704700BF80B483B000AF0346FB7146F28743C4F2000346F28742C4F200021278D2B2114601F0F801FA7902F0070241EA0202D2B269
:400C40001A7007F10C07BD4680BC704780B584B000AF0346FB714FF01103FB734FF00100FFF780FF0346002B08D046F24743C4F20003FA791A704FF00003FB73FB7B18465E
:400C800007F11007BD4680BD80B584B000AF02460B46FA807B7100F0CDF803467B7300F0BDF80346FB81FA88FB899A4200F0B28044F2A233C4F200031B78DBB203F0020398
:400CC0003B737B7B002B35D1FB89002B02D0FB88002B2FD1FB89002B17D1FB88002B14D044F28403C4F20003FA881A8044F28603C4F2000344F28602C4F200021278D2B239
:400D000002F0BF021A7000BF84E044F28603C4F2000344F28602C4F200021278D2B242F04002D2B21A7044F28403C4F20003FA881A806FE03B7B002B2ED044F20103C4F225
:400D400000034FF000021A7044F21003C4F200034FF002021A7044F21403C4F200034FF000021A7044F20803C4F2000344F20802C4F200021278D2B202F07F021A7044F2D2
:400D8000A233C4F2000344F2A232C4F200021278D2B202F0FD021A7044F2A233C4F200031B78DBB203F00203002B1ED044F20203C4F20003FA881A8044F20103C4F2000362
:400DC0007A79002A02D04FF0030201E04FF001021A7044F20103C4F200031B78DBB203F00103DBB2002BF4D105E044F28403C4F20003FA881A8044F2A233C4F2000344F21B
:400E0000A232C4F200021278D1B23A7B41EA0202D2B21A7007F11007BD4680BD80B400AF44F28403C4F200031B889BB21846BD4680BC704780B400AF44F28603C4F20003E0
:400E40001B78DBB203F007031846BD4680BC704780B500AF44F60073C4F2000344F60072C4F200021278D2B202F001021A7044F60173C4F2000344F60172C4F20002127870
:400E8000D2B202F0F1021A7044F60173C4F2000344F60172C4F200021278D2B242F00102D2B21A7044F60A73C4F2000344F60A72C4F200021278D2B202F0CF021A7044F6AF
:400EC0000A73C4F2000344F60A72C4F200021278D2B242F03002D2B21A7044F60A73C4F2000344F60A72C4F200021278D2B202F0F0021A7044F60A73C4F2000344F60A724E
:400F0000C4F200021278D2B242F00F02D2B21A704FF0080000F05CF84FF0000000F048F880BD00BF80B400AF44F2A333C4F2000344F2A332C4F200021278D2B242F00102F6
:400F4000D2B21A7044F2B333C4F2000344F2B332C4F200021278D2B242F00102D2B21A7044F60073C4F2000344F60072C4F200021278D2B242F00102D2B21A70BD4680BC10
:400F8000704700BF80B500AF48F21D13C1F6FF731B78002B08D1FFF75BFF48F21D13C1F6FF734FF001021A70FFF7BCFF80BD00BF80B483B000AF0346FB7144F60873C4F21B
:400FC0000003FA791A7007F10C07BD4680BC704780B483B000AF0346FB7144F60273C4F20003FA791A8007F10C07BD4680BC704780B582B000AF786000F042F8786800F0C7
:401000000BF84FF0070000F01BF800F02DF807F10807BD4680BD00BF80B485B000AF78604EF60853CEF200031B68FB60FB6803F144037A681A6007F11407BD4680BC704716
:4010400080B483B000AF0346FB714EF20143CEF20003FA794FEA4212D2B21A7007F10C07BD4680BC704700BF80B400AF4EF20013CEF200034FF002021A60BD4680BC7047E4
:4010800080B400AF4EF28013CEF200034FF002021A60BD4680BC704780B582B000AF46F27653C4F200031B78DBB223F00703BB7146F27653C4F20003BA791A7046F2765353
:4010C000C4F200031B78DBB223F00303BB7146F27653C4F20003BA791A7000F0B1F84FF4004000F08DF84FF0000000F06DF84FF0000000F04DF800F05BF84FF4004000F00C
:401100008FF801F081F90346FB7146F29753C4F2000346F29752C4F200021278D2B242F01002D2B21A70FB79184601F071F907F10807BD4680BD00BF80B400AF46F27653DD
:40114000C4F2000346F27652C4F200021278D2B26FEA42626FEA5262D2B21A70BD4680BC704700BF80B500AF48F21E13C1F6FF731B78002B08D1FFF78FFF48F21E13C1F66E
:40118000FF734FF001021A70FFF7D6FF80BD00BF80B483B000AF0346FB7146F28753C4F20003FA791A7007F10C07BD4680BC704780B400AF46F26753C4F200031B78DBB2E8
:4011C0001846BD4680BC704780B483B000AF0346FB8046F60C23C4F20003FA881A8007F10C07BD4680BC704780B400AF46F68C23C4F200031B889BB21846BD4680BC7047B5
:4012000080B483B000AF0346FB8046F64C23C4F20003FA881A8007F10C07BD4680BC704780B483B000AF0346FB8046F66C23C4F20003FA881A8007F10C07BD4680BC7047D8
:4012400080B500AF01E0FFF7CFFFFFF7B1FF034603F04003002BF6D180BD00BF80B582B000AF46F27C43C4F200031B78DBB223F00703BB7146F27C43C4F20003BA791A7036
:4012800046F27C43C4F200031B78DBB223F00303BB7146F27C43C4F20003BA791A7000F0B1F84FF4004000F08DF84FF0000000F06DF84FF0000000F04DF800F05BF84FF48D
:4012C000004000F08FF801F09FF80346FB7146F29C43C4F2000346F29C42C4F200021278D2B242F01002D2B21A70FB79184601F08FF807F10807BD4680BD00BF80B400AFC9
:4013000046F27C43C4F2000346F27C42C4F200021278D2B26FEA42626FEA5262D2B21A70BD4680BC704700BF80B500AF48F21F13C1F6FF731B78002B08D1FFF78FFF48F2A6
:401340001F13C1F6FF734FF001021A70FFF7D6FF80BD00BF80B483B000AF0346FB7146F28C43C4F20003FA791A7007F10C07BD4680BC704780B400AF46F26C43C4F2000373
:401380001B78DBB21846BD4680BC704780B483B000AF0346FB8046F61803C4F20003FA881A8007F10C07BD4680BC704780B400AF46F69803C4F200031B889BB21846BD46EE
:4013C00080BC704780B483B000AF0346FB8046F65803C4F20003FA881A8007F10C07BD4680BC704780B483B000AF0346FB8046F67803C4F20003FA881A8007F10C07BD463F
:4014000080BC704780B500AF01E0FFF7CFFFFFF7B1FF034603F04003002BF6D180BD00BF80B582B000AF46F27E43C4F200031B78DBB223F00703BB7146F27E43C4F200033A
:40144000BA791A7046F27E43C4F200031B78DBB223F00303BB7146F27E43C4F20003BA791A7000F0B1F84FF4004000F08DF84FF0000000F06DF84FF0000000F04DF800F0A0
:401480005BF84FF4004000F08FF800F0BDFF0346FB7146F29F43C4F2000346F29F42C4F200021278D2B242F01002D2B21A70FB79184600F0ADFF07F10807BD4680BD00BF06
:4014C00080B400AF46F27E43C4F2000346F27E42C4F200021278D2B26FEA42626FEA5262D2B21A70BD4680BC704700BF80B500AF48F22013C1F6FF731B78002B08D1FFF7C5
:401500008FFF48F22013C1F6FF734FF001021A70FFF7D6FF80BD00BF80B483B000AF0346FB7146F28F43C4F20003FA791A7007F10C07BD4680BC704780B400AF46F26F439B
:40154000C4F200031B78DBB21846BD4680BC704780B483B000AF0346FB8046F61C03C4F20003FA881A8007F10C07BD4680BC704780B400AF46F69C03C4F200031B889BB2CC
:401580001846BD4680BC704780B483B000AF0346FB8046F65C03C4F20003FA881A8007F10C07BD4680BC704780B483B000AF0346FB8046F67C03C4F20003FA881A8007F12A
:4015C0000C07BD4680BC704780B500AF01E0FFF7CFFFFFF7B1FF034603F04003002BF6D180BD00BF80B400AF45F25113C4F200031B78DBB203F040034FEA9313DBB21846EF
:40160000BD4680BC704700BF80B500AF45F60C03C4F200034FF00C021A7045F60D03C4F2000345F60D02C4F200021278D2B242F02002D2B21A7045F60E03C4F200036FF05D
:401640007F021A704FF0080000F090F84FF0030000F06CF880BD00BF80B400AF48F22413C1F6FF731B78012B1AD145F60D03C4F2000348F22412C1F6FF7252781A7045F6BC
:401680000E03C4F2000348F22412C1F6FF7292781A7048F22413C1F6FF734FF000021A7044F2A933C4F2000344F2A932C4F200021278D2B242F00802D2B21A7044F2B933C1
:4016C000C4F2000344F2B932C4F200021278D2B242F00802D2B21A7045F67703C4F2000345F67702C4F200021278D2B26FEA42626FEA5262D2B21A70BD4680BC704700BF4B
:4017000080B500AF48F22813C1F6FF731B78002B08D1FFF779FF48F22813C1F6FF734FF001021A70FFF798FF80BD00BF80B485B000AF0346FB7145F60D03C4F200031B78CB
:40174000DBB223F00303FB73FB7903F00303FA7B43EA0203FB7345F60D03C4F20003FA7B1A7007F11407BD4680BC704780B489B000AF0346FB7142F23C72C0F2000207F168
:40178000140307CA03C31A7042F24872C0F2000207F1080307CA03C31A70FB79082B52D845F60E03C4F2000345F60E02C4F200021278D2B202F080021A7045F60E03C4F244
:4017C000000345F60E02C4F200021278D1B2FA7907F12000024412F80C0CFA7907F1200C624412F8182C4FEA8202D2B202F00C0240EA0202D2B241EA0202D2B21A7045F6ED
:401800000D03C4F2000345F60D02C4F200021278D2B202F0F3021A7045F60D03C4F2000345F60D02C4F200021278D1B2FA7907F12000024412F8182C41EA0202D2B242F047
:401840000C02D2B21A7007F12407BD4680BC704780B500AF45F60803C4F200034FF00C021A7045F60903C4F2000345F60902C4F200021278D2B242F02002D2B21A7045F6D0
:401880000A03C4F200036FF07F021A704FF0080000F090F84FF0030000F06CF880BD00BF80B400AF48F22C13C1F6FF731B78012B1AD145F60903C4F2000348F22C12C1F649
:4018C000FF7252781A7045F60A03C4F2000348F22C12C1F6FF7292781A7048F22C13C1F6FF734FF000021A7044F2A933C4F2000344F2A932C4F200021278D2B242F00202A9
:40190000D2B21A7044F2B933C4F2000344F2B932C4F200021278D2B242F00202D2B21A7045F67703C4F2000345F67702C4F200021278D2B26FEA42626FEA5262D2B21A7093
:40194000BD4680BC704700BF80B500AF48F23013C1F6FF731B78002B08D1FFF779FF48F23013C1F6FF734FF001021A70FFF798FF80BD00BF80B485B000AF0346FB7145F620
:401980000903C4F200031B78DBB223F00303FB73FB7903F00303FA7B43EA0203FB7345F60903C4F20003FA7B1A7007F11407BD4680BC704780B489B000AF0346FB7142F22C
:4019C0005472C0F2000207F1140307CA03C31A7042F26072C0F2000207F1080307CA03C31A70FB79082B52D845F60A03C4F2000345F60A02C4F200021278D2B202F080020C
:401A00001A7045F60A03C4F2000345F60A02C4F200021278D1B2FA7907F12000024412F80C0CFA7907F1200C624412F8182C4FEA8202D2B202F00C0240EA0202D2B241EA73
:401A40000202D2B21A7045F60903C4F2000345F60902C4F200021278D2B202F0F3021A7045F60903C4F2000345F60902C4F200021278D1B2FA7907F12000024412F8182CAD
:401A800041EA0202D2B242F00C02D2B21A7007F12407BD4680BC704780B500AF45F60003C4F200034FF00C021A7045F60103C4F2000345F60102C4F200021278D2B242F02C
:401AC0002002D2B21A7045F60203C4F200036FF07F021A704FF0080000F090F84FF0030000F06CF880BD00BF80B400AF48F23413C1F6FF731B78012B1AD145F60103C4F2D6
:401B0000000348F23412C1F6FF7252781A7045F60203C4F2000348F23412C1F6FF7292781A7048F23413C1F6FF734FF000021A7044F2A933C4F2000344F2A932C4F2000268
:401B40001278D2B242F00102D2B21A7044F2B933C4F2000344F2B932C4F200021278D2B242F00102D2B21A7045F67703C4F2000345F67702C4F200021278D2B26FEA42622A
:401B80006FEA5262D2B21A70BD4680BC704700BF80B500AF48F23813C1F6FF731B78002B08D1FFF779FF48F23813C1F6FF734FF001021A70FFF798FF80BD00BF80B485B052
:401BC00000AF0346FB7145F60103C4F200031B78DBB223F00303FB73FB7903F00303FA7B43EA0203FB7345F60103C4F20003FA7B1A7007F11407BD4680BC704780B489B0F3
:401C000000AF0346FB7142F26C72C0F2000207F1140307CA03C31A7042F27872C0F2000207F1080307CA03C31A70FB79082B52D845F60203C4F2000345F60202C4F2000293
:401C40001278D2B202F080021A7045F60203C4F2000345F60202C4F200021278D1B2FA7907F12000024412F80C0CFA7907F1200C624412F8182C4FEA8202D2B202F00C029C
:401C800040EA0202D2B241EA0202D2B21A7045F60103C4F2000345F60102C4F200021278D2B202F0F3021A7045F60103C4F2000345F60102C4F200021278D1B2FA7907F162
:401CC0002000024412F8182C41EA0202D2B242F00C02D2B21A7007F12407BD4680BC704780B485B000AF786039607B68BB604FF00003FB6009E0BA68FB6813444FF00002EC
:401D00001A70FB6803F10103FB60FA683B689A42F1D307F11407BD4680BC704780B489B000AFF860B9607A60FB687B61BB68BB614FF00003FB610BE07A69FB691344B96987
:401D4000FA690A4412781A70FB6903F10103FB61FA697B689A42EFD307F12407BD4680BC704700BF80B582B000AF7860396078684FF000013A6800F017FC07F10807BD46D4
:401D800080BD00BF80B584B000AFF860B9607A60F868B9687A6800F03FFB07F11007BD4680BD00BF80B487B000AF786039604FF00003FB604FF00003BB602CE0BB684FEA3C
:401DC00083027B6813441B683B613B69FB753B6923F0FF033B6117E0FB684FEA43023B6813441B781A463B691344FA684FEA42013A680A4452781A70FB6803F10103FB6004
:401E0000FB7D03F1FF33FB75FB7D002BE4D1BB6803F10103BB60BB681E2BCFD907F11C07BD4680BC704700BF80B582B000AF44F29863C4F200031B78FB7044F28003C4F2B5
:401E400000034FF000021A8044F28203C4F200034FF01D021A7044F28403C4F200034FF000021A8044F28603C4F200034FF01D021A7044F28803C4F200034FF000021A8022
:401E800044F28A03C4F200034FF01D021A7044F20033C4F200034FF002021A7044F20003C4F200034FF008021A7044F20A33C4F200036FF00C021A7044F29863C4F20003FD
:401EC0004FF003021A7044F20933C4F200036FF07B021A7044F20833C4F200034FF001021A7048F2A063C0F201037B6007E04FF0780000F081FA7B6803F1FF337B607B68EF
:401F0000002B09D044F20833C4F200031B78DBB203F02003002BEAD044F29863C4F20003FA781A7044F20023C4F200034FF003021A7044F2A163C4F2000340F20812C4F699
:401F400000121278D2B21A7044F22223C4F200034FF010021A8044F22023C4F2000341F251021A8040F6B83000F046FA44F20403C4F200034FF003021A7044F20503C4F240
:401F800000034FF001021A7044F20403C4F200034FF000021A7044F20403C4F200034FF007021A7044F20603C4F200034FF000021A7044F20803C4F200034FF048021A70F9
:401FC00044F20403C4F200034FF000021A7044F20103C4F200034FF002021A7044F2A233C4F2000344F2A232C4F200021278D2B242F00702D2B21A7007F10807BD4680BD3C
:4020000080B400AF44F2AA33C4F200034FF444721A8045F20D13C4F200036FF06B021A7045F23D13C4F200034FF008021A7045F24D13C4F200034FF020021A7045F25D1303
:40204000C4F200034FF010021A7045F62003C4F200034FF01E021A7045F62403C4F200034FF01E021A7045F62803C4F200034FF01E021A7045F62C03C4F200034FF01E023E
:402080001A7045F60013C4F200036FF03F021A7045F60313C4F200034FF00C021A7045F60813C4F200036FF03F021A7045F60B13C4F200034FF00C021A7045F60423C4F24A
:4020C00000034FF010021A7045F60823C4F200036FF07F021A7045F62423C4F200034FF020021A7045F62823C4F200034FF040021A7045F63423C4F200036FF07F021A7054
:4021000045F63823C4F200034FF001021A7045F67603C4F200034FF044021A70BD4680BC704700BF80B582B000AF72B644F60003C4F200034FF000021A70FFF775FE44F6B1
:402140000003C4F200036FF03F021A7047F21003C4F200034FF000021A7047F22003C4F200034FF000021A7045F67C03C4F200034FF001021A7044F2E863C4F2000344F21A
:40218000E862C4F200021278D2B242F00102D2B21A704FF00003FB702FE0FA7813464FEA430313444FEA43031A4642F28473C0F2000313447B607B681A7859784FEA0121DD
:4021C00041EA020299784FEA014141EA0202DB784FEA036343EA02031A467B6819795B794FEA032343EA01039BB210461946FFF7B9FDFB7803F10103FB70FB78072BCCD9CA
:402200004FF0904040F27C01C4F60001FFF7CAFD45F20020C4F2000040F27051C4F600014FF00702FFF77AFD45F20820C4F200004FF00701FFF754FD45F21020C4F2000038
:402240004FF00701FFF74CFD45F21820C4F2000040F27851C4F600014FF00702FFF75EFD45F22020C4F200004FF00701FFF738FD45F22820C4F2000040F28051C4F60001D2
:402280004FF00702FFF74AFD45F23020C4F200004FF00701FFF724FD45F26020C4F200004FF00601FFF71CFD45F27820C4F200004FF00701FFF714FD45F20303C4F2010372
:4022C00045F20302C4F201021278D2B242F00202D2B21A7045F21303C4F2010345F21302C4F201021278D2B242F00202D2B21A7044F2A033C4F2000344F2A032C4F20002B7
:402300001278D2B242F04002D2B21A7044F2C233C4F2000344F2C232C4F200021278D2B242F01002D2B21A7045F20010C4F2000040F23451C4F600014FF00A02FFF722FD18
:4023400045F2C210C4F2000040F24051C4F600014FF00802FFF7E2FC45F22210C4F2000040F24851C4F600014FF00802FFF70AFD45F23010C4F2000040F25051C4F600015D
:402380004FF00A02FFF7FEFC45F24210C4F2000040F25C51C4F600014FF00802FFF7F2FC45F25010C4F2000040F26451C4F600014FF00A02FFF7E6FCFFF722FE44F2B0309E
:4023C000C4F2000044F2A031C4F200014FF00C02FFF7D8FC44F2B033C4F2000344F2B032C4F200021278D2B202F0FD021A7007F10807BD4680BD00BF0230800803D000BFD5
:4024000001380046FCD17047EFF3108072B6704780F31088704700BF032A2DE9F0070BD83AB1002311F803C000F803C001339342F8D1BDE8F007704782180C46034603E0D8
:4024400014F8011C03F8011C03F003061946A44601330134002EF3D11CF00304634608BFC1EB020C68D06542C4F1040A0CEB050733464FEACA0A5CF805604FEAC408551AE6
:4024800008E057F8044F264604FA0AF449EA0404CC5004335C18032D26FA08F9A5F104050CEB0306EDDC002302E0F15CE154013319199142F9D3BCE753F8404C41F8404CA4
:4024C00053F83C4C41F83C4C53F8384C41F8384C53F8344C41F8344C53F8304C41F8304C53F82C4C41F82C4C53F8284C41F8284C53F8244C41F8244C53F8204C41F8204C1C
:4025000053F81C4C41F81C4C53F8184C41F8184C53F8144C41F8144C53F8104C41F8104C53F80C4C41F80C4C53F8084C41F8084C53F8044C41F8044C1C460D46403340315E
:40254000BCF13F0FACF1400CB6DC21462B46541B0FE051F8105C43F8105C51F80C5C43F80C5C51F8085C43F8085C51F8045C43F8045C0F2C0D469C4601F1100103F11003F5
:40258000A4F11004E5DCCCEB0201002303E0EC584CF8034004335E19032903EB0C04A1F10401F4DC7FE700BF032AC9B230B407D822B10023C15401339342FBD130BC7047D4
:4025C00000EB020C034601E003F8011C03F003041A460133002CF7D14FF00133C2EB0C0403FB01F31FE042F8403C42F83C3C42F8383C42F8343C42F8303C42F82C3C42F8BB
:40260000283C42F8243C42F8203C42F81C3C42F8183C42F8143C42F8103C42F80C3C42F8083C42F8043C154640323F2CA4F14004D9DC2A46C5EB0C0407E042F8103C42F8BF
:402640000C3C42F8083C42F8043C154610320F2CA4F11004F1DC2A46C5EB0C0501E042F8043C14460432032DA5F10405F7DC01E004F8011B6445FBD3A0E700BF08B500F0AB
:4026800017F8074800B10068064901B109680022FDF786FD044B0BB1AFF30080FEE700BF000000000000000000000000FEE7000070B542F2C07642F2C075C0F20006C0F280
:4026C0000005761BB61006D0002455F8243001349847A642F9D842F2C07542F2C876C0F20005C0F20006761B00F064F8B61006D0002455F8243001349847A642F9D870BD94
:402700004245544100000000444D4B3A00000000427574746F6E733A0000000050756C73653A00004F4E20004F46460030313233343536373839414243444546011121315D
:4027400041615363730000000809010105070704040000000111213141615363730000000809010105070704040000000111213141615363730000000809010105070704AA
:4027800004000000004F00400B00105100401000605100401000F0510040100000000140001000140140000800400140000A004C01400002F8B500BFF8BC08BC9E467047F1
:4027C00031010000D1020000F8B500BFF8BC08BC9E4670471D01000000000000F02700000080FF1F1801000028000000000000000000000000000000000000000000000041
:402800000000000000000000000000000000000000000000000000000000000000000000000000000000000000000000000000000000000000000000000000000000000098
:402840000000000000000000000000000000000000000000000000000000000000000000000000000000000000000000000000000000000000000000000000000000000058
:402880000000000000000000000000000000000000000000000000000000000000000000000000000000000000000000000000000000000000000000000000000000000018
:4028C00000000000000000000000000000000000000000000000000000000000000000000000000000000000000000000000000000000000006CDC0280BB00003000000023
:402900000000C05D0000000000000000000000000000000000000000000000000000000000000000000000000000000000000000000000000000000000000000000000007A
:402940000000000000000000000000000000000000000000000000000000000000000000000000000000000000000000000000000000000000000000000000000000000057
:402980000000000000000000000000000000000000000000000000000000000000000000000000000000000000000000000000000000000000000000000000000000000017
:4029C00000000000000000000000000000000000000000000000000000000000000000000000000000000000000000000000000000000000000000000000000000000000D7
:402A00000000000000000000000000000000000000000000000000000000000000000000000000000000000000000000000000000000000000000000000000000000000096
:020000040003F7
:0200000480007A
:40000000024F0040046400400165004002010140020301400304014005050140480601402E07014004090140040B0140480C0140350D01404D0E0140360F01400115014090
:400040004E1601403417014002190140094001400841014008420140064301400C44014004450140014601400147014006480140024901400B500140015101400110091B1F
:40008000860287018C678F6787678202E201A202EC01B808BE04D8041E1087408F40A202E640240136013E40410442304405450D46CE470F481D49FF4AFF4BFF4CEA4D55C7
:4000C0004EF04F08501C5402560458045A045B045D116108630865086708685069096A406BA86CC06E406FA888019A03B202B601BE40C010C105C5CDC60EC7BFC837C9FF68
:40010000CAFFCBFFCCEACD55CEF0CF48D01CD401D604D804DA04DB04DC01DD11E108E308E508E708E850E90AEA40EBA8ECC0EE40EFA80010082014201620181119401F40F4
:40014000400146204701480149014A204E024F04510A52805648571059415C205F02610862A063806648674468016F01874097409B04A202A502A740A902B610B704C0026A
:40018000C202C420D0C8D218D6A9D8FFE8019640B408E801EC109640A408A902AB2002010C040D040E08120313011706180120042D013008310432043402350136013702FD
:4001C00038083E443F114013410649FF4AFF4BFF4DA04F0150185407580459045A045B046040628064406540668068406A506BA86C406D206E506FA8C013C106C50EC6C0DB
:40020000C724C83DC9FFCAFFCBFFCDAFCE07CF01D018DA04DB04E040E280E440E540E680E840EA50EBA8EC40ED20EE50EFA8048007410C010E0417021D881E041F02244029
:400240002540270A2F02360837013D8041884588480849044C08504051015218580859015A405B205C405D205F08650466107740892198099901A102A408A909AA08AB4049
:40028000B320C090C250C410CA10CCC0CE10D05AD224D67FD860EA010E041001160329012E012F0130023404350136013E403F104014410649FF4AFF4BFF4DA04F015018D5
:4002C0005608580459045A045B045D906040628064406540668068406A506BA86C406D206E506FA8810282019F01A103B101B601B702B980BF41C054C106C54CC620C70EBD
:40030000C83BC9FFCAFFCBFFCDAFCE07CF01D018D407D804D904DA04DB04E040E280E440E540E680E840EA50EBA8EC40ED20EE50EFA80302050209080A4010021801192006
:400340001A421F802308278129202B012F8036803E303F0240014301470148084C084D024E814F04562857035A045B625E105F886008610262086301660867047002830194
:40038000860487028801C011C20CC401CA8CCC10CE80D089D234D67FD86FE202E602AD200A0318012E01340236013E404016410349FF4AFF4BFF4DA04F0150185608580415
:4003C0005A045B045D906040628064406540668068406A506BA86C406D206E506FA887068801910498019F01A101A202B002B102B202B304B401B601B701B8A0BE50BF4498
:40040000C051C103C540C6C2C70EC81FC9FFCAFFCBFFCDAFCE07CF01D018D407D804D904DA04DB04E040E280E440E540E680E840EA50EBA8EC40ED20EE50EFA80010052080
:400440000B080E0410801780181119011B101C021D801E04210222442901308031023B08400143044580470448814B084F205108529059105A885E4061086210658077800E
:40048000811082C09B049D80B220B580B712C042C242C488CA01CC09CE02D05AD228D61ED816EC80B640EC4003403080364057025810C010CC30D480D62014109C10A48053
:4004C000A640A702AB40C420EC80090486408C80A480A640A702C210E6400C048702A104A702C220E2100301078009400F415680854087408B01C006C207D402E6049E806E
:40050000AB01B380EE049E80AA800B408104A104B004C210E020AF40EC400003010102100A020E010F011001110112101A011B01000F00000100E600850001001000000042
:400540001000000000000000007F7F000000000001000007060006000800000000000000000020004000104010000000000000000100000000000000040600000000000086
:4005800000000000400000000000000000000000000000000000000000000000000000000000000000000000000000000000000000000000000000000000000000000000FB
:4005C00000000000000000000000000000000000000000000000000000000000000000000000000000000000000000000000000000000000000000000000000000000000FB
:4006000000000000000000000000000000000000000000000000000000000000000000000000000000000000000000000000000000000000000000000000000000000000BA
:40064000000000000000000000000000000000000000000000000000000000000000000000000000000000000000000000000000000000000000000000000000000000007A
:40068000000000000000000000000000000000000000000000000000000000000000000000000000000000000000000000000000000000000000000000000000000000003A
:0200000490006A
:0400000000000006F6
:0200000490105A
:04000000BC90ACAF55
:0200000490303A
:02000000EF759A
:0200000490501A
:0C00000000010E13C06901010E26AFDEE6
:0200000490402A
:4000000000000000000000000000000000000000000000000000000000000000000000000000000000000000000000000000000000000000000000000000000000000000C0
:400040000000000000000000000000000000000000000000000000000000000000000000000000000000000000000000000000000000000000000000000000000000000080
:400080000000000000000000000000000000000000000000000000000000000000000000000000000000000000000000000000000000000000000000000000000000000040
:4000C0000000000000000000000000000000000000000000000000000000000000000000000000000000000000000000000000000000000000000000000000000000000000
:00000001FF
