:020000041008E2
:4000000000780408F90208100D0000006103081061030810610308106103081000000000000000000000000000000000512208105D03081000000000F1220810552308106E
:400040005D0308105D0308105D0308105D0308105D0308105D0308105D0308105D0308105D0308105D0308105D0308105D0308105D0308105D0308105D0308105D03081000
:400080005D0308105D0308105D0308105D0308105D0308105D0308105D0308105D0308105D0308105D0308105D0308105D0308105D0308105D0308105D0308105D030810C0
:4000C0005D0308105D0308105D0308105D0308105D0308105D0308105D0308105D0308105D0308105D0308105D0308105D0308105D0308105D0308105D0308105D03081080
:400100005D0308105D0308105D0308105D0308105D0308105D0308105D0308105D0308105D0308105D0308105D0308105D0308105D0308105D0308105D0308105D0308103F
:400140005D0308105D0308105D0308105D0308105D0308105D0308105D0308105D0308105D0308105D0308105D0308105D0308105D0308105D0308105D0308105D030810FF
:400180005D0308105D0308105D0308105D0308105D0308105D0308105D0308105D0308105D0308105D0308105D0308105D0308105D0308105D0308105D0308105D030810BF
:4001C0005D0308105D0308105D0308105D0308105D0308105D0308105D0308105D0308105D0308105D0308105D0308105D0308105D0308105D0308105D0308105D0308107F
:400200005D0308105D0308105D0308105D0308105D0308105D0308105D0308105D0308105D0308105D0308105D0308105D0308105D0308105D0308105D0308105D0308103E
:400240005D0308105D0308105D0308105D0308105D0308105D0308105D0308105D0308105D0308105D0308105D0308105D0308105D0308105D0308105D0308105D030810FE
:400280005D0308105D0308105D03081010B5054C237833B9044B13B10448AFF300800123237010BDF447020800000000C0270810084B10B51BB108490848AFF300800848F9
:4002C000036803B910BD074B002BFBD0BDE81040184700BF00000000F8470208C0270810BC420208000000007047EFF3108072B6704780F310887047FFF7F6FF72B6114C25
:40030000114DAC4209DA21686268A368043BA2BFC858D050FAE70C34F3E70C490C4A00209142BCBF41F8040BFAE70A480A490860BFF34F8F00F034F900F00EF900F02EF84C
:40034000FEE70000C4270810DC270810F4470208A87302080040020808ED00E0FEE7FEE700B504207146084202D0EFF3098001E0EFF30880043000F033FDFEE708B5064C7D
:400380000825A5604FF4FA7001F0CCFB65604FF4FA7001F0C7FBF2E70000324000B583B062B600230193012200924FF4C8720349034801F041FA01F071FAFEE7D425081038
:4003C0007D030810704700BF5C4AD2F8803303F00F0303F1D00152F8212002F00702032A04D0042A05D092B9554914E0554A116811E003F1C002514951F8222002F01F02A4
:40040000112A06D0132A04D04FF4FA4103E04E4901E04FF400418BBB484BD3F8902502F00100D3F88825C2F30172D3F8883513F0405F07D0414BD3F88835C3F30173012BE6
:4004400002D102E0012300E0002303B108B9032A46D13A48D0F88025C2F31103D0F88425C2F30C02D0F88005C0F300600130B1FBF2F202FB03F2B2FBF0F131E0012B2FD11D
:400480002E4BD3F8402602F00100D3F80026C2F30172D3F8003613F0405F07D0274BD3F80036C3F30173012B02D102E0012300E0002303B108B9032A12D12048D0F800268C
:4004C00002F07F02D0F80036C3F30423D0F80006C0F3044002FB01F2B2FBF3F2B2FBF0F1164BD3F88033C3F3011321FA03F215494A601648D0F89030C3F3072301330069B5
:40050000000E0130B2FBF0F08860B2FBF3F3CB600B6103F5742202F23F220D48A0FB0202C2F387420A7503F2E7330A4AA2FB03239B098B61DB03CB61704700BF000026406D
:4005400000127A008C42020800366E010000214083DE1B43D34D621008B5104BD3F8802122F0404242F08042C3F88021D3F8802142F00042C3F88021D3F8802122F001029B
:40058000C3F88021FFF71EFFFFF71EFF00F022F800F028F800F0ECFB08BD00BF0000264008B5FFF7A2FE074AD2F8883043F47003C2F88830BFF34F8FBFF36F8FFFF799FECF
:4005C00008BD00BF00ED00E008B5012000F03AFB08BD00BF08B500221146042000F0C0F808BD00BF10B5064800F076F900F055FC0446044800F0DCF9204600F052FC10BD1E
:4006000010480208E025081038B50C4B9A680C4B9A420ED10D46044619B9FC21094800F0CFFB04F11003064A52F8230042F8235038BD1030044B53F8200038BD00ED00E029
:4006400000400208142608100000081070B338B504460D464368072B03D93621154800F0AFFBB4F900306268002B08DB5201D2B203F1604303F5614383F8002305E003F0DD
:400680000F035201D2B20C49CA540C4B9A680C4B9A420DD11DB94521064800F091FB2946B4F90000FFF7B0FF002038BD05487047002038BD1426081014ED00E000ED00E07F
:4006C000004002080100560038B50369002B0DDA0D4604460B0C1B0423B140F2B321044800F06EFBA9B26160002038BD014838BD5826081001008A0038B50368002B01DAAE
:40070000002300E0094B73B90D460446C2600B0C1B0423B140F29A21054800F051FBA9B2A160002038BD014838BD00BF01008A005826081038B504460D4619B99921064804
:4007400000F03EFB2369002B03DAE3682B60002038BD024838BD00BF9826081001008A000F2840D8F8B515460E46044682B979B90F2804D940F2A911214800F021FB60013A
:4007800000F1804000F50C101E4B18600020F8BD5DB366B316F01F0F2BD10F2C04D940F2A911174800F00CFB640104F1804404F50C14144F3C607E60BD60F2080021284654
:4007C00001F0E1FE00212046FFF77EFF3A4652F8040B0021FFF790FF68B900213868FFF773FF50B9F8BD084870470748F8BD0648F8BD0548F8BD0548F8BD0448F8BD00BFD6
:40080000D82608109049020803018A0001018A002DE9F0411B4B1B68DC68236883422CD90D464609A0EB4610012303FA00F819B900F033FB074600E00027124B18680368B4
:40084000002B01DA002300E00F4B83B9626852F8263018EA030F05D023EA080342F82630002400E0094C0021FFF72EFF00E0084C25B9384600F015FB00E0064C2046BDE874
:40088000F08100BF9049020801008A00020188000301880004018A000B4B1B68DB681A6882420CD94109A0EB4110012202FA00F05B6853F82130184203D00448704704489D
:4008C00070470448704700BF904902080101880004018A0000018800024B1B680BB9014B186070479C4902082DE9F8430446884691461E46089F2A4B1B681BB9B42129489F
:4009000000F05EFA072C03D9B521264800F058FA234B1B682C2000FB04F01C18F5B21D50C6F307236360360CA6600F2D04D940F2A9111D4800F044FA6D0105F1804505F5BD
:400940000C15256165680F2D04D94FF4E271164800F036FA154B03EB45156561A668330C1B0423B14FF4F1710F4800F029FA330C1B0423B140F2E3110B4800F021FAB3B2FE
:4009800043EA0646AE60C4F81C90C4F820800023A36117B1B7F90030A381BDE8F88300BF9C49020818270810D826081000102340F0B58FB0044618B950212C4800F000FA7D
:4009C000A369072B03D95421284800F0F9F9E36A1BB95621254800F0F3F9E368072B03D95721224800F0ECF9236A072B03D958211E4800F0E5F9236B1BB959211B4800F0AE
:400A0000DFF907AE04F114050FCD0FC62F6802AD26460FCE0FC533682B60079B1933ADF83030089B0D93A26AE16A0CAD00953B460A98FFF759FF00210091069B0A46059855
:400A4000FFF752FF216B2846FFF700FEBDF93030002B08DB590903F01F03012202FA03F3034A42F821300FB0F0BD00BF1827081000E100E0F8B506460F461D4614461AB998
:400A8000FD21264800F09CF9254B1B681BB9FE21224800F095F9072E03D9FF211F4800F08FF9072F04D94FF480711C4800F088F91B4B1B682C2101FB063001FB07314B68DC
:400AC000012202FA03F31B04466802FA06F60269EAB18F69EFB91268002A01DA002200E0104AC2B92288134323600369DC6001238B614D620469330C1B0423B140F29A21AA
:400B0000094800F05DF9B2B2A2600020F8BD0748F8BD0748F8BD0648F8BD00BF182708109C49020801008A00D826081004028A0007028A00F8B505460F461646124B1B6886
:400B400023B940F26111114800F03AF9072D04D94FF4B1710D4800F033F90B4B1B682C2404FB0534236A23B94FF4B371074800F027F9E369B34204D9236A43F82670002066
:400B8000F8BD0348F8BD00BF9C490208182708100A028A0070B582B000230193044620B94FF4EA71264800F00BF9236923B940F2D511234800F004F9636923B94FF4EB7195
:400BC0001F4800F0FDF8236A23B940F2D7111C4800F0F6F86369DD682A0C1CD012041A601B6820690369002B15DA01A9FFF7A2FD60B9019803681E0CDBB2E269934206D284
:400C0000226A52F8233013B1984700E0002631462069FFF759FDADB275B16369ADB21D601B68636A1BB198470023636202E0A36A03B198470023A36163691B6802B070BDAF
:400C40001827081010B504460B4B1B6823B94FF4DA710A4800F0B4F8072C04D940F2B511064800F0ADF8044B1B682C2000FB0430FFF790FF10BD00BF9C490208182708104E
:400C80001F4B98422DD00CD840282ED003D8E8B1102828D02FE0802829D0B0F5807F28D029E0184B984228D006D8B0F1204F0DD0154B984212D01EE0144B98420AD001334F
:400CC000984209D0023B984215D101E0002070470F4870470F4870470F4870474FF4A0007047074870470D4870470D4870470D487047034870470C4870474FF4A4007047F3
:400D000006005200010000F0090000A0040000F0010052000200520003005200010050000200500005005200FF00520008B50C4B1B69002B12DB0B4B1868FFF7A1FF012247
:400D4000094BC3F88C24084BD3F80C34002BFAD1054BD3F88C34002BF5D108BD034808BD20002340A0490208000025400200500000B583B05523ADF80030002301930C4951
:400D80006846FFF763FCBDF90030002B08DB590903F01F03012202FA03F3064A42F82130022205490120FFF7C5FE03B05DF804FB3D43020800E100E01143020801BEFEE735
:400DC00038B50D46044C18220146204601F0E3FBA5610020FFF7F2FF60470208FEE700BF08B50268254BDA6142681A6282685A62C2689A620269DA6242691A6382695A6310
:400E0000C2699A631E4A916AD963D16A1964516A5964516B9964926BDA64F1EE103A13F0900F27D0026A154B1A65426A5A65826A9A65C26ADA65026B1A66426B5A66826BB2
:400E40009A66C26BDA66026C1A67426C5A67826C9A67C26CDA67026DC3F88020426DC3F88420826DC3F88820C26DC3F88C20026EC3F89020FFF7B2FF08BD00BF60470208D2
:400E800000ED00E0000000000230800803D001300238FCD100BF00BF7047EFF3108072B6704780F31088704700F1080343604FF0FF328260C360036100230360704700BFE4
:400EC00000230361704700BF43684B609A688A609A68516099600861036801330360704730B40D68B5F1FF3F01D1026907E000F1080200E01A4653681C68A542FAD253689C
:400F00004B6099608A605160086103680133036030BC704703694268816891608268416851605A68904201D182685A60002202611A68013A1A601868704700BF10B5044665
:400F400001F098F9A26BE36B9A4201D1012400E0002401F0B1F9204610BD00BF10B5044601F088F9A36B0BB9012400E0002401F0A3F9204610BD00BF70B504461646856B7A
:400F8000026CFAB166B9806801F0F2FAA268236C1344A3606268934214D32368A36011E0C06801F0E5FA236C5B42E2681A44E26021688A4202D262681344E360022E01D19F
:400FC00005B1013D0135A563002070BD026C72B110B50346C4681444C4604068844201D31868D8600846D96801F0C2FA10BD704738B5054601F03EF995F8454064B20AE0FF
:401000006B6A53B105F1240000F050FE08B100F0DBFE013C64B2002CF2DCFF2385F8453001F04AF901F026F995F8444064B20AE02B6953B105F1100000F038FE08B100F0DA
:40104000C3FE013C64B2002CF2DCFF2385F8443001F032F938BD00BF38B540B94FF03F0383F31188BFF36F8FBFF34F8FFEE704460D4601F0FFF82168E26B236C03FB0210EA
:4010800060600020A063A160013A02FB0313E360FF2384F8443084F845307DB92369ABB104F1100000F002FE80B14FF08052094B1A60BFF34F8FBFF36F8F07E004F1100069
:4010C000FFF7F2FE04F12400FFF7EEFE01F0F4F8012038BD04ED00E010B5029B0C4609B91B6000E01A60D8631C6401211846FFF7B3FF10BD40B94FF03F0383F31188BFF315
:401100006F8FBFF34F8FFEE7F0B583B0034611B101FB00F000E000201D4617460C46483001F0EAF9064638B100903B4600F1480221462846FFF7D0FF304603B0F0BD00BF5F
:40114000F0B585B0019240B94FF03F0383F31188BFF36F8FBFF34F8FFEE7044619B9026C1AB9012202E0012200E0002242B94FF03F0383F31188BFF36F8FBFF34F8FFEE71D
:40118000022B03D1E26B012A02D102E0012200E0002242B94FF03F0383F31188BFF36F8FBFF34F8FFEE71D460E4600F015FE18B9019B1BB9012302E0012300E0002343B908
:4011C0004FF03F0383F31188BFF36F8FBFF34F8FFEE7002701F04EF8A26BE36B9A4201D3022D21D12A4631462046FFF7C5FE636A6BB104F1240000F059FD88B14FF0805218
:40120000324B1A60BFF34F8FBFF36F8F08E038B14FF080522D4B1A60BFF34F8FBFF36F8F01F04AF801204EE0019B1BB901F044F8002048E01FB902A800F07CFD012701F0F8
:401240003BF800F069FB01F015F894F844305BB2B3F1FF3F02D1002384F8443094F845305BB2B3F1FF3F02D1002384F8453001F023F801A902A800F067FDF0B92046FFF784
:401280005DFEA0B1019904F1100000F0D7FC2046FFF7AEFE00F0CEFB00289BD14FF080520A4B1A60BFF34F8FBFF36F8F92E72046FFF79EFE00F0BEFB8CE72046FFF798FE2C
:4012C00000F0B8FB002005B0F0BD00BF04ED00E02DE9F84340B94FF03F0383F31188BFF36F8FBFF34F8FFEE7044619B9006C18B9012002E0012000E0002040B94FF03F0343
:4013000083F31188BFF36F8FBFF34F8FFEE7022B03D1E06B012802D102E0012000E0002040B94FF03F0383F31188BFF36F8FBFF34F8FFEE71F469046894601F09FF8EFF30C
:4013400011864FF03F0383F31188BFF36F8FBFF34F8FA26BE36B9A4201D3022F1ED194F845506DB23A4649462046FFF705FEB5F1FF3F0DD1636A9BB104F1240000F096FCB7
:4013800080B1B8F1000F0FD00120C8F800000CE06B1C5BB284F84530012006E0002004E0012002E0012000E0012086F31188BDE8F88300BFF0B585B0019240B94FF03F030B
:4013C00083F31188BFF36F8FBFF34F8FFEE7044619B9036C1BB9012302E0012300E0002343B94FF03F0383F31188BFF36F8FBFF34F8FFEE70E4600F0EFFC18B9019B1BB90C
:40140000012302E0012300E0002343B94FF03F0383F31188BFF36F8FBFF34F8FFEE7002700F028FFA56BC5B131462046FFF7CEFD013DA563236963B104F1100000F036FC5F
:4014400038B14FF08052304B1A60BFF34F8FBFF36F8F00F031FF012053E0019B1BB900F02BFF00204DE01FB902A800F063FC012700F022FF00F050FA00F0FCFE94F84430C4
:401480005BB2B3F1FF3F02D1002384F8443094F845305BB2B3F1FF3F02D1002384F8453000F00AFF01A902A800F04EFCF0B92046FFF754FDA0B1019904F1240000F0BEFBF6
:4014C0002046FFF795FD00F0B5FA0028A8D14FF080520D4B1A60BFF34F8FBFF36F8F9FE72046FFF785FD00F0A5FA99E72046FFF77FFD00F09FFA2046FFF730FD00288FD0B7
:40150000002005B0F0BD00BF04ED00E000230BE0074A52F8332032B9054A42F8331002EBC303586070470133092BF1D9704700BF5873020870B504460D46164600F09AFEA1
:4015400094F844305BB2B3F1FF3F02D1002384F8443094F845305BB2B3F1FF3F02D1002384F8453000F0A8FEA36B2BB93246294604F1240000F07CFB2046FFF739FD70BD11
:40158000094B9B6A1B680BB9012300E0002323B14FF0FF32044BDA627047034B9A6AD268D2685268DA627047E049020810B50446006B00F0D1FF204600F0CEFF10BD00BF4F
:4015C0002DE9F0478246894615469846089F099E0A9C9200A521206B00F0D5FF236B05F18042013A03EB820525F00705002308E019F80310E21882F8341019F8032012B13E
:4016000001330F2BF4D9002384F84330062F00D90627E762201DFFF753FC04F11800FFF74FFC2461C7F10703A3616462002306E003F1100204EB8202002151600133042B41
:40164000F6D90023A36584F85C3042465146284600F0E4FD206006B13460BDE8F08700BF70B5002407E004EB8402930010481844FFF71AFC0134062CF5D90E4C04F1BC0626
:401680003046FFF711FC04F1D0052846FFF70CFC04F11400FFF708FC04F1E400FFF704FC2046FFF701FCA662C4F8F85070BD00BF104A0208E049020838B5044600F0DAFDC3
:4016C000264BD3F8FC200132C3F8FC20D3F800314BB9224BC3F80041D3F8FC30012B10D1FFF7BEFF0DE01D4BD3F804314BB91B4BD3F80031DA6AE36A9A4202D8174BC3F849
:401700000041164AD2F808310133C2F80831E36AD2F80C21934202D9104AC2F80C310F4D05F1300003EB83039A00211D1044FFF7CBFB00F0C1FDD5F804316BB1D5F80031F1
:40174000DA6AE36A9A4207D24FF08052044B1A60BFF34F8FBFF36F8F38BD00BFE049020804ED00E038B517E000F084FD0D4CD4F8F030DD68281DFFF7CDFBD4F8FC30013B3B
:40178000C4F8FC30D4F81031013BC4F8103100F093FD2846FFF70AFF024BD3F81031002BE2D138BDE049020808B5FFF7DBFF064B1B6B012BF9D94FF08052044B1A60BFF3C1
:4017C0004F8FBFF36F8FF0E7E049020804ED00E070B504460E46174BD3F81451D3F800010430FFF797FBB4F1FF3F07D136B11148D0F800110431FFF767FB70BD2C440D4B4D
:40180000D3F800315C60A54208D90A4BD3F8F800D3F800110431FFF763FB70BD054DA86AD5F800110431FFF75BFBEB6A9C4200D2EC6270BDE04902082DE9F04385B006463E
:401840000F4615469846900000F056FE60B18146602000F051FE044610B1C0F8309004E0484600F079FE00E000248CB10023039302940D9B01930C9B009343462A46394695
:401880003046FFF79DFE2046FFF716FF012001E04FF0FF3005B0BDE8F08300BF00B583B0194B019300230093802218491848FFF7C3FF012801D100F0F5FA012814D14FF0DC
:4018C0003F0383F31188BFF36F8FBFF34F8F114B4FF0FF32DA620122C3F804210022C3F8142100F069FD0BE0B0F1FF3F08D14FF03F0383F31188BFF36F8FBFF34F8FFEE78C
:4019000003B05DF804FB00BFFC4A020858270810A9170810E0490208034AD2F818310133C2F81831704700BFE0490208014BD3F814017047E04902082DE9F0413C4BD3F800
:401940001831002B65D13A4BD3F814410134C3F81441CCB99B6A1B6843B14FF03F0383F31188BFF36F8FBFF34F8FFEE7304B9A6AD3F8F8109962C3F8F820D3F820210132BE
:40198000C3F82021FFF7FCFD294BDB6A9C4203D2002645E0012600E00026254B9B6A1B680BB9012300E0002323B14FF0FF32204BDA6235E01E4B9B6ADB68DD686B689C42CE
:4019C00002D21B4AD3622BE005F104084046FFF7A1FAAB6A1BB105F11800FFF79BFAEB6A134AD2F80C21934202D9114AC2F80C310F4F07F1300003EB83039A0041461044C1
:401A0000FFF762FAEA6AD7F80031DB6A9A42C1D2C3E7074AD2F824310133C2F824310026034BD3F8283103B101263046BDE8F081E0490208394BD3F8183143B94FF03F03A8
:401A400083F31188BFF36F8FBFF34F8FFEE770B500F010FC314BD3F81821013AC3F81821D3F81831002B52D12C4BD3F8FC303BBB00244FE0294D2B6ADC6804F11800FFF7F7
:401A800049FA261D3046FFF745FAE36AD5F80C21934201D9C5F80C31204D05F1300003EB83039A0031461044FFF70EFAE26AD5F80031DB6A9A4204D30122C5F8282100E050
:401AC0000024164B5B69002BD4D10CB1FFF758FD124BD3F8244164B1FFF72EFF18B101220E4BC3F82821013CF6D100220B4BC3F824210A4BD3F828315BB14FF08052084B52
:401B00001A60BFF34F8FBFF36F8F012402E0002400E0002400F0D0FB204670BDE049020804ED00E010B5B0B10446104BD3F8183143B14FF03F0383F31188BFF36F8FBFF3A5
:401B40004F8FFEE7FFF7E8FE00212046FFF740FEFFF770FF00E0002038B94FF08052044B1A60BFF34F8FBFF36F8F10BDE049020804ED00E0304BD3F8183123B101222E4BCB
:401B8000C3F82821704710B52B4B0022C3F82821D3F800311B6B1A68B2F1A53F0BD15A68B2F1A53F07D19A68B2F1A53F03D1DB68B3F1A53F07D0204BD3F80001D3F800116F
:401BC000343100F087FC1C4BD3F80C310AE043B94FF03F0383F31188BFF36F8FBFF34F8FFEE7013B03EB83018A0013490A44126B002AECD008469900CC18A2000244546B4C
:401C000064685463303019448A0008320244944206D1606803EB83018A0007490A445063054903EB830082000A44526BD268C1F80021C1F80C3110BDE049020840B94FF00A
:401C40003F0383F31188BFF36F8FBFF34F8FFEE710B50C46054BD3F800111831FFF740F901212046FFF7B4FD10BD00BFE049020838B540B94FF03F0383F31188BFF36F8F1F
:401C8000BFF34F8FFEE70C461546074AD2F800111831FFF719F90DB14FF0FF3429462046FFF796FD38BD00BFE049020838B5C368DC6844B94FF03F0383F31188BFF36F8F77
:401CC000BFF34F8FFEE704F118052846FFF722F9154BD3F81831ABB9251D2846FFF71AF9E36A114AD2F80C21934202D90E4AC2F80C3103EB83039A0029460C481044FFF794
:401D0000E3F803E029460A48FFF7DEF8E26A064BD3F80031DB6A9A4204D90120024BC3F8280138BD002038BDE0490208104A0208F4490208034BD3F820210260D3F81431BB
:401D400043607047E0490208F8B540B94FF03F0383F31188BFF36F8FBFF34F8FFEE7054641B94FF03F0383F31188BFF36F8FBFF34F8FFEE70C4600F07DFA124BD3F814018B
:401D80006968421A2368B3F1FF3F14D02F680D4ED6F82061B74201D088420ED29A4206D29B1A23602846FFF7C5FF002406E000232360012402E0002400E0012400F07CFA96
:401DC0002046F8BDE04902080122024BC3F82821704700BFE0490208064BD3F804312BB1044BD3F818311BB9022070470120704700207047E0490208064B1A681368B3FA5E
:401E000083F35B09036013B9D368186870470020704700BF0C4B020808B54160006191420AD8D21A83699A4211D2011D0A4B5868FFF756F8002008BD9A4201D2994208D265
:401E4000011D054B1868FFF74BF8002008BD012008BD012008BD00BF0C4B020870B500F009FA0E4B9B68B3B90C4C04F10C063046FFF71AF804F120052846FFF715F826609C
:401E8000656000220C210A20FFF734F9A06010B10349FFF73BFB00F00FFA70BD0C4B02086027081000B583B0FFF7D8FF0D4B9B6853B10D4B019303230093002380220B4990
:401EC0000B48FFF7B9FC00E0002040B94FF03F0383F31188BFF36F8FBFF34F8FFEE703B05DF804FB0C4B0208404B0208682708108921081040B94FF03F0383F31188BFF395
:401F00006F8FBFF34F8FFEE730B585B015460446124A9068F0B11A46019102950394052913DCFFF759FF022807D10023089A01A90A488068FFF704F90DE000231A4601A937
:401F400006488068FFF7FCF805E0002301A9FFF7BFF900E0002005B030BD00BF0C4B020870B582B029E0DB681E68DC68251D2846FEF7D0FF636A20469847E369012B1CD1C7
:401F8000A36933449E4207D2636024612946104B1868FEF7A5FF10E0002100910B4632462046FFF7A7FF40B94FF03F0383F31188BFF36F8FBFF34F8FFEE7054B1B681A684A
:401FC000002AD0D1024A51681160536002B070BD0C4B020838B50546FFF7A8FC0446074B9B6B984204D2FFF7BBFF01232B6001E000232B60014B9C63204638BD0C4B020894
:4020000070B582B005460E46134B1B68DB68DC68201DFEF77FFFE369012B18D1A1692B46324629442046FFF7F7FE80B1002100910B462A462046FFF75DFF40B94FF03F03AA
:4020400083F31188BFF36F8FBFF34F8FFEE7636A2046984702B070BD0C4B020870B582B006460C46FFF758FC01A8FFF7B3FF019B1BBB054644B9B04206D3FFF7DBFC294689
:402080003046FFF7BDFF1AE02CB10E4B5B681C68B4FA84F464092246711B0A4B9868FFF749FAFFF7C7FC50B94FF08052064B1A60BFF34F8FBFF36F8F01E0FFF7BBFC02B04E
:4020C00070BD00BF0C4B020804ED00E030B587B04DE0039B002B4ADB059C636913B1201DFEF718FF02A8FFF775FF039B092B3ED8DFE803F00505053D273A05053D270499A3
:40210000A5690B46024629442046FFF785FE70B3636A20469847E369012B28D1A269002100910B46049802442046FFF7E3FEF0B94FF03F0383F31188BFF36F8FBFF34F8F60
:40214000FEE70499A16141B94FF03F0383F31188BFF36F8FBFF34F8FFEE70346024601442046FFF759FE02E0204600F0F5F9002203A9044B9868FFF71DF90028A9D107B0FB
:4021800030BD00BF0C4B020800B583B001A8FFF733FE0199FFF762FFFFF798FFF6E700BF82B0002301930D4B1B68B3F1FF3F08D04FF03F0383F31188BFF36F8FBFF34F8FF2
:4021C000FEE74FF03F0383F31188BFF36F8FBFF34F8F019B002BFCD002B07047B042020808480068006880F308884FF0000080F3148862B661B6BFF34F8FBFF36F8F00DF73
:4022000000BF000008ED00E0DFF80C00016841F4700101607047000088ED00E04FF0807340F8043C21F0010140F8081C054B40F80C3C40F8202C6FF0020340F8243C4438C6
:40224000704700BFA12108100000000000000000074B19680868B0E8F04F80F30988BFF36F8F4FF0000080F311887047AFF30080E04A02084FF03F0383F31188BFF36F8FA8
:40228000BFF34F8F0A4A136801331360012B0DD1084B1B6813F0FF0F08D04FF03F0383F31188BFF36F8FBFF34F8FFEE7704700BFB042020804ED00E0094B1B6843B94FF045
:4022C0003F0383F31188BFF36F8FBFF34F8FFEE7013B034A13600BB983F31188704700BFB0420208000000000000000000000000EFF30980BFF36F8F154B1A681EF0100FFD
:4023000008BF20ED108A20E9F04F10602DE909004FF03F0080F31188BFF34F8FBFF36F8FFFF728FC4FF0000080F3118809BC19680868B0E8F04F1EF0100F08BFB0EC108A72
:4023400080F30988BFF36F8F704700BFAFF30080E04A020808B54FF03F0383F31188BFF36F8FBFF34F8FFFF7E7FA18B14FF08052024B1A60002383F3118808BD04ED00E010
:40238000084A0023136008490B60084B1B680849A1FB03139B09013B06490B6007231360704700BF10E000E018E000E098420208D34D621014E000E010B582B02A4B1A7803
:4023C000D2B20192FF221A701B78DBB28DF803309DF80330254A03F03F0313700723536009E0224A5368013B53609DF803305B00DBB28DF803309DF8033013F0800FF0D1F5
:402400001A4B5B68042B08D04FF03F0383F31188BFF36F8FBFF34F8FFEE71B0203F4E063124A5360019BDBB20F4A1370104B1A6842F47F021A601A6842F07F421A60FFF75A
:402440009FFF00240B4B1C60FFF7DEFE0A4A136843F040431360FFF7C3FEFFF78BFBFFF79FFE204602B010BD00E400E0484B020820ED00E0B042020834EF00E0EFF305839C
:402480000F2B0FD9104A9B5CDBB2104A1278934208D24FF03F0383F31188BFF36F8FBFF34F8FFEE70A4B1B6803F4E063074A5268934208D94FF03F0383F31188BFF36F8FC1
:4024C000BFF34F8FFEE77047F0E300E0484B02080CED00E008B54FF03F0383F31188BFF36F8FBFF34F8F4FF441710248FEF768FCFEE700BF7027081038B5044610F0070FC2
:4025000002D020F007040834FFF706FA104B1B682BB90F4A02F10C0323F0070313600D4BD3F814361C4442F2F772944208D8A34208D2074A15681D44064BC3F8144602E079
:40254000002500E00025FFF775FA284638BD00BF504B0208406D020840B14FF03F0383F31188BFF36F8FBFF34F8FFEE7704700BF10B5431E0A44914204D011F8014B03F8C7
:40258000014FF8E710BD02440346934202D003F8011BFAE7704710B5034642B111F8014B03F8014B013A002CF7D11A4400E010BD934202D003F8014BFAE710BDF8B500BF5B
:4025C000F8BC08BC9E467047F8B500BFF8BC08BC9E4670474C45445F5441534B00000000030000000100000001000000000000000503600004000000010000000000000070
:4026000001000000060460000800000070490208C905081047656E6572617465645F536F757263655C50536F43365C70646C5C647269766572735C70657269706865726125
:402640006C5C737973696E745C63795F737973696E742E630000000047656E6572617465645F536F757263655C50536F43365C70646C5C647269766572735C70657269705D
:40268000686572616C5C6970635C63795F6970635F6472762E68000047656E6572617465645F536F757263655C50536F43365C70646C5C647269766572735C7065726970A9
:4026C000686572616C5C6970635C63795F6970635F6472762E63000047656E6572617465645F536F757263655C50536F43365C70646C5C647269766572732F70657269709B
:40270000686572616C2F6970632F63795F6970635F6472762E68000047656E6572617465645F536F757263655C50536F43365C70646C5C647269766572735C706572697082
:40274000686572616C5C6970635C63795F6970635F706970652E630049444C4500000000546D725100000000546D72205376630047656E6572617465645F536F75726365C4
:402780005C50536F43365C70646C5C72746F735C4672656552544F535C31302E302E315C536F757263655C706F727461626C655C4743435C434D34465C706F72742E63000F
:4027C0000000000000000810004002088C020000E42708108C420208D4040000F4470208B42B00000048E80100127A0000093D0000127A0000127A0008000000401F000070
:402800000000A00F02FF0000AAAAAAAAB10208108D0208100000000080B2C200E8B10F4B1B68002BFBDA3E210D4B196041F61E7104331960A3F584730621C3F8181522F00E
:402840007F42C3F81C25D3F81C350022034B5A60044BD3F81C35002BFADA7047E0002340040126400000264008B54378FF2B0ED100F00AFA064BDB685A68136843F00103A3
:402880001360136813F0010FFBD100F0EDF908BD8000234038B54FF260034B4AD3589CB200F0F2F90546494B9A68631E032B00F28780DFE803F002234465032A06D1082214
:4028C000434B9A60414B9B68032BFBD03F4A13691069C0F307221B0E581C02FB00003D4B03FB00F03C4B1B683C4AA2FB03239B09B0FBF3F08230FFF78FFF61E0032A06D15E
:402900000822334B9A60314B9B68032BFBD02F4A13691069C0F307221B0E581C02FB00002C4B03FB00F02C4B1B682C4AA2FB03239B09B0FBF3F08230FFF76EFF40E0032A6D
:4029400006D10822224B9A60204B9B68032BFBD01E4A13691069C0F307221B0E581C02FB00001C4B03FB00F01B4B1B681B4AA2FB03239B09B0FBF3F08230FFF74DFF1FE02A
:40298000032A06D10822124B9A60104B9B68032BFBD00E4A13691069C0F307221B0E581C02FB00000B4B03FB00F00B4B1B680B4AA2FB03239B09B0FBF3F08230FFF72CFF3E
:4029C000284600F051F938BD0000254000002140A000234040420F0090420208D34D6210F8B505460E462A4B1B69002B1FDB002000F05AF9274B98421BD00023264A0121B9
:402A0000184600F029F918B1244C15E0013400E00024002000F048F91E4B984202D0204B9C42F3D91E4B9C4205D91C4C04E01B4C02E01A4C00E000243CBB00F025F90746CE
:402A4000184BD3F81C35002B11DA174A0121174800F0FAF868B93046FFF7DEFE5DB1134B1B69002BFBDB00F007F9044604E00B4C02E00A4C00E00E4C0121002000F00CF985
:402A80000028F9D1384600F0EFF82046F8BD00BFA000234001018800AC42020805005200EF49020000002640A04902082000234001005000394B1B68002BFBDA30B4374B45
:402AC000DA6842F00102DA60DB6813F0020F20D0324DEB689CB232490A69120A120402F47F02D1F890301B0A42EA03632343EB600B6923F47F4343F410630B61D1F890304A
:402B000023F47F4343F41063C1F890300B69D1F89030224B00225A605B68224A136943F004031361012801D030BF07E020BF1E4B1B7803B120BF01221B4B1A70184BD3F87B
:402B4000803003F00303022BE7D0144B1B68002BFBDA124BDB6813F0020F15D010490B6923F47F420D48C3681B0C1B0203F47F4313430B61D1F8903023F47F42C3681B0EB4
:402B800042EA0323C1F89030044BDA6822F00102DA6000225A6030BC704700BFE00023400000214000ED00E0B04902081E4A136943F004031361012801D030BF07E020BF77
:402BC0001A4B1B7803B120BF0122184B1A70184BD3F8803003F00303022BE7D0154B1B68002BFBDA144BD3F80C31C3B941F61E72124B1A60062203F582631A603E22A3F2A7
:402C000014431A60442203F583631A600C4B1B68002BFBDA4FF0AA32074BC3F80C210022044B5A60704700BF00ED00E0B049020800002140E00023400000254008012640ED
:402C40001C0526400000000001B40248844601BC604700BFF906081001B40248844601BC604700BF750A081001B40248844601BC604700BFA30E081001B40248844601BC0C
:402C8000604700BF2D0D081001B40248844601BC604700BF9B0E081001B40248844601BC604700BF1108081001B40248844601BC604700BF990808100000000000000000ED
:402CC00000000000000000000000000000000000000000000000000000000000000000000000000000000000000000000000000000000000000000000000000000000000D4
:402D00000000000000000000000000000000000000000000000000000000000000000000000000000000000000000000000000000000000000000000000000000000000093
:402D40000000000000000000000000000000000000000000000000000000000000000000000000000000000000000000000000000000000000000000000000000000000053
:402D80000000000000000000000000000000000000000000000000000000000000000000000000000000000000000000000000000000000000000000000000000000000013
:402DC00000000000000000000000000000000000000000000000000000000000000000000000000000000000000000000000000000000000000000000000000000000000D3
:0200000490303A
:020000008E323E
:0200000490501A
:0C0000000005E20721002101E218AF32E8
:00000001FF