:020000041008E2
:4000000000780408F90208100D00000061030810610308106103081061030810000000000000000000000000000000005D0308105D030810000000005D0308105D0308104C
:400040005D0308105D0308105D0308105D0308105D0308105D0308105D0308105D0308105D0308105D0308105D0308105D0308105D0308105D0308105D0308105D03081000
:400080005D0308105D0308105D0308105D0308105D0308105D0308105D0308105D0308105D0308105D0308105D0308105D0308105D0308105D0308105D0308105D030810C0
:4000C0005D0308105D0308105D0308105D0308105D0308105D0308105D0308105D0308105D0308105D0308105D0308105D0308105D0308105D0308105D0308105D03081080
:400100005D0308105D0308105D0308105D0308105D0308105D0308105D0308105D0308105D0308105D0308105D0308105D0308105D0308105D0308105D0308105D0308103F
:400140005D0308105D0308105D0308105D0308105D0308105D0308105D0308105D0308105D0308105D0308105D0308105D0308105D0308105D0308105D0308105D030810FF
:400180005D0308105D0308105D0308105D0308105D0308105D0308105D0308105D0308105D0308105D0308105D0308105D0308105D0308105D0308105D0308105D030810BF
:4001C0005D0308105D0308105D0308105D0308105D0308105D0308105D0308105D0308105D0308105D0308105D0308105D0308105D0308105D0308105D0308105D0308107F
:400200005D0308105D0308105D0308105D0308105D0308105D0308105D0308105D0308105D0308105D0308105D0308105D0308105D0308105D0308105D0308105D0308103E
:400240005D0308105D0308105D0308105D0308105D0308105D0308105D0308105D0308105D0308105D0308105D0308105D0308105D0308105D0308105D0308105D030810FE
:400280005D0308105D0308105D03081010B5054C237833B9044B13B10448AFF300800123237010BDE469020800000000DC9C0810084B10B51BB108490848AFF30080084856
:4002C000036803B910BD074B002BFBD0BDE81040184700BF00000000E8690208DC9C081088460208000000007047EFF3108072B6704780F310887047FFF7F6FF72B6114CB2
:40030000114DAC4209DA21686268A368043BA2BFC858D050FAE70C34F3E70C490C4A00209142BCBF41F8040BFAE70A480A490860BFF34F8F00F044FD00F01EFD00F01EF834
:40034000FEE70000307B0910487B0910E469020800D902080040020808ED00E0FEE7FEE700B504207146084202D0EFF3098001E0EFF30880043005F095F8FEE708B562B603
:4003800000F006FA00F082FA00F028FC00F0D6F900F032FB00F012FA00F06AF900F086FBFAE700BF00B58BB08DF8241000218DF8251006AA0791089109AB06930223ADF815
:4003C0001C30ADF8200001AB0491059107CA83E80700074B1A88ADF812201B7813B140238DF8143001A805F053FB0BB05DF804FB006A020800B587B08DF807000E4B5B7871
:400400000E4AD35C13F0FF0F13D100230393049305930DF1070302930123ADF80C300E23ADF81030044B1B88ADF8143002A811F029FC07B05DF804FB006A0208F0D80208A4
:400440000F4B5B780F4AD35C13F0FF0F16D100B585B0002301930293039300900323ADF804301823ADF80830054B1B88ADF80C30684611F007FC05B05DF804FB704700BF57
:40048000006A0208F0D802080F4B5B780F4AD35C13F0FF0F16D100B585B0002301930293039300900423ADF804301323ADF80830054B1B88ADF80C30684611F0E3FB05B0C4
:4004C0005DF804FB704700BF006A0208F0D80208F0B589B005AB0025069507950D4F3E1D05960422ADF818201322ADF81C2093E807008DE80700ADF80C503B88ADF80E30F2
:400500008DF81050684612F07FFA304600F084F909B0F0BD006A020808B50021024B19720F20FFF73FFF08BD006A020808B50021024B59721920FFF735FF08BD006A02080C
:4005400038B5074D0024AC7221461420FFF72AFF2C716C71AC71EC71FFF7BAFF38BD00BF006A020808B503681978012904D8034B19720F20FFF716FF08BD00BF006A0208A9
:4005800008B503681978012904D8034B59721920FFF708FF08BD00BF006A020810B504460389142B08D103681978012904D80F4B99721420FFF7F6FE0C4B9B7A012B02D192
:4005C0000B48FFF761FF2389132B0ED123681A78064B1A71226852785A71226892789A712268D278DA71FFF773FF10BD006A0208046A020845F20103984213D003D8B0F51A
:40060000805F0BD0704710B50C4645F2020398420CD045F20C0398420FD010BD0122134BDA7270470A88114B1A807047FFF774FFFFF77CFFFFF784FF10BD0B890F2B02D1F0
:400640000846FFF78FFF2389192B02D12046FFF797FF2389133B9BB2012B02D82046FFF79DFF024B186811F01BFB10BD006A020810B582B009F068FC2D4B1B88ADF8043041
:40068000C3F3072313B92B4AD35C00E00023022B26D1274B1B7B022B04D00220244B187300F0FCF8224B1B7A012B03D0204B5B7A012B3BD100F046FA0446037833B11C4B01
:4006C0001B7A012B02D18078FFF794FE63786BB3174B5B7A012B29D1E01CFFF7B1FE25E0154B1B78022B09D1114B1B7B012B1DD001200F4B187300F0D1F817E00C4B1B7B42
:40070000022B05D103200A4B187300F0C7F804E00020074B187300F0C1F8054BDB7A2BB10020034BD872014605F0F4F802B010BD006A0208DCD80208DDD8020808B50248A2
:4007400001F02CFA08BD00BFF50508100122014BDA727047006A02080B4B1B78022B09D0002070470949C95C012901D90132D2B2013301E000221346002BF3D00AB1002095
:4007800070470120704700BFDBD80208DCD8020808B5192000F028FB012000F02DFB48B10021012000F034FB002000F025FB0122014B1A7008BD00BF0D6A020810B582B0AF
:4007C0000F4B1868019000238DF8003002238DF801300C4B1B788BB10B4C01AA0B49204600F062FB6B460A4A0A49204600F074FB012302222146002000F02CFB02B010BD2A
:40080000E86408100D6A020808750208EC640810C44202089C7B0810C378032B0AD8194A0023C2F84C31C2F8CC31A2F58032C2F84C3170470278032A10D8417803290DD856
:40084000817803290AD80F4A0023C2F84C31C2F8CC31A2F58032C2F84C31704703FB02F25210417803FB01F14910807803FB00F31B040448C0F84C21C0F8CC11024AC2F866
:400880004C317047000039400000384008B501F0A1F901F0CFF901F0B5F908BD03282FD8DFE800F028020E1B2022164B5A60802203F5C0639A60144B00221A705A707047D2
:4008C0002022104B9A60802203F5C0639A600E4B01221A7000225A7070472022094B9A60802203F5C0635A60074B00221A7001225A7070472022034B9A600022024B1A70D5
:40090000704700BF800032400E6A0208124B1B787BB1114B9B7833B12022104B9A6000220D4B9A7005E020220C4B5A6001220A4B9A70094B5B786BB1074AD3780133DBB2E9
:40094000D370052B06D913460022DA705A708022034B9A60704700BF0E6A02088000324080063240054B5B7823B9044B1B781BB10120704701207047002070470E6A020814
:4009800008B50B4B01229A619B690A4BB3F90030002B09DB5A0903F01F03012101FA03F36032054941F82230FFF7B0FF08BD00BF00022640A48D081000E100E008B50B4B1E
:4009C0005A6910225A615B69094BB3F90030002B09DB5A0903F01F03012101FA03F36032044941F82230FFF7B1FE08BD00003240AC8D081000E100E010B5254C2549204657
:400A000003F054FF01232362234C2449204603F0B9FBB4F90030002B08DB5A0903F01F000121814060321E4840F82210002B08DB590903F01F03012202FA03F3184A42F803
:400A40002130134A536943F001035361002004F00DFD144C1449204603F094FBB4F90030002B08DB5A0903F01F000121814060320B4840F82210002B08DB590903F01F0347
:400A8000012202FA03F3064A42F8213010BD00BF00022640B48D0810A48D08108109081000E100E0AC8D0810BD09081008B5FFF753FE00283ED000F089F800283AD0FFF74B
:400AC00051FFC8B91C4A536923F00103536104F0CDFC1A4BB3F90030002B0DDB5A0903F01F03012101FA03F32032154941F82230BFF34F8FBFF36F8F002004F019FCFFF702
:400B0000C5FEFFF72FFFA8B90C4BB3F90030002B08DB590903F01F03012202FA03F3084A42F82130044A536943F001035361002004F09CFC08BD00BF00022640A48D0810ED
:400B400000E100E008B501F08BFDE0B901F0B6F8022001F047FB1A4B18700020194B187001F02CFB20B1174A137843F001031370012001F023FB20B1124A137843F0020349
:400B8000137001F0C7FD0E4B9A791B789A4204D00B4A93710123137102E00022084B1A71074B5A7A074B1B789A4204D0044A53720123537102E00022014B5A71024808BD8B
:400BC0008C420208126A02089042020808B501F047FD08B1002008BD012008BD08B501F053F808BD704700BF5C4AD2F8803303F00F0303F1D00152F8212002F00702032A71
:400C000004D0042A05D092B9554914E0554A116811E003F1C002514951F8222002F01F02112A06D0132A04D04FF4FA4103E04E4901E04FF400418BBB484BD3F8902502F03F
:400C40000100D3F88825C2F30172D3F8883513F0405F07D0414BD3F88835C3F30173012B02D102E0012300E0002303B108B9032A46D13A48D0F88025C2F31103D0F88425AA
:400C8000C2F30C02D0F88005C0F300600130B1FBF2F202FB03F2B2FBF0F131E0012B2FD12E4BD3F8402602F00100D3F80026C2F30172D3F8003613F0405F07D0274BD3F826
:400CC0000036C3F30173012B02D102E0012300E0002303B108B9032A12D12048D0F8002602F07F02D0F80036C3F30423D0F80006C0F3044002FB01F2B2FBF3F2B2FBF0F18E
:400D0000164BD3F88033C3F3011321FA03F215494A601648D0F89030C3F3072301330069000E0130B2FBF0F08860B2FBF3F3CB600B6103F5742202F23F220D48A0FB0202DA
:400D4000C2F387420A7503F2E7330A4AA2FB03239B098B61DB03CB61704700BF0000264000127A009842020800366E010000214083DE1B43D34D621008B5104BD3F880218F
:400D800022F0404242F08042C3F88021D3F8802142F00042C3F88021D3F8802122F00102C3F88021FFF71EFFFFF71EFF00F0DCFE00F0E2FE04F00EF908BD00BF0000264091
:400DC00008B5FFF792FA074AD2F8883043F47003C2F88830BFF34F8FBFF36F8FFFF789FA08BD00BF00ED00E010B5044600F04AF9204600F0EDF910BD08B510B100F082FD83
:400E000001E000F0A1FD08B9012008BD002008BD38B504460D4611B10120FFF7EDFF44B10321002000F000FA0321002000F0FCF909E044B9064C0321204600F0F5F9032158
:400E4000204600F0F1F915B10020FFF7D5FF38BDFFFF0F10F8B507460E4614461D4613B10120FFF7C9FF24B93146384600F0EEFB15E0631EDBB2012B11D80021384600F070
:400E8000D3F9012C07D10121384600F0CDF90221304600F0C9F90321304600F0C5F915B10020FFF7A9FFF8BDF8B507460E46154694780DE02A7804EB4410104480B26B784F
:400EC0009A1A92B23118384405F0CCFA0134A4B2EB789C42EED9F8BD2DE9F0478A4680E01D78167AB5426AD25E78577ABE4266D2177992F807E092F805C00EFB06C692F8CF
:400F000006C006EB461605FB0C653D44AFB2A4F12105EDB25D2D4ED8213C1EFB0CFE1EFB04FE1FFA8EFC4FF0000E23E01FFA86F81FFA8EF404EB44153D444544ADB209FBCC
:400F400004C44444A4B2917A21B111680C5DE443445503E011B911680C5D44550136F6B200E0002692F806904E45DFD30EF1010E5FFA8EFED479A645F3D320E006EB46149E
:400F80003C442C44A4B292F80AE0BEF1000F04D04FF0FF0E00F804E003E04FF0000E00F804E00135EDB200E000259479A542E5D30136F6B200E00026D479A642F4D31C78B6
:400FC0000134E4B21C70157AAC4204D300241C705C7801345C705D78547AA54206D80AF1010A9AF80040002C7FF47AAFBDE8F0872DE9F04180460E4615460F4C0827676090
:40100000702000F03BFD404600F038FDA7606760722000F033FD05E0771C307800F02EFD25463E466B1E9CB2002DF5D10822024B9A60BDE8F08100BF0006324000B583B033
:4010400002AB03F8011D01221946FFF7D1FF03B05DF804FBF8B507460E46094C08256560702000F00BFD384600F008FDA5606560732000F003FD304600F030FDA560F8BD31
:401080000006324038B50425084B5D60084C402363601023636000F0C1FC0822054B5A6065602023636000F0A3FC38BD00003240800232400006324010B5434C6F2200210E
:4010C000204605F0DAF9631C236704F14E03636704F12203A36700F08BFC03E000F092FC032868D800F02EFD0028F7D100F090FC00217220FFF7AEFF00F00F0002285CD10F
:401100004021FFF79BFF00210F20FFF7A3FF10F0800F54D002210B20FFF790FF08222B490120FFF765FFD1210720FFF787FF02210820FFF783FFC2210920FFF77FFF03213B
:401140000420FFF77BFF01210320FFF777FF00210320FFF773FF0A2004F070F9002400E01C4601210520FFF769FF642004F066F903210520FFF762FF322004F05FF90F21A7
:401180000520FFF75BFF322004F058F900210F20FFF760FF10F0400F05D040210220FFF74DFF234603E0631C9BB2042CD8D1032B07D9052010BD012010BD022010BD0320A4
:4011C00010BD002010BD00BF146A0208548D081010F1090F0EDB10F1040F0EDB05280FDD0A2810DD0F2811DD142811DD282811DC5A2210E04FF496620DE04FF461720AE09E
:401200004FF4167207E04FF4A57204E0DC2202E0B42200E03C22034BA3F87C20A3F87E20704700BF146A02082DE9F84F06460D46047828B1CA4B984205D10127002403E0C9
:401240000127FF2400E0002700F0D2FB4FF00008D0E1C8EBC80AC8EB0A1ADFF80C930AEB090B6F220021584605F007F90BF1010EBC4BC3F870E00AF1480048440630586766
:401280000AF1200AD14409F10209C3F878902022002397E10FB934780136032D00F29081DFE815F004006500C600270100EB030C14F0400F01D0C02100E080218CF800103A
:4012C00049B214F0100F02D04FF0300A01E04FF0200A4AEA01018CF8001014F0040F02D04FF00C0A01E04FF0080A4AEA01018CF8001014F0010F02D04FF0030A01E04FF0E5
:40130000020A4AEA01018CF800100EEB020C14F0800F01D0032100E002218CF8001049B214F0200F02D04FF00C0A01E04FF0080A4AEA01018CF8001014F0080F02D04FF034
:40134000300A01E04FF0200A4AEA01018CF80010013A92B214F0020F02D06FF03F0A01E06FF07F0A4AEA01018CF8001028E100EB030C14F0400F01D0802100E040218CF8F1
:40138000001049B214F0100F02D04FF0200A01E04FF0100A4AEA01018CF8001014F0040F02D04FF0080A01E04FF0040A4AEA01018CF8001014F0010F02D04FF0020A01E07C
:4013C0004FF0010A4AEA01018CF800100EEB020C14F0800F01D0022100E001218CF8001049B214F0200F02D04FF0080A01E04FF0040A4AEA01018CF8001014F0080F02D07F
:401400004FF0200A01E04FF0100A4AEA01018CF80010013A92B214F0020F02D06FF07F0A01E04FF0400A4AEA01018CF80010C7E000EB030C14F0400F01D0C02100E04021D6
:401440008CF8001049B214F0100F02D04FF0300A01E04FF0100A4AEA01018CF8001014F0040F02D04FF00C0A01E04FF0040A4AEA01018CF8001014F0010F02D04FF0030A03
:4014800001E04FF0010A4AEA01018CF800100EEB020C14F0800F01D0032100E001218CF8001049B214F0200F02D04FF00C0A01E04FF0040A4AEA01018CF8001014F0080FAA
:4014C00002D04FF0300A01E04FF0100A4AEA01018CF80010013A92B214F0020F02D06FF03F0A01E04FF0400A4AEA01018CF8001066E000EB030C14F0400F01D0802100E076
:40150000C0218CF8001049B214F0100F02D04FF0200A01E04FF0300A4AEA01018CF8001014F0040F02D04FF0080A01E04FF00C0A4AEA01018CF8001014F0010F02D04FF05A
:40154000020A01E04FF0030A4AEA01018CF800100EEB020C14F0800F08D0022107E000BFFFFF0F10146A0208B88B020803218CF8001049B214F0200F02D04FF0080A01E051
:401580004FF00C0A4AEA01018CF8001014F0080F02D04FF0200A01E04FF0300A4AEA01018CF80010013A92B214F0020F02D06FF07F0A01E06FF03F0A4AEA01018CF80010F1
:4015C00001339BB2202B7FF665AEC8F1AF031BB299101A4A134003D5013B63F003030133174A02FA83F31B7A09F8013008F101081FFA88F8B8F1AF0F7FF62BAE00240FE061
:40160000C4EBC403C4EB03136F220E4919440A20FFF7EEFC07210220FFF710FD0134A4B2AF2CEDD9084BB3F87C4000F0EBF98442E4D800F0EDF9BDE8F88F00BF0300008053
:40164000548D0810B88B0208146A02082DE9F04706460D4600F0CCF9D2210920FFF7EEFC0024C6E0C4EBC407C4EB0717DFF8008207EB08096F220021484604F0FEFE09F168
:40168000010C784BC3F870C007F1480EC6440EF1060EC3F874E02037B84408F10208C3F87880202000218EE0771C32786E1C95F800900EEB010582EA090212F0400F04D09E
:4016C00019F0400F03D0802302E0402300E0C0232B705BB212F0100F05D019F0100F05D04FF0200A04E04FF0100A01E04FF0300A4AEA03032B7012F0040F05D019F0040F9E
:4017000005D04FF0080A04E04FF0040A01E04FF00C0A4AEA03032B7012F0010F05D019F0010F05D04FF0020A04E04FF0010A01E04FF0030A4AEA03032B700CEB000512F0F9
:40174000800F04D019F0800F03D0022302E0012300E003232B705BB212F0200F05D019F0200F05D04FF0080A04E04FF0040A01E04FF00C0A4AEA03032B7012F0080F05D034
:4017800019F0080F05D04FF0200A04E04FF0100A01E04FF0300A4AEA03032B70013880B212F0020F05D019F0020F04D06FF07F0203E0402201E06FF03F0213432B70013155
:4017C00089B235463E4620297FF66EAFC4F1AF031BB29910244A134003D5013B63F003030133224A02FA83F31B7A08F801300134A4B2AF2C7FF636AF002421E0C4EBC40594
:40180000C4EB05151A4B1D446F2229460A20FFF7EFFB07210220FFF711FCC4F1AF0343F38D032B44002283F822206F2229460A20FFF7DEFB07210220FFF700FC0134A4B287
:40184000AF2CDBD9074BB3F87E4000F0DBF88442D2D800F0DDF8C2210920FFF7EFFBBDE8F08700BF146A020803000080548D0810B88B0208002307E01349086F5522C254A4
:40188000496FCA5401339BB2202BF5D970B5002416E0A6080C4DAA6F04F003030B490B441B7A93556F2229460A20FFF7A1FB07210220FFF7C3FBAB6F00229A550134A4B2CF
:4018C000AF2CE6D970BD00BF146A0208548D081008B5002304E00021094AD1540133DBB2152BF8D900210420FFF7A8FB6F2204490A20FFF77DFB07210220FFF79FFB08BDBF
:40190000146A020838B50E4C1023A360142003F095FD00F09BF808220A4B9A604023A3600425A5600A2003F089FD65600A2003F085FDA5600A2003F081FDFFF7BDFB38BD0F
:40194000800232400006324038B5FFF793FFFFF7BFFF1E2003F072FD234C40256560322003F06CFDA56000210F20FFF773FB10F0400F36D000210B20FFF760FB01210320FB
:40198000FFF75CFB03210520FFF758FB01210520FFF754FB322003F051FD80210420FFF74DFB00210520FFF749FB01210720FFF745FB1E2003F042FD00F056F81023636083
:4019C0006560142003F03AFD0822084B5A60042363602025A5601E2003F030FD6560002038BD042038BD00BF800232400006324008B50022024BC3F8082102F089FB08BD92
:401A000000003840014BD3F808017047000038400122014B5A6070470000384010B5074C074A0849204603F005F9236843F0004323600822044B9A6010BD00BF000067404C
:401A4000B4D802086C930810000632400822044B9A60044A136843F000431360704700BF000632400000674008B50249024803F027FA08BDB4D802080000674008B501461B
:401A8000154803F0C3F8144BD3F8C03F13F0040FF9D0114BD3F8042242F48032C3F80422D3F8042222F48032C3F80422D3F80422D3F8042342F48032C3F80423D3F80423C4
:401AC00022F48032C3F80423D3F804230422C3F8C02FD3F8C03F08BD0000674008B50146174803F093F8164BD3F8C03F13F0040FF9D0134BD3F84003D3F8042242F4803214
:401B0000C3F80422D3F8042222F48032C3F80422D3F80422D3F8042342F48032C3F80423D3F8042322F48032C3F80423D3F804230422C3F8C02FD3F8C03FC0B208BD00BF5F
:401B400000006740044B1B6913F0080F01D0012070470020704700BF8002324008B5012002F02AFE08BD00BF08B500221146042002F092FB08BD00BF10B5064802F048FC7C
:401B800003F0EBFC0446044802F0AEFC204603F0E8FC10BD946A0208608D081088B108B5094AD062094B1B7833B9104603F062FD0122064B1A7000E0002020B903F07EFDC7
:401BC00008BD0348704708BDD0420208146C02080100160008B5084B1B783BB9074A0121074802F05DFF0122034B1A70044B02229A609A6108BD00BF206C02085C90081074
:401C00000000394008B5084B1B783BB9074A0121074802F045FF0122034B1A70044B02229A609A6108BD00BF216C0208C09008100000384008B5084B1B783BB9074A032132
:401C4000074802F02DFF0122034B1A70044B08229A609A6108BD00BF226C0208249108100000394008B5074B1B7833B900F068FA00F0D4FA0122034B1A7000F059F800F062
:401C8000BDFF08BD236C020810B5FFF7EBFF044610B900F0B1FE044614B900F029FE044614B900F037FD044600F0DAFC0028FBD100F096FB00F004FB204610BD70B5194D18
:401CC0000026344629E063090433174A52F8233004F01F02D34013F0010F1CD0EB7E012B02D0022B09D011E0284600F0B3F806462946204600F0EAF90DE0284600F086F84F
:401D000006462946204600F019F904E04FF4B771064803F0B7FB30350134022CD3D9304670BD00BFEC91081008D8020888910810F8B500230AE0204A191D02EB81000024CC
:401D400044604FF0FF3042F821000133002BF2D01A4C03232CE06668A27E174B2B4400211976012A03D00AB3032A07D91EE02069E0B1228BF17904F080FB17E023690BB129
:401D8000F2791A70676800260EE006F1080307EB43034FF6FF725A80A06A20B1114600EB460002F0B1F90136002EEED030342B465D1E002BCFD1F8BD08D80208EC91081010
:401DC00010B582B004460846638802A921F8083D1346228A04F0CAFABDF8003063809DF8023023719DF8033063719DF80430A37102B010BD30B40B884A889C1A0025CD8017
:401E00000079844200DDCC8030BC70472DE9F843C5688468038B4768867E4FF0000911E032462146284600F033FB32462146384600F044FB814621463846FFF7DBFF0A3402
:401E40000A35434603F1FF38002BE9D14846BDE8F88300BF2DE9F04F83B08146837E062B02D14FF0010B01E04FF0000BD9F80C80D9F80840D9F804709A46D9F8246000253E
:401E8000019520E052462146404600F001FB3246398A208804F092FA2A4631463846FFF78FFF0C3652462146384600F007FB019021463846FFF79EFF0A34BBF1000F01D14A
:401EC00008F10A080135B9F818309D42DAD3019803B0BDE8F08F00BFF0B50C8B8D684F680A69012324E010EA030403D17E88B979314402E07988BE79891BEE88B14201D3ED
:401F0000002100E01946A14202D01678013E1670A14201D014783CB920EA0300084309B9F97900E0012111705B000A350132744604F1FF3E002CD6D1F0BD00BF38B50446C6
:401F40008A7E154B03441D7E012A04D12846FFF7C3FF054604E04FF43871104803F092FA0D4B23441D76620904F01F04012303FA04F445B90432084B03EB8202536823EA51
:401F80000404546038BD0432034B03EB820253681C43546038BD00BF08D80208B49108102DE9F04F83B088460B8B8A684F68D1F810E08E6A844618B97C88B9790C4402E068
:401FC0007988BC790C1B0025012109E0D3889C4201D3002300E00B461D430A3249000346581E002BF2D155B19EF8003013B1013B8EF800309EF8003023B1654602E0FB7944
:402000008EF80030002D4AD07A88BB79B8F81890D21A4946D8F8080001F0C8FF044600284DD098F81A30022B49D100234A46D8F8201001A802F026F80446D8F814A0D8F850
:4020400028904FF0000827E001AB33F818B008F1080307EB43035A884FF6FF739A4204D15946484602F050F809E01AF0400F06D0B9F800305B44A9F800B0C3F34E0B08F1DD
:40208000080307EB4303A3F802B0B9F1000F01D009F1020908F101084445D5D80FE000240DE004F1080307EB43034FF6FF725A8026B1114606EB440002F026F80134002C2D
:4020C000EFD0284603B0BDE8F08F00BF38B504468A7E194B03441D7E012A03D062B1032A05D909E02846FFF7F7FE054609E02846FFF756FF054604E040F226410F4803F03B
:40210000C1F90D4B23441D76620904F01F04012303FA04F445B90432074B03EB8202536823EA0404546038BD0432034B03EB820253681C43546038BD08D80208B491081087
:4021400070B51C4CA4220021204604F096F949F6B00323804FF41063638040F63543A3800623A3830423A3770223E377124E203406F198050FCD0FC40FCD0FC40FCD0FC49F
:4021800095E8030084E80300304606F1080403230CE0A268238B04E010F8013B53720A320B46591E002BF7D130342B465D1E002BEFD170BD08D80208E491081002280DD81B
:4021C00000F01F02012303FA02F24009031D044800EB83035B6802EA030070470020704708D80208022811D800EB400213010A4A134493F82230023BDBB2012B09D800EBCB
:40220000400003011344DB68588A70474FF6FF7070474FF6FF707047E49108100023024AD380024A1360704708D80208BC6C0208C9B2062902D083180021197130F8121064
:4022400000EB42035980024400231372704700BF70B506460D46012305E0224629463046FFF7E6FF23465C1E002BF6D170BD00BF70B5084D43001A18140122462C44A66851
:4022800001EB81014C002A44917E3019FFF7E0FF70BD00BFEC91081038B5054600EB40021301064A13441B8B04E021462846FFF7DFFF23465C1E002BF7D138BDEC91081095
:4022C00010B5032303E02046FFF7E6FF23465C1E002BF8D110BD00BF70B401230DE0D3B2062B09D031F81460A30023445D004319465331F814505D8023465C1E002BEED178
:4023000070BC704770B4012410E0D4B2062C0CD031F813609D001D446C000444A68031F81350E58031F8135025811C46631E002CEBD170BC704700BF2DE9F04F83B0054616
:402340004200024413011F4A13445A6801921B8B32E06A002A4413011A4A1344D3F808B004EB84024FEA42080BEB080AD86881465E6A04EB44018A0016449F7E062F01D0C0
:4023800000EB08093A4651464846FFF7A5FF3A4651464846FFF7B6FF05EB45021301094A1344DB7E012B06D13246019B198A3BF8080003F0F7FF23465C1E002BC9D103B00B
:4023C000BDE8F08FEC91081010B5032303E02046FFF7B2FF23465C1E002BF8D110BD00BF08B5FFF7F1FF08BDF0B4012319E0D3B2062B15D031F81460A70027447B000344B1
:402400009D883544DF88EE191D8935441F819E88DE8031F814609E80C5F38F0321F8143023465C1E002BE2D1F0BC7047884202D9034608461946914200D91146884238BF68
:40244000084670472DE9F04707460E469046012319E05FFA88F3062B14D0A30023445D0007EB050937F805A0B9F80220514636F81400FFF7DBFFA9F802A036F814307B5353
:4024800026F8140023465C1E002BE2D1BDE8F08770B504460D461646FFF7D4FF324629462046FFF7A1FF70BD00FA03F3C2F5807001FB00F102FB0310000A70472DE9F0417A
:4024C00007460D461646012338E035F8140005EB44035988884207D3421A2B194FF0000E83F808E0012301E00A1A00238BB97B799A420ED92B191B7A3A7A934205D322466E
:4025000031462846FFF794FE17E02A190133137213E0F3B2062B10D005EB040898F804E0082301224EEA0121FFF7BEFFC0F30F2205EB44035A8088F8040023465C1E002B40
:40254000C3D10020BDE8F08130B49F280ED940F2FE3399420AD9244CA1FB04454B1B05EB53035B0AC3EB832399422FD09F280DD9B1F5FF7F0AD91D4CA1FB04454B1B05EBF2
:4025800053031B0AC3EB4323994221D09F280CD97E290AD9164CA1FB04454B1B05EB53039B09C3EBC313994214D09F2814D93E2914D9104CA1FB04454B1B05EB53035B0957
:4025C000C3EB831399420BD000200AE0042008E0032006E0022004E0002002E0002000E0012030BC704700BF051040002140800011080402054110044A1E032A01D81023E7
:4026000000E0002379B183B1642202FB03F3B3FBF0F3002001E001305B00092BFBD90A2B04D9013802E0002000E00020C0B2704708B5084A536823F0F853536002F5A02290
:4026400002F50E72136823F00103136000F000FF08BD00BF7000314008B501F045FC08BD024BD86800F08000704700BF08D8020810B5174BDB6813F4803F0ED102280ED85A
:4026800043090433124A52F8233000F01F02D34013F0010F05D1012404E0112402E0012400E000248CB900EB40021301094A1344DB7E022B02D101F029FC06E0012B02D1C4
:4026C00000F0D8FE01E04FF0FF34204610BD00BF08D80208EC91081008B50C4BDB6813F4803F0DD10A4B1B78012B05D0022B09D101F0DCFA002008BD00F00CFE002008BDDA
:40270000112008BD4FF0FF3008BD00BF08D80208C06C0208124BDB6813F0800F1AD110B500244FF0FF3312E02046FFF7A1FF034660B9012C03D801220A4B5A7002E000227C
:40274000084B5A70FFF7C8FF034606E00134022CEAD902E0112318467047184610BD00BF08D80208C06C0208124B1B78834220D010B50446012B02D1FFF75AFF03E0022BE3
:4027800001D1FFF769FF012C05D100F045FC0122084B1A7010BD022C05D101F0E3F80222044B1A7010BD032C02D00022014B1A7010BD7047C06C020830B583B00025074C0B
:4027C00008E02179002300930E22206802F028FC08340135082DF4D903B030BDB492081010B51C4A93780133DBB293709078FFF73FFF044650B9174B9B78DBB2022B02D1D6
:402800000022144B5A70FFF767FF1FE0114B9B78DBB2022B11D1104B1A8901321A81DA6822F08002DA60DA6822F07F42DA60DA6842EA0064DC60002408E0074BDA6822F0FC
:402840007F42DA60DA6842EA0062DA60002CC8D110BD00BFC06C020808D8020810B50146124BB3F90030002B0DDB5A0903F01F03012404FA03F320320D4840F82230BFF316
:402880004F8FBFF36F8F094C204601F07BFCB4F90030002B08DB590903F01F03012202FA03F3034A42F8213010BD00BF948D081000E100E070B5022801D8002500E001253F
:4028C00095B9044600EB40021301084A1344DE7E022E02D1282101F0EDF8012E04D15521204600F09BFE0546284670BDEC91081038B50024254604E02046FFF7DBFF054316
:402900000134022CF8D9284638BD00BF70B500241CE004EB440213010E4A1344DB7E012B13D104EB440213010A4AD658002504E006EBC50000F03AFD013504EB440213016B
:40294000044A13441B7E9D42F2D30134022CE0D970BD00BFEC91081000EB40000301024A13445B6858897047EC91081000EB40000301024A13445B6859817047EC9108105B
:40298000C0EB0032012303FA01F101398A4205D9C0EB0020814203D30520704706207047002070472DE9F04180460E46FFF7D4FF07460022318800F0EFFB01463846FFF768
:4029C000C3FD054620B931887800FFF7D9FF054629463846FFF710FE04466B1FDBB2012B03D839464046FFF7C1FF2001C0B228433073BDE8F08100BFF0B58BB04FF47A730F
:402A0000ADF8003040F2C343ADF802304FF49673ADF80430584B9A7F46F2A813B3FBF2F3ADF80C3000F0F8FA0024264655E004EB44021301514A1344DB7E012B46D104EBFD
:402A4000440213014D4A13445D680C232B8000232B73BDF80C304A4AA2FB03235B092F4627F80A3F5521204600F0D8FD0497454B1B788DF81830444B1A884FF47A7303FB9A
:402A800002F2424BA3FB0213D21A03EB5203C3F3CF23ADF80E30684603F010FC3C4B984203D9062601E05B006B81BDF80C106B8941F2707202FB03F29142F4D8032BF2D986
:402AC0000AAB03EB840343F80C0C05E001220AAB03EB840343F80C2C0134022CA7D900242AE004EB44021301244A1344DB7E012B21D104EB44021301204A13445D685521D9
:402B0000204600F08BFD064305F10A0304930AAB03EB840353F80C3C02931A4B1B788DF81830EB89ADF8063005F110030593684603F0EAFB28800134022CD2D9002416E077
:402B400004EB440213010D4A1344DB7E012B0DD104EB44021301094A134459682046FFF721FF5521204600F059FD06430134022CE6D930460BB0F0BD08D80208EC910810E1
:402B8000F1197605804402088244020801011000870D0100F8B5002428E0620022441301144A13445D68DB7E012B02D0022B05D016E029462046FFF7F5FE16E02E882046FD
:402BC00001F0EAF907463146FFF7BEFC064601463846FFF711FD0001C0B23043287304E040F21E71044802F04DFC0134022CD4D9F8BD00BFEC9108104093081008B5FFF714
:402C0000C9FFFFF7D9FD0020FFF7AEFD002008BD10B51B4B5A6822F0F8525A60194C80226260A26A22F0704242F0C042A2621A6822F4F8521A6002226260A26A22F0F00234
:402C400042F06002A2621A6822F4F8121A6004236360A36A23F4706343F4C063A362012002F004FCA36A23F07043A362A36A23F0F003A362A36A23F47063A36210BD00BFD5
:402C800070003140800332400F4B1B7803EB43031A010E4B1A4453680D4AD2F8D02091B2188801238340013B994206D2094B1B680949097823F811207047064A1268064900
:402CC000097822F811307047C26C0208EC91081000003640ACD80208FC92081038B5244A1378244C03EB4303190121444868137803EB43031A012244127E013A1E4B1B780A
:402D0000DBB29A421CD91C4C23780133DBB22370174D2B7803EB43031A01164B1A449168237803EB83035A000A44144B1A6000F00BFA2878217800F027FB00F06FFA38BDB2
:402D400000220D4B1A700E4AD36823F48033D3600C4B1B78012B02D1FFF742FD38BD084BDA6822F08002DA601A8901321A8138BDC26C0208EC910810C86C0208ACD802084A
:402D800008D80208C16C020808B5094B4FF483721A601B68FFF778FF064A138901331381D36823F4803323F08003D36008BD00BFF000364008D8020810B50C4B1B7803EB4C
:402DC00043031A010A4B9B580A4A147803EBC404094B4FF483721A601B68FFF755FF204600F0E4FAFFF77AFF10BD00BFC26C0208EC910810C86C0208F0003640013908439C
:402E0000014B1860704700BF000236400E4B1B6823F4F8730D4A917F0D4AB2FBF1F20D498A4204D843F02003074A136070470A498A4204D843F03003034A1360704743F05A
:402E40004003014A136070477C44020808D8020840787D01001BB70000366E01044A054B1A604FF0A17203F580731A60704700BF0000430100043640084A136803F07F03F4
:402E800043F0A17343F48033136002F58072136803F07F0343F480031360704700043640074A136843F0805343F001031360054A054B1A604FF0A17203F580731A60704734
:402EC000A8023640000043010004364010B40488012000FA04F4013C04EB840303FA00F00C4BA3FB00035B0901335818844200D220468B4201D8C91A00E00021914203D8BB
:402F0000904203D2062002E0062000E000205DF8044B70471F85EB510023164A136002F5927213600432136006212C3A11604FF48071083A11600121903A1160A2F58072A9
:402F40004FF48371116012680B4A136003220B4B1A604FF47A7300E0013B094A126812F0040F01D1002BF7D113B90822034B1A60704700BF8C013640F80036404003364021
:402F8000F00036401D4B4FF483721A601B681C4BB3F90030002B08DB590903F01F03012202FA03F3174A42F821300023164A136030321360043213602C3A1360983A1360B3
:402FC0000121643A11600C3A13608032136843F08073136002220D4B1A604FF47A7300E0013B0B4AD2F8842012F0070F01D0002BF6D140F20132074B1A607047F0003640F3
:40300000948D081000E100E080023640F8003640000036404003364010B5FFF777FCFFF7F7FD4FF480323D4B1A603D490B6843F0805343F001030B6000233A4A136002F540
:40304000E07213600C32136060321360A2F5CE72136002F582721360083A136032480360A2F5807213604FF0487402F5A87214602E4CA26A22F07042A262A4F58134A4F5EA
:403080008874626822F0F85242F08062626004F5A02404F50974226842F4805222604FF48074234A14600A6842F0805242F001020A604FF0807204390A6041F24144A1F57E
:4030C0008E710C6001F584710B600260FFF7C6FE184B9B7F013BFF2B09D81749D1F8002822F47F421B029BB21343C1F80038FFF78DFE124B1B6843F0004343F48053104A1B
:4031000013600F220F4B1A600022A3F588731A600A2203F590731A6010BD00BF04023640A8023640F40036408402364080033240A002364008D80208000001407C440208B7
:40314000000036400003364038B5054602F005FA0D490B6823F07F020C4B1C7825446B7A13430B6002F0FDF902F0F7F908490B6823F07F02074B1B681C44637A13430B60EB
:4031800002F0EFF938BD00BF00043640FC92081000053640ACD8020830B401248C40631E40B10F2904D9A4F10A03B3FBF0F301E0B3FBF0F3053A012A00D85B080BB90120CD
:4031C00000E0184630BC704708B50C4B1B7803EB43031A010A4B1A44536859891B7B18045A1F012A01D840F00070053B012B02D8490800D10121FFF701FE08BDC26C02085D
:40320000EC91081008B5027B01884089FFF7C4FF80B2014B186008BD1403364008B50D4BB3F90030002B0DDB5A0903F01F03012101FA03F32032084941F82230BFF34F8F1F
:40324000BFF36F8F0122054B1A60FFF765FEFFF799FE08BD948D081000E100E08001364008B5054AD36843F4803343F08003D360FFF7D4FF08BD00BF08D80208F8B50546CC
:4032800002F06BF906462F682C79072C04D94FF464711F4802F0F6F8A400BA6A0F23A34022EA0301062202FA04F30B43BB622C682D79072D04D940F24521154802F0E2F842
:4032C00004F13F4303F54E03DB0903F1806303F544331B01032D0BD81A68ED001F21A94022EA01010B2202FA05F50D431D600BE0043D5A68ED001F21A94022EA01010B22E0
:4033000002FA05F50D435D60304602F02AF9F8BD0093081070B5164E3378164C03EB43031A0122445068144D00232B70337803EB43031A01224491682B7803EB83035A00B3
:403340000A440E4B1A60FFF7FFFE337803EB43031A01A358287803EBC000094B1860FFF78DFF0848FFF77AFAFFF77AFF70BD00BFC26C0208EC910810C86C0208ACD80208FA
:40338000B0D80208B92D081008B500EB40000301044AD05800EBC100034B1860FFF76EFF08BD00BFEC910810B0D80208F8B5064602F0D3F8074634683579072D04D940F20B
:4033C0004521224802F05EF804F13F4303F54E03DB0903F1806303F544331B01032D08D81A68ED001F2101FA05F522EA05051D6008E0043D5A68ED001F2101FA05F522EA4F
:4034000005055D6035683479072C04D94FF464710E4802F037F8A400AA6A0F23A34022EA03010E2202FA04F30B43AB6235683479072C04D940F24731044802F023F8012300
:40344000A3406B60384602F08CF8F8BD0093081008B5064B1B78012B06D1054B1868FFF7A5FF0022014B1A7008BD00BFC96C0208B0D8020870B5124D00EB400213012B44BB
:403480005C68C0B20F4E30700120FFF76DF9FFF7DFFF337803EB43031A01AA580A4B1A600A4BDA6822F07F02DA603178DA680A43DA602046FFF7A6FEFFF786FE70BD00BF81
:4034C000EC910810C26C0208B0D8020808D8020838B5420002441301104A13445D68C9B20F4C21709968237803EB83035A000A440C4B1A60FFF7BEFF2846FFF725FE2078C2
:40350000094A136803EBC0001060FFF7B7FE0122064B1A700648FFF7A1F938BDEC910810C86C0208ACD80208B0D80208C96C0208892D08102DE9F84307460D4690462E49E5
:403540000B7803EB43031A012C4B1A4456684FF0000985F800900878294B1978FFF7B8FFFFF78AFC8024B94503D22B7823EA04032B7064082B7823432B703046FFF7E4FDBD
:40358000FFF76EFE1F4B00E0013B1F4AD26812F0800F01D0002BF7D11C4B1B68B3F80090002CE0D1144B1B7803EB43031A01134B9B58134A107803EBC000154B1860FFF736
:4035C000F5FE0022134B1A70FFF76AFC4A4639463046FFF77BFC98F800202B789A4205D288F800300C4A1371A2F80690074B1B682A785A72BDE8F883C26C0208EC91081090
:40360000C86C02082E33030008D80208ACD80208B0D80208C96C02087C4402082DE9F04383B004460F4600EB40023C4B03EB02135E6801258DF80450B14639F8098B05FA83
:4036400008F808F1FF3801FB08F3354AA2FB03384FEA5818C2B2334B1A703348FFF7FEF8324B1D71DD800025314B1D700AE001AA49464046FFF75EFF05432D4A137801332F
:40368000DBB2137004EB4403244A02EB03131A7F274B1B78DBB29A42E9D89DF8043001335B0873720022224B1A7024E004EB44031A4A02EB03139A681D4B1B7803EB83031B
:4036C00002EB43021B4B1A60537A717A8B420BD35B1ADBB207FB03F363331149A1FB0313C3F34713537201E000235372104A13780133DBB2137004EB4403084A02EB031367
:403700001A7F0B4B1B78DBB29A42CFD80022084B1A70284603B0BDE8F08300BFEC9108101F85EB51C26C0208892D08107C440208C86C0208ACD8020842890388901E10FBE0
:4037400003F080B2704700BF08B52A4BB3F90030002B0DDB5A0903F01F03012101FA03F32032254941F82230BFF34F8FBFF36F8F224B4FF483721A601B68214BD3F8D020AE
:40378000D3F8D4309BB213FA82F31E4A128892B2934204D91B4A13889BB2538002E09BB2184A5380184B1B689847184BDB6813F0800F0FD1164A124B1A604FF4407203F5EE
:4037C000C6731A60134A03F51D731A601F22A3F598731A60074BB3F90030002B08DB590903F01F03012202FA03F3034A42F8213008BD00BF948D081000E100E0F0003640D5
:4038000000003640CC6C02088444020808D8020820100C80800E43013F4B1A683F4B1B7813445A7A3E4B13433E4A136000233E4A53803E493E4A1160012102F5C07211609E
:40384000112102F5807211604FF08071043211603C3213600622374B1A60374A28331A6041F2101204331A60344AC43B1A6040F2033203F5A8731A604FF47A7300E0013B4D
:403880002F4A126812F0010F01D0002BF7D12C4B1B6813F0010F03D04FF44272284B1A60284BDA7F284BB3FBF2F3284A934204D9274A934203D8302302E0202300E04023A9
:4038C00043F0004343F44123194A136040F20132204B1A60002320490B6001F580710B6004310B603C310B6038390B601B482831086042F2102004310860C4390B601F212D
:40390000174B1960A3F5F0734FF4837119601B680B4B1A60704700BFACD80208FC920810800E430100043640CC6C020820100C80000036408802364001010100AA00050092
:403940004003364008D8020840787D01001BB70000366E018C0136408001364001030300D002364010B5FFF753F9454B9A6A22F0F0029A629A6A22F470629A624FF48372F3
:4039800003F57F3303F5B8731A60002404331C60022204331A6088331C6004331C6041F2415204331A604FF4407204331A60354A03F51D731A6003F580731C60324AA3F511
:4039C00044731A60314A10331A6004331C607C331C6004331C6004331C6008331C6001F0BCFD2B4A136823F48053136001F0B9FD2322284B1A604FF0807204331A6001F0C0
:403A0000ACFD254A136823F0805323F4801343F08053136001F0A5FD204A214B1A6042F2102204331A600C331C601F2210331A600F2230331A60042210331A6004331C6093
:403A40000C331C604FF4427220331A60154AA3F550731A60144BDB7F013BFF2B09D81349D1F8002822F47F421B029BB21343C1F80038FEF7A1FE0E48FEF7F0FE10BD00BF65
:403A800080033240800E4301AA0005002A00000C94023640A0023640A802364001030300B002364020100C8008D8020800000140493708102DE9F84380460E464300034473
:403AC0001A012A4C1444D4F80890294BC3F800906068FFF731FE274B1880198889B201FB06F1254EA6FB0136E37E022B3CD17609227F657F05FB02F5002109E01C4A136828
:403B0000002018801368402058720A3313600131A942F3D32024402700E01C464046FEF7A7FDFEF7D9FD154BDB6813F0800FFAD10F4BC3F8009000210FE00D4B1B681A888C
:403B4000964203D25A7A22EA07025A725A7A22435A720A33064A13600131A942EDD3C4F347032746002CD8D1BDE8F883EC910810ACD80208CC6C02081F85EB5108D802086F
:403B8000F8B5054601F0E9FC06462F682C79072C04D94FF464711F4801F074FCA400BA6A0F23A34022EA0301062202FA04F30B43BB622C682D79072D04D940F2452115480C
:403BC00001F060FC04F13F4303F54E03DB0903F1806303F544331B01032D0BD81A68ED001F21A94022EA01010A2202FA05F50D431D600BE0043D5A68ED001F21A94022EABA
:403C000001010A2202FA05F50D435D60304601F0A8FCF8BD00930810F8B5054601F09DFC06462F682C79072C04D94FF464711E4801F028FCA400BB6A0F2202FA04F423EA40
:403C40000404BC622C682D79072D04D940F24521154801F017FC04F13F4303F54E03DB0903F1806303F544331B01032D0BD81A68ED001F21A94022EA0101042202FA05F5FF
:403C80000D431D600BE0043D5A68ED001F21A94022EA0101042202FA05F50D435D60304601F05FFCF8BD00BF0093081010B50022104B1A70104B1B689968104A11605A7FCC
:403CC0000F4CA280187FE0801B68A36003EBC000E060FFF755FFA068FFF79EFF094A0A4B1A600A4AD36843F08003D360FFF794FD10BD00BFC86C0208C46C0208ACD8020844
:403D0000CC6C0208193E08108444020808D8020870B5054601F021FC06462C682D79072D04D940F24521124801F0ACFB04F13F4303F54E03DB0903F1806303F544331B0171
:403D4000032D08D81A68ED001F2101FA05F522EA05051D6008E0043D5A68ED001F2101FA05F522EA05055D60304601F0FAFB70BD00930810F8B5064601F0EFFB074634682B
:403D80003579072D04D940F24521224801F07AFB04F13F4303F54E03DB0903F1806303F544331B01032D08D81A68ED001F2101FA05F522EA05051D6008E0043D5A68ED00B7
:403DC0001F2101FA05F522EA05055D6035683479072C04D94FF464710E4801F053FBA400AA6A0F23A34022EA0301062202FA04F30B43AB6235683479072C04D940F247315D
:403E0000044801F03FFB0123A3406B60384601F0A8FBF8BD0093081010B52C4B19682C4B18782C4C23889AB263889BB2D31A21F81030E068FFF76CFF274A13780133DBB2B0
:403E40001370A388013B9BB2A3805BB1E0680830E060FFF795FE1D4A13680A331360FFF7DBFC10BD1B4AD388013B9BB2D380D3B114469068FFF77EFFA0680830A060FFF74C
:403E8000CBFE164B1A68537FA3801368107F03EBC000E060FFF774FE0C4A13680A331360FFF7BAFC10BD0B4B9868FFF763FF0C4B1B7813B1FEF794FC10BD0A4B1A8901322E
:403EC0001A81DA6822F08002DA6010BDACD80208FC920810CC6C0208C86C0208C46C0208C16C020808D80208074B1B8A53B110B5054CE068FFF70CFFA068FFF73BFF002386
:403F0000238210BD704700BFCC6C020838B50446C2B2194B1A700220FEF726FCFFF7E4FF04EB44042201154B1344154A13605D686C892A88134B1A602846FFF7FDFB124BCC
:403F400018802B7B013CC4F30B0444EA034444F040640E4B1C600E4BDB7F013BFF2B09D80C49D1F8002822F47F421B029BB21343C1F8003838BD00BFC26C0208EC91081095
:403F8000C46C020814033640CC6C02080002364008D802080000014000EB40000301024A13445B6858897047EC910810F0B50023334C237004461E460BE0E588954206D9FD
:403FC000AE4204D22E4E3371012737702E460A3401338B42F1D32A4B1B78002B47D14BE0274EB3181B7903EB83056C000519B5F806E002EB42077D003544A5F80AE09BB9B1
:4040000001EB81056C000A3C0444E688550015446C001B4D2C442681013303EB83035D000544EB88A38120E04D1EEDB2AB420CD1A4F10A030344DD88540014446300104C9B
:4040400023441D81C4889C810FE00A3C0444E688550015446C000A4D2C442681013303EB83035D000544EB88A381013200E00022034B1B789A42B3D3014B1878F0BD00BFBA
:40408000E06C02082DE9F041002533E01D4C2C4424793CB905EB45077E001A4F3E440027378109E0561EB44206D105EB45077E00144F3E440027B7816F002F447E00114F54
:4040C0003E44B6F80C80B6F808E0CEEB0807B6F80AC00EEB0C0608EB060E01FB07F696FBFEF604FB013434447F34C4F30F2420F815400135034C2478A542C7D32046BDE83B
:40410000F08100BFE06C020800B10180704700BF08B5084B1B783BB9074A0021074800F037FC0122034B1A70044B01229A609A6108BD00BFEE6C0208A093081000003840C9
:4041400038B50C4B9A680C4B9A420ED10D46044619B9FC21094801F095F904F11003064A52F8230042F8235038BD1030044B53F8200038BD00ED00E000400208EC93081087
:404180000000081070B338B504460D464368072B03D93621154801F075F9B4F900306268002B08DB5201D2B203F1604303F5614383F8002305E003F00F035201D2B20C49FB
:4041C000CA540C4B9A680C4B9A420DD11DB94521064801F057F92946B4F90000FFF7B0FF002038BD05487047002038BDEC93081014ED00E000ED00E0004002080100560097
:4042000038B50369002B0DDA0D4604460B0C1B0423B140F2B321044801F034F9A9B26160002038BD014838BD3094081001008A0038B50368002B01DA002300E0094B73B945
:404240000D460446C2600B0C1B0423B140F29A21054801F017F9A9B2A160002038BD014838BD00BF01008A003094081038B504460D4619B99921064801F004F92369002B5C
:4042800003DAE3682B60002038BD024838BD00BF7094081001008A000F2840D8F8B515460E46044682B979B90F2804D940F2A911214801F0E7F8600100F1804000F50C10D3
:4042C0001E4B18600020F8BD5DB366B316F01F0F2BD10F2C04D940F2A911174801F0D2F8640104F1804404F50C14144F3C607E60BD60F2080021284602F0BFF800212046A7
:40430000FFF77EFF3A4652F8040B0021FFF790FF68B900213868FFF773FF50B9F8BD084870470748F8BD0648F8BD0548F8BD0548F8BD0448F8BD00BFB0940810F06C0208EF
:4043400003018A0001018A002DE9F0411B4B1B68DC68236883422CD90D464609A0EB4610012303FA00F819B901F0F7F8074600E00027124B18680368002B01DA002300E067
:404380000F4B83B9626852F8263018EA030F05D023EA080342F82630002400E0094C0021FFF72EFF00E0084C25B9384601F0D9F800E0064C2046BDE8F08100BFF06C0208AA
:4043C00001008A00020188000301880004018A000B4B1B68DB681A6882420CD94109A0EB4110012202FA00F05B6853F82130184203D004487047044870470448704700BFBC
:40440000F06C02080101880004018A0000018800024B1B680BB9014B18607047FC6C02082DE9F8430446884691461E46089F2A4B1B681BB9B421294801F024F8072C03D97A
:40444000B521264801F01EF8234B1B682C2000FB04F01C18F5B21D50C6F307236360360CA6600F2D04D940F2A9111D4801F00AF86D0105F1804505F50C15256165680F2D5F
:4044800004D94FF4E271164800F0FCFF154B03EB45156561A668330C1B0423B14FF4F1710F4800F0EFFF330C1B0423B140F2E3110B4800F0E7FFB3B243EA0646AE60C4F88F
:4044C0001C90C4F820800023A36117B1B7F90030A381BDE8F88300BFFC6C0208F0940810B094081000102340F0B58FB0044618B950212C4800F0C6FFA369072B03D95421DD
:40450000284800F0BFFFE36A1BB95621254800F0B9FFE368072B03D95721224800F0B2FF236A072B03D958211E4800F0ABFF236B1BB959211B4800F0A5FF07AE04F114052A
:404540000FCD0FC62F6802AD26460FCE0FC533682B60079B1933ADF83030089B0D93A26AE16A0CAD00953B460A98FFF759FF00210091069B0A460598FFF752FF216B284634
:40458000FFF700FEBDF93030002B08DB590903F01F03012202FA03F3034A42F821300FB0F0BD00BFF094081000E100E0F8B506460F461D4614461AB9FD21264800F062FF3C
:4045C000254B1B681BB9FE21224800F05BFF072E03D9FF211F4800F055FF072F04D94FF480711C4800F04EFF1B4B1B682C2101FB063001FB07314B68012202FA03F31B04DA
:40460000466802FA06F60269EAB18F69EFB91268002A01DA002200E0104AC2B92288134323600369DC6001238B614D620469330C1B0423B140F29A21094800F023FFB2B29B
:40464000A2600020F8BD0748F8BD0748F8BD0648F8BD00BFF0940810FC6C020801008A00B094081004028A0007028A00F8B505460F461646124B1B6823B940F2611111481F
:4046800000F000FF072D04D94FF4B1710D4800F0F9FE0B4B1B682C2404FB0534236A23B94FF4B371074800F0EDFEE369B34204D9236A43F826700020F8BD0348F8BD00BFEE
:4046C000FC6C0208F09408100A028A0038B504460D460B4B1B6823B940F29311094800F0D1FE072C04D94FF4CA71064800F0CAFE034B1B682C2202FB0434A56238BD00BF4E
:40470000FC6C0208F094081070B582B000230193044620B94FF4EA71264800F0B3FE236923B940F2D511234800F0ACFE636923B94FF4EB711F4800F0A5FE236A23B940F22C
:40474000D7111C4800F09EFE6369DD682A0C1CD012041A601B6820690369002B15DA01A9FFF784FD60B9019803681E0CDBB2E269934206D2226A52F8233013B1984700E073
:40478000002631462069FFF73BFDADB275B16369ADB21D601B68636A1BB198470023636202E0A36A03B198470023A36163691B6802B070BDF094081010B504460B4B1B683A
:4047C00023B94FF4DA710A4800F05CFE072C04D940F2B511064800F055FE044B1B682C2000FB0430FFF790FF10BD00BFFC6C0208F094081010B50446134B1B6823B940F2B0
:404800002D21124800F03EFE072C04D940F22E210E4800F037FE0C4B1B682C2202FB0434B4F90C30002B0DDB5A0903F01F03012101FA03F32032064941F82230BFF34F8FF8
:40484000BFF36F8F002010BDFC6C0208F094081000E100E010B50446114B1B6823B940F24D21104800F00EFE072C04D940F24E210C4800F007FE0A4B1B682C2202FB0434B9
:40488000B4F90C30002B08DB590903F01F03012202FA03F3044A42F82130002010BD00BFFC6C0208F094081000E100E0002867D038B50546002965D00B7A1BB10B88B3FA9B
:4048C00083F35B090C461BB12F212F4800F0DAFD637A1BB16388B3FA83F35B091BB13021294800F0CFFDA3791F2B03D93121264800F0C8FD2379032B03D93221224800F0C3
:40490000C1FD6379032B03D933211F4800F0BAFDE379032B03D934211B4800F0B3FD6288238843EA0243EB60A3791B0603F0F851E279130403F480330B43227A920002F05E
:4049400004021343627A920202F480621343E27A12B14FF4006200E0002213436279120202F440721343A27A0AB1082200E000221343227902F0030213432B61002038BD52
:4049800002487047014838BD309508100100D60000287DD00346002A7CD070B45068000280B29568AD0405F480252843D468240404F4403404431069000600F0E0602043E0
:4049C000147F0CB1012400E0002420430C1DA4011851D06828B903EB81100024C0F808410CE0012805D1146803EB8110C0F8084104E003EB81100124C0F80841106938B90D
:404A0000546903EB8110C0F80C419469C0F81041146803EB8110C0F81441906CB0F1FF3F17D0946A04F00F04166B360206F470663443956B2D0405F470252543146C240392
:404A4000A4B22C430001C0B2204303EB8114C4F82001506A00F00300D66A360106F030063043556B2D0205F440752843D46BA401E4B20443506C800000F00C00204303EB26
:404A80008113C3F82401126AC3F83821002003E0024870470148704770BC70470100B600002800F0AC8070B40446002A00F0A98092F828300BB1012500E00025137F0BB148
:404AC000022300E000231D431669B60406F4802645EA060395682D0405F440351D431668300600F0E0602843136B556B43EA45031B0503F440130343906B43EA8000052E94
:404B000003D1D3681B029BB202E053681B029BB20343081D800123501368062B08D104EB81130120C3F808013F20C3F828011DE0936843B904EB81130020C3F808013120BA
:404B4000C3F8280112E0012B08D1506904EB8113C3F808011C20C3F8280107E004EB81130120C3F808011220C3F82801106A04EB8113C3F80C01506AC3F810015069C3F816
:404B800014019069C3F81801136EB3F1FF3F17D0106C00F00F00966C360206F470663043156D2D0405F470250543906D000380B228431B01DBB2034304EB8110C0F8203133
:404BC000D36B03F00303566C360106F030063343D56C2D0205F440752B43506D8001C0B21843D36D9B0003F00C03034304EB8114C4F82431D36AC4F83831002002E00248E6
:404C00007047014870BC70470100B600036813F4006F01D0802200E04022D0F80832C3F30803934203D0C0F84012012070470020704700BF002800F03081F8B50546002977
:404C400000F02D810B78012B03D19948854200F02881087F18B19648854240F0248116460C46012B03D94C21924800F00BFC6378012B07D9052B05D0022B03D04D218D48E5
:404C800000F000FCA378032B03D94E21894800F0F9FB2378012B07D16368023B0E2B03D95021844800F0EEFBA36933F00F0303D05121804800F0E6FBA368043B0C2B03D971
:404CC00052217C4800F0DEFBE368043B0C2B03D95321784800F0D6FB6378022B07D0A268E3689A4203D05421724800F0CBFB636A33F06D0303D056216E4800F0C3FBE36AFF
:404D000033F0730303D057216A4800F0BBFB236B33F4206303D05821664800F0B3FB6378A778052B07D8DFE803F0060305060603022700E00027A368082B04D8E368082BBF
:404D400003D9002302E0002300E0012313B14FF4006200E00022217F11B14FF4807300E000231A436368013B03F00F03134343F080732B60236A2A6812F4006F01D08022AE
:404D800000E04022934203D365214A4800F07AFBA36A2A6812F4006F01D0802200E04022934203D36621434800F06CFB237D0BB9012100E000216278052A01D1022300E045
:404DC00000230B43E17C09B1102100E000210B43617C09B1202100E000210B432178012902D14FF0004100E000210B43BF0007F00C073B43A169090201F470610B43120697
:404E000002F0407213432B62237C13B14FF4807200E00022A17C11B14FF4007300E000231A43A368013B03F00F031343C5F8003394F82030C5F80433237C13B14FF4807262
:404E400000E00022E368013B03F00F031343C5F8003294F82830C5F80432636A03F06D03C5F8C83FE36A03F07303C5F8883F236B03F40073C5F8003F236B03F40063C5F8C1
:404E8000403F0023C5F8C83E7EB118463360B361F360F361084B3362F8BD084870470748F8BD0648F8BD0548F8BD0020F8BD00BF00006940B4950810EFCDAB000140AA0015
:404EC000036823F00043036019B100220A60CA608A61036A002B04DB0023C0F8C83FC0F8883F70471F4B98422DD00CD840282ED003D8E8B1102828D02FE0802829D0B0F510
:404F0000807F28D029E0184B984228D006D8B0F1204F0DD0154B984212D01EE0144B98420AD00133984209D0023B984215D101E0002070470F4870470F4870470F4870477E
:404F40004FF4A0007047074870470D4870470D4870470D487047034870470C4870474FF4A400704706005200010000F0090000A0040000F0010052000200520003005200E0
:404F8000010050000200500005005200FF00520008B50C4B1B69002B12DB0B4B1868FFF7A1FF0122094BC3F88C24084BD3F80C34002BFAD1054BD3F88C34002BF5D108BDC3
:404FC000034808BD20002340006D0208000025400200500000B583B05523ADF80030002301930C496846FFF7CDF8BDF90030002B08DB590903F01F03012202FA03F3064A76
:4050000042F82130022205490120FFF72FFB03B05DF804FB0947020800E100E0DD4602082DE9F04104460D46174698469DF81860072903D9D121344800F024FA37F00F03F6
:4050400003D0D221304800F01DFAB8F1010F03D9D3212D4800F016FA36F01F0303D0D421294800F00FFA22680123AB4022EA030308F0010808FA05F843EA08032360A36A00
:40508000A9000F228A4023EA020207F00F0303FA01F71743A762072D04D940F245211B4800F0F0F936F01F0304D040F24621174800F0E8F904F13F4404F54E04E40904F16B
:4050C000806404F544342401032D0DD82268ED001F23AB4022EA030306F01F0606FA05F51D432560BDE8F081043D6268ED001F23AB4022EA030306F01F0606FA05F51D43AF
:405100006560BDE8F08100BFF495081034960810104B03F5F2421268026003F5F0421268426047F604029A58826047F608029A58C26047F60C029A58026147F610029A5856
:40514000426147F614029A58826147F618029B58C3617047000034404168104B03F5F0421160816847F604029950C16847F608029950016947F60C029950416947F6100227
:405180009950816947F614029950C16947F618029950026803F5F2431A6070470000344038B5044600F0D9F92CB1184B5B681F2B03D9002302E0002300E001231D460BB3CB
:4051C000E368E3B12368E3B1104B99680B46002203E0A34204D01A465B69002BF9D100E000257DB111B9094B9C6000E05461226100236361054A53680133536002E00025E9
:4052000000E0002500F0ADF9284638BD106D020838B5044600F0A1F9144B5A680AB399680B4602E0A34204D05B69002BFAD1002500E00125B5B1A14206D14B695BB10B4944
:405240008B600021196106E019695C694C61596909B11B690B61013A044B5A6012B99A6000E0002500F07DF9284638BD106D020870B584B005460E46042804D940F6950137
:40528000284800F0FFF8731EDBB2012B08D9042E06D0082E04D040F69601224800F0F2F8042E01D0012E1CD11F4B9C68002013E023799D420FD1A3680BB133420BD1E368EB
:4052C0005A6802929B68039304A800F80C6D23689847154BDC6064690CB3144B9842E7D11DE0114BDC68022E01D104B12469002011E023799D420DD1A3680BB1334209D1BE
:40530000E3685A6802929B68039304A800F80C6D23689847246914B1044B9842E9D104B070BD00BF74960810106D0208FF00420070B50546012804D94FF40471384800F04F
:40534000A1F8384B5B682BB101210846FFF790FF044600E00024002C5AD100F0FEF80646304B5B681BB104210120FFF781FF2E4BD3F8E03013F0100F02D02C48FFF7C8FE68
:405380004FF0B0535B7813F0FF0F04D04FF0B0535B78DBB200E02123212B03D1284601F093F821E022494FF61C73CB5803F01F024FF0B05393F84037DBB29B1A18BF01232B
:4053C0000A6812F4000F07D133B11A4B196847F63073174AD15004E0002147F63073144AD150284601F078F80F4BD3F8E03013F0100F02D00D48FFF7AFFE304600F0B1F8BF
:40540000084B5B684BB108210120FFF731FF04E002210120FFF72CFF074C204670BD00BF74960810106D020800000140206D02080000264010180016FF00420010B5044687
:4054400005E0084B186800F07FF8A4F50044B4F5004FF6D8044B186800FB04F000F074F810BD00BFB4420208B042020808B5034B1B7800FB03F000F067F808BDAC42020830
:4054800001BEFEE738B50D46044C18220146204600F0FBFFA5610020FFF7F2FF284B0208FEE700BF08B50268254BDA6142681A6282685A62C2689A620269DA6242691A6326
:4054C00082695A63C2699A631E4A916AD963D16A1964516A5964516B9964926BDA64F1EE103A13F0900F27D0026A154B1A65426A5A65826A9A65C26ADA65026B1A66426BB1
:405500005A66826B9A66C26BDA66026C1A67426C5A67826C9A67C26CDA67026DC3F88020426DC3F88420826DC3F88820C26DC3F88C20026EC3F89020FFF7B2FF08BD00BFCF
:40554000284B020800ED00E00230800803D001300238FCD100BF00BF7047EFF3108072B6704780F31088704710B50378012B02D0082B29D02EE01B4B1B78012B2CD0032018
:40558000FEF726FF184B984228D0FFF7E6FF174B1860022004F0DAFC044604F0E2FC022C05D1032805D0052805D1002404E0104C02E0002400E00E4C0D4B9C420FD10B4BC8
:4055C0001868FFF7CEFF0AE0084B1868FFF7C9FF002404E0064C02E0054C00E0044C204610BD00BFDBD8020801018800406D0208FF00420008B50378022B1CD0082B14D097
:40560000012B1ED1124B1B78012B1CD0FFF7A5FF104B5860022004F099FC022815D00D4B5868FFF79EFF0C4808BD0A4B5868FFF798FF002008BD074B5868FFF792FF0648AE
:4056400008BD054808BD044808BD002008BD00BFDBD80208406D0208FF00420010B5044C2046FFF7D5FD04F11800FFF7D1FD10BD8C44020810B580B10A4A9060C36A03B113
:40568000D3600024084B1C70084B1C70084B1C60084B1C7000F036F900E0074CFCF76CFA204610BD406D0208ECD80208F0D80208F4D80208F1D802080100160010B590B02D
:4056C0002F4B0CAC186859689A68DB680FC42822002102A800F0D1FE2A4B02930CAB049341F62863ADF8143004238DF81630FB22ADF82020ADF8222003228DF824208DF8FA
:40570000253006238DF8263010238DF829304123ADF82A3001238DF82E301B4C2046FFF73FFD04F11800FFF73BFD04F00BFC08A804F062FC034600BB144B039302A804F0C7
:4057400023FC0346B0B90122114B1A700023114A1370114A1370114B9B681A6A00929B6ADB88ADF804300F23ADF8063068460DF031F9034600210A4A1160184610B010BDBE
:40578000B4960810B55C08108C440208BC4B0208DBD80208DCD80208DDD80208406D0208F4D8020808B5044B1B689847034B1B6803B1984708BD00BF6C6D0208506D0208AC
:4057C00008B510B1034A52689047034B1B6803B1984708BD6C6D0208506D020870B5C0B006460C4615464FF480720849684600F039FE05E016F8012B6A401DF80250013C24
:40580000002CF7D1284640B070BD00BFC496081008B5FFF7A2FE08BD08B5FFF7A2FE08BD08B50120FFF716F808BD00BF08B5FFF7F7FF08BD08B50120FEF7DCFF08BD00BF82
:4058400008B5FFF7F7FF08BD08B5094B58601960012208491046FEF709FF034628B9002205490120FEF702FF0346184608BD00BF6C6D0208C1570810A557081038B5154666
:405880000B46024601210020FEF790FE044618B129460120FEF71AFF204638BD704700BF704700BF0020704700487047110016000048704711001600004870471100160049
:4058C0000048704711001600004870471100160000487047110016000048704711001600004870471100160000487047110016000048704711001600004870471100160078
:40590000704700BF08B5024800F0C8FC08BD00BF78440208F8B5022872D8002972D10022134606E03B4CE45C012C01D90132D2B20133002BF6D0012A0CD1374B1B681C68C3
:4059400001EB8102930023445B681B79023BDBB2012B59D8314B1B78002B57D1304B1970E0B92D4F3C68236801EB8105AA009D186668C1EBC1014B001E44B188298221686F
:40598000114449686468E45A0C8039680C682244526849680B445B8853801EE001281CD11D4F3C68236801EB8105AA009D186668C1EBC1014B001E44B18929822168114434
:4059C0004D68616819440989298039680C682244526849680B445B895380124B18700E4B1B6818680E4B1B7803EB83039A00104408F002FE034650B90121084A117006E0F1
:405A0000094B04E0084B02E0084B00E0084B1846F8BD00BFDCD80208486D0208DDD80208DAD80208F1D802080100160002001600FF00160070B439B9144B1B681B68996816
:405A4000CE7F00231D460EE0104B1B681B68D968CE7FF6E7CA5C52B10133CC5C1B2C01D0134400E00125B34201D2002DF2D05DB101338279CA54002204E0D4180134855C85
:405A80000D550132052AF8D970BC7047486D020870B504460CF0B8FF0546D0B90E4B1968086A228902EB82029300143B03445A6812F0007F0DD0E67B1B695A68CB69D21A41
:405AC00006EBC606B318A28821680448184400F0C9FC284670BD00BF486D0208E0D8020830B587B002891A4B1B685B699B889A4229D1044601AB07C883E807000022ADF8E9
:405B00001020A289ADF8122040228DF814201846FFF7BEFF054680B923681B7803F002039BB22BB10B4B1B6821460B48984704E0084B1B68214609489847094A137803F0B0
:405B4000FE03137000E00025284607B030BD00BF486D02084C6D02080500010006000100ECD802084288531E9BB2192B1AD84178D1B910B40F4B1868046A02EB820293005D
:405B8000143B23445A6812F0007F0FD01B695A68C369D31A01EBC1011944074B5B5A1380002004E0012070470120704700205DF8044B7047486D0208E0D8020800B583B071
:405BC0000023ADF804308389ADF800300389ADF8023012238DF80430084B1B7813F0010F09D129B18DF8051068460CF02BF802E0C0680CF055F803B05DF804FBECD802083B
:405C000010B4044688B10023194606E0104A52F82320944200D1012101330D4A1279934206D20029F2D0002003E00021094800E0002050B949B9064B1B792BB9044A42F886
:405C400023400133137100E003485DF8044B7047F8D80208010016000300160070B506460D460020044606E0084B53F824302946304698470134054B1B799C4204D2044B93
:405C80001B7813F0010FEFD170BD00BFF8D80208ECD8020883792BB100207047C25C32B9013300E00023052BF8D9002070470120704700BF70B58AB004460D46BB4A137800
:405CC00043F00103137044F20A03984200F0AF8136D842F20403984200F0D98014D841F20103984200F0FD8003D8B0F5805F65D0A5E241F20203984200F0F68041F203030B
:405D0000984200F02A819AE244F20603984200F0DC810AD843F21203984200F0AD8044F20403984200F02C8189E244F20703984200F0808144F20803984200F0C2817EE211
:405D400045F20E03984200F067821BD845F20203984200F017820AD844F21003984200F0698145F20103984200F0EE8167E245F20303984200F01F8245F20C03984200F042
:405D800024825CE245F21403984200F04E820AD845F20F03984200F0428245F21003984200F040824BE245F21703984200F0408246F20103984200F0C48140E27C4B1E68C4
:405DC0003046FFF767FF60B1304609F0A1FC784E00213068FFF72EFE01213068FFF72AFE37E0744B1868836A1B791BB34FF0B05696F8041601F03F0396F8052602F03F028A
:405E000043EA821196F8033603F01F0341EA033296F8003603F07F0342EA4343026B1370644A1168096BC3F3072048701268126B1B0C93705F4E3368186B09F069FC336876
:405E40000021186BFFF7F6FD33680121186BFFF7F1FD584B1B68986A023009F065FF0023049305937F238DF8103004A809F074FC0222514B1A70E2E100234F4A13704F4A07
:405E800013700A20FFF7DAFAFFF7E8FBD7E14C4B1B6813F0010F40F0D2810023ADF810308DF81230434E33689B6A93F900308DF8103004A809F06AFC33689B6A93F9013041
:405EC0008DF8103001238DF81130FF238DF8123004A809F05BFC3A4A136843F001031360ADE1FFF7BBFEAAE14978364B1B88ADF81030002319E0344A32F81320ADF808200F
:405F00009DF8092012B93148825C00E00022012A0AD92D4A12F81320914205D12A4A32F81330ADF8103002E00133002BE3D09DF81130FF2B05D104D14FF472712448FFF727
:405F4000A1FABDF81030ADF81C30ADF81830C3F3072329781F4AD15471E10B78002B40F06E810B7A33B91C4B0022DA809A801B4A1A604B600D4A137803F0FE0313705EE1F5
:405F8000CB78002B40F05B8149790E4B1B88ADF81030002333E00C4A32F81320ADF80C209DF80D20E2B90948825C1AE0ECD80208BC440208486D0208DBD80208DDD8020871
:405FC000F4D80208C4970810D8D80208DCD80208C8970810F0D80208886D0208E46902080022012A0AD99E4A12F81320914205D19B4A32F81330ADF8103002E00133002BCB
:40600000C9D09DF81130FF2B05D104D14FF472719448FFF737FABDF81030ADF82030ADF81030C3F3072301218F4AD15407E1FFF715FE04E12B78002B3FD1AB78012B02D14E
:4060400000228A4B1A706978894B1B88ADF80C30002319E0824A32F81320ADF810209DF8112012B98348825C00E00022012A0AD97B4A12F81320914205D1794A32F8133027
:40608000ADF80C3002E00133002BE3D09DF80D30FF2B05D104D14FF472717248FFF7F2F9BDF80C30ADF82430ADF80C30C3F30723FF2B02D0A978704AD15402226F4B1A7094
:4060C000BDE002226D4B1A70B9E0FFF7C7FD6C4B1B7813F0010F00F0B280644B1B78012B03D10222614B1A70A9E0032B03D100225E4B1A70A3E0022B40F0A18000225B4B86
:406100001A70604B1B685B685F4A1178C1EBC10203EB42039A79002A00F091809B88002B00F08D80594B1B78002B40F088800120FFF7F0FB002840F0828001224B4B1A704E
:406140007DE0FFF78BFD7AE00B88ADF800309DF801301BB90221474AD15405E023B94FF461714048FFF78EF96A7829883C4B23F812106B780021464AD15429462046FFF759
:406180006DFD5CE00B88ADF804309DF805301BB90021384AD15405E023B94FF461713148FFF770F96B7800212F4AD15429462046FFF754FD43E00B88ADF810301723ADF881
:4061C000123004A80BF04AFD39E00A89531E9BB2192B13D98B89ADF81030ADF8122012238DF8143001238DF8153004A80BF02AFD234A137803F0FE03137020E00846FFF798
:406200006FFC014620B929462046FFF727FD01462846FFF7D3FC12E0FFF720FD0FE0FFF71DFD0CE0FFF71AFD09E0FFF717FD06E00846FFF797FC29462046FFF70FFD104B8B
:406240001B7813F0110F09D00D4A137803F0FE031370104B1B682946204698470AB070BDD8D80208C8970810806D0208DDD80208C4970810DCD80208846D0208DBD80208ED
:40628000ECD80208486D0208DAD80208F1D80208F0D802084C6D02080020704730B108B5034A10600348FFF7ABFC08BD02487047946D02089962081001001600014670B5AC
:4062C00082890569CB8980884FF47A76584306FB00F42888B2FBF0F0B4FBF0F00C7E4B886043B0FBF3F00B884343B3FBF6F35A43044BB2FBF3F3012213B15B085200FBE7FF
:406300002A8070BD00E1F505014643888A88007EC3EB03435043B3FBF0F00B698A891B88B2FBF3F3104A4343B3FBF2F3CA8853430A22B3FBF2F38A6846F2A710824294BF25
:406340006422C8221020934205D90138C0B206284FEA5303F7D149694B2253436422B3FBF2F30B80704700BFA086010003B10B880088800080B2824238BF02469A4238BF4D
:406380001A4692B25308FF2B0A804FEAD2028CBFFF23DBB2FF2A8B70CB7086BFFF230B710A7170478B0813800F23C9089372002351809080D0801081D3727047937A30B5AE
:4063C000948890805B00041BDBB24ABF013393729372957A538848BF644205F00F05A342957203D9012B03D9013B00E0013353800F2D04D01DB15388B4EB830F04D90023A6
:40640000D0801081D37230BDD488844201D9D08003E01489844238BF1081D07A092802D80130D07230BD1089D488001B80B2834204D9B3EB910F03D9013B00E00133538059
:406440005388138030BD10B501390244904207D010F8013B11F8014FA342F7D0181B10BD002010BD10B5431E0A44914204D011F8014B03F8014FF8E710BD024403469342D2
:4064800002D003F8011BFAE7704710B5034642B111F8014B03F8014B013A002CF7D11A4400E010BD934202D003F8014BFAE710BDF8B500BFF8BC08BC9E467047F8B500BFFD
:4064C000F8BC08BC9E46704701B40248844601BC604700BF2949020801B40248844601BC604700BF214A0208002100B0FFFFF07FFFFFFFFFFFFFFFFFFFFFFFFFFFFFFFFF92
:40650000FFFFFFFFFFFFFFFFFFFFFFFFFFFFFF8007FFFFFFFFFFFFFFFFFFFFFFFFFFFFFFFFFFFFFFFFFFFFFFFFFFFFFFFFFFFFFE0003FFFFFFFFFFFFFFFFFFFFFFFFFFFF0E
:40654000FFFFFFFFFFFFFFFFFFFFFFFFFFFFFFFFF80000FFFFFFFFFFFFFFFFFFFFFFFFFFFFFFFFFFFFFFFFFFFFFFFFFFFFFFFFFFFFF000007FFFFFFFFFFFFFFFFFFFFFFFED
:40658000FFFFFFFFFFFFFFFFFFFFFFFFFFFFFFFFFFFFF000003FFFFFFFFFFFFFFFFFFFFFFFFFFFFFFFFFFFFFFFFFFFFFFFFFFFFFFFFFFFE03C001FFFFFFFFFFFFFFFFFFFA9
:4065C000FFFFFFFFFFFFFFFFFFFFFFFFFFFFFFFFFFFFFFFFC1FF001FFFFFFFFFFFFFFFFFFFFFFFFFFFFFFF9FFFFFFFFFFFFFFFFFFFFFFFFFFFCFFFFFFFFFFFFFE0E781FC40
:40660000F33FCFFFF3FFFFF39FFFFFFFFFFFFFFFFFFFFFFFFFFFFFFFFFEFFFFFFFE6679FFCF33FCFFFF3FFFFF3FFFFFFFFFFFFFFFFFFFFFFFFFFFF83FFFFEFFFFFFFE66783
:406640009FFCF33FCC1E2084CE209C383C7FFFFFFFFFFFFFFFFFFFFF80E1FF0FFFFFFFE6679FFCF33FCCCCF39CCCD3999999FFFFFFFFFFFFFFFFFFFFFF800F1C7FFFFFFF19
:40668000E0E783FCF33FCCCC739CCCF3999998FFFFFFFFFFFFFFFFFFFFFF8000B00FFFFFFFE6679FFCF33FCCCE339CCCF399999C7FFFFFFFFFFFFFFFFFFFFF8000600FFF8E
:4066C000FFFFE6679FFCF33FCCCF339CCCF399999E7FFFFFFFFFFFFFFFFFFFFFC000C00FFFFFFFE6679FFE673FCCCF339CCCD399999E7FFFFFFFFFFFFFFFFFFFFFC0018069
:406700001FFFFFFFE0E081FF0F3FCCCC789E0E389C3998FFFFFFFFFFFFFFFFFFFFFFE001001FFFFFFFFFFFFFFFFFFFFFFFFFFFFFFFFFFFFFFFFFFFFFFFFFFFFFFFFFFFF086
:406740000FFFFFFFFFFFFFFFFFFFFFFFFFFFFFFFFFFFFFFFFFFFFFFFFFFFFFFFFFFFFFFFFFFFFFFFFFFFFFFFFFFFFFFFFFFFFFFFFFFFFFFFFFFFFFFFFFFFFFFFFFFFFFFF49
:40678000FFF80000FFFFFFFFFFFFFFFFFFFFFFFFFFFFFFFFFFFFFFFFFFFFFFFFFFFFFFFFFFFFFC0001FFFFFFFFFFFFFFFFFFFFFFFFFFFFFFFFFFFFFFFFFFFFFFFFFFFFFF1E
:4067C000FFFFFFFF8007FFFFFFFFFFFFFFFFFFFFFFFFFFFFFFFFFFFFFFFFFFFFFFFFFFFFFFFFFFFFFFF07FFFFFFFFFFFFFFFFFFFFFFFFFFFFFFFFFFFFFFFFFFFFFFFFFFFDF
:40680000FFFFFFFFFFFFFFFFFFFFFFFFFFFFFFFFFFFFFFFFFFFFFFFFFFFFFFFFFFFFFFFFFFFFFFFFFFFFFFFFFFFFFFFFFFFFFFFFFFFFFFFFFFFFFFFFFFFFFFFFFFFFFFFF98
:40684000FFFFFFFFFFFFFFFFFFFFFFFFFFFFFFFFFFFFFFFFFFFFFFFFFFFFFFFFFFFFFFFFFFFFFFFFFFFFFFFFFFFFFFFFFFFFFFFFFFFFFFFFFFFFFFFFFFFFFFFFFFFFFFFF58
:40688000FFFFFFFFFFFFFFFFFFFFFFFFFFFFFFFFFFFFFFFFFFFFFFFFFFFFFFFFFFFFFFFFFFFFFFFFFFFFFFFFFFFFFFFFFFFFFFFFFFFFFFFFFFFFFFFFFFFFFFFFFFFFFFFF18
:4068C000FFFFFFFFFFFFFFFFFFFFFFFFFFFFFFFFFFFFFFFFFFFFFFFFFFFFFFFFFFFFFFFFFFFFFFFFFFFFFFFFFFFFFFFFFFFFFFFFFFFFFFFFFFFFFFFFFFFFFFFFFFFFFFFFD8
:407B8000FFFFFFFFFFFFFFFFFFFFFFFFFFFFFFFFFFFFFFFFFFFFFFFFFFFFFFFF312E204C454420696E6469636174696F6E733A2020202020202020202020202020204C452D
:407BC0004438284F72616E676529204F6E202D204164766572746973696E67202020204C454438284F72616E67652920426C696E6B73202D20436F6E6E6563746564202095
:407C00004C4544392852656429202020204F6E202D20446973636F6E6E6563746564202020202020202020202020202020202020202020202020202020202020202020200D
:407C400020322E20424C45206164766572746973657320666F72203230207365636F6E64732E2050726573732053573220746F20726573746172742061647665727469733E
:407C8000696E67202020202020202020202020202020202020202020202020202020202020202020332E20436F6E6E656374207573696E67204379536D617274204D6F62B4
:407CC000696C65202F206465736B746F702061707020746F206576616C756174652074686520424C45202073657276696365732E20526561642074686520636F64652065A3
:407D000078616D706C652020646F63756D656E7420666F72206D6F726520696E737472756374696F6E732E20000000000000018001800180018001800180018001800180B7
:407D4000000000000180000000000000000007E007E007E000000000000000000000000000000000000000000000000000000360036003601FF806C006C006C006C03FF046
:407D80000D800D800D80000000000000018007F00FB00D800D800F80078003C001E001F001B00DF00FC001800000000000003C306630666066C067803F0006F007980D98D4
:407DC0001998319860F000000000000000000F8018C018C018C01F801E003F7867B063B061E038E01FF0000000000000000003800380038003800000000000000000000090
:407E0000000000000000000000000000000000C001800300030006000600060006000600060003000300018000C000000000060003000180018000C000C000C000C000C0C5
:407E400000C0018001800300060000000000000003000FC00FC007800FC0000000000000000000000000000000000000000000000000000001800180018001801FF80180A4
:407E800001800180018000000000000000000000000000000000000000000000000000000000030003000300060000000000000000000000000000000000000007C0000069
:407EC00000000000000000000000000000000000000000000000000000000000000000000000000003000000000000000000003000300060006000C000C0018001800300DA
:407F00000300060006000C000C000000000007C00C60183018301830183018301830183018300C6007C00000000000000000018007800180018001800180018001800180E5
:407F40000180018007E0000000000000000007800CC018600060006000C00180030006000C0018001FE0000000000000000007C00C600C300030006007C00060003000309A
:407F800000300C6007C0000000000000000000C001C001C003C006C00CC018C01FF000C000C000C001E000000000000000000FE00C000C000C000F8000C00060006000603D
:407FC00000600CC00780000000000000000007E00C30180018001FC01C6018301830183018300C6007C000000000000000000FF00060006000C000C0018001800300030086
:40800000060006000600000000000000000007E00E700C300C30076007C00DE01870183018301C6007C0000000000000000007C00C6018301830183018300C3007F0003025
:40804000003018601FC00000000000000000000000000000030000000000000000000000000000000300000000000000000000000000000003000000000000000000000070
:408080000000000003000300060000000000000000000000003000E0018007001C000700018000E000300000000000000000000000000000000000001FF0000000001FF04A
:4080C000000000000000000000000000000000000000000018000E00030001C0006001C007000C00180000000000000000000FC00C600060006000C00180030006000600FF
:40810000000000000600000000000000000007E00C30181833EC666C6CEC6CCC6FD86FF0300018000FC000000000000000000300070007800D800D800CC018C01FC0186002
:4081400030603030787800000000000000001FC00C600C300C300C600FC00C600C300C300C300C601FC0000000000000000007E00C701830300030003000300030003000EB
:4081800018000C3007E000000000000000003FE018301818180C180C180C180C180C180C181818303FE000000000000000001FE00C600C000C000CC00FC00CC00C000C007C
:4081C0000C000C601FE000000000000000001FE00C600C000C000CC00FC00CC00C000C000C000C001E00000000000000000007E00C70183030003000300030F830303030AD
:4082000018300C3007E000000000000000003C3C18181818181818181FF8181818181818181818183C3C00000000000000000780030003000300030003000300030003007D
:40824000030003000780000000000000000007C0018001800180018001800180018001800180018001801B001E00000000003CF0186018C019801B001E001F00198018C008
:40828000186018303CF800000000000000001E000C000C000C000C000C000C000C000C000C300C301FF00000000000000000781C38383C383C383C783678367833D833D8B3
:4082C00033983198783C000000000000000038781C301E301E301B301B3019B019B018F0187018703C30000000000000000007E00C301818300C300C300C300C300C300C37
:4083000018180C3007E000000000000000001FC00C600C300C300C300C600FC00C000C000C000C001E00000000000000000007E00C301818300C300C300C300C300C300CA7
:4083400018180C3007E0003C000F000000003F8018C018601860186018C01F80198018C0186018303C38000000000000000007C01C60186018000C00070001C000E000605D
:4083800018601CC00F8000000000000000007FE066600600060006000600060006000600060006000F0000000000000000003C78183018301830183018301830183018307C
:4083C00018300C6007C0000000000000000078F03060186018C018C018C00D800D800D800700070007000000000000000000F31E630C678C378C379837D83CD83CD81CF006
:408400001C701C70187000000000000000003E7818300C6006C006C00380038006C006C00C6018303CF800000000000000003EF018600CC00CC007800780030003000300D7
:4084400003000300078000000000000000001FF01830006000C000C001800300060006000C0018301FF0000000000000000003C0030003000300030003000300030003006A
:40848000030003000300030003C0000000000C000C0006000600030003000180018000C000C000600060003000300000000007800180018001800180018001800180018092
