:020000041000EA
:4000000000400208230100100D00000085010010000000000000000000000000000000000000000000000000000000008101001000000000000000008101001081010010E9
:400040008101001081010010810100108101001081010010810100108101001081010010810100108101001081010010810100108101001081010010810100108101001060
:400080008101001081010010810100108101001081010010810100108101001081010010810100108101001081010010810100108101001081010010810100108101001020
:4000C00010B5064C2378002B07D1054B002B02D0044800E000BF0123237010BD3C060008000000003C210010084B10B5002B03D00749084800E000BF07480368002B00D1CD
:4001000010BD064B002BFBD09847F9E700000000400600083C210010E8000008000000007047FFF7FDFF72B60F4C104DAC4209DA21686268A368043B02DBC858D050FAE74C
:400140000C34F3E70A490B4A0020521A02DD043A8850FCDC084809490860BFF34F8F00F005F900F01DF8FEE740210010582100103C060008140800080000000808ED00E0AD
:40018000FEE7FEE700B504207146084202D0EFF3098001E0EFF30880043001F09FF9FEE710B562B6014800F067F9FEE70000081010B5002000F010FF10BDC04670B5624977
:4001C000E0239B00CB580F2213401A00D0329200525807210A40032A05D0042A06D0002A12D15A4814E05A4A106811E01A00C0329200554952581F210A40112A06D0132A7C
:4002000004D0FA20C00103E0524801E080200002002B36D14C4BB222D2009A5801211140B125ED005A59120F032422405B591B0F1C4207D0444C63591B0F03242340012BDC
:4002400002D102E0012300E00023002B01D0002901D1032A4BD13C4BB022D2009D58AD03AD0B3D495958C904C90C9C58240E01231C40013401F03CFC6843210001F038FC0C
:4002800035E0012B33D1304BC822D2009A5801251540C024E4001A59120F03210A401B591B0F194207D028490B591B0F03210B40012B02D102E0012300E00023002B01D049
:4002C000002D01D1032A12D11F4DC022D200AB587F210B40A958090A1F263140AC58240C3440584301F004FC210001F001FCE0239B00154AD3581B0903221340D840144C98
:400300006060164B1D692D0AFC32154001351969090E013101F0ECFBA060290001F0E8FB0500E06020610E4BC0180E4901F0E0FB20750D4BE818FA21890001F0D9FBA06115
:40034000C003E06170BDC0460000264000127A00C000000800366E0184050000000021403F420F0040420F00E703000010B5284801F0B8FB274CB022D200A3585B005B0849
:40038000A350E0218900635830208343635080235B04A350204A214BE250A02292010433E250FF221E4BE25001F08AFBC0225200A35801218B43A35000F08CF9FFF7FEFED6
:4003C000B0235B055B78002B04D0B0235B055B78DBB200E02123212B03D1124B0022DA605A60114C22008021042000F09BFB2000103000F02FFC0D4B1A685123D35C002BC1
:4004000002D00B4800F09CFC00F064FA10BDC046842000100000264001000200840500008C050000E00023405806000810080008581C00108023024AD3580320184070471E
:400440000000214010B501F0DCF8084980228C58074B2340074C23438B508823034AD358DB06FAD501F0D1F810BDC04600002140FCFF00000100FA0570B50500830504D02F
:40048000E821FF310F4800F0FBFF01F0BAF80400FFF7D0FF032801D1FFF7D4FF0A4AB0239B00D55080215058084B03400848034353508823044AD358DB06FAD5200001F0AC
:4004C000A4F870BD8C1C001000002140FCFF00000300FA05FEE7C04630B587B06E49A022D2008B58032083438B506C4A116808688823CB58C318186869490840186013686F
:40050000186884241B59C01803681B021B0A80256D042B430360106805680359EB1818680140196013683E229A5C002A06D05A48E02189004258753CA24342503E229A5C20
:40054000002A06D05448E021890042583024A24342503E229B5C002B07D04F49E02292008B588020000603438B500021012000F065FD0021022000F061FD0021032000F068
:400580005DFD0021042000F059FD0021002000F055FD01A8434903000A0032CA32C312CA12C300F079FD002802D00420FFF792FF39493D4A8B588020000603438B503B48AE
:4005C00000F024FE002802D00420FFF783FF324C374BE158374A0A40E250E158364A0A40E250E25880252D062A43E250043BE158324A0A40E250E158314A0A40802189019E
:400600000A43E250E258802109020A43E2502D4A11682D4B0B40802149000B431360002001F030FA294BE2581543E550E158012291430A43E2506421002000F067FF174BF6
:400640001B683F229A5C052A03D90021204A986881509A6874215B5AD2181168104B0B408C2189010B4313600C4B1A687323D15C703B8B4019007023D35C7220105C83403E
:400680000B43802109060B438021C9009068435093685B5807B030BD0000264010080008FF00FFFFA41C0010087F0000400D030004050000FEFCFFFFFFFF00FFFFF0FFFF92
:4006C000FF8FFFFF00002740FFFCFFFF0C050000140C000070B58AB09621002000F016FF00F0ECFE002801D100F0D8FE012001F061F91B4A516C1B4B0B40E82189010B43E8
:400700005364536C1B0AFF2213403A2B07D1144A516C154B0B40E82189010B435364FFF7DBFE01AD114C2A002300143343CB43C243CB43C243CB43C229000D4800F0D2F830
:400740002A002300383313CB13C213CB13C213CB13C22900074800F0C5F80AB070BDC04600002740FF00FFFFFFC5FFDFA41C00108002324000033240214B984230D00ED82B
:40078000402831D004D800281FD010282AD031E080282BD080235B00984229D02AE0194B984229D007D8A0231B0698420DD0164B984212D01EE0154B98420AD0144B984203
:4007C00009D0144B984215D101E0002016E0124814E0124812E0124810E0A020C0030DE007480BE00F4809E00F4807E00F4805E0034803E00E4801E0A420C0037047C04619
:4008000006005200010000F0090000A0040000F0050000F0030000F0010052000200520003005200010050000200500005005200FF00520070B5124B1A683123D35C002BF1
:4008400004D1C421FF310F4800F01AFE0C4B1D682C00B423EB582A6A944663441B68002B0BDB094B1868FFF787FF6B6801229A6063689B68002BFBD100E0044870BDC04600
:4008800010080008001D0010E80700080200500010B50D4B1861002805D002230370FD33437000234380094B1B6850229A5C002A08D051229B5C002B04D04F3A044900200E
:4008C00000F0F8FA10BDC046E8070008100800086101000810B502481430FFF7D9FF10BDE807000870B505000C0000285DD000295DD0FF230A689A4303D099212D4800F099
:40090000BFFDFF2322699A4303D09A21294800F0B7FDA3685B0D03D09B21264800F0B0FD63685B0A03D09C21224800F0A9FDE3695B0F03D09D211F4800F0A2FD236A5B0FCD
:4009400003D09E211B4800F09BFD1B4A11688B69EB1ADB0949691B01CB18216829607D211068415C6918E06808607E211068415C6918206908607F211068415C6918606973
:4009800008607C211068415C6918A06808606168A961116880228A5CAD18A2692A60E2691A60226A5A60002002E0044800E0034870BDC046401D00101008000801005A005F
:4009C00070B504000D000A4B1A68B423D3581B181B68002B0ADA0B0C03D00649064800F04FFD2D042D0C6560002000E0034870BD10080008D5020000C01D001001008A004A
:400A000070B505000C000368002B01DA002300E0084B002B0BD1EA60230C03D00649074800F02EFD2404240CAC60002000E0014870BDC04601008A00BB020000C01D001098
:400A400070B505000C1E03D19921084800F018FD074B1A68B423D3585B191B68002B03DAEB682360002000E0024870BD001E00101008000801008A0070B504000D00234BA0
:400A80001A683123D35C834236D9002936D00B68DB0635D13123D35C984204D3C421FF311B4800F0EDFC194B1B681A6AB0215B5A5C431419174E34602B68DA080021686833
:400AC00001F0A2F800212000FFF77AFF3468002D03D111490E4800F0D3FC2A0000212000FFF78EFF00280DD10A4B18680021FFF767FF002808D108E0084806E0074804E017
:400B0000064802E0064800E0054870BD10080008C01D0010000800089303000003018A0001018A0010B50400002A17D1002915D1124B1A683123D35C984204D3C421FF31FE
:400B40000F4800F09DFC0D4B1B681A6AB0215B5A5C4314190B4B1C6000200EE0002A09D0002909D0074B59609A60191D2000FFF783FF02E0044800E0034810BD10080008E6
:400B8000C01D00100008000803018A00F0B583B00D001C4B1B68DC68236883422DD947097B01C01A012383401E00002903D100F028FD019001E000230193124B1868036813
:400BC000002B01DA002300E00F4B002B0ED16368BF00DF193B68334203D0B3433B60002400E00A4C0021FFF7EBFE00E0084C002D04D1019800F009FD00E0064C200003B066
:400C0000F0BDC0460008000801008A00020188000301880004018A000A4B1B68DA68136883420BD943095901401A0121814052689B009B580B4203D0034802E0034800E0DF
:400C400003487047000800080101880004018A0000018800034B1B68002B01D1014B18607047C0460C080008F0B5474680B404000F0090461E002D4B1B68002B03D1B52118
:400C80002B4800F0FDFB294B1B682C2060431C18FF22150035402560330A13406360360CA660244B1A683123D35C9D4204D3C421FF31214800F0E4FB1E4B1A68B023D35A92
:400CC0006B43116A8C466344236166683223D35C9E4204D3E021FF31174800F0D1FB154B1B681D6A80367601AD196561A668330C04D0FF214900104800F0C2FB330C03D0B5
:400D00000E490D4800F0BCFB3604330C1E43AE604346E36127620023A361069B002B02D000229B5EA38104BC9046F0BD0C080008401E001010080008C01D0010FF01000044
:400D4000F0B58FB0041E03D15221294800F098FB6368032B03D95421254800F091FBE36A002B03D15821224800F08AFB236B002B03D159211E4800F083FB07AA130021009B
:400D800061C961C321C921C302AD290023001433C1CBC1C141CB41C10821535E0CAE3380144B1B6836215B5E07998C466344B370089B0D930B9B0A980096A26AE16AFFF7D6
:400DC00053FF2B69E868002200920021FFF74CFF216B300000F0E6FA0023F25E002A05DB1F231A401E3B9340034A13600FB0F0BD401E00101008000800E100E0F8B50500A9
:400E00000F0016001C00002A03D1FD21224800F037FB224B1B68002B03D1FE211E4800F02FFB1E4B1B682C2128004843181879435918012213004D68AB401B044568AA4066
:400E400015000269002A20D08F69002F1FD11268002A01DA002200E0114A002A19D132681204120C134333600369DE6001238B614C6204692B0C03D00A490B4800F000FBAA
:400E80002A04120CA260002004E0084802E0084800E00748F8BDC046401E00100C08000801008A00BB020000C01D001004028A0007028A0070B504000D0016000F4B1B6869
:400EC000002B04D1AF2149000D4800F0D9FA0B4B1B682C2060431C18236A002B04D1B1214900074800F0CCFAE369B34204D9236AB6009D51002000E0024870BD0C08000836
:400F0000401E00100A028A0070B582B0040000230193002804D1D221FF312D4800F0B0FA2369002B04D1E9214900294800F0A8FA6369002B04D1D421FF31254800F0A0FAA2
:400F4000236A002B04D1EA214900214800F098FA6269D5682B0C24D01B041360136820691C4B1A68B423D358C3181B68002B18DA01A9FFF765FD00280ED1019803681E0C3F
:400F8000FF221340E269934207D29B00226AD358002B02D0984700E0002631002069FFF70FFD2D042D0C0FD063691D601B68636A002B03D098470023636203E0A36A002B12
:400FC00000D098470023A36163691B6802B070BD401E00101008000810B50400084B1B68002B04D1B221FF31064800F049FA044B1B682C2060431818FFF786FF10BDC046FD
:401000000C080008401E001010B50400094B1B689B6CC340DB0703D4BE21074800F030FA044B1B681B691034A402E3580F20184010BDC04610080008801E0010134B1A68F8
:401040003C23D35C83421DD9042904D94B1EFF3B9BB2132B18D8FF290CD91F2319400C4A0300C0339B009950D03080000423835000200AE007231940D0308000044BC150A0
:40108000002002E0034800E002487047100800080000264001004A0070B5041E03D14A494A4800F0EDF9B023DB00494AD358002B00DA87E0474B22689A4203D94649434855
:4010C00000F0DEF923689B039B0BE279002A02D08022520400E000221343B022D2003C498B50A2883D4B9A4204D984218900374800F0C6F92289344B9A4203D9384933480A
:4011000000F0BEF9A388DB04D90C23891B04354A13400B43344A2E498B50A37A0F2B04D986218900294800F0ABF9E37A0F2B03D92E49264800F0A4F9A289284B9A4203D9BA
:401140002B49224800F09CF9A37A0F211940E27A1201FF2313400B43A289120225490A401343A27B1207C02189050A401343B122D20017498B50A379042B03D91E491348D9
:4011800000F07EF9228A104B9A4204D9892189000E4800F075F90E4818494558184B1D40A3791B02E022D20013402B4343504558144B1D40238A1B040A4A13402B434350DF
:4011C000002000E0104870BDFF010000C01E001000002640FFFF030009020000FF1F0000110200000000FF0184050000190200001A02000000FF1F00230200008C05000045
:40120000FFF8FFFFFFFF00FE03004A0070B505003149324A8B588020000603438B502C0003E0012000F020F9013CB223DB002A4AD3585B0701D4002CF3D12749B122D200A5
:401240008858274B03408020800503438B50002D01D0002C0CD02049B022D2008B588020000603438B5003E0012000F0FDF8013CB223DB00184AD358DB0701D4002CF3D1CC
:40128000002D01D0002C08D01349B122D2008B58C020800503438B5013E00F4BB121C90058580F4A02408020800502435A5008395A58520052085A5008495A585200520883
:4012C0005A50002D03D0002C03D0002002E0002000E0044870BDC046000026408C050000FFFFFFCF02004A0070B505000C001A4B1B6828229A5C012A15D182080721100084
:40130000884327D19200AD1AED00FF20A8401B6820339A181168AC4023004B40184004004C40146016E03A229B5EDBB2994203D176210A4800F0A4F8074B1B681B68072229
:4013400015408022120615438022920194466444A400E55070BDC04610080008481F001070B504000D000B4B9A680B4B9A420CD1002904D13821FF31084800F081F810348B
:40138000054BA400E058E55003E01034A400044BE05870BD00ED00E000000008481F001000000010F0B5474680B482B0061E01914AD04368032B03D93221264800F060F8CB
:4013C0000023F05E002804DBB178FFF78DFF002400E0214C0023F15E7368002912DB88081E4FC0308000C55903221140C900FC3290468A4095439A01434613408B402B43D6
:40140000C35116E089B20F220A40083A92080632920013481018476803221140C900FF252A008A4097439A012B0013408B403B4343600B4B9A680B4B9A4206D10023F05E0C
:401440000199FFF78DFF00E0034C200002B004BC9046F0BD481F00100100560000E100E000ED00E00000000810B5034B1B78584300F0BEF810BDC046D400000801BEFEE76E
:4014800070B50D00044C18220100200000F0C4FBA5610020FFF7F2FF00060008054B802212069A649B6C002B01DB002000E002487047C0460000274003004600054B8022C6
:4014C000120198585B68FF221A4202D08023DB021843704700002640FEE7C04610B50A4B0268DA6142681A6282685A62C2689A620269DA6242691A6382695A63C2699A63A4
:40150000FFF7EAFF10BDC04600060008F0B5474680B4002801D0192300E064238B429B415B42304D2C682268A826A45BA41822680327BA433B401A4322602C682268A45B57
:40154000A2181668284CA046264016602C682668AA229446A25A96193268BA43134333602A6813686546525BD3181A68444614401C60002805D010291BD921291BD8012056
:4015800024E0184B1B6855229A5C914215D956229A5C914213D957229A5C914211D958229A5C91420FD959229B5C99420DD804200CE000200AE0022008E0002006E0012012
:4015C00004E0022002E0032000E00520054A1268526813680F218B430343136004BC9046F0BDC04610080008FFFCFFFF000000000230800803D001300238FCD1C046C046F3
:401600007047EFF3108072B6704780F31088704710B5B0235B059B899BB2002B04D0B0235B059B899BB201E080235B0080225200934215D1184C23681968683A9B58C91860
:401640000B680F208343963A13430B6021680C689C23CB58E318196881430A431A6019E00D4C2368196898229B58C918B02040050A4BC2580A4B13400A681343C022920037
:4016800013430B60226811689C23D358CB18054A82581A6010BDC0461008000848180000FFFCFFFF4418000030B5B0235B059B899BB2002B04D0B0235B059B899BB201E041
:4016C00080235B0080225200934215D1184C23681968683A9B58C9180B680F208343953A13430B6021680C689C23CB58E318196881430A431A6019E00D4D2B681968982258
:401700009B58C918B0246405C12040012258094B13400A681343C022920013430B602A6811689C23D358CB1822581A6030BDC04610080008FFFCFFFFB0235B059B899BB2DC
:40174000002B04D0B0235B059B899BB201E080235B008022520093420DD1104B1B681A6898215B58D21811680D4B0B40C021C9010B43136011E0094B1B68196898229B580C
:40178000C918084BB0225205D258074B13400A681343C022920013430B60704710080008FF8FFFFF18180000FFFCFFFF30B5B0235B059B899BB2002B04D0B0235B059B8995
:4017C0009BB201E080235B008022520093420DD1134B1B681A6898215B58D2181168114B0B408021C9010B43136018E00C4D2B68196898229B58C918B02464050A48225815
:401800000A4B13400A681343C022920013430B602A6811689C23D358CB1822581A6030BD10080008FF8FFFFF4C180000FFFCFFFF10B5B0235B059B899BB2002B04D0B02306
:401840005B059B899BB201E080235B0080225200934217D10020FFF7D7FBB0235B055B78002B04D0B0235B055B78DBB200E02123222B03D8002803D1013004E0012002E027
:40188000002000E0012010BDF8B50700012803D93D493E48FFF7F4FDB0235B055B78002B04D0B0235B055B78DBB200E021239DB2B0235B059B899BB2002B04D0B0235B05AD
:4018C0009E89B6B201E0802676000020FFF79CFB002814D180235B009E4212D1222D12D82B4B1B685C682B4821582B4B19403B068022520413400B432350002404E0274C68
:4019000002E0264C00E0254C80235B009E4201D1222D03D880235B009E4232D01C4B1A683123D35C002B04D1C421FF311C48FFF7A7FD174B1B681D6A80235B009E4203D1AB
:40194000002F05D0174A06E0002F03D0164A02E0164A00E0164A01212800FFF751F800280FD10B4B1A68B423D3585B191B68002BF7DBEB681B0E1B06A0221206934200D1BC
:4019800000242000F8BDC0464C0A00008C1F00101008000818F00000FFFFFFFE04004200001D0010010100300300000C010000300100000CF8B50500012804D9822109019D
:4019C0002948FFF75DFDFFF733FF002849D0FFF718FE0700002D11D10021244B244AD150E823DB00B0225205D65CF6B20120FFF74BFF041E19D1FFF70BFE16E0B022520508
:401A00001C4BD0581A4B194958501B49565CF6B21A481A581F218A4314390A431A500320FFF722FDFFF7C2FE0024002C15D11049124A8B581F20834306401E438E50002D92
:401A400002D1FFF779FE08E00720FFF70DFDFFF72BFE0020FFF718FF04003800FFF7D5FD00E0074C2000F8BD8C1F0010307F00000000264010180000410700001CFF000064
:401A800003004200042805D10B4A116804230B4313600FE0094B1A681168A023D358CB180006C022920410401860034A136804218B4313607047C04610E000E010080008F9
:401AC0000749C02252008B589B009B088020C00503438B508B588020000603438B50704700002640014B18607047C04610080008002243088B4274D303098B425FD3030ABA
:401B00008B4244D3030B8B4228D3030C8B420DD3FF22090212BA030C8B4202D31212090265D0030B8B4219D300E0090AC30B8B4201D3CB03C01A5241830B8B4201D38B0301
:401B4000C01A5241430B8B4201D34B03C01A5241030B8B4201D30B03C01A5241C30A8B4201D3CB02C01A5241830A8B4201D38B02C01A5241430A8B4201D34B02C01A5241AC
:401B8000030A8B4201D30B02C01A5241CDD2C3098B4201D3CB01C01A524183098B4201D38B01C01A524143098B4201D34B01C01A524103098B4201D30B01C01A5241C308FB
:401BC0008B4201D3CB00C01A524183088B4201D38B00C01A524143088B4201D34B00C01A5241411A00D20146524110467047FFE701B5002000F006F802BDC0460029F7D0D1
:401C000076E770477047C04603008218934202D019700133FAE77047030030B5002A0DD00C7801335D1E013A2C700131002CF5D19A189A4202D01C700133FAE730BD00002F
:401C4000F8B5C046F8BC08BC9E467047F8B5C046F8BC08BC9E46704703000000010000000100000000000000050360000400000001000000000000000100000006046000FB
:401C800008000000C8070008B101001073797374656D5F70736F63365F636D30706C75732E630000F4010000140004010A000905080000006301000003000000000000004B
:401CC00000000000680000000000000000000000000000001212000000000000000000000000000000000000000000BA0000000000000000000000000000000000001D1D64
:401D000047656E6572617465645F536F757263655C50536F43365C70646C5C647269766572732F7065726970686572616C2F6970632F63795F6970635F6472762E680000B9
:401D400047656E6572617465645F536F757263655C50536F43365C70646C5C647269766572735C7065726970686572616C5C6770696F5C63795F6770696F2E6300000000BC
:401D800047656E6572617465645F536F757263655C50536F43365C70646C5C647269766572735C7065726970686572616C5C6770696F5C63795F6770696F2E680000000077
:401DC00047656E6572617465645F536F757263655C50536F43365C70646C5C647269766572735C7065726970686572616C5C6970635C63795F6970635F6472762E68000072
:401E000047656E6572617465645F536F757263655C50536F43365C70646C5C647269766572735C7065726970686572616C5C6970635C63795F6970635F6472762E63000036
:401E400047656E6572617465645F536F757263655C50536F43365C70646C5C647269766572735C7065726970686572616C5C6970635C63795F6970635F706970652E630094
:401E800047656E6572617465645F536F757263655C50536F43365C70646C5C647269766572735C7065726970686572616C5C70726F745C63795F70726F742E63000000004F
:401EC00047656E6572617465645F536F757263655C50536F43365C70646C5C647269766572735C7065726970686572616C5C737973636C6B5C63795F737973636C6B2E6367
:401F00000000000047656E6572617465645F536F757263655C50536F43365C70646C5C647269766572735C7065726970686572616C5C737973636C6B5C63795F737973638E
:401F40006C6B2E680000000047656E6572617465645F536F757263655C50536F43365C70646C5C647269766572735C7065726970686572616C5C737973696E745C63795F92
:401F8000737973696E742E630000000047656E6572617465645F536F757263655C50536F43365C70646C5C647269766572735C7065726970686572616C5C737973706D5C2D
:401FC00063795F737973706D2E6300000000204000002440000000400000000000002340000030400000314000009F40000022400000104002020202020202020210101DB1
:40200000800017007500FF030602063604102000000000007FC0000000040000000000000019324B647D00804000080B100000000000FF012002001F00800004FF08101889
:40204000001000140018001C4044484C50000000081000000800000004000000041000000012000004210000002100000016000040114002C41300138013A0132000000017
:402080001C0000000000214000002540000001400000344000002440000031400000324000001F410000234000001140010101010101010101101010800019005500F00017
:4020C0000501053B04101C01010000000FC000000004000001010101011D3A57789600082000101208000000001F00000010000F002000023F06080E00080009000A000BA1
:4021000024282C3034000000100000009000000088000000080000008000000004F0000000F00000400200002005A000D00100018001A00120000000100000000000000004
:402140000000001000000008C000000060210010C0000008400500003C060008D80100000048E80100127A0000093D0000093D0000093D0004000000A00F00000000D007AD
:40218000E9000010C10000100000000010B50004400B27D0144B1A68146AB023D15ACA00531AE3181B68002BF4DA3E220F4B1A600F4A104B1A60104B0621A322D2009950DB
:4021C0000E4A98509B58084B1A68106AB023D15ACA00531AC31800225A60084B064AD358002BFADA10BDC04610080008040126401E1F000008012640000026401C05000013
:4022000010B54378FF2B20D100F02AFA04000F4B1A683123D35C042B04D8C421FF310C4800F00EFA094B1A68116AB023D35A9B00CB18DB685A68116801230B431360136873
:40224000DB07FCD4200000F023FA10BD10080008001D0010F0B585B001900291544B1A683123D35C002B04D1C421FF31514800F0E7F94F4B1B681E6AB4229A5897195022B6
:402280009B5C002B77D000F0E3F9050003283CD1474B1A683123D35C062B04D8C421FF31444800F0CDF9424B1968B023CB5A5A00D21853000A6A94466344B4228A58D3187C
:4022C0001B68002B23DB002000F0AAF93A4B98421FD03A4B1A6900230021012000F0A8F9002803D0364C17E0013400E00024002000F096F9304B984202D0324B9C42F3D999
:40230000304B9C4207D92E4C06E0002404E02C4C02E02B4C00E00024002C46D100F0A0F90390294B294AD358002B13DA234A0121300000F06DF900280ED10298FFF726FFCD
:40234000019B002B0AD03B68002BFCDB00F090F9040004E01A4C02E0194C00E01C4C032D05D10121002000F08BF90028F9D1039800F08EF919E000F073F905000F4A01212C
:40238000300000F045F9002809D1019B002B08D03B68002BFCDB00F06BF9040002E0084C00E00B4C280000F073F9200005B0F0BD10080008001D001001018800E8070008E0
:4023C00005005200EF4902001C0500000000264001005000F0B54F464646C0B4824B1A685468B0235B055B78002B04D0B0235B055B78DBB200E02123212B67D1B023D15AF1
:40240000CB005B1A116A8C46634419680029F5DADD6802212943D960B023D15ACB005B1A116A8C466344D968C9073ED5D9680904090C8C4684271168D559A8464144096821
:40244000090A0904FF26360431400D0088261168894691598846C14449460968090A0906294365462943D9601168D359C9180A685E4B98461A4090252D012A430A605A4B96
:4024800099461A6813689C46925962441368414619400B002B4313604B461A681568D15969180B689359EB181B684F4B1A68B021555AEB005B1B156AAC46634400255D606F
:4024C000156A515ACA00531AEB185B68484A116904230B431361012801D030BF00E020BF414B1A68B023D15ACB005B1A116A8C46634419680029F3DAB02149054978002958
:4025000004D0B02149054978C9B200E02121212932D1D968C90722D510688421525880180468324A1440DB681B0C1B02FF2109020B40234303602C4B19688823C8580B685E
:402540009C46604403681A400D6AB023CC5AE1000B1BEB18DB681B0E1B021A430260224B1A68106AB023D15ACA00531AC318DA6802218A43DA6028E086235B00E358002BF7
:4025800023D11C4807681C4BA321C9005E581B4A904615681A4A0260062058503E21424611600631174A9950164B134AD358002BFADA154A86235B00E2500E4B1F60A3236A
:4025C000DB000D4AD6500D4B1D60074B1A68106AB023D15ACA00531AC31800225A600CBC90469946F0BDC04610080008FF00FFFF00ED00E00801264000002640040126401A
:402600001E1F00001C050000AAAAAAAA0000000001B40248844601BC604700BF010A001001B40248844601BC604700BF190C001001B40248844601BC604700BFFD0D001066
:4026400001B40248844601BC604700BF8114001001B40248844601BC604700BF3504001001B40248844601BC604700BF0316001001B40248844601BC604700BF3508001046
:4026800001B40248844601BC604700BF8D0B001001B40248844601BC604700BF0B160010000000000000000000000000000000000000000000000000000000000000000069
:4026C00000000000000000000000000000000000000000000000000000000000000000000000000000000000000000000000000000000000000000000000000000000000DA
:402700000000000000000000000000000000000000000000000000000000000000000000000000000000000000000000000000000000000000000000000000000000000099
:402740000000000000000000000000000000000000000000000000000000000000000000000000000000000000000000000000000000000000000000000000000000000059
:402780000000000000000000000000000000000000000000000000000000000000000000000000000000000000000000000000000000000000000000000000000000000019
:4027C00000000000000000000000000000000000000000000000000000000000000000000000000000000000000000000000000000000000000000000000000000000000D9
:020000041008E2
:4000000000780408EB0208100D0000005103081051030810510308105103081000000000000000000000000000000000A12C08104D03081000000000412D0810A52D0810BD
:400040004D0308104D0308104D0308104D0308104D0308104D0308104D0308104D0308104D0308104D0308104D0308104D0308104D0308104D0308104D0308104D03081000
:400080004D0308104D0308104D0308104D0308104D0308104D0308104D0308104D0308104D0308104D0308104D0308104D0308104D0308104D0308104D0308104D030810C0
:4000C0004D0308104D0308104D0308104D0308104D0308104D0308104D0308104D0308104D0308104D0308104D0308104D0308104D0308104D0308104D0308104D03081080
:400100004D0308104D0308104D0308104D0308104D0308104D0308104D0308104D0308104D0308104D0308104D0308104D0308104D0308104D0308104D0308104D0308103F
:400140004D0308104D0308104D0308104D0308104D0308104D0308104D0308104D0308104D0308104D0308104D0308104D0308104D0308104D0308104D0308104D030810FF
:400180004D0308104D0308104D0308104D0308104D0308104D0308104D0308104D0308104D0308104D0308104D0308104D0308104D0308104D0308104D0308104D030810BF
:4001C0004D0308104D0308104D0308104D0308104D0308104D0308104D0308104D0308104D0308104D0308104D0308104D0308104D0308104D0308104D0308104D0308107F
:400200004D0308104D0308104D0308104D0308104D0308104D0308104D0308104D0308104D0308104D0308104D0308104D0308104D0308104D0308104D0308104D0308103E
:400240004D0308104D0308104D0308104D0308104D0308104D0308104D0308104D0308104D0308104D0308104D0308104D0308104D0308104D0308104D0308104D030810FE
:400280004D0308104D0308104D03081010B5054C237833B9044B13B10448AFF300800123237010BD4C49020800000000D4410810084B10B51BB108490848AFF300800848A1
:4002C000036803B910BD074B002BFBD0BDE81040184700BF0000000050490208D44108101C430208000000007047FFF7FDFF72B6104C114DAC4209DA21686268A368043B7D
:40030000A2BFC858D050FAE70C34F3E70B490C4A00209142BCBF41F8040BFAE709480A490860BFF34F8F00F029F900F003F900F01DF8FEE7D8410810F04108104C49020843
:40034000680D03080040020808ED00E0FEE7FEE700B504207146084202D0EFF3098001E0EFF30880043001F02BFAFEE700B583B062B600230193022200924FF4C87203494D
:40038000034801F0ADFF01F0DDFFFEE7E43C08101906081008B5012000F09AFD08BD00BF704700BF5C4AD2F8803303F00F0303F1D00152F8212002F00702032A04D0042A33
:4003C00005D092B9554914E0554A116811E003F1C002514951F8222002F01F02112A06D0132A04D04FF4FA4103E04E4901E04FF400418BBB484BD3F8902502F00100D3F8BE
:400400008825C2F30172D3F8883513F0405F07D0414BD3F88835C3F30173012B02D102E0012300E0002303B108B9032A46D13A48D0F88025C2F31103D0F88425C2F30C02FB
:40044000D0F88005C0F300600130B1FBF2F202FB03F2B2FBF0F131E0012B2FD12E4BD3F8402602F00100D3F80026C2F30172D3F8003613F0405F07D0274BD3F80036C3F345
:400480000173012B02D102E0012300E0002303B108B9032A12D12048D0F8002602F07F02D0F80036C3F30423D0F80006C0F3044002FB01F2B2FBF3F2B2FBF0F1164BD3F896
:4004C0008033C3F3011321FA03F215494A601648D0F89030C3F3072301330069000E0130B2FBF0F08860B2FBF3F3CB600B6103F5742202F23F220D48A0FB0202C2F38742D1
:400500000A7503F2E7330A4AA2FB03239B098B61DB03CB61704700BF0000264000127A008C42020800366E010000214083DE1B43D34D621008B50D4801F0A6F9FFF730FF1E
:40054000FFF730FF00221146042000F089FA084800F01CFB074B1B6893F8513013B1064800F084FB00F0C6F908BD00BF4C40081068490208100D0308F03C081008B501F0E1
:400580007CF9074AD2F8883043F47003C2F88830BFF34F8FBFF36F8F01F073F908BD00BF00ED00E000B583B0164B0022C3F8C82F0422C3F8C02FD3F8C03F134BB3F90030F8
:4005C000002B09DB5A0903F01F03012101FA03F360320E4941F8223002A9002341F8043D0B4B186801F0DCFB019B43B13BB14FF08052084B1A60BFF34F8FBFF36F8F03B0BA
:400600005DF804FB00006640443D081000E100E0E84A020804ED00E010B500F075F8204B1868002302221946406802F093FD1D4802F05CFD03220021012001F051FA1A4BC4
:4006400018601A4C1A49204601F06EF8B4F90030002B08DB590903F01F03012202FA03F3144A42F821300422134BC3F8C82F0C4B186842685368013B5360002B04DA416809
:4006800002F03CFDC0B204E042681368591C116018783F28EBD1094802F028FDE7E700BF10430208243D0810E84A0208443D0810A505081000E100E000006640343D0810A9
:4006C00010B504462146034800F042FC0028F9D010BD00BF00006640054BD3F80833C3F30803002BF8D0024BD3F84003704700BF0000664008B50249024800F07DFF08BDE4
:40070000D80C03080000664008B5114B1B785BB9104A1149114800F04BFD1149114801F003F801220A4B1A700E4BB3F90030002B08DB590903F01F03012202FA03F30A4A5B
:4007400042F82130054A136843F00043136008BDEC4A0208D80C03084C3D081000006640F5060810443D081000E100E01F4B98422DD00CD840282ED003D8E8B1102828D064
:400780002FE0802829D0B0F5807F28D029E0184B984228D006D8B0F1204F0DD0154B984212D01EE0144B98420AD00133984209D0023B984215D101E0002070470F4870470D
:4007C0000F4870470F4870474FF4A0007047074870470D4870470D4870470D487047034870470C4870474FF4A400704706005200010000F0090000A0040000F00100520035
:400800000200520003005200010050000200500005005200FF00520038B5124B1B6893F83130012B04D840F2C3110F4800F0B8FF0C4B1D682A6AB5F8B03013442C46D5F86C
:40084000B420D358002B0BDB084B1868FFF78EFF6B6801229A6063689B68002BFBD138BD034838BD100D03088C3D0810F04A0208020050001A4B186128B102230370FF2318
:40088000437000234380174B1B6893F850202AB300B583B0B3F93830ADF80030002301931149684600F040FFBDF90030002B08DB590903F01F03012202FA03F30B4A42F814
:4008C0002130084B1B6893F8513023B102220849012000F077FA03B05DF804FB704700BFF04A0208100D03088D43020800E100E04544020808B50248FFF7BCFF08BD00BFA7
:40090000044B020838B50B4B1B68D3F8B4301B58002B0DDA0D4604460B0C1B0423B140F2D521054800F03CFFA9B26160002038BD024838BD100D0308CC3D081001008A00D9
:4009400038B50368002B01DA002300E0094B73B90D460446C2600B0C1B0423B140F2BB21054800F01DFFA9B2A160002038BD014838BD00BF01008A00CC3D081038B5044615
:400980000D4619B99921084800F00AFF074B1B68D3F8B4301B59002B03DAE3682B60002038BD034838BD00BF0C3E0810100D030801008A00254B1B6893F8313083423AD959
:4009C00000293AD00B6813F01F0F38D170B50D4604461E4B1B6893F83130984204D340F2C3111B4800F0DCFE184B1B68186AB3F8B03004FB0304174E34602A68D20800211A
:400A0000686802F010FB00212046FFF77BFF346825B940F293310E4800F0C2FE2A4600212046FFF78DFF60B900210A4B1868FFF769FF40B970BD0848704707487047064815
:400A40007047064870BD054870BD00BF100D0308CC3D0810084B020803018A0001018A0010B504461346B2B9A9B9124B1B6893F83130984204D340F2C3110F4800F090FEBE
:400A80000C4B1B681A6AB3F8B03004FB03240B4B1C60002010BD43B149B1084A51609360111D2046FFF786FF10BD054810BD044810BD00BF100D0308CC3D0810084B020810
:400AC00003018A002DE9F0411B4B1B68DC68236883422CD90D464609A0EB4610012303FA00F819B900F0C9FE074600E00027124B18680368002B01DA002300E00F4B83B93F
:400B0000626852F8263018EA030F05D023EA080342F82630002400E0094C0021FFF7F2FE00E0084C25B9384600F0ABFE00E0064C2046BDE8F08100BF084B020801008A00DC
:400B4000020188000301880004018A000B4B1B68DB681A6882420CD94109A0EB4110012202FA00F05B6853F82130184203D004487047044870470448704700BF084B0208A2
:400B80000101880004018A0000018800024B1B680BB9014B18607047144B02082DE9F8430446884691461D46089F2C4B1B681BB9B5212B4800F0F4FD284B1B682C2000FB9C
:400BC00004F01C18EEB21E50C5F3072363602D0CA560244B1B6893F831309E4204D340F2C311214800F0DCFD1E4B1B68196AB3F8B02006FB02162661666893F832309E42EA
:400C000004D340F2DF11184800F0CAFD154B1B681D6A803605EB46156561A668330C1B0423B14FF4FF71104800F0BAFD330C1B0423B140F2FF110C4800F0B2FDB3B243EA88
:400C40000646AE60C4F81C90C4F820800023A36117B1B7F90030A381BDE8F883144B02084C3E0810100D0308CC3D0810F0B58FB0044618B95221274800F092FDA369072B51
:400C800003D95621234800F08BFDE36A1BB95821204800F085FD236B1BB959211D4800F07FFD07AD04F114060FCE0FC537682F6002AD26460FCE0FC533682B60164B1B6865
:400CC000B3F93620079B1344ADF83030089B0D93A26AE16A0CAD00953B460A98FFF75EFF00210091069B0A460598FFF757FF216B284600F019FDBDF93030002B08DB590984
:400D000003F01F03012202FA03F3044A42F821300FB0F0BD4C3E0810100D030800E100E0F8B506460F461D4614461AB9FD211F4800F036FD1E4B1B681BB9FE211B4800F001
:400D40002FFD1B4B1B682C2101FB063001FB07314B68012202FA03F31B04466802FA06F60269EAB18F69EFB91268002A01DA002200E0104AC2B92288134323600369DC60F7
:400D800001238B614D620469330C1B0423B140F2BB21094800F004FDB2B2A2600020F8BD0648F8BD0648F8BD0548F8BD4C3E0810144B020801008A00CC3D081004028A00FB
:400DC00007028A00F8B505460F4616460E4B1B6823B94FF4AF710D4800F0E2FC0A4B1B682C2404FB0534236A23B94FF4B171074800F0D6FCE369B34204D9236A43F82670BE
:400E00000020F8BD0248F8BD144B02084C3E08100A028A0070B582B000230193044620B940F2D111284800F0BBFC236923B94FF4E971254800F0B4FC636923B940F2D31111
:400E4000214800F0ADFC236A23B94FF4EA711E4800F0A6FC6369DD682A0C20D012041A601B682069194B1B68D3F8B430C358002B15DA01A9FFF782FD60B9019803681E0C6D
:400E8000DBB2E269934206D2226A52F8233013B1984700E0002631462069FFF733FDADB275B16369ADB21D601B68636A1BB198470023636202E0A36A03B198470023A361FC
:400EC00063691B6802B070BD4C3E0810100D030810B50446074B1B6823B940F2B111064800F05EFC034B1B682C2000FB0430FFF791FF10BD144B02084C3E081010B4D0F878
:400F0000003303F00F03072B06D900230DE0D0F84043CC54013300E000239342F7D306E0D0F8404321F8134001339342F8D35DF8044B704710B51446D0F80833C3F3080368
:400F40009A4200D31C462246FFF7D8FF204610BD036813F4006F01D0802200E04022D0F80832C3F30803934203D0C0F84012012070470020704700BF10B4D0F8003203F0CE
:400F80000F03072B06D900230DE0CC5CC0F84042013300E000239342F7D306E031F81340C0F8404201339342F8D35DF8044B704710B51446036813F4006F01D0802200E0A8
:400FC0004022D0F80832C3F30803D31AA34200D81C462246FFF7D0FF204610BD2DE9F84305460C46036813F4006F02D04FF0800801E04FF04008D5F8007207F00F07A26A38
:40100000012A19D9D4F82490E262561EB9F1000F00D026B940F27351254800F0C1FB324649462846FFF7C4FFA36A1B1AA362072F00D9400048446062D5F80832C3F308030A
:40104000984533D0A36A012B30D10023A362072F02D8636A1E7801E0636A1E8800F00DFCC5F840624FF40073C5F8803FD5F8803F00F007FCD5F8883F23F4007222F001022C
:4010800042F4007623F4EE6323F0030323B140F22A41084800F084FBC5F8886F236843F002032360236B0BB101209847BDE8F8838C3E0810CC3E08102DE9F04105460C4687
:4010C000036813F4006F01D0802600E040267608A769D4F81C8017B1B8F1000F04D14FF49961314800F05CFB424639462846FFF721FF236A03442362E3691B1AE36173BB33
:40110000A368FBB1E3689E4201D8013E00E05E1E2B6813F4006F01D0802300E040239E4204D34FF42071214800F03AFBD5F8043323F0FF03F6B21E43C5F804630123C5F859
:40114000C83F02E00023C5F8C83F636823F001036360236B33B304209847BDE8F081A169D5F8002302F00F02072A00D940000844A0619E4216D95C1E2B6813F4006F01D0B6
:40118000802300E040239C4204D34FF42071074800F006FBD5F8043323F0FF02E3B21343C5F80433BDE8F0818C3E0810CC3E0810002800F0A48170B50546002900F0A18187
:4011C00016460C460B78022B03D93F21A24800F0E7FA637B023BDBB2062B03D940219E4800F0DEFAA37B3BB1022B05D0032B03D04121994800F0D4FA94F82130012B03D9E3
:401200004221954800F0CCFA94F82830012B03D94321914800F0C4FA2378012B06D86368083B082B94BF0023012307E0A37F2BB16368013B062B94BF002301231BB1452178
:40124000854800F0ADFAA368053B042B03D94621814800F0A5FA6369FF2B03D947217E4800F09EFAA369FF2B03D948217A4800F097FAA37C6BB1237833B9A368092B05D1D8
:40128000A37B2BB1012304E0012302E0012300E000231BB14A21704800F082FA636B23F4366323F00D031BB14C216B4800F078FAE36B23F4EE6323F003031BB14D216648FE
:4012C00000F06EFA2378022B01D1A37F13B16268013A00E00022237F13B14FF4803100E00021A368082B02D84FF4006300E000230B4302F00F02134343F000732B60226B8E
:401300002B6813F4006F01D0802300E040239A4203D36221504800F043FAA26B2B6813F4006F01D0802300E040239A4203D36321494800F035FA626A2B6813F4006F01D09A
:40134000802300E040239A4203D36421424800F027FA23781B0603F040732B64637F0BB1402200E00022A37C13B14FF4806300E000231343227C12B14FF4807200E00022C8
:401380001343627C12B14FF4007200E000221A43E36A013B1B0403F470231343627B013A02F007021343A27B120102F030021343AB64237B13B14FF4807200E00022E37B81
:4013C00023B92378022B03D1012302E0012300E0002313B14FF4007300E000231A43A368013B03F00F031343C5F80033227DA3691B0403F47F031343C5F81033E26AD5F82A
:40140000003303F00F0303339A4201D3102A03D97A21114800F0C4F9E37F23B12378012B03D0002302E0002300E0012313B14FF4807200E00022637B013B03F007031A436C
:40144000A37B1B0103F0300313436B64237B2BB14FF4807203E000BF103F08100022A368013B03F00F0313432278012A02D14FF4803200E000221343C5F8003294F83030AB
:40148000C5F8043394F8203013B14FF0007200E0002294F82130012B02D14FF0807300E00023134394F82820012A02D14FF4803200E00022134394F8242013432B6594F81D
:4014C0003830C5F80432636B23F4926323F002031B051B0DC5F8C83FE36B23F08C035B055B0DC5F8883F76B1002070603060B060F0603062F0623063044B736370BD04483B
:401500007047034870BD002070BD00BFEFCDAB000160AA000B694A69934202D34869181A7047CA694869101A184470472DE9F04107460D46036813F4006F02D04FF0800811
:4015400001E04FF040084FEA5808D7F80863C6F308062C6926E00134EB689C4200D100246B699C420FD12B6B0BB1082098476B699C4208D10023C7F8C83F0CB1013C13E027
:40158000EC68013C10E0D7F84023D7F8003303F00F03072B02D8AB681A5502E0AB6823F81420013E002ED6D12C61EC6829463846FFF7B0FF201A804519D908B1441E00E02C
:4015C00000243B6813F4006F01D0802300E040239C4204D34FF42071064800F0E1F8D7F8040320F0FF03E0B21843C7F80403BDE8F08100BFCC3E081038B504460D46D0F873
:40160000003E13F0080F35D0D0F8CC3F13F448730AD04A681A434A60C0F8C03FD0F8C03F0B6B0BB110209847D4F8CC3F13F4006F09D06B6843F400636B604FF40063C4F8A6
:40164000C03FD4F8C03FD4F8CC3F13F0010F11D0EB6923B129462046FFF72EFD05E0AB681BB129462046FFF761FF0123C4F8C03FD4F8C03FD4F8003E13F0040F2ED0D4F834
:401680008C3F13F4A0630AD02A681A432A60C4F8803FD4F8803F2B6B0BB120209847D4F88C3F13F0010F08D029462046FFF796FC0123C4F8803FD4F8803FD4F88C3F13F4E4
:4016C000007F0BD00022C4F8882F2B6823F001032B60EA622B6B0BB10220984738BD00BF38B50D4B9A680D4B9A420FD10D46044621B940F237110A4800F052F804F1100393
:40170000064A52F8230042F8235038BD1030054B53F8200038BD00BF00ED00E000400208503F08100000081048B338B504460D464368072B03D93221134800F031F8B4F913
:4017400000306268002B08DB5201D2B203F1604303F5614383F8002305E003F00F035201D2B20A49CA540A4B9A680A4B9A4208D12946B4F90000FFF7B3FF002038BD0648FF
:401780007047002038BD00BF503F081014ED00E000ED00E0004002080100560001BEFEE738B50D46044C18220146204601F07CFDA5610020FFF7F2FFB8480208FEE700BF68
:4017C00008B50268254BDA6142681A6282685A62C2689A620269DA6242691A6382695A63C2699A631E4A916AD963D16A1964516A5964516B9964926BDA64F1EE103A13F097
:40180000900F27D0026A154B1A65426A5A65826A9A65C26ADA65026B1A66426B5A66826B9A66C26BDA66026C1A67426C5A67826C9A67C26CDA67026DC3F88020426DC3F862
:401840008420826DC3F88820C26DC3F88C20026EC3F89020FFF7B2FF08BD00BFB848020800ED00E0000000000230800803D001300238FCD100BF00BF7047EFF3108072B66B
:40188000704780F310887047014B1860704700BF100D030800F1080343604FF0FF328260C360036100230360704700BF00230361704700BF43684B609A688A609A685160E7
:4018C00099600861036801330360704730B40D68B5F1FF3F01D1026907E000F1080200E01A4653681C68A542FAD253684B6099608A605160086103680133036030BC704737
:4019000003694268816891608268416851605A68904201D182685A60002202611A68013A1A601868704700BF10B5044601F0CAF9A26BE36B9A4201D1012400E0002401F0D1
:40194000E3F9204610BD00BF10B5044601F0BAF9A36B0BB9012400E0002401F0D5F9204610BD00BF70B504461646856B026CFAB166B9806801F04CFBA268236C1344A36034
:401980006268934214D32368A36011E0C06801F03FFB236C5B42E2681A44E26021688A4202D262681344E360022E01D105B1013D0135A563002070BD026C72B110B503460C
:4019C000C4681444C4604068844201D31868D8600846D96801F01CFB10BD704738B5054601F070F995F8454064B20AE06B6A53B105F1240000F086FE08B100F011FF013C29
:401A000064B2002CF2DCFF2385F8453001F07CF901F058F995F8444064B20AE02B6953B105F1100000F06EFE08B100F0F9FE013C64B2002CF2DCFF2385F8443001F064F981
:401A400038BD00BF38B540B94FF03F0383F31188BFF36F8FBFF34F8FFEE704460D4601F031F92168E26B236C03FB021060600020A063A160013A02FB0313E360FF2384F8D7
:401A8000443084F845307DB92369ABB104F1100000F038FE80B14FF08052094B1A60BFF34F8FBFF36F8F07E004F11000FFF7F2FE04F12400FFF7EEFE01F026F9012038BD35
:401AC00004ED00E010B5029B0C4609B91B6000E01A60D8631C6401211846FFF7B3FF10BD40B94FF03F0383F31188BFF36F8FBFF34F8FFEE7F0B583B0034611B101FB00F09D
:401B000000E000201D4617460C46483001F01CFA064638B100903B4600F1480221462846FFF7D0FF304603B0F0BD00BFF0B585B0019240B94FF03F0383F31188BFF36F8FBE
:401B4000BFF34F8FFEE7044619B9026C1AB9012202E0012200E0002242B94FF03F0383F31188BFF36F8FBFF34F8FFEE7022B03D1E26B012A02D102E0012200E0002242B96B
:401B80004FF03F0383F31188BFF36F8FBFF34F8FFEE71D460E4600F04BFE18B9019B1BB9012302E0012300E0002343B94FF03F0383F31188BFF36F8FBFF34F8FFEE700273A
:401BC00001F080F8A26BE36B9A4201D3022D21D12A4631462046FFF7C5FE636A6BB104F1240000F08FFD88B14FF08052324B1A60BFF34F8FBFF36F8F08E038B14FF0805269
:401C00002D4B1A60BFF34F8FBFF36F8F01F07CF801204EE0019B1BB901F076F8002048E01FB902A800F0B2FD012701F06DF800F0C7FB01F047F894F844305BB2B3F1FF3F37
:401C400002D1002384F8443094F845305BB2B3F1FF3F02D1002384F8453001F055F801A902A800F09DFDF0B92046FFF75DFEA0B1019904F1100000F00DFD2046FFF7AEFE39
:401C800000F02CFC00289BD14FF080520A4B1A60BFF34F8FBFF36F8F92E72046FFF79EFE00F01CFC8CE72046FFF798FE00F016FC002005B0F0BD00BF04ED00E02DE9F84315
:401CC00040B94FF03F0383F31188BFF36F8FBFF34F8FFEE7044619B9006C18B9012002E0012000E0002040B94FF03F0383F31188BFF36F8FBFF34F8FFEE7022B03D1E06BBF
:401D0000012802D102E0012000E0002040B94FF03F0383F31188BFF36F8FBFF34F8FFEE71F469046894601F0D1F8EFF311864FF03F0383F31188BFF36F8FBFF34F8FA26BDC
:401D4000E36B9A4201D3022F1ED194F845506DB23A4649462046FFF705FEB5F1FF3F0DD1636A9BB104F1240000F0CCFC80B1B8F1000F0FD00120C8F800000CE06B1C5BB2C2
:401D800084F84530012006E0002004E0012002E0012000E0012086F31188BDE8F88300BF40B94FF03F0383F31188BFF36F8FBFF34F8FFEE770B50446036C43B14FF03F0310
:401DC00083F31188BFF36F8FBFF34F8FFEE703681BB943681BB9012302E0012300E0002343B94FF03F0383F31188BFF36F8FBFF34F8FFEE70E4601F069F8EFF311854FF0B6
:401E00003F0383F31188BFF36F8FBFF34F8FA26BE36B9A4218D294F845305BB20132A263B3F1FF3F0AD1636A83B104F1240000F069FC68B176B1012030600CE001335BB260
:401E400084F84530012006E0002004E0012002E0012000E0012085F3118870BDF0B585B0019240B94FF03F0383F31188BFF36F8FBFF34F8FFEE7044619B9036C1BB9012365
:401E800002E0012300E0002343B94FF03F0383F31188BFF36F8FBFF34F8FFEE70E4600F0C7FC18B9019B1BB9012302E0012300E0002343B94FF03F0383F31188BFF36F8FB7
:401EC000BFF34F8FFEE7002700F0FCFEA56BC5B131462046FFF770FD013DA563236963B104F1100000F00EFC38B14FF08052304B1A60BFF34F8FBFF36F8F00F005FF01206D
:401F000053E0019B1BB900F0FFFE00204DE01FB902A800F03BFC012700F0F6FE00F050FA00F0D0FE94F844305BB2B3F1FF3F02D1002384F8443094F845305BB2B3F1FF3F52
:401F400002D1002384F8453000F0DEFE01A902A800F026FCF0B92046FFF7F6FCA0B1019904F1240000F096FB2046FFF737FD00F0B5FA0028A8D14FF080520D4B1A60BFF367
:401F80004F8FBFF36F8F9FE72046FFF727FD00F0A5FA99E72046FFF721FD00F09FFA2046FFF7D2FC00288FD0002005B0F0BD00BF04ED00E000230BE0074A52F8332032B9D1
:401FC000054A42F8331002EBC303586070470133092BF1D9704700BF140D030870B504460D46164600F06EFE94F844305BB2B3F1FF3F02D1002384F8443094F845305BB2C2
:40200000B3F1FF3F02D1002384F8453000F07CFEA36B2BB93246294604F1240000F054FB2046FFF7DBFC70BD094B9B6A1B680BB9012300E0002323B14FF0FF32044BDA6246
:402040007047034B9A6AD268D2685268DA627047544B020810B50446006B00F0A5FF204600F0A2FF10BD00BF2DE9F0478246894615469846089F099E0A9C9200A521206B08
:4020800000F0D1FF236B05F18042013A03EB820525F00705002308E019F80310E21882F8341019F8032012B101330F2BF4D9002384F84330062F00D90627E762201DFFF767
:4020C000F5FB04F11800FFF7F1FB2461C7F10703A3616462002306E003F1100204EB8202002151600133042BF6D90023A36584F85C3042465146284600F0BCFD206006B1CA
:402100003460BDE8F08700BF70B5002407E004EB8402930010481844FFF7BCFB0134062CF5D90E4C04F1BC063046FFF7B3FB04F1D0052846FFF7AEFB04F11400FFF7AAFBBC
:4021400004F1E400FFF7A6FB2046FFF7A3FBA662C4F8F85070BD00BF844B0208544B020838B5044600F0AEFD264BD3F8FC200132C3F8FC20D3F800314BB9224BC3F80041DE
:40218000D3F8FC30012B10D1FFF7BEFF0DE01D4BD3F804314BB91B4BD3F80031DA6AE36A9A4202D8174BC3F80041164AD2F808310133C2F80831E36AD2F80C21934202D98A
:4021C000104AC2F80C310F4D05F1300003EB83039A00211D1044FFF76DFB00F095FDD5F804316BB1D5F80031DA6AE36A9A4207D24FF08052044B1A60BFF34F8FBFF36F8F10
:4022000038BD00BF544B020804ED00E038B517E000F058FD0D4CD4F8F030DD68281DFFF76FFBD4F8FC30013BC4F8FC30D4F81031013BC4F8103100F067FD2846FFF70AFFF5
:40224000024BD3F81031002BE2D138BD544B020808B5FFF7DBFF064B1B6B012BF9D94FF08052044B1A60BFF34F8FBFF36F8FF0E7544B020804ED00E070B504460E46174B97
:40228000D3F81451D3F800010430FFF739FBB4F1FF3F07D136B11148D0F800110431FFF709FB70BD2C440D4BD3F800315C60A54208D90A4BD3F8F800D3F800110431FFF72D
:4022C00005FB70BD054DA86AD5F800110431FFF7FDFAEB6A9C4200D2EC6270BD544B02082DE9F04385B006460F4615469846900000F02AFE60B18146602000F025FE04466F
:4023000010B1C0F8309004E0484600F04DFE00E000248CB10023039302940D9B01930C9B009343462A4639463046FFF79DFE2046FFF716FF012001E04FF0FF3005B0BDE8F7
:40234000F08300BF00B583B0194B019300230093802218491848FFF7C3FF012801D100F0CDFA012814D14FF03F0383F31188BFF36F8FBFF34F8F114B4FF0FF32DA620122BF
:40238000C3F804210022C3F8142100F03DFD0BE0B0F1FF3F08D14FF03F0383F31188BFF36F8FBFF34F8FFEE703B05DF804FB00BF704C02080441081051220810544B02088C
:4023C000034AD2F818310133C2F81831704700BF544B0208014BD3F814017047544B02082DE9F0413C4BD3F81831002B65D13A4BD3F814410134C3F81441CCB99B6A1B6861
:4024000043B14FF03F0383F31188BFF36F8FBFF34F8FFEE7304B9A6AD3F8F8109962C3F8F820D3F820210132C3F82021FFF7FCFD294BDB6A9C4203D2002645E0012600E0EB
:402440000026254B9B6A1B680BB9012300E0002323B14FF0FF32204BDA6235E01E4B9B6ADB68DD686B689C4202D21B4AD3622BE005F104084046FFF743FAAB6A1BB105F1A1
:402480001800FFF73DFAEB6A134AD2F80C21934202D9114AC2F80C310F4F07F1300003EB83039A0041461044FFF704FAEA6AD7F80031DB6A9A42C1D2C3E7074AD2F82431A7
:4024C0000133C2F824310026034BD3F8283103B101263046BDE8F081544B0208394BD3F8183143B94FF03F0383F31188BFF36F8FBFF34F8FFEE770B500F0E4FB314BD3F86D
:402500001821013AC3F81821D3F81831002B52D12C4BD3F8FC303BBB00244FE0294D2B6ADC6804F11800FFF7EBF9261D3046FFF7E7F9E36AD5F80C21934201D9C5F80C3165
:40254000204D05F1300003EB83039A0031461044FFF7B0F9E26AD5F80031DB6A9A4204D30122C5F8282100E00024164B5B69002BD4D10CB1FFF758FD124BD3F8244164B142
:40258000FFF72EFF18B101220E4BC3F82821013CF6D100220B4BC3F824210A4BD3F828315BB14FF08052084B1A60BFF34F8FBFF36F8F012402E0002400E0002400F0A4FBD2
:4025C000204670BD544B020804ED00E0304BD3F8183123B101222E4BC3F82821704710B52B4B0022C3F82821D3F800311B6B1A68B2F1A53F0BD15A68B2F1A53F07D19A6829
:40260000B2F1A53F03D1DB68B3F1A53F07D0204BD3F80001D3F80011343100F083FC1C4BD3F80C310AE043B94FF03F0383F31188BFF36F8FBFF34F8FFEE7013B03EB8301FE
:402640008A0013490A44126B002AECD008469900CC18A2000244546B64685463303019448A0008320244944206D1606803EB83018A0007490A445063054903EB8300820004
:402680000A44526BD268C1F80021C1F80C3110BD544B020840B94FF03F0383F31188BFF36F8FBFF34F8FFEE710B50C46054BD3F800111831FFF70AF901212046FFF7DCFD05
:4026C00010BD00BF544B020838B540B94FF03F0383F31188BFF36F8FBFF34F8FFEE70C461546074AD2F800111831FFF7E3F80DB14FF0FF3429462046FFF7BEFD38BD00BFAD
:40270000544B020838B5C368DC6844B94FF03F0383F31188BFF36F8FBFF34F8FFEE704F118052846FFF7ECF8154BD3F81831ABB9251D2846FFF7E4F8E36A114AD2F80C218F
:40274000934202D90E4AC2F80C3103EB83039A0029460C481044FFF7ADF803E029460A48FFF7A8F8E26A064BD3F80031DB6A9A4204D90120024BC3F8280138BD002038BD6D
:40278000544B0208844B0208684B0208034BD3F820210260D3F8143143607047544B0208F8B540B94FF03F0383F31188BFF36F8FBFF34F8FFEE7054641B94FF03F0383F374
:4027C0001188BFF36F8FBFF34F8FFEE70C4600F079FA124BD3F814016968421A2368B3F1FF3F14D02F680D4ED6F82061B74201D088420ED29A4206D29B1A23602846FFF7A6
:40280000C5FF002406E000232360012402E0002400E0012400F078FA2046F8BD544B02080122024BC3F82821704700BF544B0208064BD3F804312BB1044BD3F818311BB9D7
:40284000022070470120704700207047544B0208064B1A681368B3FA83F35B09036013B9D368186870470020704700BF804C020808B54160006191420AD8D21A83699A421D
:4028800011D2011D0A4B5868FFF720F8002008BD9A4201D2994208D2011D054B1868FFF715F8002008BD012008BD012008BD00BF804C020870B500F005FA0E4B9B68B3B998
:4028C0000C4C04F10C063046FEF7E4FF04F120052846FEF7DFFF2660656000220C210A20FFF7FEF8A06010B10349FFF763FB00F00BFA70BD804C02080C41081000B583B07A
:40290000FFF7D8FF0D4B9B6853B10D4B019303230093002380220B490B48FFF7E1FC00E0002040B94FF03F0383F31188BFF36F8FBFF34F8FFEE703B05DF804FB804C0208FC
:40294000B44C020814410810E12B081040B94FF03F0383F31188BFF36F8FBFF34F8FFEE730B585B015460446124A9068F0B11A46019102950394052913DCFFF759FF0228A5
:4029800007D10023089A01A90A488068FFF7CEF80DE000231A4601A906488068FFF7C6F805E0002301A9FFF789F900E0002005B030BD00BF804C020870B582B029E0DB68D2
:4029C0001E68DC68251D2846FEF79AFF636A20469847E369012B1CD1A36933449E4207D2636024612946104B1868FEF76FFF10E0002100910B4632462046FFF7A7FF40B9C1
:402A00004FF03F0383F31188BFF36F8FBFF34F8FFEE7054B1B681A68002AD0D1024A51681160536002B070BD804C020838B50546FFF7D0FC0446074B9B6B984204D2FFF7A1
:402A4000BBFF01232B6001E000232B60014B9C63204638BD804C020870B582B005460E46134B1B68DB68DC68201DFEF749FFE369012B18D1A1692B46324629442046FFF7ED
:402A8000F7FE80B1002100910B462A462046FFF75DFF40B94FF03F0383F31188BFF36F8FBFF34F8FFEE7636A2046984702B070BD804C020870B582B006460C46FFF780FCE9
:402AC00001A8FFF7B3FF019B1BBB054644B9B04206D3FFF703FD29463046FFF7BDFF1AE02CB10E4B5B681C68B4FA84F464092246711B0A4B9868FFF771FAFFF7EFFC50B9D5
:402B00004FF08052064B1A60BFF34F8FBFF36F8F01E0FFF7E3FC02B070BD00BF804C020804ED00E030B587B04DE0039B002B4ADB059C636913B1201DFEF7E2FE02A8FFF764
:402B400075FF039B092B3ED8DFE803F00505053D273A05053D270499A5690B46024629442046FFF785FE70B3636A20469847E369012B28D1A269002100910B4604980244FE
:402B80002046FFF7E3FEF0B94FF03F0383F31188BFF36F8FBFF34F8FFEE70499A16141B94FF03F0383F31188BFF36F8FBFF34F8FFEE70346024601442046FFF759FE02E0C1
:402BC000204600F0F1F9002203A9044B9868FFF745F90028A9D107B030BD00BF804C020800B583B001A8FFF733FE0199FFF762FFFFF798FFF6E700BF82B0002301930D4B56
:402C00001B68B3F1FF3F08D04FF03F0383F31188BFF36F8FBFF34F8FFEE74FF03F0383F31188BFF36F8FBFF34F8F019B002BFCD002B07047AC42020808480068006880F34B
:402C400008884FF0000080F3148862B661B6BFF34F8FBFF36F8F00DF00BF000008ED00E0DFF80C00016841F4700101607047000088ED00E04FF0807340F8043C21F0010178
:402C800040F8081C054B40F80C3C40F8202C6FF0020340F8243C4438704700BFF92B0810074B19680868B0E8F04F80F30988BFF36F8F4FF0000080F311887047AFF3008048
:402CC000544C02084FF03F0383F31188BFF36F8FBFF34F8F0A4A136801331360012B0DD1084B1B6813F0FF0F08D04FF03F0383F31188BFF36F8FBFF34F8FFEE7704700BFF0
:402D0000AC42020804ED00E0094B1B6843B94FF03F0383F31188BFF36F8FBFF34F8FFEE7013B034A13600BB983F31188704700BFAC42020800000000000000000000000005
:402D4000EFF30980BFF36F8F154B1A681EF0100F08BF20ED108A20E9F04F10602DE909004FF03F0080F31188BFF34F8FBFF36F8FFFF72CFC4FF0000080F3118809BC19686B
:402D80000868B0E8F04F1EF0100F08BFB0EC108A80F30988BFF36F8F704700BFAFF30080544C020808B54FF03F0383F31188BFF36F8FBFF34F8FFFF713FB18B14FF0805241
:402DC000024B1A60002383F3118808BD04ED00E0084A0023136008490B60084B1B680849A1FB03139B09013B06490B6007231360704700BF10E000E018E000E0984202088E
:402E0000D34D621014E000E010B582B02A4B1A78D2B20192FF221A701B78DBB28DF803309DF80330254A03F03F0313700723536009E0224A5368013B53609DF803305B00A6
:402E4000DBB28DF803309DF8033013F0800FF0D11A4B5B68042B08D04FF03F0383F31188BFF36F8FBFF34F8FFEE71B0203F4E063124A5360019BDBB20F4A1370104B1A68C6
:402E800042F47F021A601A6842F07F421A60FFF79FFF00240B4B1C60FFF7E2FE0A4A136843F040431360FFF7C7FEFFF78FFBFFF7A3FE204602B010BD00E400E0BC4C02080D
:402EC00020ED00E0AC42020834EF00E0EFF305830F2B0FD9104A9B5CDBB2104A1278934208D24FF03F0383F31188BFF36F8FBFF34F8FFEE70A4B1B6803F4E063074A52681B
:402F0000934208D94FF03F0383F31188BFF36F8FBFF34F8FFEE77047F0E300E0BC4C02080CED00E008B54FF03F0383F31188BFF36F8FBFF34F8F4FF441710248FEF730FCE4
:402F4000FEE700BF1C41081038B5044610F0070F02D020F007040834FFF732FA104B1B682BB90F4A02F10C0323F0070313600D4BD3F85C351C444BF6F772944208D8A3429A
:402F800008D2074A15681D44064BC3F85C4502E0002500E00025FFF7A1FA284638BD00BFC44C02086C07030840B14FF03F0383F31188BFF36F8FBFF34F8FFEE7704700BFE8
:402FC00070B539B900240AE015F8010BFDF778FB013402E016460D460024B442F4DB204670BD00BF70B561B900240FE0FDF774FBC0B2287001340A2808D00D2806D00135EC
:4030000002E016460D460024B442EFDB204670BD10B5431E0A44914204D011F8014B03F8014FF8E710BD02440346934202D003F8011BFAE77047000070B50E46054618B1AF
:4030400083690BB900F00AFBAB69AC6813B9284600F004FB224B9C4201D16C6808E0214B9C4201D1AC6803E01F4B9C4208BFEC68A3891B0701D523693BB92146284600F0A2
:403080007BF910B14FF0FF3070BD013EA36816F8011F013BA36091B1002B04DAA269934206DB0A2904D023685A1C22601970EDE72246284600F00CF90130E7D1E2E7002BEE
:4030C00008DA22460A21284600F002F90130D9D00A2070BD23680A205A1C2260187070BD7441081094410810B4410810024B01461868FFF7A1BF00BF1043020838B50C46E3
:40310000054618B183690BB900F0A8FA0E4B9C4201D16C6808E00D4B9C4201D1AC6803E00B4B9C4208BFEC682146284600F05AFC38B96368013B636023685A1C226018783D
:4031400038BD4FF0FF3038BD7441081094410810B44108102DE9F7431D464F4B1E6804460F46904626B1B36913B9304600F076FA4A4B9C4201D1746808E0494B9C4201D106
:40318000B46803E0474B9C4208BFF468B8F1020F04D0B8F1010F79D8002D77DB2146304600F0E0F9616B41B104F14403994202D0304600F061FB002363630023A361636084
:4031C000A3891B0603D52169304600F055FBA38923F44A6323F00303B8F1020FA3811ED001AB6A462146304600F0DEFAA3891843A0810DB9009D00E02FBB284600F034FB32
:403200000746D0B9DDF80090A94502D14FF0FF3006E0484600F028FB074678B9F6E70020A38943F00203A3810023A36004F1470323602361012363612AE0A946A38943F0EE
:403240008003A3814D46B36913B9304600F006FAB8F1010F08BFA389276004BF43F00103A381A389276103F0080080B2656158B113F001034FF000001DBF6D42A060A561EE
:40328000A56008BF184603E0A06001E04FF0FF3003B0BDE8F08300BF104302087441081094410810B441081010B5034642B111F8014B03F8014B013A002CF7D11A4400E0FA
:4032C00010BD934202D003F8014BFAE710BD0000F8B50F461446064618B183690BB900F0BDF9224B9C4201D1746808E0204B9C4201D1B46803E01F4B9C4208BFF468A3692C
:40330000A360A3891A0709D523693BB123682069181A63699842FDB20FDB08E02146304600F02AF80028F1D04FF0FF30F8BD2146304600F017F90028F6D1A368013BA36069
:4033400023685A1C22601F706269431C934204D0A389DB0707D50A2D05D12146304600F001F90028E0D12846F8BD00BF7441081094410810B4410810324B70B51D680646B5
:403380000C4625B1AB6913B9284600F067F92E4B9C4201D16C6808E02C4B9C4201D1AC6803E02B4B9C4208BFEC68B4F90C309AB215071DD4D00602D4092232603AE05107B8
:4033C00012D5616B41B104F14403994202D0304600F052FA00236363A38923F02403A3810023636023692360A38943F00803A38123694BB9A38903F42073B3F5007F03D057
:403400002146304600F0F4F9A28912F0010305D00023A36063695B42A36103E0920758BF6369A36023695BB9B4F90C3003F0800080B230B143F04003A3814FF0FF3070BD93
:40344000002070BD104302087441081094410810B44108108A892DE9F041054610070C4659D44B68002B02DC0B6C002B17DDE66AAEB102F48052002392B22F682B600AB193
:40348000606D15E0216A01232846B047411C0FD12B686BB11D2B01D0162B03D12F600020BDE8F081A38943F04003A381BDE8F081A3895A0705D56368C01A636B0BB1236C56
:4034C000C01A00230246E66A216A2846B047431CA38906D129681D293AD8214ACA40D60736D500226260D9042269226004D5421C01D12B6803B96065616B2F600029CED092
:4035000004F14403994202D0284600F0B5F900206063BDE8F0810F69002FC0D093070E6808BF4B690F6018BF0023C7EB06088B6002E00744C0EB0808B8F1000FAFDD434612
:403540003A46216AA66A2846B0470028F1DCA38943F04003A3814FF0FF30BDE8F08100BF0100402038B50B6905460C46DBB118B183690BB900F072F80C4B9C4201D16C6834
:4035800008E00B4B9C4201D1AC6803E0094B9C4208BFEC68B4F90C302BB121462846BDE83840FFF757BF002038BD00BF7441081094410810B4410810014620B9044B0549BE
:4035C000186800F0D3B8044B1868FFF7CBBF00BF704108106535081010430208014900F0C5B800BF65350810002310B5044603604360836081814366C281036143618361CD
:40360000194608225C30FFF70EFD054B6362054BA362054BE362054B2462236310BD00BF153B0810373B08106F3B0810933B081070B568234D1E5D430E4605F1740100F089
:4036400069F9044640B1002180E842000C30A06005F16802FFF7E7FC204670BD836910B5044633BB8364C3640365124B124A1B688262984204BF0123836100F01FF86060EF
:40368000204600F01BF8A060204600F017F80022E06004216068FFF7A7FF01220921A068FFF7A2FF02221221E068FFF79DFF0123A36110BD70410810DD350810F8B51C4B38
:4036C0001E68B369074613B93046FFF7C7FF4836B4687368013B04D4B4F90C507DB16834F8E733680BB13668F2E704213846FFF79FFF30600028F6D10C233B60F8BD4FF65A
:40370000FF73E3810123A38165662560A560656025616561A5610822294604F15C00FFF782FC6563A563A564E5642046F8BD00BF704108102DE9F041884600F14804002664
:403740008CB1A5686768013F0BD4AB89012B06D9B5F90E30013302D02846C04706436835F1E72468ECE73046BDE8F0812DE9F8438046894600F14804002694B1A568676858
:40378000013F0CD4AB89012B07D9B5F90E30013303D029464046C84706436835F0E72468EBE73046BDE8F88370B50E46B1F90E10002990B014461D4606DA00232B60B389D0
:4037C0001A060ED540230EE001AA00F009FA0028F3DB029A02F47042A2F500535A425A412A604FF480630020236010B070BD00008B8973B59E0705460C4610D401AB6A467E
:40380000FFF7D2FF00990646284600F083F868B9B4F90C309A0522D443F00203A38104F14703236023610123636118E00D4BAB62A389206043F08003A381009B6361019BFC
:4038400020614BB1B4F90E10284600F0DBF918B1A38943F00103A381A0893043A08102B070BD00BFDD350810024B0146186800F051B800BF1043020838B50546002946D059
:4038800051F8043C0C1F002BB8BFE41800F0DCF91F4A1368114613B96360146032E0A3420ED92268A018834204BF18685B68636004BF121822600C6024E0A24203D813460E
:4038C0005A68002AF9D118681918A1420BD12168014458188242196014D1106852685A60014419600EE002D90C232B600AE021686018824204BF10685268626004BF0918CB
:4039000021605C602846BDE8384000F09EB938BDD00C030870B5CD1C25F0030508350C2D38BF0C25002D064601DBA94202D90C23336046E000F088F9234B1C681A462146A6
:40394000A1B10B685B1B0ED40B2B03D90B60CC18CD501EE08C420DBF63684B686360136018BF0C4615E00C464968E9E7174C23681BB9304600F0BEF820602946304600F03C
:40398000B9F8431C18D0C41C24F00304A0420DD12560304600F059F904F10B00231D20F00700C31A0ED05A42E25070BD211A304600F0A0F80130EBD10C233360304600F0BC
:4039C00044F9002070BD00BFD00C0308CC0C0308838903F00903092B01D1FFF7EDBD002070470000F8B50C46054618B183690BB9FFF734FE3A4B9C4201D16C6808E0394BCC
:403A00009C4201D1AC6803E0374B9C4208BFEC68B4F90C200023636093B29E065BD458071AD4D90605D4092342F040022B60A28151E01A070BD521462846FFF793FD002885
:403A400049D1A389A06023F00803A381A061A38943F00403A38110E0616B71B104F14403994202D02846FFF707FF236C63600020606313B1E36B2360F8BD23691BB92146BC
:403A80002846FFF7B5FEB4F90C70BEB2B3070FD00123A381154B1649186806F00906FFF749FE092EA78103D121462846FFF7D2FC22692260666A6369216A2846B047002867
:403AC00060600BDCA38917BF002243F0200343F040036260A3814FF0FF30F8BD0020F8BD7441081094410810B441081070410810D139081038B5064C002305460846236021
:403B000000F0D6F8431C02D1236803B12B6038BD640D030810B50C46B1F90E1000F096F80028ABBF636DA3891B1823F48053ACBF6365A38110BD2DE9F0411F468B89DB058E
:403B400005460C46164605D502230022B1F90E1000F068F8A389B4F90E1023F48053A38132463B462846BDE8F04100F017B810B50C46B1F90E1000F055F8431CA38915BF97
:403B8000606523F4805343F48053A38118BFA38110BDB1F90E1000F013B8000038B5074C054608461146002222601A46FFF708FA431C02D1236803B12B6038BD640D030844
:403BC00038B5064C002305460846236000F050F8431C02D1236803B12B6038BD640D030838B5074C0023054608461146236000F047F8431C02D1236803B12B6038BD00BFED
:403C0000640D030838B5064C002305460846236000F03EF8431C02D1236803B12B6038BD640D030838B5074C054608461146002222601A4600F034F8431C02D1236803B136
:403C40002B6038BD640D03087047704738B5074C054608461146002222601A46FFF7C2F9431C02D1236803B12B6038BD640D0308024B58221A604FF0FF307047640D0308A6
:403C8000024B58221A604FF0FF307047640D0308024B58221A600020704700BF640D0308024B58221A604FF0FF307047640D0308044A05491368002B08BF0B4618441060C7
:403CC00018467047D40C0308680D0308F8B500BFF8BC08BC9E467047F8B500BFF8BC08BC9E46704755415254205461736B0000000300000001000000010000000000000052
:403D000005036000040000000100000000000000010000000604600008000000C84A02089503081053746172746564205461736B0D0000003F095072696E742048656C7042
:403D40000D0000002E00000007000000000000000C0000000800000000020000000000000000000000000000000000000000000000000000000000000B00000000000000E0
:403D800000000000000000000000000047656E6572617465645F536F757263655C50536F43365C70646C5C647269766572732F7065726970686572616C2F6970632F6379F5
:403DC0005F6970635F6472762E68000047656E6572617465645F536F757263655C50536F43365C70646C5C647269766572735C7065726970686572616C5C6970635C637952
:403E00005F6970635F6472762E68000047656E6572617465645F536F757263655C50536F43365C70646C5C647269766572735C7065726970686572616C5C6970635C637911
:403E40005F6970635F6472762E63000047656E6572617465645F536F757263655C50536F43365C70646C5C647269766572735C7065726970686572616C5C6970635C6379D6
:403E80005F6970635F706970652E630047656E6572617465645F536F757263655C50536F43365C70646C5C647269766572735C7065726970686572616C5C7363625C637938
:403EC0005F7363625F756172742E680047656E6572617465645F536F757263655C50536F43365C70646C5C647269766572735C7065726970686572616C5C7363625C6379E9
:403F00005F7363625F636F6D6D6F6E2E6800000047656E6572617465645F536F757263655C50536F43365C70646C5C647269766572735C7065726970686572616C5C736375
:403F4000625C63795F7363625F756172742E630047656E6572617465645F536F757263655C50536F43365C70646C5C647269766572735C7065726970686572616C5C737957
:403F800073696E745C63795F737973696E742E63000000000000204000002440000000400000000000002340000030400000314000009F4000002240000010400202020290
:403FC000020202020210101D800017007500FF030602063604102000000000007FC0000000040000000000000019324B647D00804000080B100000000000FF012002001F16
:4040000000800004FF081018001000140018001C4044484C50000000081000000800000004000000041000000012000004210000002100000016000040114002C4130013EA
:404040008013A013200000001C0000000000214000002540000001400000344000002440000031400000324000001F410000234000001140010101010101010101101010AF
:40408000800019005500F0000501053B04101C01010000000FC000000004000001010101011D3A57789600082000101208000000001F00000010000F002000023F06080E09
:4040C00000080009000A000B24282C3034000000100000009000000088000000080000008000000004F0000000F00000400200002005A000D00100018001A001200000000F
:404100001000000049444C4500000000546D725100000000546D72205376630047656E6572617465645F536F757263655C50536F43365C70646C5C72746F735C467265656A
:4041400052544F535C31302E302E315C536F757263655C706F727461626C655C4743435C434D34465C706F72742E630043000000B04202080000000000000000000000007B
:4041800000000000000000000000000000000000000000000000000000000000000000000000000000000000000000000000000000000000000000000000000000000000FF
:4041C00000000000000000000000000000000000000000000000000000000810004002088C020000F84108108C4202082C0600004C4902081CC400000048E80100127A0038
:4042000000093D0000127A0000127A0008000000401F00000000A00FAAAAAAAA000000007441081094410810B4410810000000000000000000000000000000006C410810D6
:40424000000000000000000000000000000000000000000000000000000000000000000000000000000000000000000000000000000000000000000000000000B042020842
:40428000B10208108D0208100000000080B2C10050B3164B1B681A6AB3F8B030C3EBC303D358002BF5DA3E22114B1A6041F61E7204331A60A3F584730622C3F8182521F09C
:4042C0007F41C3F81C15D3F81C35084B1A68116AB2F8B030C3EBC3030B4400225A60054BD3F81C35002BFADA704700BF100D03080401264000002640F8B5274B1B6893F876
:404300003130052B04D840F2C311244800F052FA214F3A68166AB2F8B03003EB83031E4452684FF26003D458A4B200F04BFA05463B681968D3F890208A58013C032C27D824
:40434000032A0CD1164A127812F0FF0F07D10822B2601968D3F890208A58032AF9D01968D3F884208B588858C0F307221B0E581C02FB00000B4B03FB00F00B4B1B680B4AB6
:40438000A2FB03239B09B0FBF3F08230FFF77EFF284600F01FFAF8BD100D03088C3D08100B00001640420F0090420208D34D62104378FF2B23D110B500F004FA0446104B5D
:4043C0001B6893F83130042B04D840F2C3110D4800F0F0F90A4B1A68136AB2F8B02003EB8203DB685A68136843F001031360136813F0010FFBD1204600F0ECF910BD70478B
:40440000100D03088C3D08102DE9F04707468846554B1B6893F83130012B04D840F2C311524800F0C7F9504B1B681C6AB3F8B0201444D3F8B420161993F85030002B79D0E0
:404440004B4B1B7813F0FF0F02D04FF0000901E04FF00109B9F1000F38D0434B1B6893F83130052B04D840F2C311404800F0A2F93D4B1A68116AB2F8B03003EB83030B4409
:40448000D2F8B420D358002B22DB002000F0B2F9384B98421ED00023374A12690121184600F0B8F918B1354D17E0013500E00025002000F09FF92F4B984202D0304B9D4220
:4044C000F3D92F4B9D4207D92C4D06E0002504E02A4D02E0294D00E00025002D41D100F071F98246274BD3F81C35002B10DA224A0121204600F086F960B94046FFF7C6FEBB
:4045000057B13368002BFCDB00F06CF9054604E01A4D02E0194D00E01B4DB9F1000F05D00121002000F03EF90028F9D1504600F051F916E000F046F980460F4A01212046D6
:4045400000F060F938B947B13368002BFCDB00F049F9054602E0094D00E00B4D404600F039F92846BDE8F087100D03088C3D08100B00001601018800F04A020805005200FE
:40458000EF4902000000264001005000F0B47F4B1A6855684FF0B0535B7813F0FF0F04D04FF0B0535B78DBB200E02123212B55D1116AB2F8B030C3EBC303CC18CB58002B80
:4045C000F6DAE36843F00103E360146AB2F8B030C3EBC3031C44E36813F0020F2DD0E3689EB21368D2F884105958090A090401F47F01D2F88870DB591B0A41EA0363334312
:40460000E3601168D2F884208B5823F47F4343F410638B505D4A13681C68D3F88810635823F47F4343F41063635013681A68D3F884105158D3F88830D358544B1A68116AC6
:40464000B2F8B030C3EBC3030B4400215960116AB2F8B030C3EBC3030B445B684B4B19680C68D1F894301C44494A136943F004031361012801D030BF07E020BF454B1B7881
:4046800003B120BF0122434B1A70236803F00303022BE9D00A6AB1F8B030C3EBC303D018D358002BF6DA4FF0B0535B7813F0FF0F04D04FF0B0535B78DBB200E02123212B37
:4046C00030D1C36813F0020F1FD00C68D1F88410635823F47F42C3681B0C1B0203F47F4313436350294B19680C68D1F88800235823F47F420D6AB1F8B030C3EBC3032B4406
:40470000DB681B0E42EA03232350204B1A68136AB2F8B020C2EBC2021344DA6822F00102DA6026E0D5F80C311BBB1B490E681B4BD3F818451A4A106841F61E770F6006217F
:40474000C3F818153E2111604422C3F81C25134BD3F81C35002BFADA4FF0AA33C5F80C310D4B1E60A3F58473C3F8184503F582731860064B1A68116AB2F8B030C3EBC30362
:404780000B4400225A60F0BC704700BF100D030800ED00E0184B020808012640000026400401264001B40248844601BC604700BFC50A081001B40248844601BC604700BF4B
:4047C000A117081001B40248844601BC604700BF7B18081001B40248844601BC604700BF8318081001B40248844601BC604700BF1908081001B40248844601BC604700BFA2
:404800004D0B081001B40248844601BC604700BF4109081001B40248844601BC604700BF210D08100000000000000000000000000000000000000000000000000000000088
:404840000000000000000000000000000000000000000000000000000000000000000000000000000000000000000000000000000000000000000000000000000000000038
:4048800000000000000000000000000000000000000000000000000000000000000000000000000000000000000000000000000000000000000000000000000000000000F8
:4048C00000000000000000000000000000000000000000000000000000000000000000000000000000000000000000000000000000000000000000000000000000000000B8
:404900000000000000000000000000000000000000000000000000000000000000000000000000000000000000000000000000000000000000000000000000000000000077
:404940000000000000000000000000000000000000000000000000000000000000000000000000000000000000000000000000000000000000000000000000000000000037
:4049800000000000000000000000000000000000000000000000000000000000000000000000000000000000000000000000000000000000000000000000000000000000F7
:4049C00000000000000000000000000000000000000000000000000000000000000000000000000000000000000000000000000000000000000000000000000000000000B7
:0200000490303A
:0200000039EFD6
:0200000490501A
:0C0000000005E20721002101E22E5AEF6A
:00000001FF