:400000000040002011000000E5020000E502000010B500F06FF9C04670B512222E4B1A6000F0E6FE2D4800F0E3FF012000F000FF302000F021FE2A4A2A4B1A602A4C80250A
:40004000ED052560294A116802230B431360284A284B1A600022284B1A60284A136808218B431360FA20C00000F080FE244800F073FE244A244B1A60244B254A1A60882105
:400080008901244A1160244A1A60E8214901234A1160234A1A6080221206224B1A608022D202214B1A604223204A1360204A1360204A1360204A13604122204B1A60013A7E
:4000C0001F4B1A601F49082000F01CFE082000F00DFE256070BDC04630001040001BB7000600008004010B400C020B4078002E402D3E00007C002E4064F02E406CF02E405F
:40010000DC050000007FBB00080301400000014042FF00800403014041FF00800003014040FF008008010B4000010B402801014024010140200101401C01014008010140D1
:4001400004010140490F000010B572B600221E4B1A6000240FE01D486200131959000B00411889881A5AC31858880004104300F0B3F80134E4B2012CEDD9154A154B1A6003
:40018000154A164B1A6099231B04154A1360154A1360154A117806230B43DBB213703622124B1A60124A134B1A600222124B1A600F32124B1A60124A124B1A60FFF72CFF4D
:4001C00000F07AF810BDC0466CF02E40503201009908EEEE00000240080008000001024000500F4010500F4000700F4000000440B141DA0008000440180004400001044061
:40020000066000000801044010B5064C2378002B07D1054B002B02D0044800E000BF0123237010BD20100020000000003C320100084B10B5002B03D00749084800E000BF86
:4002400007480368002B00D110BD064B002BFBD09847F9E700000000241000203C320100A00B0020000000007047C04610B5012000F01EF910BDC04610B562B600F07AFCA7
:40028000094800F0A7F8094800F054F9084800F04BFD084800F0E4FC00F0FAF800F090FD01F0D0F9F2E7C0466D0200006902000088130000403201000323044A1360044A13
:4002C00013600022034B1A607047C0463000304030003140000E3F4010B50A00002101F075F910BD10B501F02DF903680C2B00D1FEE7FEE770B50F4E0F4D13E029686B68AC
:40030000AC68002202E001C901C30432A242FAD1E868002202E0002102C304328242FAD11035013E002EE9D101F012F9FFF7A4FFFEE7C04601000000FC34010010B50E4AF8
:40034000136801218B43136000230AE0032B03D89A000A49505800E009489900094A885001332F2BF2D9FFF7EFFE034A116801230B43136010BDC0460000104000000000F5
:40038000E5020000000000209023014AD05070470000002010B5040000F033FE044A1368C0218B43A4011C43146000F02EFE10BD14E400E080225203014B1A607047C0462C
:4003C00000E100E080225203014B1A607047C04680E100E010B50400FFF7F4FF2000FFF7D3FF0320FFF7D6FFFFF7E4FF10BDC0460004000C014B18607047C046C801204093
:400400000004000C014B18607047C046D401204070B504000D0000F0F4FDAC40024B1C6000F0F3FD70BDC0460800204010B500F0E8FD064A116808230B43136000F0E5FD8E
:4004400018210820FFF7E4FF10BDC04600002040014B18607047C046F801204010B581229204084B1A608E225200074B1A600120FFF7EEFF0548FFF7C3FF0020FFF7B8FFC6
:4004800010BDC046C0012040E40120401027000010B5064B1B78002B04D1FFF7DFFF0122024B1A70FFF7C2FF10BDC0463C100020014B18607047C046F001204010B500F0D8
:4004C000B5FA10BD10B50022124B1A70124B1A70124B1A7012494888124B18808888588088791873C97919710621D9812231198200245A82FA2189009982DA82013A1A8322
:400500001F32094B1A80FFF7D9FF084B1C70084B1C7010BD172200201022002016220020A40B0020EC21002006220020E0210020E821002010B590B0040014221F490BA838
:4005400001F03BF81E4B1B78002B04D1FFF7BAFF01221B4B1A70002C2DD01A4B1C6008A805AA426006AB0893002101811B311980598017391971002313701231694401F080
:400580003DF9002818D1104B0293104B0193052300930BABAE2212010D490E4801F084F8002809D101220C4B1A7007321C210B480EF08CFA00E0012010B010BD5C32010038
:4005C0003D100020E421002079020000803D0100C0000020710700000E2200207032010010B5022820D8002806D1104B1E221A8112325A809A8009E0012807D10B4B962299
:400600001A81802212015A80F83A9A80084B187006480BF02DFF002807D1064A117804230B43DBB2137000E0012010BDA40B0020162200201722002010B50B4B1B78042B6B
:400640000ED10BF007FF0400084B1B88002B01D008F0F4FE002C05D10522034B1A7001E00424FF34200010BD0E2200200622002003784078000218437047C04670B5050081
:4006800083890F2B1FD1043031332A0000210EF035FA041E11D16868FFF7EAFF830706D50A4B1B68290082204000984705E0074B1B6829000620FF309847054A1378012107
:4006C0008B43137000E00024200070BDE421002017220020024B00225A701A707047C0461422002010B50378042B05D1034B1B78042B01D1FFF7A0FF10BDC0460E22002025
:4007000010B582B00400FFF7B9FF0F4B1B78DB0704D5002802D1200000F08AF90A4B1B78DB070ED4002809D001A912238B70A3890B80C87020680CF041FF02E020680CF03A
:40074000B5FF02B010BDC046172200208379002B07D000200BE0C25C002A07D10133DBB200E00023052BF6D9002000E001207047F0B583B004000D00974A117801230B435E
:40078000DBB21370272800D1A7E011D8052876D004D8012824D002286DD00BE1212800D185E0242800D194E0062800D002E16AE0422800D1EAE009D82B2800D19BE04128B1
:4007C00000D1CCE0282800D0F4E090E04C2800D1E7E0FA2800D1E8E0432800D0EAE0D8E001AE0727377000237370300002F0F8FE377001237370300002F0F2FE00F01AFF29
:40080000764B1E683000FFF7A1FF002803D0300000F01CFF21E0724B1F78724B18788001FC263601020032403F21394011436E4B1B781B03F8225202134019436B4B1B7888
:400840005B04FE22120413400B43694803701A0A42701B0C837000F0F9FE00200BF0F4FC01A83F230370002343700BF00BFD0522604B1A709EE02800FFF734FF9AE02A789E
:400880005D4B1A7096E02B78002B00D092E06B78002B06D1594B0022DA809A80584A1A606B604D4A137801218B43137082E04A4B1B789B0600D57DE0524B1B78102B02D14A
:4008C0000522504BDA70504B18784E490BF0EAFA70E06A784D4B1A706CE04D4B1B88002B01D008F0ABFD0222424B1A7062E00522404B1A705EE03F4B1B78022B5AD0364AE9
:400900001278D20756D5344A1278520708D50322384B1A70304A137804218B43137049E02D4A1278120708D50522324B1A702A4A137808218B4313703CE0032B3AD10522FB
:400940002C4B1A70334B1B78002B33D10120FFF747FE00282ED10322264B1A702AE02A4E02222900300000F028FE0022224B1A7033785A00D21853002749C918274B9C467E
:4009800061440622264800F018FE13E0FFF7A2FE10E06988162900D9172128880CF018FE08E02800FFF7ACFE04E01E4A117801230B431370084B1A7811231A4209D0064A62
:4009C000137801218B431370174B1B6829002000984703B0F0BDC04617220020B00B00207CF1FF0F7DF1FF0F7BF1FF0F78F1FF0FB40B00200E220020102200204010002079
:400A0000A00B0020480C002014220020E82100200622002016220020803D01007902000008220020E0210020E42100207047C04670B582B005008489152C01D01A2C2BD115
:400A4000C0235B003C4AD358DB0204D4F2235B00D358DB023FD56868FFF70AFEC30702D52A26FF3601E095267600152C03D101236A46937002E003236A46937000230193E2
:400A80002E4B1B78012B2BD12D4A117802230B431370002300242AE01C2C24D143681A78052A0ED85B780A3BDBB2F42B09D904236A469370031D01932C26FF36002300242A
:400AC00015E0204A137801218B4313702C26FF360023A0240BE02C26FF360023062406E00023002403E02C26FF3601230024002C18D1002B16D1281D40332A0000210DF066
:400B0000FDFF041E0ED12B886A4613800D4A137801218B4313700C4B1B68002B02D0694630009847002C04D0064A137801218B431370200002B070BD70320100E8210020BF
:400B4000E0210020172200204810002010B500F075F810BD10B500F01DF810BD10B5044A1368802109060B431360FFF7EFFF10BD0000254010B5064B1B78002B04D1FFF749
:400B8000E9FF0122024B1A70FFF7E8FF10BDC0464C100020154A164B1A600023154A13601549164A1160164A16490A6007201649086016490B6006381549086015490A601C
:400BC000154A13600421154A1160154A1360154A1360154A1360154A1360154A1360154A13601268144B1A807047C0460B000002000025404000254001000A004800254043
:400C00000700008000032540040325401003254044002540000225400402254050002540880E2540C80E2540480F2540080F2540C80F2540880F25404E10002005490B68CC
:400C4000F0229343603A13430B60034B1A88034B1A607047000002404E100020880F254070B50500002402E000F0D2F90134285D0028F9D170BDC04610B586B0040000F04D
:400C8000C0F90E4B1B6800930D4B1B680193033C0C4B1B5D02930C4B1B68039304AA0B4B04936B4605930A4B1A600A490A4A11601B6800F0AAF906B010BDC04608010B40CC
:400CC00000010B40A834010030001040B6EA0000080010401700008004001040024B1B68012018407047C0460C002E401F2318401E3B8340014A13607047C04600E100E0F6
:400D000001BE704770B504000D001F2802D90020FFF7F6FF1034A40080239B059C4664442068256070BDC04610B5040006E0084B586800F05DF9074B9C46644480231B0241
:400D40009C42F4D8024B9868604300F051F910BD500C00200080FFFF10B5034B1B7B584300F046F910BDC046500C002010B504000F4A116801230B4313600E4A0E4B1A606B
:400D80000E4A1368802109020B431360002809D100200CE00120FFF7DFFFFFF79FFF002804D1013C002CF5D1102000E0002010BD60F02E400220000078002E4010002E40EF
:400DC00010B500F01EF9044A136804218B43136030BF00F01AF910BD10ED00E0034B1868C0231B02184000D00120704700010B4010B50D4B1A6801218A431A601A68022096
:400E000082431A60094A10683024A043203C204310601068093CA043014311601A68802109060A431A6010BD00F02E4000FF2E4070B51D4B1B6801241C40002802D00128A8
:400E400016D02BE0184B19680122914319601968022081431960154B19682E3081432038014319601968093881430A431A6018E00D4B1A6802218A431A600C4A10680725B2
:400E8000A84301431160116830208143103801431160196801220A431A6002E00020FFF72FFF200070BDC04600F02E4000FF2E4010B500F0A6F8044A1368C02109020B4303
:400EC000136000F0A2F810BD00010B4010B500F098F808490A68084B1A408024E40122430A600A6813408022120213430B6000F08CF810BD00010B40FF3FFFFF70B50500A0
:400F000000F07FF80400FFF769FF002803D0FFF7DDFF012100E0002108482840084A1568084B2B40184310601368012901D1FFF7BFFF200000F069F870BDC046040404000D
:400F400010020B40FBFBFBFF10B5244B1B685B0715D5234B5B685B070ED5224B596A042001401F4C62688A4362605A6A82435A629B69002B00D098470420FFF7BFFF174BF5
:400F80001B685B0518D5164B5B685B0510D5154B596A8022D2001140114842688A434260596A114A0A405A62DB69002B00D098478020C000FFF7A2FF084B1B685B030CD550
:400FC000074B5B685B0304D5064B1B6A002B00D098478020C002FFF791FF10BD10020B40640C002050100020FFFBFFFF000000000230800803D00138FDD1C046C046C04635
:401000007047EFF3108072B6704780F310887047044B1B681F221340082BF9D0024B18607047C04608022540400225400160704701607047324B1A781202324B1B781A432C
:40104000314B1B781B02314909780B4330498B4201D1072A06D0D42109018B4206D1042A04D102E02B4B042200E02A4B2A490B602A4B1A602A4B1B781B022A4A127813431D
:4010800080229201934202D0002B02D002E0264B00E0254B254A1360254B1B781B02254A12781343244A934205D0244A934204D0052B05D103E0224B02E0214B00E0204B45
:4010C000204A1360204B1B681B09204A1268AA2A15D1012B13D9164B1B780E2B0FD11C4B1B781B021B4A127813431B4A13601B4B1B781B021A4A127813431A4A1360704722
:40110000D9F0FF0FD8F0FF0FDFF0FF0FDEF0FF0F580B0000580D00006C002E4074002E40DBF0FF0FDAF0FF0F0220000078002E40DDF0FF0FDCF0FF0F0F0F0000050500002F
:40114000050F000080002E40EC0F00F0E00F00F06DF2FF0F6CF2FF0F84002E406FF2FF0F6EF2FF0F94002E4010B5FFF7F5FD10BD10B5FFF7D9FD10BD10B500F04BF810BD5C
:4011800010B500F04FF810BD10B500F04BF8034800F02AF8032000F02DF810BD5112000010B5024800F046F810BDC046511200000220FF307047C0462B2070472B20704724
:4011C0002B2070472B2070472B2070472B2070472B2070472B2070472B2070472B2070472B2070477047C046014B18677047C0460000002010B50400FFF703FF044A1368EE
:40120000C0218B43A4011C431460FFF7FEFE10BD0CE400E080225201014B1A607047C04600E100E080225201014B1A607047C04680E100E010B50400FFF7F4FF2000FFF73E
:40124000D3FF0320FFF7D6FFFFF7E4FF10BDC04610B511F0DFFF10BD002243088B4274D303098B425FD3030A8B4244D3030B8B4228D3030C8B420DD3FF22090212BA030C7B
:401280008B4202D31212090265D0030B8B4219D300E0090AC30B8B4201D3CB03C01A5241830B8B4201D38B03C01A5241430B8B4201D34B03C01A5241030B8B4201D30B0333
:4012C000C01A5241C30A8B4201D3CB02C01A5241830A8B4201D38B02C01A5241430A8B4201D34B02C01A5241030A8B4201D30B02C01A5241CDD2C3098B4201D3CB01C01A2F
:40130000524183098B4201D38B01C01A524143098B4201D34B01C01A524103098B4201D30B01C01A5241C3088B4201D3CB00C01A524183088B4201D38B00C01A5241430815
:401340008B4201D34B00C01A5241411A00D20146524110467047FFE701B5002000F0F0F802BDC0460029F7D076E7704703460B437FD4002243088B4274D303098B425FD32D
:40138000030A8B4244D3030B8B4228D3030C8B420DD3FF22090212BA030C8B4202D31212090265D0030B8B4219D300E0090AC30B8B4201D3CB03C01A5241830B8B4201D30A
:4013C0008B03C01A5241430B8B4201D34B03C01A5241030B8B4201D30B03C01A5241C30A8B4201D3CB02C01A5241830A8B4201D38B02C01A5241430A8B4201D34B02C01A39
:401400005241030A8B4201D30B02C01A5241CDD2C3098B4201D3CB01C01A524183098B4201D38B01C01A524143098B4201D34B01C01A524103098B4201D30B01C01A5241BA
:40144000C3088B4201D3CB00C01A524183088B4201D38B00C01A524143088B4201D34B00C01A5241411A00D201465241104670475DE0CA0F00D04942031000D34042534080
:4014800000229C4603098B422DD3030A8B4212D3FC22890112BA030A8B420CD3890192118B4208D3890192118B4204D389013AD0921100E08909C3098B4201D3CB01C01A01
:4014C000524183098B4201D38B01C01A524143098B4201D34B01C01A524103098B4201D30B01C01A5241C3088B4201D3CB00C01A524183088B4201D38B00C01A5241D9D2F4
:4015000043088B4201D34B00C01A5241411A00D20146634652415B10104601D34042002B00D54942704763465B1000D3404201B5002000F005F802BD0029F8D016E770476E
:401540007047C046014B18687047C0461C1000200E4B70B500251E000D4CE41AA410A54204D0AB00F35898470135F8E711F0B4FF084B00251E00084CE41AA410A54204D05D
:40158000AB00F35898470135F8E770BDE4340100E4340100E4340100EC34010030B50024A24208D0035D651C0C5DA34201D0181B02E02C00F4E7002030BD002310B59A42F6
:4015C00003D0CC5CC4540133F9E710BD03008218934202D019700133FAE77047134A1088810703D08107890F401A001D11791030484381B25088820703D08207920F801AF7
:40160000001D800040180A494030098980B2CA0701D0503080B2890706D504495422091F09785143081880B270470000720C00208410002010B501F0F3FE10BD10B501F0EA
:40164000F5FE10BD10B500F05BFA10BD10B50749044609780220002907D1204601F036FF002802D120460AF0DBFE10BD020E002070B504460120002C12D02368002B0FD0E0
:40168000616800290CD0074D06222889208118462968FFF792FF6968606809780170002070BD000084100020FFB585B0002768460E9D07734F481C460078002802D0082016
:4016C00009B0F0BD10990F9801900095029105A807C800F007F90028F2D16946264603AB84460873002C19D0002115E08A00B75A082F09D990198078002805D0083FB75249
:401700001878401C187005E0002914D00027B75290198770491CC9B2A942E7D360460028CED10F98002809D0109901F029FA002804D00120C4E701208446EFE701F076FE2E
:401740002D480021416081600599016021888180022D07D3A1798171A17AC171A1890181218A418100211EE0481C19E082008B00A75AE65ABE46BE4211D26F463E80B4460F
:401780001E190296B678BE7001967646E6521719029EBB78B3706646A652019EBE70401CA842E3D3491CA942DED3134822460C3000906846037B0799069800F01BF90028BA
:4017C000B8D168460B4C007B60700B480C3001F05DFE0028AED1084907480C3107F0E4FD0028A7D107F0FEFD0028A3D10121217066E700006C0C002078100020F8B5054673
:4018000036480F460078002802D002242046F8BD002F60D000243249002D16D02A89D0070DD02868002808D003881B3BE12B04D24088FB2801D81B2801D2012409E09007D8
:4018400007D56868002804D1F7E70020088108604860002CDAD122482E8906811F481B21801D01804180042101711C490020891C0870F00705D019480622801D2968FFF775
:401880009CFE1749B00703D56A68144812788270124D0E46AD1D281F0D60486001F03CFE284601F02BFE30890EF058FA30890DF001FC28880DF004FC30890EF087FB03467E
:4018C0001033FFF78BFE1F21C018890140183880A91F88809AE7012498E700006C0C002084100020FFB58446384F1C460020BB883F78054602460646002F11D100290ED0BB
:40190000029999420BD36146002908D0002C06D00A99002906D02E4B0B99994202D2012004B0F0BD002144E0AB001F19BF78002F3BD0E35A002B38D07B43591889B22B001B
:4019400000F04AF8050410161C253100A7782388BC46FF27233BEB37BB4222D26346032B1FD322E0A388002B1FD0302B19D31CE02389002B19D0282B13D316E0A289002A9A
:4019800013D01346134F233BBB420AD20DE0268A002A0AD033460F4F233BBB4201D2964203D901200EE0002001E000280AD16D1CEDB2099B9D42B7D31C2463435B180299BC
:4019C0008B42ACD89642AAD8AAE700006C0C002079020000BAFF000030B47446641E2578641CAB4200D21D46635D5B00E31830BC18470000FFB583B0002469460C801F4674
:401A000006468C80002806D00598002803D004983043800701D0012466E0002FFBD03449049809888842F6D3FFF7BAFBFFF7A8FB00F012FC002855D100F062FD002851D186
:401A40002C49084601F0D0F805042D0C4AD12A480499066081800021C18007810C98007AC00704D0684601F0FAFC040007D10C98007A800703D501A801F0FAFC0446BF1DD0
:401A8000FEB2002C20D13146059800F05DF804001AD10EF0A9FA040016D16A461088928808368518144AF1B29088D288AEB29319984207D3401B801A80B201F085FB050078
:401AC00007D000E0FF25012400F05EFA002D04D008E0F8B200F01CF9F6E700F081FA07490120087000F0CAFB204607B0F0BD0000700C0020351C000090100020780C002005
:401B000010B503480078012801D101F0FFF910BD780C002070B5084B0446DA889E8800205518B54206D81D68AA182260DA885118D98070BD032070BD901000200148008920
:401B40007047000090100020F0B587B007460D4600208900009006916846FFF7DBFF844600285DD1304800990160002117E02E4B88001A680629115406D22C4C0419667818
:401B800082185670628805E0C419203CA67A8218567022891B68C018491C4280C9B2A942E5D300242DE0601CC2B2059025E01E4FA300396896005818408871180396049002
:401BC0004E88B04217D938466F46FE80B6464F786E4677710297049F4F800168039F5E18767879184E700168764659184E800068029F18184770521CD2B2AA42D7D30598DB
:401C0000C4B2AC42CFD36046002809D168460699FFF780FF8446002802D1054900980860604607B0F0BD00007C0C002010350100800C00207047000010B5002809D00549B2
:401C40004A68002A05D0011F08788000105801F069FA10BD7C0C002010B50446FFF76EFFC0B2801DA0420CD307484068002808D0A100405801F0C8F9002801D00470001DB4
:401C800010BD002010BD00007C0C0020F8B516460D460446FFF752FFC0B2801DA04203D20020C0430090F8BDB2B2E9B2684601F0D1F90099481C03D0024AA0005268115068
:401CC0000098F8BD7C0C0020F8B50746FFF736FF801DC6B20A49002005460C680DE06178002907D06188B94202D32078FFF7B4FF002804D1241D6D1CEDB2B542EFD3F8BDEF
:401D00007C0C002010B5002801D0FFF795FF10BD70B506460948002504680BE06178002905D062882078121D0023FFF7AFFF241D6D1CEDB2B542F1D370BD00007C0C002060
:401D4000FFB581B00A9F16000C4620D000F0F2F8054604281BD0002F0CD03846FFF7B4FF20492A0151184860002810D03A460499FFF723FC1B4928010E5046187781019856
:401D80000570200406D47D20C000444304E0FF2005B0F0BD6404640C00F0BAF80746042807D000F04FFAA0420BD800F04BFA201A03E0204600F0AAFA0020F060357200201C
:401DC000E6E700F03FFA009000F0B6FA00980121001B009000F0ECF802493A0151180098C860E6E79C100020F8B5060116483418217A042903D0E068002802D017E00020EA
:401E0000F8BD00F01FFA054600F096FA00F0A0F804280CD001010C480F18F8680021451900F0C6F80020F860284600F06FFA6068054D002801D0FFF765FF042020720020FD
:401E4000A8516081E060DAE79C100020FEB500266A46304601232549050169180D7A042D02D0C96800291BD000211154401CC0B20428F0D300246846005D002830D01B48D7
:401E8000210108184189476805680291002101604160042241810272C160002E02D015E01354E3E700F054F804280ED001010F4808180190C6680021304600F079F8019892
:401EC0000021C160304600F021FA0126002D07D038460299A847002F02D03846FFF712FF641CE4B2042CC6D3FEBD00009C1000200EB5002005216A46009011815081034809
:401F0000694600680EF0D5FE0EBD0000840C0020074A0020010189180B7A042B02D0C968002903D0401CC0B20428F3D3704700009C1000200549002002015218127A042A9F
:401F400003D0401CC0B20428F6D370479C10002030B50A4B04200A4C00210A011219157A042D06D0D268002A03D09A4201D808461346491CC9B20429EFD330BDFFFF00005A
:401F80009C1000207047000030B50020074C05460423020111190B72A5504D60401C4D81C0B2CD600428F4D330BD00009C10002030B5094C00231A011219157A042D04D0DC
:401FC000D568002906D02D18D5605B1CDBB2042BF1D330BD2D1AF7E79C100020002070471CB5002469460C70142001902346054A05480EF063FE04480068401C00D1FF2432
:4020000020461CBD5D200000840C00203EB5124A0146FF2000230124126800290DD0012914D0042908D104206946009308814B8110460EF03EFE80B23EBD68460093048165
:402040004381694610460EF02FFEF4E768460093048143816946EBE7840C002070B545890468416800890300FFF7B6FC08280509091E22282628002005F018FF1EE0022948
:4020800008D0C8B22A4621460CF068FF2046FFF739FE13E002202A4621460CF05FFF2946204600F00DF809E000200EF001FB05E02046FFF7CBFE01E0FFF794F8002070BD34
:4020C000014B0022DB681847880C002070B5448905680089022803D0032809D0FF2070BD2246094C0023A46829460120A04708E0FFF7A4FA241DA2B200232946022007F0C8
:4021000006F8002070BD0000880C002070470000024800214160018041807047880C002070B50C46002186B016460391012802D0022859D116E003A9012007F03DF801280B
:402140001BD1039D324621462846FFF736FA0095287801900220694608814E816846FFF7B5FF41E0214D002B686809D0049004A9022007F021F801281DD0022006B070BD28
:40218000002812D0298840182146FFF716FA28880024801980B228806988091D884206D12C801348FFF792FF03E00320E6E788421AD96C6018E004986860E278A3781102D2
:4021C00019430B4A698000231060E3565360032313815181A1788170E178C1706178417021780170042028800020C7E7880C0020DC1000203EB515460C46022803D00428EF
:402200000CD000203EBD0091019002206946088107484A8100680EF04CFD07E00CF09EFE044B0022DB6829462046984701203EBD840C0020880C0020014AD16090607047D8
:40224000880C0020034801688068081A0A21484300097047E810002010B5FEF795FF482204490548FFF7A9F903490120C870002010BD00002C350100EC14002010B5FEF7A6
:402280007BFF10BD70B5134C2368002B08D0207B1149C20705D04008400020738868A08070BD88680B4AA18880B29268814203D90A4D691A091802E0814202D2411A511869
:4022C000A160A080A0689842EAD30EF00FFD00F013F870BDE8100020C0102E40FFFF000010B508461946FFF7A7FF10BD704710B5FFF780FF10BD0000034800210160416091
:402300008160C16070470000E8100020024610B5FF20002A0CD0FFF7EFFF064C0321207B0843207310010A21FFF71CF82060002010BD0000E810002000B504480A218068E8
:4023400048430209FFF7D8FF104600BDE81000200248007B8007C00F70470000E810002010B54B490868002802DA4A4B01221A70022290430860484800694549C00B4031B4
:40238000096A0246C907C90F0A4259D0012000F07FFA3F480E216C30FEF74AFE3E4820218430FEF745FE3C4814219C30FEF740FE3948FF21C131A430FEF73AFE3648FF218F
:4023C0002F31B030FEF734FE33483449BC30FEF72FFE31483249AC30FEF72AFE30492E48491CB430FEF724FE2B482E49B830FEF71FFE29482C49CC30FEF71AFE26482B497F
:402400000830FEF715FE24482949A830FEF710FE214828498830FEF70BFE1F4826498C30FEF706FE1C481921C9029030FEF700FEFEF700FEFEF7BCFEC0B2022812D01FE04D
:4024400000290BD0002101420AD0114801216030FEF7EEFD0120FEF78BFE97E70121F2E7FF2010BD15491648FEF7E2FD14481549001DFEF7DDFD124800210830FEF7D8FD78
:4024800054200449C043891C0870002010BD000000F02E40980C002000002E40320300002F3F00003102000010520000EC160000FA12000031D000003AE30000995600006B
:4024C00080012E40F80F000070B50646581C80B245086D00002408E0304600F0A9F81055000A1119A41C4870A4B2AC42F4D3D80705D0D0182038D15CC47FD454C17770BDF5
:4025000010B5FF2000F0C4F90F49FF2048700E481021801D41800121417001700A490020C91C4870FFF71CFF04000AD100F010F907210648FEF77AFD044807211830FEF726
:4025400075FD204610BD0000980C0020CC112E4070B5002405465B1E0AE0284600F068F8010A161971702D1D1055A41CADB2A4B29C42F2DB9C4203D1284600F059F8105542
:4025800070BD000070B500210A4D5B1E0AE0541864782602545C344346193480001D891C80B289B29942F2DB994202D1515C4019018070BD00102E40F0B50599091FCFB2A1
:4025C00000217E1E0BE0541864782502545C2C43164D45192C80001D891C80B289B2B142F1DBFC0712D01C78515C24020F4A0C4381180C809C785D78001D210280B229436A
:4026000084182180001D80B2D9780CE059781A7809021143054A84182180001DD9789B78090280B2194380180180F0BD00102E40014940180088704700102E4010B50B49AD
:402640000020487000F084F8002000F047F9002000F034F907210648FEF7E8FC044807211830FEF7E3FC002010BD00009B0C0020CC112E4010B50B46062812D006DC01287A
:402680000CD0032801D1FFF7D9FF10BD0A28FCD00B28FAD105480078107010BDFFF730FF10BD1146184600F035F910BD9E0C0020F8B5244DAC6A0127A007234E002816DAB0
:4026C000307806280ED1286A384328621F480069F903084381B21D481030FEF7A9FC042000F0D6F8174802212830FEF79FFCE00718D000F01DFF01280FD1002000F06AFF5C
:40270000062000F0C5F81049FF20C91E48707078002802D1686B384368630A4801212830FEF784FCE0050BD53078042802D1052000F0AEF80348FF2101312830FEF776FCEF
:40274000F8BD000040F02E409B0C002000002E4010B503212348FEF76BFC0120FEF704FD20483038406A204C80076178800F890001431C480C38FEF75BFC6078002808D09C
:40278000401E022181401820FEF7D6FEC000083800E0B82081B21548FEF74AFC1348032109021438FEF744FC10481149B830FEF73FFC612189010F48FEF73AFC0D48032177
:4027C000001FFEF735FC0C490C48FEF731FC0B480B496038FEF72CFC084801218838FEF727FC10BD70F02E409E0C0020D8102E4090890000041E2E40FF0F000058122E40D9
:40280000209000000849087806280BD148780749002803D1486B400840004863C86A01221043C862704700009B0C002040F02E4001480078704700009B0C002000B5030036
:40284000FFF7CAF8080D050D0B070507090D012000BD032000BD042000BD022000BDFF2000BD0000074A9168D26889B2064B92B2994204D105498A4201D1012100E00021D8
:402880000170704780002E4033D000003FE3000010B50446FEF774FC072C01D9FF2C01D102480470FEF768FC10BD00009B0C00200149487070470000980C002010B5064A22
:4028C000012805D01921C9021046FEF7B1FB10BD1D21C902F8E7000090002E4010B50A4A141D012808D009491046FEF7A1FB08492046FEF79DFB10BD04491046891CFEF759
:4029000097FB0349491DF3E788002E4031D000003AE3000070B50C460546FEF749FCC0B202280E49287804D0FF2810D04C280CD810E0FF2809D10A4AD0680004800F032868
:4029400001D0087807E09069000A553803E00878207070BD4F382070087070BD9A0C002000002E40F0B50122002834D0002932D00424420600D00524792342065B06D218C8
:4029800000D0641C034600221EE00C2516466E43124D00277519AF72104F002ABB51696007D0661EB24209D10D4E86197606760E05E05E06760E8027BE1B00E080269B19E3
:4029C0008919521C2E81D2B2A242DED303480549006B002288611046F0BD00007413002079020000A40C002018B50020694608700A48006900280ED0132149014018047ECE
:402A0000684604704F21C900054800F059F8A04201D0012018BD002018BD0000A40C0020F8100020074900200C2242435218927A012A05D0401CC0B20628F5D300207047E3
:402A40000120704774130020F8B50E000446154609D0194F19497868A04202D94018A04201D38D4201D90120F8BD31462046FEF795FD00281ED02A4631462046FEF79DFD54
:402A8000E8B200210C224A43D21913895568EE18A6420BD90126641B1B1B9672834209DA1469C01A044AC0B220329676491CC9B20629E7D30020F8BD7413002079020000C9
:402AC000034610B50020024604E09C5C2018521CC0B292B28A42F8D310BD000070B500F05FF8084C064A216907480D46FEF765FD05492846FFF736FFFFF776FF207070BD22
:402B000079020000A40C0020F8100020002070470020054A002902D0012902D002E0906000E0D06000207047A40C002070B5084C154608460549E26889182A46FEF73DFD62
:402B4000E0684019E06028B270BD0000F8100020A40C00203EB50A226946FFF7E7FF044606480A2200686946FEF718FD002802D00020C0433EBD20463EBD0000A80C002099
:402B8000002802D0044A914201D2FF20704703494A6108610020704779020000A40C0020024800218160C16070470000A40C002070B5074C15460548A26880182A46FFF7B3
:402BC00043FFA0684019A06028B270BDF8100020A40C002010B503490A220968FFF7E8FF10BD0000A80C002010B50F4A002313600E4A13600E4B18600E4801600E49012088
:402C000008600E490860000290600E490C4808600D4914300860FF381538506000F0BCF800F0CAF9002010BDD80C0020C00C0020EC0C0020F00C0020DC0C0020CC0C0020CA
:402C4000BC140020D00C0020E40C0020014610B50020002910D0094B1A689C685118A14209D25868196080188A0704D08A07920F891A091D196010BD002010BDC00C0020D2
:402C8000F8B50024164E671E321F3D463168136806E01422624310328A58521C1BD0641C9C42F6D36A1C14D02C461422544322460C3288500C214843FFF7C8FF31680028B0
:402CC00008510AD031680020103408517068401C70602846F8BD2546E4E73846F8BD0000D00C0020F3B50026F64381B000281BDB1E490968884217D80299002914D01B4FC6
:402D0000142204463F1D54432546396810354859401C09D0FEF734FA38682F1F4159C359994203DBFEF728FA3046FEBD214608310091465801590C20704308180C22029940
:402D4000FEF73BFC0948761C001D0068C159B14200D100260549009A091D865008684159491C4151FEF708FA0020FEBDCC0C0020002803DB07490968884202D90020C0437D
:402D8000704704491422091D096850431030085870470000CC0C0020F0B500200D4A451E0346171F50600FE014260146714314680E1DA3510C4616680834335116680834A9
:402DC00035511468401C635039688842ECD30020F0BD0000D00C0020F3B50026F64381B0002841DB2349096888423DD8029900293AD0204F142204463F1D544325463968DB
:402E000010354859401C2FD0FEF7BAF93868415900292BD0211D009146580C21005971430F46C1190C220298FEF7C7FB11480021001D0068761C00590C34C01901604160F1
:402E400081600C48001D00680159B14200D100260849009A091D865008684159491E4151FEF78AF90020FEBD3046FEBDFEF784F9FAE70000CC0C0020FEB504460D4600202B
:402E80001E49089E0860471E009001900290002C11D0486885420ED2002A0CD0002E0AD0642E08D808460C3001681C2068430C18207A002801D03846FEBD012022602072A2
:402EC0001846FFF7DDFE6060401C13D06681A6810A4827610C3067610179A94200D205710021684601810A462846029B00F040F82846FEBD00202072DDE70000D80C002094
:402F000038B50124009400F039F838BDFEB50027164EFF433D4600240EE01C20316860430818017A002906D04068FFF721FF002801D0254603E0641C3079A042EDDA681C53
:402F400012D01C2130684D434419FEF719F969466068FFF741FF0546FEF70EF9002DD9D1216868468847D5E7FEBD0000E40C002038B50024009400F001F838BD1FB50022D5
:402F80000C49541E0A60002811DB496888420ED808491C220C31096850430818406801A9FFF7A0FE401C02D0002004B010BD2046FBE70000D80C0020F0B50021114A4D1EEE
:402FC000174611710C3F0B46BD6016E008461C2460431668041D355114680646235014680836A3551468361DA353044616680A34335318301468491C255078688142E5D3B6
:403000000020F0BDE40C002038B500210091002811DB0F49097888420DDA0D4D04010C3529680859002807D0201D0818694600F06FF9002801D0002038BDFEF7A1F8286855
:403040000F34015D491E0155FEF796F8009838BDF40C0020F7B582B0002502986E1E06602E48D21C024017462D4A2C4610460C380178106805E02301C358002B0FD0641C0E
:40308000E4B28C42F7D3711C28D03401211D40180191039900F02AF900281FD101E02646F1E71F48016820460C300F521C480399026820460E301154194803990268204601
:4030C0000F3011540398784300F0A0F8144900280968085102D00024009011E001251AE00F48016801980818009900F02CF9002801D0012502E00098C0190090641CE4B229
:4031000003988442ECD3002D05D10298066004480179491C0171284605B0F0BDFCFF0000000D0020F8B50D4600216A468C461180002839DB23490978884235DA214B040130
:403140000C3319680A59002A2ED020460C300B5A801C0E5C184670438018954224D3854222D2002006E007465F43BF18AF4206D0401CC0B2B042F6D36046002814D0114E98
:40318000271DC8190C366A46294600F006F900280AD168460088012808D030682946C01900F0D1F8002803D00120F8BD0020F8BDFDF7E6FF30680F34015D491C0155FDF760
:4031C000DBFFF3E7F40C0020F8B50F46002400F031F8002817D10C4900220B460C334A600EE021011D680E466A501D680C36AA53B61C1D680F31AA551D68641C6A54E4B2A5
:40320000BC42EED31A71F8BDF40C002000280BD0C01C074A81085068890053884118994203D89368516018187047002070470000F40C0020F8B5064600200F4D0090297063
:403240000C0121466846FEF765FC00280CD129460C3100980860301B001F84B221466846FEF758FC002801D0FF20F8BD6C800098A8600020F8BD0000F40C0020F8B5002804
:4032800027DB19490978884223DA174C05010C342168485900281CD028460C30085A009028460E300E5C401C0E5420682F1DC01900F064F800280CD12068002445590EE0D5
:4032C000094829460C300068C01900F03CF8002801D00120F8BD00982D18641CE4B2B442EED30020F8BD0000F40C002030B50D4604000BD0A800FFF789FF6060002805D005
:4033000000202570C0436080002030BD012030BD70B50D46040005D0002D03D00220205E002801DA012070BDFDF72AFF0221615E60688900405828606088401E6080FDF70E
:403340001BFF002070BD70B50D46040007D0002D05D002212078615E401E814201DB012070BDFDF70DFF6088401C00B26080616880000D50FDF700FF002070BD10B5040047
:4033800009D0227800216068FEF720F90020C0436080002010BD012010BDF0B500231D46002802D00224045F0AE00120F0BD46689F00F6598E4201D1012503E05B1CDBB214
:4033C0009C42F4DA15700020F0BD00000148007870470000080D00207CB505460024FEF72DF9A8796946087000A8062229460130FEF7E3F80021684605F01EF80C2806D0FB
:40340000072806D01F2806D0122806D006E0022404E0042402E0272400E0012420467CBD0148012141717047F415002010B500F075F9FFF7FDF9FFF701FA10BD70B5044638
:403440000025FEF7FBF8002C06D0A079012803D8214602F01BFD00E00125284670BD01460120002902D05020088000207047000001460120002905D00348542200785043AA
:4034800008800020704700000A0D002010B502460D49FE204870032410460DF02DFF002810D10DF0D1FE00280CD105F0E1FE002808D100F04FFB002804D105F08DFA00280D
:4034C00000D10024204610BD080D002070B50025044600280ED0A07901280BD8FEF7AEF8A0790028204602D003F01CF803E002F0F1FF00E00125284670BD0000014610B523
:403500000120002904D006220248FEF756F8002010BD0000140D002001460120002903D00878024908700020704700000A0D00200148007970470000F415002038B50446FC
:403540000120002C20D0617801291DD800290BD0FF25E535FEF772F80C4828180088C0B22070072803D00EE0FF25CD35F2E70020694608706846FFF775F9694608780128B7
:4035800001D108202070002038BD000000102E40014A002192681047080D002008B500226B461A7026280CD0094A342852680BD0352805D1900703D50021352005F034FF34
:4035C00008BD19462620F9E7D007F9D03420F5E7080D00200149087170470000F4150020F8B504460120002C26D06178012902D92278092A20D8002905D0FF25E535207828
:40360000092803D004E0FF25CD35F8E708202070FEF714F82078114F114E08280DD00020FFF75CF970780128207810D00D4969180880FE2070700020F8BD0120FFF74EF9FC
:403640000720B8810549203188800120F2E7B8810248217820308180EBE70000C0112E40080D002000102E4070B50E46050001D0002400E00C4C002C11D0E28A500609D5C0
:40368000D107C90F022003F027F8E08A40218843E08204E0D107C90F012003F01DF83146284602F001FD70BD54150020F8B50546002004460D4E009013E022466946284621
:4036C00000F0B2FE0098002801D00DF0F7FDA878214602F02DFBA878214602F01BFB641CE4B2308AA042E8D8F8BD00001C160020064A02235188891C89B25180814201D864
:40370000102900D953805088704700001A0D002001484078704700001A0D002038B51E4CFFF786F8042813D0052811D0062812D003282AD007280AD1002069460870024619
:403740000120FEF797FFFFF773F80128FBD138BD00F0E1FB38BD02F057FB00F0DCFB02F0B7FB8007800F0228F4D10C4841880029F0D05B21095D0029ECD101210170A07D5F
:403780000140022002F0A8FF38BD02F041FB0120FFF77EF838BD0000541500201E0D0020F8B50646002402F0F5FF0546304603F00BF803460A480021068A0DE001228A40B4
:4037C0001046174628401F40002803D0002F01D1224394B2491CC9B28E42EFD82046F8BD1C1600201CB50020694648706846FFF7A5FE01AA69460A20FEF73CFF694604209E
:4038000008561CBD70B50D4601F0BAF904000BD02079002808D0FDF711FFE178A0782A4602F0D8FC002070BD022070BD01480078704700002C1500204030C07E002800D0F7
:403840000120704700B500F001F800BD902148430749084A40186030417F491CC9B24177D289914201D300214177C8B270470000341500201C16002013B501F081F90400F9
:403880000BD001F044FE002807D0214601AA0A310620FEF7EFFE00201CBD02201CBD000010B50C4601F06CF900280AD001F02FFE002806D0224604490A20FEF7DBFE00205A
:4038C00010BD022010BD000015150020F3B581B0074601460026029802F054FF0446002F01D0002500E0154D002D21D0284601F07DF9032C04D13946029802F09FFF0646B3
:403900003846029902F006FA032C06D0002C10D00121384601F01AFB03E03146384603F029F9284602F0FEF80221284602F014F9FEBD3846029902F0EDF9FEBD5415002002
:4039400010B5044600F0D0FA002804D104F0DAF8002801D00C2010BD2078611C02F036FDFF2801D01F2010BD02F07CFDFF280AD02178621C02F064F9044821780068026BFF
:40398000601C904710BD072010BD00003C0D002010B504F0B7F8002801D00C2010BD02F0F7FC03480068C06A8047002010BD00003C0D002070B50D46044610210DF0BEFBA8
:4039C0001021601806460DF0B9FB334610221946204604F0C5F8102130460DF0AFFB02202870204604F01CFF70BD0000F8B504464078217802028006870FE0781143A67824
:403A000009050002090D0643084601F0B9F800210546F2B2002812D0002C10D0022F0ED0032F0CD0002A0AD00279092A07D0002A05D0134A5A23527E1B5C9A4207D82889CF
:403A4000002104F0E3FD20460DF038FCFF21002914D10C48224600682946436930469847C0B2FF280AD128464030817EF2B2491C8176FF232146284600F009F9F8BD000009
:403A8000EC140020580D00200020704710B5044604F038F8002801D00C2010BD2078611C02F094FCFF2808D002F0D8FB044821780068426B601C904710BD1F2010BD0000E4
:403AC0003C0D002010B500F0A9F904F085FF002010BD000010B504460F4801F041FD012817D00D4805222146AC30FDF766FD0A490522AC310846BC38FDF75FFD00F048FDC8
:403B0000054880222038C17B1143C17300F0BCF910BD3A2010BD00005415002010B5044600786178E2780843A17811430843217908436179084305D003F0D6FF002803D0F9
:403B40000C2010BD122010BD204602F0EBFC002010BD000010B5FDF72BFB02F03DFE044804F05EF802F084FB012000F003F810BDFC140020F1B586B003A8009005A80190B0
:403B800028489F22817A114081726846FDF770FD002845D169460989C90705D0224806990068C2686846904769460989890706D5002835D11D480068816A0698884700281B
:403BC0002ED11B4E0025757075737571F575357675767575B570F570B5713746F5730120CC3738731F20F880FF2130467972A0300176457603F0D4FC01F06AFC0024204659
:403C0000069901F017FC002803D1641C2406240EF5D0FD720649BD72B573C0310D600D7107B0F0BDEC140020580D00203C0D00203415002070B505460E46084602F0AAFDCD
:403C40000446304602F0C0FD0121A9400A46224001400A4301D0012070BD002070BD10B50446084602F0B0FD0121A140014201D0012010BD002010BD10B5FEF7D9FD032875
:403C800004D102F0C5F80120FEF702FE10BDFEB51C4616460F46054601F044FFA878FFF7D1FD02460190334639460094284600F00DF8002808D1A8780199FFF7D5FCFF2CFF
:403CC00002D138460DF0FAFAFEBD0000FFB585B005460E980C46FF2810D02B49C00009680A5840180179C0795278814201D9012601E09006860F6846038108E06078A178DD
:403D00008006860FE0780002014368460181284601F012FC070007D021462846079A00F023FB384609B0F0BD304600F015FC04AE0346039002AA29460096204600F00FFAD2
:403D40003C20405D002818D0284601F0F5FB012813D0684600890096C0B20190A878231DFF22079902F054F968460089039BC2B2A878079902F098FCD3E76846008900210E
:403D8000C0B20091E9E70000540D0020F8B5002600253046FFF704FD07001DD090201149704340186030447F12E0601CFDF7DAFACCB23846E040C007C00F07D02146304652
:403DC00001F0A0FF21463046FFF780FD6D1CEDB20548018AA942E8D8761C3606360ED7D0F8BD0000341500201C16002070B50024094D03E0002C01D0002000E028464121C0
:403E0000095C012901D100F068FA641C2406240EF0D000F039F870BD5415002010B502F027FA0020FFF7A6FE0DF0DEFA002010BDF8B5002403F050FB012800D10224114F79
:403E400000203E46203601230425082203E0002801D0002100E031460979002907D001290BD002290BD0114681402143CCB2401C0006000EEBD07C70F8BD1C43F7E72C437E
:403E8000F5E700003415002070B5144E0024F07BC00921D03546203503E0002C01D0002000E0284601F03EFB012814D0641C2406240EF2D0F07B4006400EF073002403E091
:403EC000002C01D0002000E0284600F006FA641C2406240EF4D0002070BD00003415002010B5FFF7A5FF10BD10B5044604F051FF002802D1601C00F001F810BD1CB5002470
:403F00000094062269460194FDF748FB002800D1122420461CBD10B5FDF773F80446FEF787FC012809D0FEF783FC022805D0FCF747FF2046FDF769F8EEE72046FDF765F801
:403F400010BD10B50B4681791943817103D08078114602F061FB10BD10B582798A43827102D1807802F06CFB10BD00000346084800B5834209D8184600F002FE002804D02A
:403F80000089984201D1012000BD002000BD0000FF0E0000074A9179491C8906890E917138220A4092014907090E1143084302490840704734150020FF0E0000C006C00E8B
:403FC00070470000F8B507460E4600240D4803E0002C01D0002500E005462979002905D0641C2406240EF3D00020F8BD0021204601F020FA2E712046FFF7CCFF28813C7052
:404000000120F8BD54150020F7B53D20405C88B015460C46002802D02878042802D200200BB0F0BD6946087200262046FFF704FC012800D00126204603A93830019100900E
:4040400023460327A17E34333246206A03F008FE02A8089900900B46019120463A4603A9243003F05DFD02466846007A2870204601F0CCF91046D3E7FFB587B00C4605467F
:404080001078694608723D20005D1746002826D000262046FFF7D0FB012800D00126204603A93830019100902346A17E34333246206A03F0D5FD02A80090291D01912046E3
:4040C0002B1D03A924300A9A03F02AFD02006846007A388002D1204601F098F910460BB0F0BDF0B505463C20405C89B016460C4600280CD0307869460873002806D0002795
:404100002046FFF799FB012803D003E01F2009B0F0BD012703200890204604A93830019100902346E17E34333A46E06903F098FD6846007B03A928180290009120462B46FC
:40414000019504A92430089A03F01EFD02466846007B3070204601F063F91046D7E7FFB505463C20405C89B016460C46002810D0084601F0E1F901280BD0308869468883AB
:40418000002809D000272046FFF756FB012805D005E000200DB0F0BD0220FBE70127204603A93830019100902346E17E34333A46E06903F055FD291D2B1D07A8129A6D461C
:4041C00007C5204603A924300C9A03F0DDFC02466846808B3080204601F022F91046D9E710B518490446484028D0002101231A468A40904221D0491C2029F8D300212046C0
:40420000C840C243520618D0400616D0491C1929F5D3A0B2210C020AC3B2884201D193420BD01F21204600F09CF9182805D8A00E062100F096F9022801D2002010BD0120A3
:4042400010BD0000D6BE898E002801D0002000E003484030C07F012800D0002070470000541500200146002049070ED50021084B03E0002901D0002200E01A461279022A76
:4042800004D0491C0906090EF3D0704701207047541500200146002049070ED50021084B03E0002901D0002200E01A461279022A04D0491C0906090EF3D07047012070470F
:4042C0005415002010B5044680346068002803D00DF008F80020606010BD38B50546002000902846FFF7A8FA01281FD1284601F00EF900281AD028792C46C01E403403001E
:40430000FDF76AFB07050511110511141100284601F018F9012806D068460CF075FF002805D0012008E060780028FAD038BD2846009902F065FD0220607038BD40308170C1
:40434000704770B50546403528780C46052904D0002C05D1801E022802D8022002F0E0FE2C7070BD0171704792001018C166704710B5002801D0002000E00348002802D08A
:40438000008904F0B7F910BD5415002010B5002801D0002000E00448002804D00179072901D100F097F810BD5415002070B5044605464034A078002805D12078012802D14B
:4043C000284601F01FFA6078012802D12846FFF784FF002070BD000070B50546008A00281ED01049F122897A1140C90618D5294640314A8A098A521C4A4392B2D10800D181
:404400000121540801E0621A94B2A042FBD9FEF7DDFF012804D1298AA878224601F080FE70BD0000EC14002010B50023054C0B60248A944204D992001018C26E0A60C3665D
:4044400010BD00001C160020FEB506460020009001908020855968460CF0D6FE002801D00720FEBD20213046009FFFF775FD34464034A08AE080608AA080208A2081304605
:4044800002F0B4FEA88C218A884207D1288A618A884203D1688AA18A884203D0F07920210843F071688AA082288A6082A88C2082E98CE182FFF71CF9E081208AFFF728F909
:4044C00060733946304602F0C3FC0120A0700198FEBD000038B5044600200090A079002814D14020015D052901D00E290ED168460CF08AFE002809D12046009902F08AFD32
:4045000003481021C28A2046FFF71BFD38BD0000EC14002010B50446807802F097FE204601F08EF9002010BD10B50B4604460146184602F0B7F9002802D020460CF0C8FE08
:4045400010BD13B5044601AA11460620FEF792F86846818861811CBD002800D102207047704770B500231A46491E0CE00446D440E507ED0F541C0646E640F407E40FA542C2
:4045800000D05B1C521C8A42F0D3D8B270BD000030B50021124C0A46A05C002308E0C50701D0491CC9B201290AD840085B1CDBB20028F4D1012903D8521CD2B2052AEBD39F
:4045C00002290BD207488118C87B0122082B03D29A400243D0B200E01043C87330BD000000160020341500207FB504468034616805460E46183108226846FCF7DEFF3146C0
:404600002031082202A8FCF7D8FF102168460CF095FD6068102108300CF090FD60682B46083024331022694603F09AFA7FBD10B504460821FFF790FC10212046FFF78CFC29
:404640002079052822D0062820D008281DD12189002003F0C1FF072020712046FFF7ECF8012819D00E212046FFF76BFE002158200155204601F06AF92046FFF723FE20463F
:40468000FFF7AAFE2046FFF791FE10BD20890122002103F085FFDEE70521E4E7FFB581B01F4604460821FFF757FC10212046FFF753FC2079082803D0092804D0042503E0FB
:4046C0000425012601E009250026204600F016FF00212046FFF735FE25712046FFF7F2FD0398002E02D0012808D00BE001280AD120890022029903F053FF04E021890298DB
:4047000003F06AFF01272046002140300176012F07D0204601F01AF92046FFF747FE05B0F0BD02990173204602F0B7FC054605480121C28A2046FFF704FC002DEFD1092081
:404740002071ECE7EC14002070B50C460546FFF773F8012809D108212846FFF7FDFB0023012221462846FFF799FF70BD10B5044600F0C4FE2046FFF7A5FD00212046FFF7F8
:40478000E0FD10BD70B505461A24FFF755F8012809D108212846FFF7DFFB0023012221462846FFF77BFF70BD38B505460021684600910CF029FD002801D00D2038BD2846F9
:4047C000009C00F0EBFE2146284602F0CDFB06480821C28A2846FFF7B4FB06212846FFF7B0FD002038BD0000EC140020F8B50446002000900E4668460CF006FD002801D0D1
:404800000D20F8BD204604213430009D00F0B3F9842000590821183000F0ADF9012E02D1204600F0BBFE2946204602F057FB06480821C28A2046FFF784FB02212046FFF723
:4048400080FD0020F8BD0000EC14002010B50446FFF7CAFE03212046FFF773FD204601F061F910BD10B50021FFF7C0FF10BD000038B504460021684600910CF0C5FC0028A7
:4048800011D12046009A00F039FE1146204602F076FB05480821C28A2046FFF752FB07212046FFF74EFD38BDEC14002038B504460021684600910CF0A7FC002810D12046DB
:4048C000009902F0DFFB07480821C28A2046FFF738FB04212046FFF734FD204601F022F938BD0000EC14002010B5FFF7A0FE10BD00787047F8B5002569460D70002801D07B
:40490000002400E01E4C002C18D0204600F0FFFD002813D0207903280BD005280CD026464036B18AA07801F06FFEB078012806D01CE0042020711CE006202071F8BD0021FC
:40494000204601F0DFFF274680373868002802D00CF0C8FC3D600020B0702046FFF726FD2079072802D12046FFF736FD20790428E4D1207A694608703420FEF70FFEF8BDB8
:404980005415002010B54C22115400F052F810BD10B50446FF21FFF7DFFA09202071A07801F058FE10BD000038B5FF216A461180002801D0002400E00B4C002C12D01146E4
:4049C0000620FDF757FE684601882046FFF7B9FD204600F0B7FD002804D104480068C1692046884738BD000054150020580D002010B504468079002809D022214C200155D4
:404A0000FF212046FFF7A8FA204600F012F810BD10B5037902464032002B03D01173092B02D003E0002100E02221117300F001F810BDFEB5044600890027009027812079C9
:404A40002646403600281AD0012818D0022816D0002002F065FB09E002AA01A9204601F00FFF002807D101980CF032FC204601F02FFF0028F0D02046FEF718FEB7762546D2
:404A800080352868002802D00CF02CFC2F606868002802D00CF026FC6F60317B002916D0009800F061F8A078002101F085F9A07801F066FAA07800F037FFFF212046FFF7E6
:404AC0004BFA0B20FFF70CFA00F0CAFDFEBD1F213173E5E7F8B517460E46054603F080F804003CD020460C3001F0F8F92046062200211830FCF76AFD20460622002112303E
:404B0000FCF764FD1648224600683946436A28469847074626702846FEF78EFE012148406070002D10D02889608028464030C1782171002E0FD169796171018AE180418A6E
:404B40002181808A608106E00648008BC005C00F2071002060803946204603F0C0FCF8BD3C0D002000102E400A4610B50146002003F0D8FD10BD10B50CF0BCF810BD000041
:404B800000B50146FFF71AFA002801D0002000E00348002802D002898A4200D0002000BD5415002038B5044680346068002806D168460CF039FB002801D10098606060687A
:404BC00038BD000010B5014600F0B6FC0128887802D0FEF73BFE10BD90214843024940186030007F10BD00003415002070B5054604464035A87F012811D1A1789020084A7C
:404C0000484380186030067F3046FFF713F8002805D10220A877A078314601F04FFA70BD3415002010B50C4CA07A002813D0FFF7ADF80A48027F417F408B00F025FD0128B1
:404C400009D10020A07201F00DF905498989090B01D000F023FB10BD0016002034150020A0102E4070477047490510B5490F0B00FCF7B2FE060704080C0C0F073E21FFF731
:404C800081FE10BD0821FFF7C3FE10BDFFF7D1FE10BDFFF7ADFE10BDF8B507460025002D01D0002600E0204E01F09CF83046403044890021418101F09FF8304600F027FC3E
:404CC00001282BD1A00702D52846FFF713FEE00602D52846FFF768FEA00601D5FFF756F8600601D500F04EFC200602D5284600F01DF8600702D5284600F036FB380402D58F
:404D00002846FFF743FB780402D52846FFF730FBE00703D021463046FFF7A6FF6D1C2D062D0EBCD0F8BD000054150020F8B5002801D0002400E0144C002C23D025464035F3
:404D4000A87801281ED1FF278820493700593E46002805D00D49897A890601D5878AC68A2046FEF769FD01280CD10096E88A2A8A3B46014602F018FAE882A2780146104644
:404D800001F088FBF8BD000054150020EC1400200149096809680847580D002070B505460088FFF7EDFE04002AD000F0B0FB002826D02079092823D0204600F0D1FB012889
:404DC00020D02046FEF738FD0646E07920210843E071204601F0AEFD002815D0294600F093FE4220005D002810D02325E079DF210840E0712946204601F0F1FD284670BD62
:404E0000022070BD3A2070BD072070BD002E05D02046FFF719FB0500E8D1EFE70C2070BD70B50E460C2500F0E7FD040012D0002522892946094803F0A5F8FF2202212046BA
:404E4000FFF748FEA07800F09BFF2046FFF7F1FD022000E000203070284670BD0E200000FEB5044600F0C8FD002801D00C20FEBD022101A8FFF7A6F8012859D16846007913
:404E8000304F002801D0002601E03E462036002E4ED000213046FFF754FA3546002040356870A8700620FFF71BF8208A6882228AE189A08902F0C6F928820246608AFF23C1
:404EC000A88249330093E18AA08A02F06DF9E882288AFEF71DFC6873288AFEF709FCE881184806228778A11DB030FCF766FB207901281FD06079E870A01D01F0FFFAFB2055
:404F0000074010488770217EC278012917D0FB210A40C2700C4821460068826830469047B178204601F038F93046FFF7F3FAFEBD0920FEBD0020E87004200743E1E7042183
:404F40000A43E6E7341500203C0D002070B50D460026194A0146002801D0002401E014462034002C26D0204600F0E6FA01280AD19020484380186030007FFEF75BFE00289D
:404F800001D102F007F80D48006881692046884700280CD020464030817EA94202D3491B817600E086762089294603F02FFB204600F0B8FD70BD000034150020580D002027
:404FC00070B503460088FFF7DBFD040013D000F09EFA00280FD02079092819D02546997840352973204602F058F80646A878012803D0AA8A02E0022070BDEA880A204243A1
:4050000001212046FEF79DFF002E01D109202071002070BD0EB5002217216B460292198100905A810120029B00990CF0FBF90EBDF8B518480024807A002822D1164E002508
:40504000B089000B22E0204600F070FF1249A039401807882A462146384600F015FB012810D00E480122478305770A4944778A72002D01D0002000E02030002801D000F0AC
:4050800051FDF8BDB089000B641CE4B20028DAD1F8BD000000160020A0102E403415002010B50446C0060ED500200B4A03E0002801D0002100E011460979022909D0401C0B
:4050C0000006000EF3D00548006881692046884710BD00F005F8F6E7541500203C0D002070B51A4D002801D0002401E02C4620342179022904D0002901D001F0ABFA70BDD6
:4051000001225B210A5500F025FF032020710820FEF7E6FE00212046FFF713F9204643300121064600F0EAFE09480068016A30468847024600212046FFF7CCFCA078FFF7FC
:4051400027FEA87B401CA87370BD0000341500203C0D002010B50C46002121700088FFF70FFD03000BD000F0D2F9002807D00948F121807A0840C00603D4112010BD022024
:4051800010BD022020701A8A1889002103F0E6FA002010BDEC14002070B50088FFF7F0FC040008D000F0B3F9002804D0E079C10903D0002070BD022070BDC1068025002900
:4051C00008DA2843E07108480221C28A2046FEF7B8FEEEE7204600F01BFA0028ECD1E1792943E17170BD0000EC140020F8B50F46002100910088FFF7C3FC040012D000F0F0
:4052000086F900280ED0E079410641D4617E02264A07002A08DB8907402500291ADA2843E07135E00220F8BD02F0DAFC0021017021894180A1898180217E4170E189C1802A
:405240003E7005460178134802F05CFF284603F029FA1DE0204600F075F9012806D068460BF0D2FF002803D00720F8BD2A20F8BDE07900992843E071204601F037FF607E67
:405280000421304360760448C28A2046FEF759FE0020F8BD1D040000EC1400203EB500220F236C460292238100910190628169460EC900200CF0B6F83EBD0000F8B50446A8
:4052C000002000902088FFF75BFC05001AD0FEF7B3FA002812D02348807AC00710D0284600F015F900280DD0287903280CD004280AD0072808D009282AD103E00C20F8BD4C
:405300001120F8BD0220F8BD2F464037387801281ED02846FFF746FC06001BD00822211DFCF74BF93046A1782030017261881022090A417221460C311838FCF73EF9B87846
:40534000002809D001212846FEF7FBFF0098F8BD0D20F8BD0720F8BD284600F053FA0090F8BD0000EC14002010B5002801D0002400E00B4C002C11D02146403148780228AA
:4053800001D100204870A07DC107C90F002001F0A3F92046FFF70AF8FEF728FD10BD00005415002070B503460D460088FFF7E8FB04000BD000F0ABF8002807D01248F1210C
:4053C000807A0840C00603D4112070BD022070BD20464030418A008A491C41430804C10C5888884201D2122070BD20822079072802D12046FEF7F0FF02202870208900214D
:4054000003F0D4F9002070BDEC140020016A491C016204D1817E491C4906490E81767047C169491CC16104D1C17E491C4906490EC1767047F0B5064687B003A8009005A8B1
:4054400000270D460190002E01D0002400E01C4C002C05D06846FCF70BF9002803D00BE0022007B0F0BD68460089C00704D1902200212046FCF7AAF81248294600688268E8
:4054800020469047050018D1A6706776277100212046FEF756FF204600F030F8204601F013FA094820825E2007550848F121807A084000D001202075E782E8B2D1E70000D1
:4054C00054150020580D0020B80B0000EC14002010B50020074B084AFF2119541418401CC0B221740428F8D31F2119541018017410BD0000001600203415002000210162E5
:405500008176C161C17620300177417770470079002805D0012803D0022801D0012070470020704740304078012803D0022801D000207047012070474030807F002800D093
:405540000120704740300078002807D0012805D0052803D00E2801D00120704700207047074A0146927B0020002A07D040314A78022A02D08978012900D1012070470000ED
:405580003415002010B500F06DFC03498989090B01D0FFF783FE10BDA0102E4070B5054604464035A87F002825D1FF206075A0789021154A484380186030417F9023491CA4
:4055C000C9B24177A0785843104B8018DB896030994201D300214177A0789021484380186030467F0677A1783046FEF723FB002802D00120A87770BD0220A877A0783146BF
:4056000000F05CFD70BD0000341500201C16002038B5002105460091FFF794FF012806D068460BF0F1FD002803D0072038BD2A2038BD2846009CFEF7FFF800280BD021467A
:40564000284601F073FC05480221C28A2846FEF778FC002038BD112038BD0000EC14002070B50024074D03E0002C01D0002000E02846FEF79BFE641C2406240EF4D0002035
:4056800070BD000054150020F0B515468207920F85B0000A02926A469080002D01D0002400E0564C002C28D0084600F03FFC07466846808800280BD00298012843D0022830
:4056C00041D003280BD03D20005D012879D08FE04B48381801882046FEF733FF88E00020029002A80BF070FD002807D03D20005D012802D12046FFF789FE7CE06846029E91
:405700008388324600213846FCF7DEFE3C48381801882046FEF715FF284600F03BFB01AA21463046FEF770FC002806D030460BF0BBFD3D204C21085531E0F5773146204687
:4057400001F096F957E0002000902089039068460BF02AFD002802D0002005B0F0BD6846009E8388321D00213846FCF7ADFE2448381801882046FEF7E4FE284600F00AFB72
:405780002046FFF7C4FE002805D025464035287E002810D107E030460BF07CFD2BE02046FFF7F6F827E001AA21463046029BFEF763FC002806D030460BF06CFD3D202873C9
:4057C000EDE712E00298FEF7CBFE0399317003990001090A0143717068468088B070000AF0703046FFF716FC05E02046FFF70EFE284600F0CFFA0120AFE700005415002007
:4058000000102E4070B501790546032904D0042904D0072908D109E0052400E006240121FEF7E4FF002805D00D2070BD0824FEF7BBFFF7E7284600F075F92C71002070BD1A
:40584000FEB5064602F0CCF9044602F0C2F9074602F0B5F9054602F0C7F9029002F0D6F901902570280A6070280CA070280E3546E0704035687B20716771380AA071380C79
:40588000E071A87B2072E8892549000A6072287CA072288A0522000AE072A87C2073688A000A6073287DA073A88A000AE073204610300091FBF781FE0027F770B078009978
:4058C00000F0DCFE777101984101029867750143A175080AE07503E0298A49004018308000F0CEFA3188042200F060FB01283088F2D00C4F38801821204600F035FCA88A73
:40590000298AC000FBF72EFD3881B07800F022FAE98AB07800F0BEFD00F028FAFEBD00004415002000122E4010B5074A917B002901D0491E91730021FFF77CFD002801D0CE
:40594000002010BD012010BD34150020F8B5074606464037B87F00282DD0B078902100904843234945186035287F0099FEF777F901281ED0287F401CC4B21E48C089A042B2
:4059800000D800240020B877FF276F772F77A87702460146009800F007FD717DFF2903D0304600F052FF777501F0F4FA0025114F19E00320B877F8BD0020009022466946F9
:4059C0003046FEF731FD0099002904D0FF231A463046FEF75CF9641CF889E4B2A04200D800246D1CEDB2F889A842E5D8F8BD0000341500201C16002000B5022000F002F840
:405A000000BD000010B502460021084B03E0002901D0002000E018460479944204D0491C0906090EF3D0002010BD000054150020F7B50646087982B00C46092807D0A078E5
:405A4000F0770846FFF778FD012806D010E030460BF03EFC022005B0F0BDA1789020294A484380186030007FFEF7E4F8012810D0A078FEF7E9FB01280BD037780121304664
:405A800001F0A8F925462035062F38D00B2F0FD107E06846027C21463046FEF745FD0D20D9E72046FDF7C8FE012801D1002028772046FFF787F8054604AA21463046FEF7A9
:405AC00010FB01205F2108556946097C002001910090A07833463A46294600F099FA69460A7CA0780323294600F0DEFDA0782946FDF7BAFD30460BF0EBFB0020ABE701201B
:405B0000D5E70000341500208A8802804A884280CA8882800A89C2808A890281498941817047000010B502464032937F0021002B03D1927E002A00D00121064A927A002AAB
:405B400000D000210279092A00D10121807800F0E3FD10BD0016002070470000094B022809D0042809D008280AD10648A03002820448A83003E0382000E05020C018018000
:405B80007047000000102E40014908817047000000102E4010B50446FF20F130022C02D0042C05D102E0FF20D93001E0FF20DD30002200F0D3FD044A108A044980B2A04310
:405BC0000880108210BD000000102E40220D0020034B198A034A89B2814311801982704700102E40220D002010B50446022804D0042C05D0082C07D10EE0FF20D93001E0EF
:405C0000FF20DD3000F0A2FD0548018A054A89B221431180018210BDFF20F130F2E7000000102E40220D0020034B198A034A89B2014311801982704700102E40220D0020AF
:405C4000F8B505460120A84086B214460F46012231467C2000F082FD3A463146782000F07DFD6078267800020643E078A2780002024360792379000203430C2045430D2086
:405C800080010549281844182680001D44182280001D40180380F8BD00102E40401880B270470000CB065B0E0343480901021943D00108430121C90208430149088170473E
:405CC00080142E404278037812021343084A1382C37880781B021843908248780B78000203431383C8788978000201439183704700142E40024A1080000C90801181704729
:405D000000142E40024A10820148803081817047A0102E4010B5054A1082084600F042FD024A0021A03A8018018010BDA0102E4010B50B46044600F005F819462046FFF7BD
:405D4000E1FF10BD024A10820148803001817047A0102E4010B504490882FF20012220211D3000F0FBFC10BDA0102E4000B50349442008800420FFF757FF00BD00102E4072
:405D80000349088202494520A039088070470000A0102E40000202494D3008807047000000102E40034A1082024880308088401880B27047A0102E4010B5084B074C0202F1
:405DC000A03B0029208202D075321A8010BD04490020088088807632F7E70000A0102E40201A2E4000B5034908884880FFF7F0FE00BD0000220D002000B502484088FFF7CE
:405E000013FF00BD220D002010B5FCF7FBFC10BD014952200880704700102E40884201D8081A03E00022D243101A401880B2704710B50B4602460021F820FCF745FB10BD6E
:405E40000748808806492039098B884201D8081A03E00022D243101A401880B27047000020112E400148008AC0B27047A0102E40024908820148803080887047A0102E40E1
:405E80000148008970470000C0102E4000280FD00D4A108B0870000A4870908B8870000AC8700948203000880871000A48717047064A10880870000A487090888870000A3B
:405EC000C8701089F0E7000040102E40C0112E400148008A70470000001A2E40064B1A8999891B8A0270120A42708170090AC1700371190A4171704760102E40012904D0DF
:405F00000549098BC90B017070470349403109898907C90FF7E7000000102E40024800884005C00F70470000001F2E4001484089704700001C160020044A10820448028974
:405F400080894843101880B270470000A0102E401C16002000B5084908829021074B4143C918FF2260314A770A7700228A77114600F01AFA00BD0000A0102E40341500205E
:405F800090225043074A10B58018FF21603041770177002181770448418EFF201D3000F0D5FB10BD34150020EC14002010B50023884201D8081A03E00024E443201A4018EB
:405FC000044980B2884201D8824200D90123184610BD0000FF7F000070B55478157824022543D47888232602947834435679127936023243002900D098230449088203488A
:40600000A038181805808480028170BDA0102E40FFB581B014460D4607460A9E0B9BFFF78BFF002E0AD0009333460021049AFCF7C3FA05484019C45505B0F0BD0021049AF1
:40604000FCF7A0FAF5E70000260D002070B502460448054D808808242C800B460021FCF791FA70BD1C160020A0142E4010B52124024664010449532008801023002120462F
:40608000FCF780FA10BD000000102E40417802780902044B0A431A83C1788078090208439883704760142E40034A1082802001430148803001817047A0102E40054A108282
:4060C000044A6032908B0009000108439115084390837047A0102E4030B500210F4B0A46012809D0032802D005280AD107E04021198102210A2204E004210C2201E0042152
:406100000D221882054C20342088C0B205460D42FAD022800021198230BD000080142E4010B5044607480482074801808280032189030820FFF758FD200202497530A03962
:40614000088010BDA0102E40201A2E40054A1082044A60321183000202494B30A039088070470000A0102E40024610B50B460F2000218001FCF706FA10BD0000054A491E0C
:406180001082044A60321183000202494C30A03908807047A0102E40017E012901D9012101764279C9B253000B430179CA001A4310210A4303490A8102880A80408888800D
:4061C0007047000040102E400148008B70470000E0102E408823002900D09823084908820748A038191808881070000A507088889070000AD07008891071000A50717047E7
:40620000A0102E4010B51446024606480B46C0880021FCF79DF9012C02D103495420088010BD00001C16002000102E40064A11880170090A417091888170090AC1700349AB
:40624000542008807047000080142E4000102E400148008B70470000E0102E400121814010B589B200227C2000F078FA10BD0000FEB53F210220FFF78DFC1F210420FFF724
:4062800089FCFF210820FFF785FC3020FFF7A0FC3748802101803748374D00784007400F022860D001285DD100202880002211460320FCF7DFF9314E3148F18D0183318E6D
:4062C00081832F4F002420372948A0300482308F38822046FFF754FE641C2406240EF3D0B08F38832548103000F0F4F8716930690191009069464879C021084369464871F8
:40630000684600F00FF900F043F81C48184C40304188A03421838188A183C1881448C0308180708E38801748002606823E20FFF77BFC0F4853210180134A072111835421E8
:4063400001808115A1810E4940318E815B210180084800784007400F022806D0012801D10A482880FEBD03209FE70848C01CF8E700102E401C160020001F2E40EC140020D1
:40638000C0112E40001A2E4080142E40E0230000044800218183018302497420603908807047000060102E40074B1882064B6033988B00090001084399158843002A01D1CA
:4063C0001021484098837047A0102E40F3B50D2284B0920100924A780B78120213430393CA788B78120213434A790979FF20120211431A4A8C46918B9E460291118B01910D
:406400001649742260390A80154900220F7821E00121124B9140009C603BE3181D8889B21C881B88039E6E407546654064462E435C4026430CD1029B194209D00199D1406B
:40644000CB070499DB0F8B4202D1104606B0F0BD521CD2B29742DBD8F8E7000060102E402C15002030B50949FF208C8B084A00210125137805E02A468A40224204D0491C81
:40648000C9B28B42F7D830BD084630BD60102E402C150020024A10820148603081817047A0102E4010B5044C208204488180028183815143018210BDA0102E40A0132E4022
:4064C000034B1882024820388180028070470000A0102E404178027809020A4306490A80C2788378120213438B804279007912021043088170470000C0112E40417802785F
:4065000009020A4306490A81C2788378120213438B81427900791202104308827047000060102E40417802780902084B0A431A83C178827809020A439A8341790079090263
:4065400008430249203108807047000040102E404178027809020A4306498A80C2788378120213430B814279007912021043888170470000001F2E4010B5002220213020C8
:4065800000F0ECF805494320088000F0A5FFC007FBD10220FFF71CFB10BD000000102E4010B590B0044640216846FFF741FC00210A4AC94311830220FFF736FB6278202123
:4065C000302000F0CBF8054942202039088000F083FFC007FBD010B010BD000020102E4001794279490011438279D2000A43FF2101310A4303490A8202880A81408888818F
:406600007047000020102E40024A10820148603081807047A0102E4010B5044688000521FAF7A0FE04490C8204498880200202497230A039088010BDA0102E40001A2E4019
:4066400003490882000202497330A03908807047A0102E4003490882000202497030A03908807047A0102E4003490882000202497130A03908807047A0102E40094A108246
:4066800048780A7800020243064820380281CA788B781202134383814A7909791202114301827047A0102E40F8B505461C4617460E46084600F076F8054AB90021431582B6
:4066C000034AA03A80180180024880194455F8BDA0102E402B0D002030B50E4C238A01251A46012804D0022804D000290BD00CE02A430AE0002908D12A4322825008400054
:4067000020821A4601E05A0852009A4200D0228230BD0000001A2E40054A1082044A6032908B4023984389010143918370470000A0102E40044A118A0223002801D01943C9
:4067400000E0994311827047001A2E40024A801802880A430280704700102E4070B5084BC5182C880023080003D104E040085B1C9BB2C607FAD08C439A4022432A8070BDA5
:4067800000102E40024A1018405C8007800F70472B0D0020024908820148803080897047A0102E408000FF3041307047044B02461B8AFF208B4202D902484018805C70476B
:4067C0001C160020260D0020024908820148803000897047A0102E40174902460B680020002B08D10A605207520F012A04D0022A10D0086012207047112292018A80CA80EF
:40680000032252020A810122D2024A8140228A8105220DE0092252028A80CA80012252030A810322D2024A81012252028A810422CA810A82704700001C1600200A4600B5EA
:4068400001461046FFF7B2FF00BD38B50C4605460021684600910AF0D7FC002804D1009928464C7000F035FC38BD10B5044680780021FFF70FFE01212046FFF76DF910BDAE
:40688000436E002B0CD00B60014660318B781370826E4266CA788A700021816608467047FF20704710B50346446E6033002C04D0846E002C04D0FF2010BD41669A7001E0DD
:4068C0008166DA70002010BD0021416681667047406E002801D000207047FF20704770B50446C0790E461546C1090AD04006400EE07101F075F9067021894180856001F0CA
:40690000A4FE70BD70B50446C0790D46810610D5DF210840E07101F063F90570218941804034218A8180618AC180A18A018101F0A9FD70BD38B54221095C044680340029C2
:406940000FD1206800280CD168460AF06DFC002807D1009800212060C1812068418520684180206838BD000001480078704700005016002010B50446FEF7DEFD01280AD129
:40698000A1789020054A484380186030007FFDF751F9012801D000F0FDFA10BD3415002070477047704770B506460446403630780D46022812D18420005908222030691CDE
:4069C000FAF7FBFD29462046042209313830FAF7F4FD2046FDF73AFF0120307670BD70B50E4605462021FDF7B7FA2C4680342068002803D00AF076FC002020603146284664
:406A0000FFF780FF00212846FDF798FC2846FDF7CDFC002070BD704770B50D4604460221FDF79AFA2046FCF707FF012805D009222421204600F010FB70BD0C486978807AA4
:406A40006A1C0840F12108402075607E082108436076E079EF210840E07100212046FFF73EFF2046FDF7A2FC70BD0000EC140020F3B581B005460298FDF73AFF044628468D
:406A8000FEF745FD002854D0162C04D32846029900F033F94DE02E4640363078002700900300FAF799FF0E1B1B1B08081B1B1B0808080808081B02982C4A01780020135CF0
:406AC0008B4201D1012702E0401C0728F7D3F07E002801D1072901D0002F03D00098022815D02AE0A878FFF7B5FD002301223D212846FDF7D3FD3D2030732846FFF7B5FEC7
:406B000002980AF0D1FB2846FDF793FFFEBDFFF72BFF002811D1042C0FD00D2C0DD0112C0BD0202212480299FAF747FD012000F0F7FA02980AF0B8FBFEBDA0000B4C0299DD
:406B4000083422582846904702980AF0ADFBFFF70BFF0228F0D10648054900788000225828469047002000F0DBFAFEBD743501003016002070B50D460021002801D000243A
:406B800000E00C4C002C14D020464030C177807F032802D12046FEF7D9FE2046FFF7EAFE162D04D20449A800095820468847FEF757FD70BD54150020D435010010B5044650
:406BC000FCF73AFE012802D100202034207710BD10B5014640310C460978062903D1FDF747FE0120207610BD10B5044640300078072805D12046FEF781FC2046FDF732FE28
:406C000010BD000038B5044600220E4800920D46807AF1210840C0060ED52046FEF792FC012809D068460AF0EFFA002803D12046009900F0FBF938BD2946204600F05DF88C
:406C400038BD0000EC14002010B51021FDF784F910BD10B54978FDF777FD10BD704710B54021095C032901D1FDF720FE10BD10B54021095C042901D1FDF736FE10BD10B5AD
:406C80000446FCF7D9FD012801D12034607710BD70B5044600790D46052803D0062801D0082802D12046FDF761FD68784C21085509212046FDF756FB2046FFF7D6FD2046C5
:406CC000FCF7BAFD0128A07805D0FFF7C3FC2046FEF728FF70BDFFF7C7FCF8E710B50446FF21FDF739F916214C200155A078FFF7B1FC2046FEF716FF10BD70B50C460546D0
:406D0000FEF71AFC002802D02078687570BD21782846FFF79AFD70BD70B5054648780C46032802D12846FDF72DFD6078122803D110212846FDF710F9034821460068426899
:406D40002846904770BD0000580D0020704738B5044600200D46009004212046FDF7FCF868782076E8780002A081A9780843A08168790002E08129790843E081607E04219D
:406D80000843607680070CD468460AF03DFA00281ED12046009900F0A9F9607E022108436076E079410613D5BF210840E07100F017FF00210090017021894180A1898180E3
:406DC000217E4170E189C18001F06CFCFEF748FC38BD7047704770B50446C07815460A4600280AD00020E070C1B2A078FFF7F4F8A0782946FFF7AAF970BD0120F3E700002A
:406E0000F8B5064601200C460870104905220F46601CFAF7D2FB5220805B0A21401C484381B2B078FEF7BEFF0546A071000AE071082231462046FEF7FBFD040004D12A46FF
:406E400039463046FFF7C7FF2046F8BD441500207CB50646803005680C46B078FFF708F8014630464E30009001AB2A46304600F010FAB078FEF7FCFF69468988FEF7CEFFD2
:406E80000020354620704035687B6070A87BA070E8896946000AE070287C2071288A0C22000A6071A87CA071688A000AE071287D2072A88A000A60728888A072000AE0729D
:406EC00031462046FEF7B4FD040005D1684681880122304600F03AF920467CBD70B5054603200C4608702E4680360822601C7168FAF763FB706808222030017A6172407A74
:406F0000A0727168204618310B30FAF756FB29462046042234311330FAF74FFB172229462046FEF785FD002070BD000070B505460C46C07910210843E871082020700246BA
:406F40000021601CFAF742FB0648F122817A11406170C07AA070092229462046FEF768FD002070BDEC1400200B4610B501460A20187001221846FEF75BFD002010BD0B469C
:406F800010B501460B20187001221846FEF750FD002010BDFEB500241D4F03E0002C01D0002600E03E463046FFF792FC00282AD15F20805D002826D16A4601A93046FFF757
:406FC0005FFC00281FD101980578002D09D0012D0CD069460A783146FEF72AFD022D0AD011E001463046FFF733FF0CE001463046FFF706FF07E0B0780121FFF78DFB0921D8
:407000003046FDF7AFF9641C2406240EC6D0FEBD5415002010B50B46122119708178D977014601221846FEF703FD10BD10B50B46132119708178D97706490989C90603D143
:40704000C18A40221143C182014601221846FEF7EFFC10BD20112E4038B50546002000900C4668460AF0D0F8002801D0072038BD00980D210170447002222946FEF7D8FCB2
:40708000002038BD0B4610B501460620187001221846FEF7CDFC002010BD38B505460020009068460AF0B0F8002801D01F2038BD009C022020704C20405D6070A878E07781
:4070C0002846FFF7D2FB022229462046FEF7B0FC38BD10B50B46072119708178D977014602221846FEF7A4FC002010BD10B50B460A49044608880C221A704A795A709870E5
:40710000000AD870C8881871000A5871062221461846FEF78DFC002010BD0000EC140020094A1178002906D0012909D0022908D1002807D001E0012804D00021002900D000
:40714000107070470121F9E75016002070B5044640340E460546E289617B8078FFF7B0F9E388A08A984200D90346628A218AA878FFF798F9E089E188C0080A30081881B2FA
:407180001920C001814200D90146A878FFF73CFAA8783146FEF7F2FFA87DC107C90F0220FFF79AFA70BD000070B5049E00F06EF804460C485500C08CC007002800D1ACB211
:4071C0009819FF302D300849FAF7CCF8401C80B2281AA04200DA84B2002C00D10124204670BD0000EC14002071020000F8B5FF268821493609583546002905D0104A927A08
:40720000920601D58E8ACD8AFFF794FB044682880188408800F016F8A084009565890246218933462846FFF7BFFFE084E0886082A08820826088E0812088A081F8BD0000D6
